{
  "_format": "hh-sol-artifact-1",
  "contractName": "DonorContract",
  "sourceName": "contracts/DonorContract.sol",
  "abi": [
    {
      "inputs": [],
      "stateMutability": "nonpayable",
      "type": "constructor"
    },
    {
      "anonymous": false,
      "inputs": [
        {
          "indexed": true,
          "internalType": "address",
          "name": "donorAddress",
          "type": "address"
        },
        {
          "indexed": false,
          "internalType": "string",
          "name": "medicalID",
          "type": "string"
        }
      ],
      "name": "DonorRegistered",
      "type": "event"
    },
    {
      "anonymous": false,
      "inputs": [
        {
          "indexed": true,
          "internalType": "address",
          "name": "donorAddress",
          "type": "address"
        }
      ],
      "name": "DonorRejected",
      "type": "event"
    },
    {
      "anonymous": false,
      "inputs": [
        {
          "indexed": true,
          "internalType": "address",
          "name": "donorAddress",
          "type": "address"
        }
      ],
      "name": "DonorVerified",
      "type": "event"
    },
    {
      "anonymous": false,
      "inputs": [
        {
          "indexed": true,
          "internalType": "address",
          "name": "donorAddress",
          "type": "address"
        },
        {
          "indexed": true,
          "internalType": "address",
          "name": "patientAddress",
          "type": "address"
        },
        {
          "indexed": false,
          "internalType": "string",
          "name": "organ",
          "type": "string"
        }
      ],
      "name": "MatchFound",
      "type": "event"
    },
    {
      "anonymous": false,
      "inputs": [
        {
          "indexed": true,
          "internalType": "address",
          "name": "patientAddress",
          "type": "address"
        },
        {
          "indexed": false,
          "internalType": "string",
          "name": "medicalID",
          "type": "string"
        }
      ],
      "name": "PatientRegistered",
      "type": "event"
    },
    {
      "anonymous": false,
      "inputs": [
        {
          "indexed": true,
          "internalType": "address",
          "name": "patientAddress",
          "type": "address"
        }
      ],
      "name": "PatientRejected",
      "type": "event"
    },
    {
      "anonymous": false,
      "inputs": [
        {
          "indexed": true,
          "internalType": "address",
          "name": "patientAddress",
          "type": "address"
        }
      ],
      "name": "PatientVerified",
      "type": "event"
    },
    {
      "anonymous": false,
      "inputs": [
        {
          "indexed": true,
          "internalType": "bytes32",
          "name": "role",
          "type": "bytes32"
        },
        {
          "indexed": true,
          "internalType": "bytes32",
          "name": "previousAdminRole",
          "type": "bytes32"
        },
        {
          "indexed": true,
          "internalType": "bytes32",
          "name": "newAdminRole",
          "type": "bytes32"
        }
      ],
      "name": "RoleAdminChanged",
      "type": "event"
    },
    {
      "anonymous": false,
      "inputs": [
        {
          "indexed": true,
          "internalType": "bytes32",
          "name": "role",
          "type": "bytes32"
        },
        {
          "indexed": true,
          "internalType": "address",
          "name": "account",
          "type": "address"
        },
        {
          "indexed": true,
          "internalType": "address",
          "name": "sender",
          "type": "address"
        }
      ],
      "name": "RoleGranted",
      "type": "event"
    },
    {
      "anonymous": false,
      "inputs": [
        {
          "indexed": true,
          "internalType": "bytes32",
          "name": "role",
          "type": "bytes32"
        },
        {
          "indexed": true,
          "internalType": "address",
          "name": "account",
          "type": "address"
        },
        {
          "indexed": true,
          "internalType": "address",
          "name": "sender",
          "type": "address"
        }
      ],
      "name": "RoleRevoked",
      "type": "event"
    },
    {
      "inputs": [],
      "name": "ADMIN_ROLE",
      "outputs": [
        {
          "internalType": "bytes32",
          "name": "",
          "type": "bytes32"
        }
      ],
      "stateMutability": "view",
      "type": "function"
    },
    {
      "inputs": [],
      "name": "DEFAULT_ADMIN_ROLE",
      "outputs": [
        {
          "internalType": "bytes32",
          "name": "",
          "type": "bytes32"
        }
      ],
      "stateMutability": "view",
      "type": "function"
    },
    {
      "inputs": [],
      "name": "MEDICAL_PRO_ROLE",
      "outputs": [
        {
          "internalType": "bytes32",
          "name": "",
          "type": "bytes32"
        }
      ],
      "stateMutability": "view",
      "type": "function"
    },
    {
      "inputs": [
        {
          "internalType": "string",
          "name": "medicalID",
          "type": "string"
        },
        {
          "internalType": "string",
          "name": "organ",
          "type": "string"
        },
        {
          "internalType": "string",
          "name": "city",
          "type": "string"
        },
        {
          "internalType": "string",
          "name": "region",
          "type": "string"
        },
        {
          "internalType": "string",
          "name": "country",
          "type": "string"
        }
      ],
      "name": "addDonor",
      "outputs": [],
      "stateMutability": "nonpayable",
      "type": "function"
    },
    {
      "inputs": [
        {
          "internalType": "address",
          "name": "proAddress",
          "type": "address"
        },
        {
          "internalType": "string",
          "name": "name",
          "type": "string"
        }
      ],
      "name": "addMedicalProfessional",
      "outputs": [],
      "stateMutability": "nonpayable",
      "type": "function"
    },
    {
      "inputs": [
        {
          "internalType": "string",
          "name": "medicalID",
          "type": "string"
        },
        {
          "internalType": "string",
          "name": "organNeeded",
          "type": "string"
        },
        {
          "internalType": "string",
          "name": "city",
          "type": "string"
        },
        {
          "internalType": "string",
          "name": "region",
          "type": "string"
        },
        {
          "internalType": "string",
          "name": "country",
          "type": "string"
        },
        {
          "internalType": "enum DonorContract.UrgencyLevel",
          "name": "urgency",
          "type": "uint8"
        }
      ],
      "name": "addPatient",
      "outputs": [],
      "stateMutability": "nonpayable",
      "type": "function"
    },
    {
      "inputs": [
        {
          "internalType": "address",
          "name": "donorAddr",
          "type": "address"
        }
      ],
      "name": "getDonorByAddress",
      "outputs": [
        {
          "components": [
            {
              "internalType": "address",
              "name": "donorAddress",
              "type": "address"
            },
            {
              "internalType": "string",
              "name": "medicalID",
              "type": "string"
            },
            {
              "internalType": "string",
              "name": "organ",
              "type": "string"
            },
            {
              "components": [
                {
                  "internalType": "string",
                  "name": "city",
                  "type": "string"
                },
                {
                  "internalType": "string",
                  "name": "region",
                  "type": "string"
                },
                {
                  "internalType": "string",
                  "name": "country",
                  "type": "string"
                }
              ],
              "internalType": "struct DonorContract.Location",
              "name": "location",
              "type": "tuple"
            },
            {
              "internalType": "enum DonorContract.VerificationStatus",
              "name": "status",
              "type": "uint8"
            },
            {
              "internalType": "uint256",
              "name": "registrationTime",
              "type": "uint256"
            },
            {
              "internalType": "enum DonorContract.BadgeType",
              "name": "badge",
              "type": "uint8"
            }
          ],
          "internalType": "struct DonorContract.Donor",
          "name": "",
          "type": "tuple"
        }
      ],
      "stateMutability": "view",
      "type": "function"
    },
    {
      "inputs": [
        {
          "internalType": "address",
          "name": "patientAddr",
          "type": "address"
        }
      ],
      "name": "getPatientByAddress",
      "outputs": [
        {
          "components": [
            {
              "internalType": "address",
              "name": "patientAddress",
              "type": "address"
            },
            {
              "internalType": "string",
              "name": "medicalID",
              "type": "string"
            },
            {
              "internalType": "string",
              "name": "organNeeded",
              "type": "string"
            },
            {
              "components": [
                {
                  "internalType": "string",
                  "name": "city",
                  "type": "string"
                },
                {
                  "internalType": "string",
                  "name": "region",
                  "type": "string"
                },
                {
                  "internalType": "string",
                  "name": "country",
                  "type": "string"
                }
              ],
              "internalType": "struct DonorContract.Location",
              "name": "location",
              "type": "tuple"
            },
            {
              "internalType": "enum DonorContract.UrgencyLevel",
              "name": "urgency",
              "type": "uint8"
            },
            {
              "internalType": "enum DonorContract.VerificationStatus",
              "name": "status",
              "type": "uint8"
            },
            {
              "internalType": "uint256",
              "name": "registrationTime",
              "type": "uint256"
            }
          ],
          "internalType": "struct DonorContract.Patient",
          "name": "",
          "type": "tuple"
        }
      ],
      "stateMutability": "view",
      "type": "function"
    },
    {
      "inputs": [
        {
          "internalType": "bytes32",
          "name": "role",
          "type": "bytes32"
        }
      ],
      "name": "getRoleAdmin",
      "outputs": [
        {
          "internalType": "bytes32",
          "name": "",
          "type": "bytes32"
        }
      ],
      "stateMutability": "view",
      "type": "function"
    },
    {
      "inputs": [
        {
          "internalType": "bytes32",
          "name": "role",
          "type": "bytes32"
        },
        {
          "internalType": "address",
          "name": "account",
          "type": "address"
        }
      ],
      "name": "grantRole",
      "outputs": [],
      "stateMutability": "nonpayable",
      "type": "function"
    },
    {
      "inputs": [
        {
          "internalType": "bytes32",
          "name": "role",
          "type": "bytes32"
        },
        {
          "internalType": "address",
          "name": "account",
          "type": "address"
        }
      ],
      "name": "hasRole",
      "outputs": [
        {
          "internalType": "bool",
          "name": "",
          "type": "bool"
        }
      ],
      "stateMutability": "view",
      "type": "function"
    },
    {
      "inputs": [
        {
          "internalType": "string[]",
          "name": "organs",
          "type": "string[]"
        },
        {
          "internalType": "uint256[]",
          "name": "times",
          "type": "uint256[]"
        }
      ],
      "name": "initializeOrganViabilityTimes",
      "outputs": [],
      "stateMutability": "nonpayable",
      "type": "function"
    },
    {
      "inputs": [],
      "name": "matchDonorsAndPatients",
      "outputs": [],
      "stateMutability": "nonpayable",
      "type": "function"
    },
    {
      "inputs": [
        {
          "internalType": "string",
          "name": "",
          "type": "string"
        }
      ],
      "name": "organViabilityTimes",
      "outputs": [
        {
          "internalType": "uint256",
          "name": "",
          "type": "uint256"
        }
      ],
      "stateMutability": "view",
      "type": "function"
    },
    {
      "inputs": [
        {
          "internalType": "address",
          "name": "donorAddr",
          "type": "address"
        }
      ],
      "name": "rejectDonor",
      "outputs": [],
      "stateMutability": "nonpayable",
      "type": "function"
    },
    {
      "inputs": [
        {
          "internalType": "address",
          "name": "patientAddr",
          "type": "address"
        }
      ],
      "name": "rejectPatient",
      "outputs": [],
      "stateMutability": "nonpayable",
      "type": "function"
    },
    {
      "inputs": [
        {
          "internalType": "address",
          "name": "proAddress",
          "type": "address"
        }
      ],
      "name": "removeMedicalProfessional",
      "outputs": [],
      "stateMutability": "nonpayable",
      "type": "function"
    },
    {
      "inputs": [
        {
          "internalType": "bytes32",
          "name": "role",
          "type": "bytes32"
        },
        {
          "internalType": "address",
          "name": "account",
          "type": "address"
        }
      ],
      "name": "renounceRole",
      "outputs": [],
      "stateMutability": "nonpayable",
      "type": "function"
    },
    {
      "inputs": [
        {
          "internalType": "bytes32",
          "name": "role",
          "type": "bytes32"
        },
        {
          "internalType": "address",
          "name": "account",
          "type": "address"
        }
      ],
      "name": "revokeRole",
      "outputs": [],
      "stateMutability": "nonpayable",
      "type": "function"
    },
    {
      "inputs": [
        {
          "internalType": "bytes4",
          "name": "interfaceId",
          "type": "bytes4"
        }
      ],
      "name": "supportsInterface",
      "outputs": [
        {
          "internalType": "bool",
          "name": "",
          "type": "bool"
        }
      ],
      "stateMutability": "view",
      "type": "function"
    },
    {
      "inputs": [
        {
          "internalType": "address",
          "name": "donorAddr",
          "type": "address"
        }
      ],
      "name": "verifyDonor",
      "outputs": [],
      "stateMutability": "nonpayable",
      "type": "function"
    },
    {
      "inputs": [
        {
          "internalType": "address",
          "name": "patientAddr",
          "type": "address"
        }
      ],
      "name": "verifyPatient",
      "outputs": [],
      "stateMutability": "nonpayable",
      "type": "function"
    }
  ],
  "bytecode": "0x60806040523480156200001157600080fd5b50620000276000801b336200005f60201b60201c565b620000597fa49807205ce4d355092ef5a8a18f56e8913cf4a201fbe287825b095693c21775336200005f60201b60201c565b620001d8565b6200007182826200007560201b60201c565b5050565b6200008782826200016660201b60201c565b6200016257600160008084815260200190815260200160002060000160008373ffffffffffffffffffffffffffffffffffffffff1673ffffffffffffffffffffffffffffffffffffffff16815260200190815260200160002060006101000a81548160ff02191690831515021790555062000107620001d060201b60201c565b73ffffffffffffffffffffffffffffffffffffffff168173ffffffffffffffffffffffffffffffffffffffff16837f2f8788117e7eff1d82e926ec794901d17c78024a50270940304540a733656f0d60405160405180910390a45b5050565b600080600084815260200190815260200160002060000160008373ffffffffffffffffffffffffffffffffffffffff1673ffffffffffffffffffffffffffffffffffffffff16815260200190815260200160002060009054906101000a900460ff16905092915050565b600033905090565b6142d080620001e86000396000f3fe608060405234801561001057600080fd5b50600436106101425760003560e01c80638cd19dd8116100b8578063ba5c03351161007c578063ba5c03351461035d578063c756d5a71461038d578063cc1e343d146103a9578063d547741f146103c5578063e58f0227146103e1578063ef33a897146103fd57610142565b80638cd19dd8146102a757806391d14854146102d75780639ebfe01814610307578063a217fddf14610323578063a74f09201461034157610142565b80632cc5329a1161010a5780632cc5329a146101fb5780632f2ff15d1461022b57806336568abe146102475780634959a52f14610263578063506af7e21461026d57806375b238fc1461028957610142565b806301ffc9a7146101475780631414f2fd14610177578063248a9ca31461019357806326a9c754146101c35780632c9365fa146101df575b600080fd5b610161600480360381019061015c9190612c2e565b61041b565b60405161016e9190612c76565b60405180910390f35b610191600480360381019061018c9190612dd7565b610495565b005b6101ad60048036038101906101a89190612f14565b610908565b6040516101ba9190612f50565b60405180910390f35b6101dd60048036038101906101d8919061314a565b610927565b005b6101f960048036038101906101f49190613220565b610a4f565b005b61021560048036038101906102109190613220565b610cc5565b60405161022291906134b1565b60405180910390f35b610245600480360381019061024091906134d3565b6110e2565b005b610261600480360381019061025c91906134d3565b611103565b005b61026b611186565b005b61028760048036038101906102829190613220565b6111f1565b005b610291611466565b60405161029e9190612f50565b60405180910390f35b6102c160048036038101906102bc9190613513565b61148a565b6040516102ce919061356b565b60405180910390f35b6102f160048036038101906102ec91906134d3565b6114b8565b6040516102fe9190612c76565b60405180910390f35b610321600480360381019061031c9190613220565b611522565b005b61032b611613565b6040516103389190612f50565b60405180910390f35b61035b60048036038101906103569190613220565b61161a565b005b61037760048036038101906103729190613220565b61188f565b6040516103849190613678565b60405180910390f35b6103a760048036038101906103a29190613220565b611cac565b005b6103c360048036038101906103be919061369a565b611f22565b005b6103df60048036038101906103da91906134d3565b6120ac565b005b6103fb60048036038101906103f6919061371b565b6120cd565b005b610405612540565b6040516104129190612f50565b60405180910390f35b60007f7965db0b000000000000000000000000000000000000000000000000000000007bffffffffffffffffffffffffffffffffffffffffffffffffffffffff1916827bffffffffffffffffffffffffffffffffffffffffffffffffffffffff1916148061048e575061048d82612564565b5b9050919050565b600073ffffffffffffffffffffffffffffffffffffffff16600160003373ffffffffffffffffffffffffffffffffffffffff1673ffffffffffffffffffffffffffffffffffffffff16815260200190815260200160002060000160009054906101000a900473ffffffffffffffffffffffffffffffffffffffff1673ffffffffffffffffffffffffffffffffffffffff1614610566576040517f08c379a000000000000000000000000000000000000000000000000000000000815260040161055d90613891565b60405180910390fd5b6000604051806060016040528085815260200184815260200183815250905060006040518060e001604052803373ffffffffffffffffffffffffffffffffffffffff168152602001888152602001878152602001838152602001600060028111156105d4576105d3613339565b5b8152602001428152602001600060028111156105f3576105f2613339565b5b815250905080600160003373ffffffffffffffffffffffffffffffffffffffff1673ffffffffffffffffffffffffffffffffffffffff16815260200190815260200160002060008201518160000160006101000a81548173ffffffffffffffffffffffffffffffffffffffff021916908373ffffffffffffffffffffffffffffffffffffffff16021790555060208201518160010190816106949190613abd565b5060408201518160020190816106aa9190613abd565b5060608201518160030160008201518160000190816106c99190613abd565b5060208201518160010190816106df9190613abd565b5060408201518160020190816106f59190613abd565b50505060808201518160060160006101000a81548160ff0219169083600281111561072357610722613339565b5b021790555060a0820151816007015560c08201518160080160006101000a81548160ff0219169083600281111561075d5761075c613339565b5b0217905550905050806002886040516107769190613bcb565b908152602001604051809103902060008201518160000160006101000a81548173ffffffffffffffffffffffffffffffffffffffff021916908373ffffffffffffffffffffffffffffffffffffffff16021790555060208201518160010190816107e09190613abd565b5060408201518160020190816107f69190613abd565b5060608201518160030160008201518160000190816108159190613abd565b50602082015181600101908161082b9190613abd565b5060408201518160020190816108419190613abd565b50505060808201518160060160006101000a81548160ff0219169083600281111561086f5761086e613339565b5b021790555060a0820151816007015560c08201518160080160006101000a81548160ff021916908360028111156108a9576108a8613339565b5b02179055509050503373ffffffffffffffffffffffffffffffffffffffff167ff6bba8a2d47514955cc8e64ea9127b51d5615832d1fbd20ec40275f0876cfcbf886040516108f79190613c1b565b60405180910390a250505050505050565b6000806000838152602001908152602001600020600101549050919050565b6109517fa49807205ce4d355092ef5a8a18f56e8913cf4a201fbe287825b095693c21775336114b8565b610990576040517f08c379a000000000000000000000000000000000000000000000000000000000815260040161098790613c89565b60405180910390fd5b80518251146109d4576040517f08c379a00000000000000000000000000000000000000000000000000000000081526004016109cb90613cf5565b60405180910390fd5b60005b8251811015610a4a578181815181106109f3576109f2613d15565b5b60200260200101516006848381518110610a1057610a0f613d15565b5b6020026020010151604051610a259190613bcb565b9081526020016040518091039020819055508080610a4290613d73565b9150506109d7565b505050565b610a797f3d996811b6c57808d2ab4085610e72112b731add711039f190aa101456aa1cc0336114b8565b610ab8576040517f08c379a0000000000000000000000000000000000000000000000000000000008152600401610aaf90613e2d565b60405180910390fd5b600073ffffffffffffffffffffffffffffffffffffffff16600360008373ffffffffffffffffffffffffffffffffffffffff1673ffffffffffffffffffffffffffffffffffffffff16815260200190815260200160002060000160009054906101000a900473ffffffffffffffffffffffffffffffffffffffff1673ffffffffffffffffffffffffffffffffffffffff1603610b89576040517f08c379a0000000000000000000000000000000000000000000000000000000008152600401610b8090613e99565b60405180910390fd5b6002600360008373ffffffffffffffffffffffffffffffffffffffff1673ffffffffffffffffffffffffffffffffffffffff16815260200190815260200160002060060160016101000a81548160ff02191690836002811115610bef57610bee613339565b5b021790555060026004600360008473ffffffffffffffffffffffffffffffffffffffff1673ffffffffffffffffffffffffffffffffffffffff168152602001908152602001600020600101604051610c479190613f3c565b908152602001604051809103902060060160016101000a81548160ff02191690836002811115610c7a57610c79613339565b5b02179055508073ffffffffffffffffffffffffffffffffffffffff167f167bbda895efdc29117ad9a9bf9887d286681297abf886ea5a21738dc776196360405160405180910390a250565b610ccd612aa7565b600160008373ffffffffffffffffffffffffffffffffffffffff1673ffffffffffffffffffffffffffffffffffffffff1681526020019081526020016000206040518060e00160405290816000820160009054906101000a900473ffffffffffffffffffffffffffffffffffffffff1673ffffffffffffffffffffffffffffffffffffffff1673ffffffffffffffffffffffffffffffffffffffff168152602001600182018054610d7d906138e0565b80601f0160208091040260200160405190810160405280929190818152602001828054610da9906138e0565b8015610df65780601f10610dcb57610100808354040283529160200191610df6565b820191906000526020600020905b815481529060010190602001808311610dd957829003601f168201915b50505050508152602001600282018054610e0f906138e0565b80601f0160208091040260200160405190810160405280929190818152602001828054610e3b906138e0565b8015610e885780601f10610e5d57610100808354040283529160200191610e88565b820191906000526020600020905b815481529060010190602001808311610e6b57829003601f168201915b5050505050815260200160038201604051806060016040529081600082018054610eb1906138e0565b80601f0160208091040260200160405190810160405280929190818152602001828054610edd906138e0565b8015610f2a5780601f10610eff57610100808354040283529160200191610f2a565b820191906000526020600020905b815481529060010190602001808311610f0d57829003601f168201915b50505050508152602001600182018054610f43906138e0565b80601f0160208091040260200160405190810160405280929190818152602001828054610f6f906138e0565b8015610fbc5780601f10610f9157610100808354040283529160200191610fbc565b820191906000526020600020905b815481529060010190602001808311610f9f57829003601f168201915b50505050508152602001600282018054610fd5906138e0565b80601f0160208091040260200160405190810160405280929190818152602001828054611001906138e0565b801561104e5780601f106110235761010080835404028352916020019161104e565b820191906000526020600020905b81548152906001019060200180831161103157829003601f168201915b50505050508152505081526020016006820160009054906101000a900460ff1660028111156110805761107f613339565b5b600281111561109257611091613339565b5b8152602001600782015481526020016008820160009054906101000a900460ff1660028111156110c5576110c4613339565b5b60028111156110d7576110d6613339565b5b815250509050919050565b6110eb82610908565b6110f4816125ce565b6110fe83836125e2565b505050565b61110b6126c2565b73ffffffffffffffffffffffffffffffffffffffff168173ffffffffffffffffffffffffffffffffffffffff1614611178576040517f08c379a000000000000000000000000000000000000000000000000000000000815260040161116f90613fc5565b60405180910390fd5b61118282826126ca565b5050565b6111b07f3d996811b6c57808d2ab4085610e72112b731add711039f190aa101456aa1cc0336114b8565b6111ef576040517f08c379a00000000000000000000000000000000000000000000000000000000081526004016111e690613e2d565b60405180910390fd5b565b61121b7f3d996811b6c57808d2ab4085610e72112b731add711039f190aa101456aa1cc0336114b8565b61125a576040517f08c379a000000000000000000000000000000000000000000000000000000000815260040161125190613e2d565b60405180910390fd5b600073ffffffffffffffffffffffffffffffffffffffff16600160008373ffffffffffffffffffffffffffffffffffffffff1673ffffffffffffffffffffffffffffffffffffffff16815260200190815260200160002060000160009054906101000a900473ffffffffffffffffffffffffffffffffffffffff1673ffffffffffffffffffffffffffffffffffffffff160361132b576040517f08c379a000000000000000000000000000000000000000000000000000000000815260040161132290614031565b60405180910390fd5b60018060008373ffffffffffffffffffffffffffffffffffffffff1673ffffffffffffffffffffffffffffffffffffffff16815260200190815260200160002060060160006101000a81548160ff021916908360028111156113905761138f613339565b5b021790555060016002600160008473ffffffffffffffffffffffffffffffffffffffff1673ffffffffffffffffffffffffffffffffffffffff1681526020019081526020016000206001016040516113e89190613f3c565b908152602001604051809103902060060160006101000a81548160ff0219169083600281111561141b5761141a613339565b5b02179055508073ffffffffffffffffffffffffffffffffffffffff167f7fcf85ab81e2edb7164631e63960326e5607c9c7fa788d1572ea3984fb943ff060405160405180910390a250565b7fa49807205ce4d355092ef5a8a18f56e8913cf4a201fbe287825b095693c2177581565b6006818051602081018201805184825260208301602085012081835280955050505050506000915090505481565b600080600084815260200190815260200160002060000160008373ffffffffffffffffffffffffffffffffffffffff1673ffffffffffffffffffffffffffffffffffffffff16815260200190815260200160002060009054906101000a900460ff16905092915050565b61154c7fa49807205ce4d355092ef5a8a18f56e8913cf4a201fbe287825b095693c21775336114b8565b61158b576040517f08c379a000000000000000000000000000000000000000000000000000000000815260040161158290613c89565b60405180910390fd5b6000600560008373ffffffffffffffffffffffffffffffffffffffff1673ffffffffffffffffffffffffffffffffffffffff16815260200190815260200160002060020160006101000a81548160ff0219169083151502179055506116107f3d996811b6c57808d2ab4085610e72112b731add711039f190aa101456aa1cc0826120ac565b50565b6000801b81565b6116447f3d996811b6c57808d2ab4085610e72112b731add711039f190aa101456aa1cc0336114b8565b611683576040517f08c379a000000000000000000000000000000000000000000000000000000000815260040161167a90613e2d565b60405180910390fd5b600073ffffffffffffffffffffffffffffffffffffffff16600160008373ffffffffffffffffffffffffffffffffffffffff1673ffffffffffffffffffffffffffffffffffffffff16815260200190815260200160002060000160009054906101000a900473ffffffffffffffffffffffffffffffffffffffff1673ffffffffffffffffffffffffffffffffffffffff1603611754576040517f08c379a000000000000000000000000000000000000000000000000000000000815260040161174b90614031565b60405180910390fd5b6002600160008373ffffffffffffffffffffffffffffffffffffffff1673ffffffffffffffffffffffffffffffffffffffff16815260200190815260200160002060060160006101000a81548160ff021916908360028111156117ba576117b9613339565b5b0217905550600280600160008473ffffffffffffffffffffffffffffffffffffffff1673ffffffffffffffffffffffffffffffffffffffff1681526020019081526020016000206001016040516118119190613f3c565b908152602001604051809103902060060160006101000a81548160ff0219169083600281111561184457611843613339565b5b02179055508073ffffffffffffffffffffffffffffffffffffffff167f6eec7c65c0ec059fb7a62c934d9e457bd69ddb64f1289863203546252f538ec660405160405180910390a250565b611897612b24565b600360008373ffffffffffffffffffffffffffffffffffffffff1673ffffffffffffffffffffffffffffffffffffffff1681526020019081526020016000206040518060e00160405290816000820160009054906101000a900473ffffffffffffffffffffffffffffffffffffffff1673ffffffffffffffffffffffffffffffffffffffff1673ffffffffffffffffffffffffffffffffffffffff168152602001600182018054611947906138e0565b80601f0160208091040260200160405190810160405280929190818152602001828054611973906138e0565b80156119c05780601f10611995576101008083540402835291602001916119c0565b820191906000526020600020905b8154815290600101906020018083116119a357829003601f168201915b505050505081526020016002820180546119d9906138e0565b80601f0160208091040260200160405190810160405280929190818152602001828054611a05906138e0565b8015611a525780601f10611a2757610100808354040283529160200191611a52565b820191906000526020600020905b815481529060010190602001808311611a3557829003601f168201915b5050505050815260200160038201604051806060016040529081600082018054611a7b906138e0565b80601f0160208091040260200160405190810160405280929190818152602001828054611aa7906138e0565b8015611af45780601f10611ac957610100808354040283529160200191611af4565b820191906000526020600020905b815481529060010190602001808311611ad757829003601f168201915b50505050508152602001600182018054611b0d906138e0565b80601f0160208091040260200160405190810160405280929190818152602001828054611b39906138e0565b8015611b865780601f10611b5b57610100808354040283529160200191611b86565b820191906000526020600020905b815481529060010190602001808311611b6957829003601f168201915b50505050508152602001600282018054611b9f906138e0565b80601f0160208091040260200160405190810160405280929190818152602001828054611bcb906138e0565b8015611c185780601f10611bed57610100808354040283529160200191611c18565b820191906000526020600020905b815481529060010190602001808311611bfb57829003601f168201915b50505050508152505081526020016006820160009054906101000a900460ff166003811115611c4a57611c49613339565b5b6003811115611c5c57611c5b613339565b5b81526020016006820160019054906101000a900460ff166002811115611c8557611c84613339565b5b6002811115611c9757611c96613339565b5b81526020016007820154815250509050919050565b611cd67f3d996811b6c57808d2ab4085610e72112b731add711039f190aa101456aa1cc0336114b8565b611d15576040517f08c379a0000000000000000000000000000000000000000000000000000000008152600401611d0c90613e2d565b60405180910390fd5b600073ffffffffffffffffffffffffffffffffffffffff16600360008373ffffffffffffffffffffffffffffffffffffffff1673ffffffffffffffffffffffffffffffffffffffff16815260200190815260200160002060000160009054906101000a900473ffffffffffffffffffffffffffffffffffffffff1673ffffffffffffffffffffffffffffffffffffffff1603611de6576040517f08c379a0000000000000000000000000000000000000000000000000000000008152600401611ddd90613e99565b60405180910390fd5b6001600360008373ffffffffffffffffffffffffffffffffffffffff1673ffffffffffffffffffffffffffffffffffffffff16815260200190815260200160002060060160016101000a81548160ff02191690836002811115611e4c57611e4b613339565b5b021790555060016004600360008473ffffffffffffffffffffffffffffffffffffffff1673ffffffffffffffffffffffffffffffffffffffff168152602001908152602001600020600101604051611ea49190613f3c565b908152602001604051809103902060060160016101000a81548160ff02191690836002811115611ed757611ed6613339565b5b02179055508073ffffffffffffffffffffffffffffffffffffffff167f4bd79aa5b1d12530ab28ff9e594e33215eb3f438567371e28b534f56291912aa60405160405180910390a250565b611f4c7fa49807205ce4d355092ef5a8a18f56e8913cf4a201fbe287825b095693c21775336114b8565b611f8b576040517f08c379a0000000000000000000000000000000000000000000000000000000008152600401611f8290613c89565b60405180910390fd5b60405180606001604052808373ffffffffffffffffffffffffffffffffffffffff16815260200182815260200160011515815250600560008473ffffffffffffffffffffffffffffffffffffffff1673ffffffffffffffffffffffffffffffffffffffff16815260200190815260200160002060008201518160000160006101000a81548173ffffffffffffffffffffffffffffffffffffffff021916908373ffffffffffffffffffffffffffffffffffffffff160217905550602082015181600101908161205a9190613abd565b5060408201518160020160006101000a81548160ff0219169083151502179055509050506120a87f3d996811b6c57808d2ab4085610e72112b731add711039f190aa101456aa1cc0836127ab565b5050565b6120b582610908565b6120be816125ce565b6120c883836126ca565b505050565b600073ffffffffffffffffffffffffffffffffffffffff16600360003373ffffffffffffffffffffffffffffffffffffffff1673ffffffffffffffffffffffffffffffffffffffff16815260200190815260200160002060000160009054906101000a900473ffffffffffffffffffffffffffffffffffffffff1673ffffffffffffffffffffffffffffffffffffffff161461219e576040517f08c379a00000000000000000000000000000000000000000000000000000000081526004016121959061409d565b60405180910390fd5b6000604051806060016040528086815260200185815260200184815250905060006040518060e001604052803373ffffffffffffffffffffffffffffffffffffffff16815260200189815260200188815260200183815260200184600381111561220b5761220a613339565b5b81526020016000600281111561222457612223613339565b5b815260200142815250905080600360003373ffffffffffffffffffffffffffffffffffffffff1673ffffffffffffffffffffffffffffffffffffffff16815260200190815260200160002060008201518160000160006101000a81548173ffffffffffffffffffffffffffffffffffffffff021916908373ffffffffffffffffffffffffffffffffffffffff16021790555060208201518160010190816122cb9190613abd565b5060408201518160020190816122e19190613abd565b5060608201518160030160008201518160000190816123009190613abd565b5060208201518160010190816123169190613abd565b50604082015181600201908161232c9190613abd565b50505060808201518160060160006101000a81548160ff0219169083600381111561235a57612359613339565b5b021790555060a08201518160060160016101000a81548160ff0219169083600281111561238a57612389613339565b5b021790555060c08201518160070155905050806004896040516123ad9190613bcb565b908152602001604051809103902060008201518160000160006101000a81548173ffffffffffffffffffffffffffffffffffffffff021916908373ffffffffffffffffffffffffffffffffffffffff16021790555060208201518160010190816124179190613abd565b50604082015181600201908161242d9190613abd565b50606082015181600301600082015181600001908161244c9190613abd565b5060208201518160010190816124629190613abd565b5060408201518160020190816124789190613abd565b50505060808201518160060160006101000a81548160ff021916908360038111156124a6576124a5613339565b5b021790555060a08201518160060160016101000a81548160ff021916908360028111156124d6576124d5613339565b5b021790555060c082015181600701559050503373ffffffffffffffffffffffffffffffffffffffff167fc85b128388b9c331a2a5485dce4cd0f3db9f7c279d327ce95d6d39d6c94644c78960405161252e9190613c1b565b60405180910390a25050505050505050565b7f3d996811b6c57808d2ab4085610e72112b731add711039f190aa101456aa1cc081565b60007f01ffc9a7000000000000000000000000000000000000000000000000000000007bffffffffffffffffffffffffffffffffffffffffffffffffffffffff1916827bffffffffffffffffffffffffffffffffffffffffffffffffffffffff1916149050919050565b6125df816125da6126c2565b6127b9565b50565b6125ec82826114b8565b6126be57600160008084815260200190815260200160002060000160008373ffffffffffffffffffffffffffffffffffffffff1673ffffffffffffffffffffffffffffffffffffffff16815260200190815260200160002060006101000a81548160ff0219169083151502179055506126636126c2565b73ffffffffffffffffffffffffffffffffffffffff168173ffffffffffffffffffffffffffffffffffffffff16837f2f8788117e7eff1d82e926ec794901d17c78024a50270940304540a733656f0d60405160405180910390a45b5050565b600033905090565b6126d482826114b8565b156127a757600080600084815260200190815260200160002060000160008373ffffffffffffffffffffffffffffffffffffffff1673ffffffffffffffffffffffffffffffffffffffff16815260200190815260200160002060006101000a81548160ff02191690831515021790555061274c6126c2565b73ffffffffffffffffffffffffffffffffffffffff168173ffffffffffffffffffffffffffffffffffffffff16837ff6391f5c32d9c69d2a47ea670b442974b53935d1edc7fd64eb21e047a839171b60405160405180910390a45b5050565b6127b582826125e2565b5050565b6127c382826114b8565b61283a576127d08161283e565b6127de8360001c602061286b565b6040516020016127ef929190614155565b6040516020818303038152906040526040517f08c379a00000000000000000000000000000000000000000000000000000000081526004016128319190613c1b565b60405180910390fd5b5050565b60606128648273ffffffffffffffffffffffffffffffffffffffff16601460ff1661286b565b9050919050565b60606000600283600261287e919061418f565b61288891906141d1565b67ffffffffffffffff8111156128a1576128a0612cac565b5b6040519080825280601f01601f1916602001820160405280156128d35781602001600182028036833780820191505090505b5090507f30000000000000000000000000000000000000000000000000000000000000008160008151811061290b5761290a613d15565b5b60200101907effffffffffffffffffffffffffffffffffffffffffffffffffffffffffffff1916908160001a9053507f78000000000000000000000000000000000000000000000000000000000000008160018151811061296f5761296e613d15565b5b60200101907effffffffffffffffffffffffffffffffffffffffffffffffffffffffffffff1916908160001a905350600060018460026129af919061418f565b6129b991906141d1565b90505b6001811115612a59577f3031323334353637383961626364656600000000000000000000000000000000600f8616601081106129fb576129fa613d15565b5b1a60f81b828281518110612a1257612a11613d15565b5b60200101907effffffffffffffffffffffffffffffffffffffffffffffffffffffffffffff1916908160001a905350600485901c945080612a5290614205565b90506129bc565b5060008414612a9d576040517f08c379a0000000000000000000000000000000000000000000000000000000008152600401612a949061427a565b60405180910390fd5b8091505092915050565b6040518060e00160405280600073ffffffffffffffffffffffffffffffffffffffff1681526020016060815260200160608152602001612ae5612ba1565b815260200160006002811115612afe57612afd613339565b5b81526020016000815260200160006002811115612b1e57612b1d613339565b5b81525090565b6040518060e00160405280600073ffffffffffffffffffffffffffffffffffffffff1681526020016060815260200160608152602001612b62612ba1565b815260200160006003811115612b7b57612b7a613339565b5b815260200160006002811115612b9457612b93613339565b5b8152602001600081525090565b60405180606001604052806060815260200160608152602001606081525090565b6000604051905090565b600080fd5b600080fd5b60007fffffffff0000000000000000000000000000000000000000000000000000000082169050919050565b612c0b81612bd6565b8114612c1657600080fd5b50565b600081359050612c2881612c02565b92915050565b600060208284031215612c4457612c43612bcc565b5b6000612c5284828501612c19565b91505092915050565b60008115159050919050565b612c7081612c5b565b82525050565b6000602082019050612c8b6000830184612c67565b92915050565b600080fd5b600080fd5b6000601f19601f8301169050919050565b7f4e487b7100000000000000000000000000000000000000000000000000000000600052604160045260246000fd5b612ce482612c9b565b810181811067ffffffffffffffff82111715612d0357612d02612cac565b5b80604052505050565b6000612d16612bc2565b9050612d228282612cdb565b919050565b600067ffffffffffffffff821115612d4257612d41612cac565b5b612d4b82612c9b565b9050602081019050919050565b82818337600083830152505050565b6000612d7a612d7584612d27565b612d0c565b905082815260208101848484011115612d9657612d95612c96565b5b612da1848285612d58565b509392505050565b600082601f830112612dbe57612dbd612c91565b5b8135612dce848260208601612d67565b91505092915050565b600080600080600060a08688031215612df357612df2612bcc565b5b600086013567ffffffffffffffff811115612e1157612e10612bd1565b5b612e1d88828901612da9565b955050602086013567ffffffffffffffff811115612e3e57612e3d612bd1565b5b612e4a88828901612da9565b945050604086013567ffffffffffffffff811115612e6b57612e6a612bd1565b5b612e7788828901612da9565b935050606086013567ffffffffffffffff811115612e9857612e97612bd1565b5b612ea488828901612da9565b925050608086013567ffffffffffffffff811115612ec557612ec4612bd1565b5b612ed188828901612da9565b9150509295509295909350565b6000819050919050565b612ef181612ede565b8114612efc57600080fd5b50565b600081359050612f0e81612ee8565b92915050565b600060208284031215612f2a57612f29612bcc565b5b6000612f3884828501612eff565b91505092915050565b612f4a81612ede565b82525050565b6000602082019050612f656000830184612f41565b92915050565b600067ffffffffffffffff821115612f8657612f85612cac565b5b602082029050602081019050919050565b600080fd5b6000612faf612faa84612f6b565b612d0c565b90508083825260208201905060208402830185811115612fd257612fd1612f97565b5b835b8181101561301957803567ffffffffffffffff811115612ff757612ff6612c91565b5b8086016130048982612da9565b85526020850194505050602081019050612fd4565b5050509392505050565b600082601f83011261303857613037612c91565b5b8135613048848260208601612f9c565b91505092915050565b600067ffffffffffffffff82111561306c5761306b612cac565b5b602082029050602081019050919050565b6000819050919050565b6130908161307d565b811461309b57600080fd5b50565b6000813590506130ad81613087565b92915050565b60006130c66130c184613051565b612d0c565b905080838252602082019050602084028301858111156130e9576130e8612f97565b5b835b8181101561311257806130fe888261309e565b8452602084019350506020810190506130eb565b5050509392505050565b600082601f83011261313157613130612c91565b5b81356131418482602086016130b3565b91505092915050565b6000806040838503121561316157613160612bcc565b5b600083013567ffffffffffffffff81111561317f5761317e612bd1565b5b61318b85828601613023565b925050602083013567ffffffffffffffff8111156131ac576131ab612bd1565b5b6131b88582860161311c565b9150509250929050565b600073ffffffffffffffffffffffffffffffffffffffff82169050919050565b60006131ed826131c2565b9050919050565b6131fd816131e2565b811461320857600080fd5b50565b60008135905061321a816131f4565b92915050565b60006020828403121561323657613235612bcc565b5b60006132448482850161320b565b91505092915050565b613256816131e2565b82525050565b600081519050919050565b600082825260208201905092915050565b60005b8381101561329657808201518184015260208101905061327b565b60008484015250505050565b60006132ad8261325c565b6132b78185613267565b93506132c7818560208601613278565b6132d081612c9b565b840191505092915050565b600060608301600083015184820360008601526132f882826132a2565b9150506020830151848203602086015261331282826132a2565b9150506040830151848203604086015261332c82826132a2565b9150508091505092915050565b7f4e487b7100000000000000000000000000000000000000000000000000000000600052602160045260246000fd5b6003811061337957613378613339565b5b50565b600081905061338a82613368565b919050565b600061339a8261337c565b9050919050565b6133aa8161338f565b82525050565b6133b98161307d565b82525050565b600381106133d0576133cf613339565b5b50565b60008190506133e1826133bf565b919050565b60006133f1826133d3565b9050919050565b613401816133e6565b82525050565b600060e08301600083015161341f600086018261324d565b506020830151848203602086015261343782826132a2565b9150506040830151848203604086015261345182826132a2565b9150506060830151848203606086015261346b82826132db565b915050608083015161348060808601826133a1565b5060a083015161349360a08601826133b0565b5060c08301516134a660c08601826133f8565b508091505092915050565b600060208201905081810360008301526134cb8184613407565b905092915050565b600080604083850312156134ea576134e9612bcc565b5b60006134f885828601612eff565b92505060206135098582860161320b565b9150509250929050565b60006020828403121561352957613528612bcc565b5b600082013567ffffffffffffffff81111561354757613546612bd1565b5b61355384828501612da9565b91505092915050565b6135658161307d565b82525050565b6000602082019050613580600083018461355c565b92915050565b6004811061359757613596613339565b5b50565b60008190506135a882613586565b919050565b60006135b88261359a565b9050919050565b6135c8816135ad565b82525050565b600060e0830160008301516135e6600086018261324d565b50602083015184820360208601526135fe82826132a2565b9150506040830151848203604086015261361882826132a2565b9150506060830151848203606086015261363282826132db565b915050608083015161364760808601826135bf565b5060a083015161365a60a08601826133a1565b5060c083015161366d60c08601826133b0565b508091505092915050565b6000602082019050818103600083015261369281846135ce565b905092915050565b600080604083850312156136b1576136b0612bcc565b5b60006136bf8582860161320b565b925050602083013567ffffffffffffffff8111156136e0576136df612bd1565b5b6136ec85828601612da9565b9150509250929050565b6004811061370357600080fd5b50565b600081359050613715816136f6565b92915050565b60008060008060008060c0878903121561373857613737612bcc565b5b600087013567ffffffffffffffff81111561375657613755612bd1565b5b61376289828a01612da9565b965050602087013567ffffffffffffffff81111561378357613782612bd1565b5b61378f89828a01612da9565b955050604087013567ffffffffffffffff8111156137b0576137af612bd1565b5b6137bc89828a01612da9565b945050606087013567ffffffffffffffff8111156137dd576137dc612bd1565b5b6137e989828a01612da9565b935050608087013567ffffffffffffffff81111561380a57613809612bd1565b5b61381689828a01612da9565b92505060a061382789828a01613706565b9150509295509295509295565b600082825260208201905092915050565b7f446f6e6f7220616c726561647920726567697374657265640000000000000000600082015250565b600061387b601883613834565b915061388682613845565b602082019050919050565b600060208201905081810360008301526138aa8161386e565b9050919050565b7f4e487b7100000000000000000000000000000000000000000000000000000000600052602260045260246000fd5b600060028204905060018216806138f857607f821691505b60208210810361390b5761390a6138b1565b5b50919050565b60008190508160005260206000209050919050565b60006020601f8301049050919050565b600082821b905092915050565b6000600883026139737fffffffffffffffffffffffffffffffffffffffffffffffffffffffffffffffff82613936565b61397d8683613936565b95508019841693508086168417925050509392505050565b6000819050919050565b60006139ba6139b56139b08461307d565b613995565b61307d565b9050919050565b6000819050919050565b6139d48361399f565b6139e86139e0826139c1565b848454613943565b825550505050565b600090565b6139fd6139f0565b613a088184846139cb565b505050565b5b81811015613a2c57613a216000826139f5565b600181019050613a0e565b5050565b601f821115613a7157613a4281613911565b613a4b84613926565b81016020851015613a5a578190505b613a6e613a6685613926565b830182613a0d565b50505b505050565b600082821c905092915050565b6000613a9460001984600802613a76565b1980831691505092915050565b6000613aad8383613a83565b9150826002028217905092915050565b613ac68261325c565b67ffffffffffffffff811115613adf57613ade612cac565b5b613ae982546138e0565b613af4828285613a30565b600060209050601f831160018114613b275760008415613b15578287015190505b613b1f8582613aa1565b865550613b87565b601f198416613b3586613911565b60005b82811015613b5d57848901518255600182019150602085019450602081019050613b38565b86831015613b7a5784890151613b76601f891682613a83565b8355505b6001600288020188555050505b505050505050565b600081905092915050565b6000613ba58261325c565b613baf8185613b8f565b9350613bbf818560208601613278565b80840191505092915050565b6000613bd78284613b9a565b915081905092915050565b6000613bed8261325c565b613bf78185613834565b9350613c07818560208601613278565b613c1081612c9b565b840191505092915050565b60006020820190508181036000830152613c358184613be2565b905092915050565b7f5265737472696374656420746f2061646d696e73000000000000000000000000600082015250565b6000613c73601483613834565b9150613c7e82613c3d565b602082019050919050565b60006020820190508181036000830152613ca281613c66565b9050919050565b7f417272617973206c656e677468206d69736d6174636800000000000000000000600082015250565b6000613cdf601683613834565b9150613cea82613ca9565b602082019050919050565b60006020820190508181036000830152613d0e81613cd2565b9050919050565b7f4e487b7100000000000000000000000000000000000000000000000000000000600052603260045260246000fd5b7f4e487b7100000000000000000000000000000000000000000000000000000000600052601160045260246000fd5b6000613d7e8261307d565b91507fffffffffffffffffffffffffffffffffffffffffffffffffffffffffffffffff8203613db057613daf613d44565b5b600182019050919050565b7f5265737472696374656420746f206d65646963616c2070726f66657373696f6e60008201527f616c730000000000000000000000000000000000000000000000000000000000602082015250565b6000613e17602383613834565b9150613e2282613dbb565b604082019050919050565b60006020820190508181036000830152613e4681613e0a565b9050919050565b7f50617469656e74206e6f7420666f756e64000000000000000000000000000000600082015250565b6000613e83601183613834565b9150613e8e82613e4d565b602082019050919050565b60006020820190508181036000830152613eb281613e76565b9050919050565b60008154613ec6816138e0565b613ed08186613b8f565b94506001821660008114613eeb5760018114613f0057613f33565b60ff1983168652811515820286019350613f33565b613f0985613911565b60005b83811015613f2b57815481890152600182019150602081019050613f0c565b838801955050505b50505092915050565b6000613f488284613eb9565b915081905092915050565b7f416363657373436f6e74726f6c3a2063616e206f6e6c792072656e6f756e636560008201527f20726f6c657320666f722073656c660000000000000000000000000000000000602082015250565b6000613faf602f83613834565b9150613fba82613f53565b604082019050919050565b60006020820190508181036000830152613fde81613fa2565b9050919050565b7f446f6e6f72206e6f7420666f756e640000000000000000000000000000000000600082015250565b600061401b600f83613834565b915061402682613fe5565b602082019050919050565b6000602082019050818103600083015261404a8161400e565b9050919050565b7f50617469656e7420616c72656164792072656769737465726564000000000000600082015250565b6000614087601a83613834565b915061409282614051565b602082019050919050565b600060208201905081810360008301526140b68161407a565b9050919050565b7f416363657373436f6e74726f6c3a206163636f756e7420000000000000000000600082015250565b60006140f3601783613b8f565b91506140fe826140bd565b601782019050919050565b7f206973206d697373696e6720726f6c6520000000000000000000000000000000600082015250565b600061413f601183613b8f565b915061414a82614109565b601182019050919050565b6000614160826140e6565b915061416c8285613b9a565b915061417782614132565b91506141838284613b9a565b91508190509392505050565b600061419a8261307d565b91506141a58361307d565b92508282026141b38161307d565b915082820484148315176141ca576141c9613d44565b5b5092915050565b60006141dc8261307d565b91506141e78361307d565b92508282019050808211156141ff576141fe613d44565b5b92915050565b60006142108261307d565b91506000820361422357614222613d44565b5b600182039050919050565b7f537472696e67733a20686578206c656e67746820696e73756666696369656e74600082015250565b6000614264602083613834565b915061426f8261422e565b602082019050919050565b6000602082019050818103600083015261429381614257565b905091905056fea264697066735822122075fe7b2770262b006b9a4b4ebc0b7529e5352c3654966ecd5c522bf678a9030664736f6c63430008140033",
  "linkReferences": {},
  "deployedLinkReferences": {}
}