{
  "_format": "hh-sol-artifact-1",
  "contractName": "DonorLegacyNFT",
  "sourceName": "contracts/DonorLegacyNFT.sol",
  "abi": [
    {
      "inputs": [],
      "stateMutability": "nonpayable",
      "type": "constructor"
    },
    {
      "anonymous": false,
      "inputs": [
        {
          "indexed": true,
          "internalType": "address",
          "name": "owner",
          "type": "address"
        },
        {
          "indexed": true,
          "internalType": "address",
          "name": "approved",
          "type": "address"
        },
        {
          "indexed": true,
          "internalType": "uint256",
          "name": "tokenId",
          "type": "uint256"
        }
      ],
      "name": "Approval",
      "type": "event"
    },
    {
      "anonymous": false,
      "inputs": [
        {
          "indexed": true,
          "internalType": "address",
          "name": "owner",
          "type": "address"
        },
        {
          "indexed": true,
          "internalType": "address",
          "name": "operator",
          "type": "address"
        },
        {
          "indexed": false,
          "internalType": "bool",
          "name": "approved",
          "type": "bool"
        }
      ],
      "name": "ApprovalForAll",
      "type": "event"
    },
    {
      "anonymous": false,
      "inputs": [
        {
          "indexed": true,
          "internalType": "address",
          "name": "donor",
          "type": "address"
        },
        {
          "indexed": true,
          "internalType": "uint256",
          "name": "tokenId",
          "type": "uint256"
        },
        {
          "indexed": false,
          "internalType": "string",
          "name": "organType",
          "type": "string"
        }
      ],
      "name": "BadgeMinted",
      "type": "event"
    },
    {
      "anonymous": false,
      "inputs": [
        {
          "indexed": true,
          "internalType": "uint256",
          "name": "tokenId",
          "type": "uint256"
        },
        {
          "indexed": false,
          "internalType": "string",
          "name": "hospitalId",
          "type": "string"
        }
      ],
      "name": "BadgeVerified",
      "type": "event"
    },
    {
      "anonymous": false,
      "inputs": [
        {
          "indexed": false,
          "internalType": "uint256",
          "name": "_fromTokenId",
          "type": "uint256"
        },
        {
          "indexed": false,
          "internalType": "uint256",
          "name": "_toTokenId",
          "type": "uint256"
        }
      ],
      "name": "BatchMetadataUpdate",
      "type": "event"
    },
    {
      "anonymous": false,
      "inputs": [
        {
          "indexed": false,
          "internalType": "uint256",
          "name": "_tokenId",
          "type": "uint256"
        }
      ],
      "name": "MetadataUpdate",
      "type": "event"
    },
    {
      "anonymous": false,
      "inputs": [
        {
          "indexed": true,
          "internalType": "address",
          "name": "previousOwner",
          "type": "address"
        },
        {
          "indexed": true,
          "internalType": "address",
          "name": "newOwner",
          "type": "address"
        }
      ],
      "name": "OwnershipTransferred",
      "type": "event"
    },
    {
      "anonymous": false,
      "inputs": [
        {
          "indexed": true,
          "internalType": "address",
          "name": "from",
          "type": "address"
        },
        {
          "indexed": true,
          "internalType": "address",
          "name": "to",
          "type": "address"
        },
        {
          "indexed": true,
          "internalType": "uint256",
          "name": "tokenId",
          "type": "uint256"
        }
      ],
      "name": "Transfer",
      "type": "event"
    },
    {
      "inputs": [
        {
          "internalType": "address",
          "name": "to",
          "type": "address"
        },
        {
          "internalType": "uint256",
          "name": "tokenId",
          "type": "uint256"
        }
      ],
      "name": "approve",
      "outputs": [],
      "stateMutability": "nonpayable",
      "type": "function"
    },
    {
      "inputs": [
        {
          "internalType": "address",
          "name": "owner",
          "type": "address"
        }
      ],
      "name": "balanceOf",
      "outputs": [
        {
          "internalType": "uint256",
          "name": "",
          "type": "uint256"
        }
      ],
      "stateMutability": "view",
      "type": "function"
    },
    {
      "inputs": [
        {
          "internalType": "uint256",
          "name": "",
          "type": "uint256"
        }
      ],
      "name": "donorBadges",
      "outputs": [
        {
          "internalType": "string",
          "name": "name",
          "type": "string"
        },
        {
          "internalType": "string",
          "name": "hospitalId",
          "type": "string"
        },
        {
          "internalType": "string",
          "name": "organType",
          "type": "string"
        },
        {
          "internalType": "uint256",
          "name": "donationDate",
          "type": "uint256"
        },
        {
          "internalType": "string",
          "name": "verificationCode",
          "type": "string"
        },
        {
          "internalType": "bool",
          "name": "isVerified",
          "type": "bool"
        }
      ],
      "stateMutability": "view",
      "type": "function"
    },
    {
      "inputs": [
        {
          "internalType": "address",
          "name": "",
          "type": "address"
        },
        {
          "internalType": "uint256",
          "name": "",
          "type": "uint256"
        }
      ],
      "name": "donorTokens",
      "outputs": [
        {
          "internalType": "uint256",
          "name": "",
          "type": "uint256"
        }
      ],
      "stateMutability": "view",
      "type": "function"
    },
    {
      "inputs": [
        {
          "internalType": "uint256",
          "name": "tokenId",
          "type": "uint256"
        }
      ],
      "name": "getApproved",
      "outputs": [
        {
          "internalType": "address",
          "name": "",
          "type": "address"
        }
      ],
      "stateMutability": "view",
      "type": "function"
    },
    {
      "inputs": [
        {
          "internalType": "uint256",
          "name": "tokenId",
          "type": "uint256"
        }
      ],
      "name": "getBadgeDetails",
      "outputs": [
        {
          "internalType": "string",
          "name": "name",
          "type": "string"
        },
        {
          "internalType": "string",
          "name": "hospitalId",
          "type": "string"
        },
        {
          "internalType": "string",
          "name": "organType",
          "type": "string"
        },
        {
          "internalType": "uint256",
          "name": "donationDate",
          "type": "uint256"
        },
        {
          "internalType": "bool",
          "name": "isVerified",
          "type": "bool"
        }
      ],
      "stateMutability": "view",
      "type": "function"
    },
    {
      "inputs": [
        {
          "internalType": "address",
          "name": "donor",
          "type": "address"
        }
      ],
      "name": "getDonorBadges",
      "outputs": [
        {
          "internalType": "uint256[]",
          "name": "",
          "type": "uint256[]"
        }
      ],
      "stateMutability": "view",
      "type": "function"
    },
    {
      "inputs": [
        {
          "internalType": "address",
          "name": "owner",
          "type": "address"
        },
        {
          "internalType": "address",
          "name": "operator",
          "type": "address"
        }
      ],
      "name": "isApprovedForAll",
      "outputs": [
        {
          "internalType": "bool",
          "name": "",
          "type": "bool"
        }
      ],
      "stateMutability": "view",
      "type": "function"
    },
    {
      "inputs": [
        {
          "internalType": "address",
          "name": "donor",
          "type": "address"
        },
        {
          "internalType": "string",
          "name": "name",
          "type": "string"
        },
        {
          "internalType": "string",
          "name": "hospitalId",
          "type": "string"
        },
        {
          "internalType": "string",
          "name": "organType",
          "type": "string"
        },
        {
          "internalType": "string",
          "name": "verificationCode",
          "type": "string"
        },
        {
          "internalType": "string",
          "name": "tokenURI",
          "type": "string"
        }
      ],
      "name": "mintBadge",
      "outputs": [
        {
          "internalType": "uint256",
          "name": "",
          "type": "uint256"
        }
      ],
      "stateMutability": "nonpayable",
      "type": "function"
    },
    {
      "inputs": [],
      "name": "name",
      "outputs": [
        {
          "internalType": "string",
          "name": "",
          "type": "string"
        }
      ],
      "stateMutability": "view",
      "type": "function"
    },
    {
      "inputs": [],
      "name": "owner",
      "outputs": [
        {
          "internalType": "address",
          "name": "",
          "type": "address"
        }
      ],
      "stateMutability": "view",
      "type": "function"
    },
    {
      "inputs": [
        {
          "internalType": "uint256",
          "name": "tokenId",
          "type": "uint256"
        }
      ],
      "name": "ownerOf",
      "outputs": [
        {
          "internalType": "address",
          "name": "",
          "type": "address"
        }
      ],
      "stateMutability": "view",
      "type": "function"
    },
    {
      "inputs": [],
      "name": "renounceOwnership",
      "outputs": [],
      "stateMutability": "nonpayable",
      "type": "function"
    },
    {
      "inputs": [
        {
          "internalType": "address",
          "name": "from",
          "type": "address"
        },
        {
          "internalType": "address",
          "name": "to",
          "type": "address"
        },
        {
          "internalType": "uint256",
          "name": "tokenId",
          "type": "uint256"
        }
      ],
      "name": "safeTransferFrom",
      "outputs": [],
      "stateMutability": "nonpayable",
      "type": "function"
    },
    {
      "inputs": [
        {
          "internalType": "address",
          "name": "from",
          "type": "address"
        },
        {
          "internalType": "address",
          "name": "to",
          "type": "address"
        },
        {
          "internalType": "uint256",
          "name": "tokenId",
          "type": "uint256"
        },
        {
          "internalType": "bytes",
          "name": "data",
          "type": "bytes"
        }
      ],
      "name": "safeTransferFrom",
      "outputs": [],
      "stateMutability": "nonpayable",
      "type": "function"
    },
    {
      "inputs": [
        {
          "internalType": "address",
          "name": "operator",
          "type": "address"
        },
        {
          "internalType": "bool",
          "name": "approved",
          "type": "bool"
        }
      ],
      "name": "setApprovalForAll",
      "outputs": [],
      "stateMutability": "nonpayable",
      "type": "function"
    },
    {
      "inputs": [
        {
          "internalType": "bytes4",
          "name": "interfaceId",
          "type": "bytes4"
        }
      ],
      "name": "supportsInterface",
      "outputs": [
        {
          "internalType": "bool",
          "name": "",
          "type": "bool"
        }
      ],
      "stateMutability": "view",
      "type": "function"
    },
    {
      "inputs": [],
      "name": "symbol",
      "outputs": [
        {
          "internalType": "string",
          "name": "",
          "type": "string"
        }
      ],
      "stateMutability": "view",
      "type": "function"
    },
    {
      "inputs": [
        {
          "internalType": "uint256",
          "name": "tokenId",
          "type": "uint256"
        }
      ],
      "name": "tokenURI",
      "outputs": [
        {
          "internalType": "string",
          "name": "",
          "type": "string"
        }
      ],
      "stateMutability": "view",
      "type": "function"
    },
    {
      "inputs": [
        {
          "internalType": "address",
          "name": "from",
          "type": "address"
        },
        {
          "internalType": "address",
          "name": "to",
          "type": "address"
        },
        {
          "internalType": "uint256",
          "name": "tokenId",
          "type": "uint256"
        }
      ],
      "name": "transferFrom",
      "outputs": [],
      "stateMutability": "nonpayable",
      "type": "function"
    },
    {
      "inputs": [
        {
          "internalType": "address",
          "name": "newOwner",
          "type": "address"
        }
      ],
      "name": "transferOwnership",
      "outputs": [],
      "stateMutability": "nonpayable",
      "type": "function"
    },
    {
      "inputs": [
        {
          "internalType": "string",
          "name": "",
          "type": "string"
        }
      ],
      "name": "usedVerificationCodes",
      "outputs": [
        {
          "internalType": "bool",
          "name": "",
          "type": "bool"
        }
      ],
      "stateMutability": "view",
      "type": "function"
    }
  ],
  "bytecode": "0x60806040523480156200001157600080fd5b506040518060400160405280601281526020017f446f6e6f72204c656761637920426164676500000000000000000000000000008152506040518060400160405280600581526020017f444f4e4f5200000000000000000000000000000000000000000000000000000081525081600090816200008f919062000412565b508060019081620000a1919062000412565b505050620000c4620000b8620000ca60201b60201c565b620000d260201b60201c565b620004f9565b600033905090565b6000600760009054906101000a900473ffffffffffffffffffffffffffffffffffffffff16905081600760006101000a81548173ffffffffffffffffffffffffffffffffffffffff021916908373ffffffffffffffffffffffffffffffffffffffff1602179055508173ffffffffffffffffffffffffffffffffffffffff168173ffffffffffffffffffffffffffffffffffffffff167f8be0079c531659141344cd1fd0a4f28419497f9722a3daafe3b4186f6b6457e060405160405180910390a35050565b600081519050919050565b7f4e487b7100000000000000000000000000000000000000000000000000000000600052604160045260246000fd5b7f4e487b7100000000000000000000000000000000000000000000000000000000600052602260045260246000fd5b600060028204905060018216806200021a57607f821691505b60208210810362000230576200022f620001d2565b5b50919050565b60008190508160005260206000209050919050565b60006020601f8301049050919050565b600082821b905092915050565b6000600883026200029a7fffffffffffffffffffffffffffffffffffffffffffffffffffffffffffffffff826200025b565b620002a686836200025b565b95508019841693508086168417925050509392505050565b6000819050919050565b6000819050919050565b6000620002f3620002ed620002e784620002be565b620002c8565b620002be565b9050919050565b6000819050919050565b6200030f83620002d2565b620003276200031e82620002fa565b84845462000268565b825550505050565b600090565b6200033e6200032f565b6200034b81848462000304565b505050565b5b8181101562000373576200036760008262000334565b60018101905062000351565b5050565b601f821115620003c2576200038c8162000236565b62000397846200024b565b81016020851015620003a7578190505b620003bf620003b6856200024b565b83018262000350565b50505b505050565b600082821c905092915050565b6000620003e760001984600802620003c7565b1980831691505092915050565b6000620004028383620003d4565b9150826002028217905092915050565b6200041d8262000198565b67ffffffffffffffff811115620004395762000438620001a3565b5b62000445825462000201565b6200045282828562000377565b600060209050601f8311600181146200048a576000841562000475578287015190505b620004818582620003f4565b865550620004f1565b601f1984166200049a8662000236565b60005b82811015620004c4578489015182556001820191506020850194506020810190506200049d565b86831015620004e45784890151620004e0601f891682620003d4565b8355505b6001600288020188555050505b505050505050565b613c7980620005096000396000f3fe608060405234801561001057600080fd5b50600436106101425760003560e01c80638da5cb5b116100b8578063b88d4fde1161007c578063b88d4fde146103a4578063c87b56dd146103c0578063ca065e20146103f0578063e985e9c514610420578063f2fde38b14610450578063f3eb69ab1461046c57610142565b80638da5cb5b146102e75780638de75afb1461030557806394d53f8b1461033a57806395d89b411461036a578063a22cb4651461038857610142565b80632950c4bd1161010a5780632950c4bd146101fd57806331b54cfb1461023157806342842e0e146102615780636352211e1461027d57806370a08231146102ad578063715018a6146102dd57610142565b806301ffc9a71461014757806306fdde0314610177578063081812fc14610195578063095ea7b3146101c557806323b872dd146101e1575b600080fd5b610161600480360381019061015c91906126b0565b61049c565b60405161016e91906126f8565b60405180910390f35b61017f6104fd565b60405161018c91906127a3565b60405180910390f35b6101af60048036038101906101aa91906127fb565b61058f565b6040516101bc9190612869565b60405180910390f35b6101df60048036038101906101da91906128b0565b6105d5565b005b6101fb60048036038101906101f691906128f0565b6106ec565b005b610217600480360381019061021291906127fb565b61074c565b604051610228959493929190612952565b60405180910390f35b61024b600480360381019061024691906129ba565b610a10565b6040516102589190612aa5565b60405180910390f35b61027b600480360381019061027691906128f0565b610aa7565b005b610297600480360381019061029291906127fb565b610ac7565b6040516102a49190612869565b60405180910390f35b6102c760048036038101906102c291906129ba565b610b4d565b6040516102d49190612ac7565b60405180910390f35b6102e5610c04565b005b6102ef610c18565b6040516102fc9190612869565b60405180910390f35b61031f600480360381019061031a91906127fb565b610c42565b60405161033196959493929190612ae2565b60405180910390f35b610354600480360381019061034f9190612c94565b610eab565b6040516103619190612ac7565b60405180910390f35b610372611147565b60405161037f91906127a3565b60405180910390f35b6103a2600480360381019061039d9190612dd9565b6111d9565b005b6103be60048036038101906103b99190612eba565b6111ef565b005b6103da60048036038101906103d591906127fb565b611251565b6040516103e791906127a3565b60405180910390f35b61040a60048036038101906104059190612f3d565b611363565b60405161041791906126f8565b60405180910390f35b61043a60048036038101906104359190612f86565b611399565b60405161044791906126f8565b60405180910390f35b61046a600480360381019061046591906129ba565b61142d565b005b610486600480360381019061048191906128b0565b6114b0565b6040516104939190612ac7565b60405180910390f35b6000634906490660e01b7bffffffffffffffffffffffffffffffffffffffffffffffffffffffff1916827bffffffffffffffffffffffffffffffffffffffffffffffffffffffff191614806104f657506104f5826114e1565b5b9050919050565b60606000805461050c90612ff5565b80601f016020809104026020016040519081016040528092919081815260200182805461053890612ff5565b80156105855780601f1061055a57610100808354040283529160200191610585565b820191906000526020600020905b81548152906001019060200180831161056857829003601f168201915b5050505050905090565b600061059a826115c3565b6004600083815260200190815260200160002060009054906101000a900473ffffffffffffffffffffffffffffffffffffffff169050919050565b60006105e082610ac7565b90508073ffffffffffffffffffffffffffffffffffffffff168373ffffffffffffffffffffffffffffffffffffffff1603610650576040517f08c379a000000000000000000000000000000000000000000000000000000000815260040161064790613098565b60405180910390fd5b8073ffffffffffffffffffffffffffffffffffffffff1661066f61160e565b73ffffffffffffffffffffffffffffffffffffffff16148061069e575061069d8161069861160e565b611399565b5b6106dd576040517f08c379a00000000000000000000000000000000000000000000000000000000081526004016106d49061312a565b60405180910390fd5b6106e78383611616565b505050565b6106fd6106f761160e565b826116cf565b61073c576040517f08c379a0000000000000000000000000000000000000000000000000000000008152600401610733906131bc565b60405180910390fd5b610747838383611764565b505050565b60608060606000806000600960008881526020019081526020016000206040518060c001604052908160008201805461078490612ff5565b80601f01602080910402602001604051908101604052809291908181526020018280546107b090612ff5565b80156107fd5780601f106107d2576101008083540402835291602001916107fd565b820191906000526020600020905b8154815290600101906020018083116107e057829003601f168201915b5050505050815260200160018201805461081690612ff5565b80601f016020809104026020016040519081016040528092919081815260200182805461084290612ff5565b801561088f5780601f106108645761010080835404028352916020019161088f565b820191906000526020600020905b81548152906001019060200180831161087257829003601f168201915b505050505081526020016002820180546108a890612ff5565b80601f01602080910402602001604051908101604052809291908181526020018280546108d490612ff5565b80156109215780601f106108f657610100808354040283529160200191610921565b820191906000526020600020905b81548152906001019060200180831161090457829003601f168201915b505050505081526020016003820154815260200160048201805461094490612ff5565b80601f016020809104026020016040519081016040528092919081815260200182805461097090612ff5565b80156109bd5780601f10610992576101008083540402835291602001916109bd565b820191906000526020600020905b8154815290600101906020018083116109a057829003601f168201915b505050505081526020016005820160009054906101000a900460ff161515151581525050905080600001518160200151826040015183606001518460a00151955095509550955095505091939590929450565b6060600a60008373ffffffffffffffffffffffffffffffffffffffff1673ffffffffffffffffffffffffffffffffffffffff168152602001908152602001600020805480602002602001604051908101604052809291908181526020018280548015610a9b57602002820191906000526020600020905b815481526020019060010190808311610a87575b50505050509050919050565b610ac2838383604051806020016040528060008152506111ef565b505050565b600080610ad383611a5d565b9050600073ffffffffffffffffffffffffffffffffffffffff168173ffffffffffffffffffffffffffffffffffffffff1603610b44576040517f08c379a0000000000000000000000000000000000000000000000000000000008152600401610b3b90613228565b60405180910390fd5b80915050919050565b60008073ffffffffffffffffffffffffffffffffffffffff168273ffffffffffffffffffffffffffffffffffffffff1603610bbd576040517f08c379a0000000000000000000000000000000000000000000000000000000008152600401610bb4906132ba565b60405180910390fd5b600360008373ffffffffffffffffffffffffffffffffffffffff1673ffffffffffffffffffffffffffffffffffffffff168152602001908152602001600020549050919050565b610c0c611a9a565b610c166000611b18565b565b6000600760009054906101000a900473ffffffffffffffffffffffffffffffffffffffff16905090565b6009602052806000526040600020600091509050806000018054610c6590612ff5565b80601f0160208091040260200160405190810160405280929190818152602001828054610c9190612ff5565b8015610cde5780601f10610cb357610100808354040283529160200191610cde565b820191906000526020600020905b815481529060010190602001808311610cc157829003601f168201915b505050505090806001018054610cf390612ff5565b80601f0160208091040260200160405190810160405280929190818152602001828054610d1f90612ff5565b8015610d6c5780601f10610d4157610100808354040283529160200191610d6c565b820191906000526020600020905b815481529060010190602001808311610d4f57829003601f168201915b505050505090806002018054610d8190612ff5565b80601f0160208091040260200160405190810160405280929190818152602001828054610dad90612ff5565b8015610dfa5780601f10610dcf57610100808354040283529160200191610dfa565b820191906000526020600020905b815481529060010190602001808311610ddd57829003601f168201915b505050505090806003015490806004018054610e1590612ff5565b80601f0160208091040260200160405190810160405280929190818152602001828054610e4190612ff5565b8015610e8e5780601f10610e6357610100808354040283529160200191610e8e565b820191906000526020600020905b815481529060010190602001808311610e7157829003601f168201915b5050505050908060050160009054906101000a900460ff16905086565b6000610eb5611a9a565b600b83604051610ec59190613316565b908152602001604051809103902060009054906101000a900460ff1615610f21576040517f08c379a0000000000000000000000000000000000000000000000000000000008152600401610f1890613379565b60405180910390fd5b610f2b6008611bde565b6000610f376008611bf4565b9050610f438882611c02565b610f4d8184611e1f565b6040518060c0016040528088815260200187815260200186815260200142815260200185815260200160011515815250600960008381526020019081526020016000206000820151816000019081610fa59190613545565b506020820151816001019081610fbb9190613545565b506040820151816002019081610fd19190613545565b50606082015181600301556080820151816004019081610ff19190613545565b5060a08201518160050160006101000a81548160ff021916908315150217905550905050600a60008973ffffffffffffffffffffffffffffffffffffffff1673ffffffffffffffffffffffffffffffffffffffff1681526020019081526020016000208190806001815401808255809150506001900390600052602060002001600090919091909150556001600b8560405161108d9190613316565b908152602001604051809103902060006101000a81548160ff021916908315150217905550808873ffffffffffffffffffffffffffffffffffffffff167f6854c057dc92416510857b3daad5434a4202a4d192cf0f85d496d91974efaea3876040516110f991906127a3565b60405180910390a3807fcb83b325ba620dae22b67a137b45c7c3c066db98499037cabb053e82d9367f108760405161113191906127a3565b60405180910390a2809150509695505050505050565b60606001805461115690612ff5565b80601f016020809104026020016040519081016040528092919081815260200182805461118290612ff5565b80156111cf5780601f106111a4576101008083540402835291602001916111cf565b820191906000526020600020905b8154815290600101906020018083116111b257829003601f168201915b5050505050905090565b6111eb6111e461160e565b8383611ec3565b5050565b6112006111fa61160e565b836116cf565b61123f576040517f08c379a0000000000000000000000000000000000000000000000000000000008152600401611236906131bc565b60405180910390fd5b61124b8484848461202f565b50505050565b606061125c826115c3565b600060066000848152602001908152602001600020805461127c90612ff5565b80601f01602080910402602001604051908101604052809291908181526020018280546112a890612ff5565b80156112f55780601f106112ca576101008083540402835291602001916112f5565b820191906000526020600020905b8154815290600101906020018083116112d857829003601f168201915b50505050509050600061130661208b565b9050600081510361131b57819250505061135e565b600082511115611350578082604051602001611338929190613617565b6040516020818303038152906040529250505061135e565b611359846120a2565b925050505b919050565b600b818051602081018201805184825260208301602085012081835280955050505050506000915054906101000a900460ff1681565b6000600560008473ffffffffffffffffffffffffffffffffffffffff1673ffffffffffffffffffffffffffffffffffffffff16815260200190815260200160002060008373ffffffffffffffffffffffffffffffffffffffff1673ffffffffffffffffffffffffffffffffffffffff16815260200190815260200160002060009054906101000a900460ff16905092915050565b611435611a9a565b600073ffffffffffffffffffffffffffffffffffffffff168173ffffffffffffffffffffffffffffffffffffffff16036114a4576040517f08c379a000000000000000000000000000000000000000000000000000000000815260040161149b906136ad565b60405180910390fd5b6114ad81611b18565b50565b600a60205281600052604060002081815481106114cc57600080fd5b90600052602060002001600091509150505481565b60007f80ac58cd000000000000000000000000000000000000000000000000000000007bffffffffffffffffffffffffffffffffffffffffffffffffffffffff1916827bffffffffffffffffffffffffffffffffffffffffffffffffffffffff191614806115ac57507f5b5e139f000000000000000000000000000000000000000000000000000000007bffffffffffffffffffffffffffffffffffffffffffffffffffffffff1916827bffffffffffffffffffffffffffffffffffffffffffffffffffffffff1916145b806115bc57506115bb8261210a565b5b9050919050565b6115cc81612174565b61160b576040517f08c379a000000000000000000000000000000000000000000000000000000000815260040161160290613228565b60405180910390fd5b50565b600033905090565b816004600083815260200190815260200160002060006101000a81548173ffffffffffffffffffffffffffffffffffffffff021916908373ffffffffffffffffffffffffffffffffffffffff160217905550808273ffffffffffffffffffffffffffffffffffffffff1661168983610ac7565b73ffffffffffffffffffffffffffffffffffffffff167f8c5be1e5ebec7d5bd14f71427d1e84f3dd0314c0f7b2291e5b200ac8c7c3b92560405160405180910390a45050565b6000806116db83610ac7565b90508073ffffffffffffffffffffffffffffffffffffffff168473ffffffffffffffffffffffffffffffffffffffff16148061171d575061171c8185611399565b5b8061175b57508373ffffffffffffffffffffffffffffffffffffffff166117438461058f565b73ffffffffffffffffffffffffffffffffffffffff16145b91505092915050565b8273ffffffffffffffffffffffffffffffffffffffff1661178482610ac7565b73ffffffffffffffffffffffffffffffffffffffff16146117da576040517f08c379a00000000000000000000000000000000000000000000000000000000081526004016117d19061373f565b60405180910390fd5b600073ffffffffffffffffffffffffffffffffffffffff168273ffffffffffffffffffffffffffffffffffffffff1603611849576040517f08c379a0000000000000000000000000000000000000000000000000000000008152600401611840906137d1565b60405180910390fd5b61185683838360016121b5565b8273ffffffffffffffffffffffffffffffffffffffff1661187682610ac7565b73ffffffffffffffffffffffffffffffffffffffff16146118cc576040517f08c379a00000000000000000000000000000000000000000000000000000000081526004016118c39061373f565b60405180910390fd5b6004600082815260200190815260200160002060006101000a81549073ffffffffffffffffffffffffffffffffffffffff02191690556001600360008573ffffffffffffffffffffffffffffffffffffffff1673ffffffffffffffffffffffffffffffffffffffff168152602001908152602001600020600082825403925050819055506001600360008473ffffffffffffffffffffffffffffffffffffffff1673ffffffffffffffffffffffffffffffffffffffff16815260200190815260200160002060008282540192505081905550816002600083815260200190815260200160002060006101000a81548173ffffffffffffffffffffffffffffffffffffffff021916908373ffffffffffffffffffffffffffffffffffffffff160217905550808273ffffffffffffffffffffffffffffffffffffffff168473ffffffffffffffffffffffffffffffffffffffff167fddf252ad1be2c89b69c2b068fc378daa952ba7f163c4a11628f55a4df523b3ef60405160405180910390a4611a58838383600161226d565b505050565b60006002600083815260200190815260200160002060009054906101000a900473ffffffffffffffffffffffffffffffffffffffff169050919050565b611aa261160e565b73ffffffffffffffffffffffffffffffffffffffff16611ac0610c18565b73ffffffffffffffffffffffffffffffffffffffff1614611b16576040517f08c379a0000000000000000000000000000000000000000000000000000000008152600401611b0d9061383d565b60405180910390fd5b565b6000600760009054906101000a900473ffffffffffffffffffffffffffffffffffffffff16905081600760006101000a81548173ffffffffffffffffffffffffffffffffffffffff021916908373ffffffffffffffffffffffffffffffffffffffff1602179055508173ffffffffffffffffffffffffffffffffffffffff168173ffffffffffffffffffffffffffffffffffffffff167f8be0079c531659141344cd1fd0a4f28419497f9722a3daafe3b4186f6b6457e060405160405180910390a35050565b6001816000016000828254019250508190555050565b600081600001549050919050565b600073ffffffffffffffffffffffffffffffffffffffff168273ffffffffffffffffffffffffffffffffffffffff1603611c71576040517f08c379a0000000000000000000000000000000000000000000000000000000008152600401611c68906138a9565b60405180910390fd5b611c7a81612174565b15611cba576040517f08c379a0000000000000000000000000000000000000000000000000000000008152600401611cb190613915565b60405180910390fd5b611cc86000838360016121b5565b611cd181612174565b15611d11576040517f08c379a0000000000000000000000000000000000000000000000000000000008152600401611d0890613915565b60405180910390fd5b6001600360008473ffffffffffffffffffffffffffffffffffffffff1673ffffffffffffffffffffffffffffffffffffffff16815260200190815260200160002060008282540192505081905550816002600083815260200190815260200160002060006101000a81548173ffffffffffffffffffffffffffffffffffffffff021916908373ffffffffffffffffffffffffffffffffffffffff160217905550808273ffffffffffffffffffffffffffffffffffffffff16600073ffffffffffffffffffffffffffffffffffffffff167fddf252ad1be2c89b69c2b068fc378daa952ba7f163c4a11628f55a4df523b3ef60405160405180910390a4611e1b60008383600161226d565b5050565b611e2882612174565b611e67576040517f08c379a0000000000000000000000000000000000000000000000000000000008152600401611e5e906139a7565b60405180910390fd5b80600660008481526020019081526020016000209081611e879190613545565b507ff8e1a15aba9398e019f0b49df1a4fde98ee17ae345cb5f6b5e2c27f5033e8ce782604051611eb79190612ac7565b60405180910390a15050565b8173ffffffffffffffffffffffffffffffffffffffff168373ffffffffffffffffffffffffffffffffffffffff1603611f31576040517f08c379a0000000000000000000000000000000000000000000000000000000008152600401611f2890613a13565b60405180910390fd5b80600560008573ffffffffffffffffffffffffffffffffffffffff1673ffffffffffffffffffffffffffffffffffffffff16815260200190815260200160002060008473ffffffffffffffffffffffffffffffffffffffff1673ffffffffffffffffffffffffffffffffffffffff16815260200190815260200160002060006101000a81548160ff0219169083151502179055508173ffffffffffffffffffffffffffffffffffffffff168373ffffffffffffffffffffffffffffffffffffffff167f17307eab39ab6107e8899845ad3d59bd9653f200f220920489ca2b5937696c318360405161202291906126f8565b60405180910390a3505050565b61203a848484611764565b61204684848484612273565b612085576040517f08c379a000000000000000000000000000000000000000000000000000000000815260040161207c90613aa5565b60405180910390fd5b50505050565b606060405180602001604052806000815250905090565b60606120ad826115c3565b60006120b761208b565b905060008151116120d75760405180602001604052806000815250612102565b806120e1846123fa565b6040516020016120f2929190613617565b6040516020818303038152906040525b915050919050565b60007f01ffc9a7000000000000000000000000000000000000000000000000000000007bffffffffffffffffffffffffffffffffffffffffffffffffffffffff1916827bffffffffffffffffffffffffffffffffffffffffffffffffffffffff1916149050919050565b60008073ffffffffffffffffffffffffffffffffffffffff1661219683611a5d565b73ffffffffffffffffffffffffffffffffffffffff1614159050919050565b6121c1848484846124c8565b600073ffffffffffffffffffffffffffffffffffffffff168473ffffffffffffffffffffffffffffffffffffffff1614806122285750600073ffffffffffffffffffffffffffffffffffffffff168373ffffffffffffffffffffffffffffffffffffffff16145b612267576040517f08c379a000000000000000000000000000000000000000000000000000000000815260040161225e90613b11565b60405180910390fd5b50505050565b50505050565b60006122948473ffffffffffffffffffffffffffffffffffffffff166124ce565b156123ed578373ffffffffffffffffffffffffffffffffffffffff1663150b7a026122bd61160e565b8786866040518563ffffffff1660e01b81526004016122df9493929190613b86565b6020604051808303816000875af192505050801561231b57506040513d601f19601f820116820180604052508101906123189190613be7565b60015b61239d573d806000811461234b576040519150601f19603f3d011682016040523d82523d6000602084013e612350565b606091505b506000815103612395576040517f08c379a000000000000000000000000000000000000000000000000000000000815260040161238c90613aa5565b60405180910390fd5b805181602001fd5b63150b7a0260e01b7bffffffffffffffffffffffffffffffffffffffffffffffffffffffff1916817bffffffffffffffffffffffffffffffffffffffffffffffffffffffff1916149150506123f2565b600190505b949350505050565b606060006001612409846124f1565b01905060008167ffffffffffffffff81111561242857612427612b69565b5b6040519080825280601f01601f19166020018201604052801561245a5781602001600182028036833780820191505090505b509050600082602001820190505b6001156124bd578080600190039150507f3031323334353637383961626364656600000000000000000000000000000000600a86061a8153600a85816124b1576124b0613c14565b5b04945060008503612468575b819350505050919050565b50505050565b6000808273ffffffffffffffffffffffffffffffffffffffff163b119050919050565b600080600090507a184f03e93ff9f4daa797ed6e38ed64bf6a1f010000000000000000831061254f577a184f03e93ff9f4daa797ed6e38ed64bf6a1f010000000000000000838161254557612544613c14565b5b0492506040810190505b6d04ee2d6d415b85acef8100000000831061258c576d04ee2d6d415b85acef8100000000838161258257612581613c14565b5b0492506020810190505b662386f26fc1000083106125bb57662386f26fc1000083816125b1576125b0613c14565b5b0492506010810190505b6305f5e10083106125e4576305f5e10083816125da576125d9613c14565b5b0492506008810190505b61271083106126095761271083816125ff576125fe613c14565b5b0492506004810190505b6064831061262c576064838161262257612621613c14565b5b0492506002810190505b600a831061263b576001810190505b80915050919050565b6000604051905090565b600080fd5b600080fd5b60007fffffffff0000000000000000000000000000000000000000000000000000000082169050919050565b61268d81612658565b811461269857600080fd5b50565b6000813590506126aa81612684565b92915050565b6000602082840312156126c6576126c561264e565b5b60006126d48482850161269b565b91505092915050565b60008115159050919050565b6126f2816126dd565b82525050565b600060208201905061270d60008301846126e9565b92915050565b600081519050919050565b600082825260208201905092915050565b60005b8381101561274d578082015181840152602081019050612732565b60008484015250505050565b6000601f19601f8301169050919050565b600061277582612713565b61277f818561271e565b935061278f81856020860161272f565b61279881612759565b840191505092915050565b600060208201905081810360008301526127bd818461276a565b905092915050565b6000819050919050565b6127d8816127c5565b81146127e357600080fd5b50565b6000813590506127f5816127cf565b92915050565b6000602082840312156128115761281061264e565b5b600061281f848285016127e6565b91505092915050565b600073ffffffffffffffffffffffffffffffffffffffff82169050919050565b600061285382612828565b9050919050565b61286381612848565b82525050565b600060208201905061287e600083018461285a565b92915050565b61288d81612848565b811461289857600080fd5b50565b6000813590506128aa81612884565b92915050565b600080604083850312156128c7576128c661264e565b5b60006128d58582860161289b565b92505060206128e6858286016127e6565b9150509250929050565b6000806000606084860312156129095761290861264e565b5b60006129178682870161289b565b93505060206129288682870161289b565b9250506040612939868287016127e6565b9150509250925092565b61294c816127c5565b82525050565b600060a082019050818103600083015261296c818861276a565b90508181036020830152612980818761276a565b90508181036040830152612994818661276a565b90506129a36060830185612943565b6129b060808301846126e9565b9695505050505050565b6000602082840312156129d0576129cf61264e565b5b60006129de8482850161289b565b91505092915050565b600081519050919050565b600082825260208201905092915050565b6000819050602082019050919050565b612a1c816127c5565b82525050565b6000612a2e8383612a13565b60208301905092915050565b6000602082019050919050565b6000612a52826129e7565b612a5c81856129f2565b9350612a6783612a03565b8060005b83811015612a98578151612a7f8882612a22565b9750612a8a83612a3a565b925050600181019050612a6b565b5085935050505092915050565b60006020820190508181036000830152612abf8184612a47565b905092915050565b6000602082019050612adc6000830184612943565b92915050565b600060c0820190508181036000830152612afc818961276a565b90508181036020830152612b10818861276a565b90508181036040830152612b24818761276a565b9050612b336060830186612943565b8181036080830152612b45818561276a565b9050612b5460a08301846126e9565b979650505050505050565b600080fd5b600080fd5b7f4e487b7100000000000000000000000000000000000000000000000000000000600052604160045260246000fd5b612ba182612759565b810181811067ffffffffffffffff82111715612bc057612bbf612b69565b5b80604052505050565b6000612bd3612644565b9050612bdf8282612b98565b919050565b600067ffffffffffffffff821115612bff57612bfe612b69565b5b612c0882612759565b9050602081019050919050565b82818337600083830152505050565b6000612c37612c3284612be4565b612bc9565b905082815260208101848484011115612c5357612c52612b64565b5b612c5e848285612c15565b509392505050565b600082601f830112612c7b57612c7a612b5f565b5b8135612c8b848260208601612c24565b91505092915050565b60008060008060008060c08789031215612cb157612cb061264e565b5b6000612cbf89828a0161289b565b965050602087013567ffffffffffffffff811115612ce057612cdf612653565b5b612cec89828a01612c66565b955050604087013567ffffffffffffffff811115612d0d57612d0c612653565b5b612d1989828a01612c66565b945050606087013567ffffffffffffffff811115612d3a57612d39612653565b5b612d4689828a01612c66565b935050608087013567ffffffffffffffff811115612d6757612d66612653565b5b612d7389828a01612c66565b92505060a087013567ffffffffffffffff811115612d9457612d93612653565b5b612da089828a01612c66565b9150509295509295509295565b612db6816126dd565b8114612dc157600080fd5b50565b600081359050612dd381612dad565b92915050565b60008060408385031215612df057612def61264e565b5b6000612dfe8582860161289b565b9250506020612e0f85828601612dc4565b9150509250929050565b600067ffffffffffffffff821115612e3457612e33612b69565b5b612e3d82612759565b9050602081019050919050565b6000612e5d612e5884612e19565b612bc9565b905082815260208101848484011115612e7957612e78612b64565b5b612e84848285612c15565b509392505050565b600082601f830112612ea157612ea0612b5f565b5b8135612eb1848260208601612e4a565b91505092915050565b60008060008060808587031215612ed457612ed361264e565b5b6000612ee28782880161289b565b9450506020612ef38782880161289b565b9350506040612f04878288016127e6565b925050606085013567ffffffffffffffff811115612f2557612f24612653565b5b612f3187828801612e8c565b91505092959194509250565b600060208284031215612f5357612f5261264e565b5b600082013567ffffffffffffffff811115612f7157612f70612653565b5b612f7d84828501612c66565b91505092915050565b60008060408385031215612f9d57612f9c61264e565b5b6000612fab8582860161289b565b9250506020612fbc8582860161289b565b9150509250929050565b7f4e487b7100000000000000000000000000000000000000000000000000000000600052602260045260246000fd5b6000600282049050600182168061300d57607f821691505b6020821081036130205761301f612fc6565b5b50919050565b7f4552433732313a20617070726f76616c20746f2063757272656e74206f776e6560008201527f7200000000000000000000000000000000000000000000000000000000000000602082015250565b600061308260218361271e565b915061308d82613026565b604082019050919050565b600060208201905081810360008301526130b181613075565b9050919050565b7f4552433732313a20617070726f76652063616c6c6572206973206e6f7420746f60008201527f6b656e206f776e6572206f7220617070726f76656420666f7220616c6c000000602082015250565b6000613114603d8361271e565b915061311f826130b8565b604082019050919050565b6000602082019050818103600083015261314381613107565b9050919050565b7f4552433732313a2063616c6c6572206973206e6f7420746f6b656e206f776e6560008201527f72206f7220617070726f76656400000000000000000000000000000000000000602082015250565b60006131a6602d8361271e565b91506131b18261314a565b604082019050919050565b600060208201905081810360008301526131d581613199565b9050919050565b7f4552433732313a20696e76616c696420746f6b656e2049440000000000000000600082015250565b600061321260188361271e565b915061321d826131dc565b602082019050919050565b6000602082019050818103600083015261324181613205565b9050919050565b7f4552433732313a2061646472657373207a65726f206973206e6f74206120766160008201527f6c6964206f776e65720000000000000000000000000000000000000000000000602082015250565b60006132a460298361271e565b91506132af82613248565b604082019050919050565b600060208201905081810360008301526132d381613297565b9050919050565b600081905092915050565b60006132f082612713565b6132fa81856132da565b935061330a81856020860161272f565b80840191505092915050565b600061332282846132e5565b915081905092915050565b7f566572696669636174696f6e20636f646520616c726561647920757365640000600082015250565b6000613363601e8361271e565b915061336e8261332d565b602082019050919050565b6000602082019050818103600083015261339281613356565b9050919050565b60008190508160005260206000209050919050565b60006020601f8301049050919050565b600082821b905092915050565b6000600883026133fb7fffffffffffffffffffffffffffffffffffffffffffffffffffffffffffffffff826133be565b61340586836133be565b95508019841693508086168417925050509392505050565b6000819050919050565b600061344261343d613438846127c5565b61341d565b6127c5565b9050919050565b6000819050919050565b61345c83613427565b61347061346882613449565b8484546133cb565b825550505050565b600090565b613485613478565b613490818484613453565b505050565b5b818110156134b4576134a960008261347d565b600181019050613496565b5050565b601f8211156134f9576134ca81613399565b6134d3846133ae565b810160208510156134e2578190505b6134f66134ee856133ae565b830182613495565b50505b505050565b600082821c905092915050565b600061351c600019846008026134fe565b1980831691505092915050565b6000613535838361350b565b9150826002028217905092915050565b61354e82612713565b67ffffffffffffffff81111561356757613566612b69565b5b6135718254612ff5565b61357c8282856134b8565b600060209050601f8311600181146135af576000841561359d578287015190505b6135a78582613529565b86555061360f565b601f1984166135bd86613399565b60005b828110156135e5578489015182556001820191506020850194506020810190506135c0565b8683101561360257848901516135fe601f89168261350b565b8355505b6001600288020188555050505b505050505050565b600061362382856132e5565b915061362f82846132e5565b91508190509392505050565b7f4f776e61626c653a206e6577206f776e657220697320746865207a65726f206160008201527f6464726573730000000000000000000000000000000000000000000000000000602082015250565b600061369760268361271e565b91506136a28261363b565b604082019050919050565b600060208201905081810360008301526136c68161368a565b9050919050565b7f4552433732313a207472616e736665722066726f6d20696e636f72726563742060008201527f6f776e6572000000000000000000000000000000000000000000000000000000602082015250565b600061372960258361271e565b9150613734826136cd565b604082019050919050565b600060208201905081810360008301526137588161371c565b9050919050565b7f4552433732313a207472616e7366657220746f20746865207a65726f2061646460008201527f7265737300000000000000000000000000000000000000000000000000000000602082015250565b60006137bb60248361271e565b91506137c68261375f565b604082019050919050565b600060208201905081810360008301526137ea816137ae565b9050919050565b7f4f776e61626c653a2063616c6c6572206973206e6f7420746865206f776e6572600082015250565b600061382760208361271e565b9150613832826137f1565b602082019050919050565b600060208201905081810360008301526138568161381a565b9050919050565b7f4552433732313a206d696e7420746f20746865207a65726f2061646472657373600082015250565b600061389360208361271e565b915061389e8261385d565b602082019050919050565b600060208201905081810360008301526138c281613886565b9050919050565b7f4552433732313a20746f6b656e20616c7265616479206d696e74656400000000600082015250565b60006138ff601c8361271e565b915061390a826138c9565b602082019050919050565b6000602082019050818103600083015261392e816138f2565b9050919050565b7f45524337323155524953746f726167653a2055524920736574206f66206e6f6e60008201527f6578697374656e7420746f6b656e000000000000000000000000000000000000602082015250565b6000613991602e8361271e565b915061399c82613935565b604082019050919050565b600060208201905081810360008301526139c081613984565b9050919050565b7f4552433732313a20617070726f766520746f2063616c6c657200000000000000600082015250565b60006139fd60198361271e565b9150613a08826139c7565b602082019050919050565b60006020820190508181036000830152613a2c816139f0565b9050919050565b7f4552433732313a207472616e7366657220746f206e6f6e20455243373231526560008201527f63656976657220696d706c656d656e7465720000000000000000000000000000602082015250565b6000613a8f60328361271e565b9150613a9a82613a33565b604082019050919050565b60006020820190508181036000830152613abe81613a82565b9050919050565b7f42616467657320617265206e6f6e2d7472616e7366657261626c650000000000600082015250565b6000613afb601b8361271e565b9150613b0682613ac5565b602082019050919050565b60006020820190508181036000830152613b2a81613aee565b9050919050565b600081519050919050565b600082825260208201905092915050565b6000613b5882613b31565b613b628185613b3c565b9350613b7281856020860161272f565b613b7b81612759565b840191505092915050565b6000608082019050613b9b600083018761285a565b613ba8602083018661285a565b613bb56040830185612943565b8181036060830152613bc78184613b4d565b905095945050505050565b600081519050613be181612684565b92915050565b600060208284031215613bfd57613bfc61264e565b5b6000613c0b84828501613bd2565b91505092915050565b7f4e487b7100000000000000000000000000000000000000000000000000000000600052601260045260246000fdfea2646970667358221220768b3157fa6b579acec7a2b3a4327540b3b22782ed54f2827f4a53c720774b5464736f6c63430008140033",
  "linkReferences": {},
  "deployedLinkReferences": {}
}