{
  "_format": "hh-sol-artifact-1",
  "contractName": "OrganDonationSystem",
  "sourceName": "contracts/OrganDonationSystem.sol",
  "abi": [
    {
      "inputs": [],
      "stateMutability": "nonpayable",
      "type": "constructor"
    },
    {
      "anonymous": false,
      "inputs": [
        {
          "indexed": true,
          "internalType": "address",
          "name": "userAddress",
          "type": "address"
        },
        {
          "indexed": true,
          "internalType": "address",
          "name": "verifier",
          "type": "address"
        }
      ],
      "name": "DeathVerified",
      "type": "event"
    },
    {
      "anonymous": false,
      "inputs": [
        {
          "indexed": true,
          "internalType": "uint256",
          "name": "matchId",
          "type": "uint256"
        }
      ],
      "name": "MatchAccepted",
      "type": "event"
    },
    {
      "anonymous": false,
      "inputs": [
        {
          "indexed": true,
          "internalType": "uint256",
          "name": "matchId",
          "type": "uint256"
        }
      ],
      "name": "MatchCompleted",
      "type": "event"
    },
    {
      "anonymous": false,
      "inputs": [
        {
          "indexed": true,
          "internalType": "uint256",
          "name": "matchId",
          "type": "uint256"
        },
        {
          "indexed": true,
          "internalType": "address",
          "name": "donor",
          "type": "address"
        },
        {
          "indexed": true,
          "internalType": "address",
          "name": "patient",
          "type": "address"
        }
      ],
      "name": "MatchFound",
      "type": "event"
    },
    {
      "anonymous": false,
      "inputs": [
        {
          "indexed": true,
          "internalType": "address",
          "name": "recipient",
          "type": "address"
        },
        {
          "indexed": false,
          "internalType": "uint256",
          "name": "notificationId",
          "type": "uint256"
        }
      ],
      "name": "NotificationSent",
      "type": "event"
    },
    {
      "anonymous": false,
      "inputs": [
        {
          "indexed": true,
          "internalType": "bytes32",
          "name": "role",
          "type": "bytes32"
        },
        {
          "indexed": true,
          "internalType": "bytes32",
          "name": "previousAdminRole",
          "type": "bytes32"
        },
        {
          "indexed": true,
          "internalType": "bytes32",
          "name": "newAdminRole",
          "type": "bytes32"
        }
      ],
      "name": "RoleAdminChanged",
      "type": "event"
    },
    {
      "anonymous": false,
      "inputs": [
        {
          "indexed": true,
          "internalType": "bytes32",
          "name": "role",
          "type": "bytes32"
        },
        {
          "indexed": true,
          "internalType": "address",
          "name": "account",
          "type": "address"
        },
        {
          "indexed": true,
          "internalType": "address",
          "name": "sender",
          "type": "address"
        }
      ],
      "name": "RoleGranted",
      "type": "event"
    },
    {
      "anonymous": false,
      "inputs": [
        {
          "indexed": true,
          "internalType": "bytes32",
          "name": "role",
          "type": "bytes32"
        },
        {
          "indexed": true,
          "internalType": "address",
          "name": "account",
          "type": "address"
        },
        {
          "indexed": true,
          "internalType": "address",
          "name": "sender",
          "type": "address"
        }
      ],
      "name": "RoleRevoked",
      "type": "event"
    },
    {
      "anonymous": false,
      "inputs": [
        {
          "indexed": true,
          "internalType": "address",
          "name": "userAddress",
          "type": "address"
        },
        {
          "indexed": false,
          "internalType": "uint8",
          "name": "role",
          "type": "uint8"
        }
      ],
      "name": "UserRegistered",
      "type": "event"
    },
    {
      "inputs": [],
      "name": "ADMIN_ROLE",
      "outputs": [
        {
          "internalType": "bytes32",
          "name": "",
          "type": "bytes32"
        }
      ],
      "stateMutability": "view",
      "type": "function"
    },
    {
      "inputs": [],
      "name": "DEFAULT_ADMIN_ROLE",
      "outputs": [
        {
          "internalType": "bytes32",
          "name": "",
          "type": "bytes32"
        }
      ],
      "stateMutability": "view",
      "type": "function"
    },
    {
      "inputs": [],
      "name": "HOSPITAL_ROLE",
      "outputs": [
        {
          "internalType": "bytes32",
          "name": "",
          "type": "bytes32"
        }
      ],
      "stateMutability": "view",
      "type": "function"
    },
    {
      "inputs": [
        {
          "internalType": "uint256",
          "name": "_matchId",
          "type": "uint256"
        }
      ],
      "name": "acceptMatch",
      "outputs": [],
      "stateMutability": "nonpayable",
      "type": "function"
    },
    {
      "inputs": [
        {
          "internalType": "address",
          "name": "",
          "type": "address"
        }
      ],
      "name": "deathVerifications",
      "outputs": [
        {
          "internalType": "address",
          "name": "userAddress",
          "type": "address"
        },
        {
          "internalType": "string",
          "name": "certificateHash",
          "type": "string"
        },
        {
          "internalType": "uint256",
          "name": "requiredVerifications",
          "type": "uint256"
        },
        {
          "internalType": "uint256",
          "name": "verificationCount",
          "type": "uint256"
        },
        {
          "internalType": "bool",
          "name": "isVerified",
          "type": "bool"
        },
        {
          "internalType": "uint256",
          "name": "timestamp",
          "type": "uint256"
        }
      ],
      "stateMutability": "view",
      "type": "function"
    },
    {
      "inputs": [],
      "name": "findMatches",
      "outputs": [],
      "stateMutability": "nonpayable",
      "type": "function"
    },
    {
      "inputs": [
        {
          "internalType": "address",
          "name": "_userAddress",
          "type": "address"
        }
      ],
      "name": "getDeathVerification",
      "outputs": [
        {
          "components": [
            {
              "internalType": "address",
              "name": "userAddress",
              "type": "address"
            },
            {
              "internalType": "string",
              "name": "certificateHash",
              "type": "string"
            },
            {
              "internalType": "address[]",
              "name": "verifiers",
              "type": "address[]"
            },
            {
              "internalType": "uint256",
              "name": "requiredVerifications",
              "type": "uint256"
            },
            {
              "internalType": "uint256",
              "name": "verificationCount",
              "type": "uint256"
            },
            {
              "internalType": "bool",
              "name": "isVerified",
              "type": "bool"
            },
            {
              "internalType": "uint256",
              "name": "timestamp",
              "type": "uint256"
            }
          ],
          "internalType": "struct OrganDonationSystem.DeathVerification",
          "name": "",
          "type": "tuple"
        }
      ],
      "stateMutability": "view",
      "type": "function"
    },
    {
      "inputs": [
        {
          "internalType": "uint256",
          "name": "_matchId",
          "type": "uint256"
        }
      ],
      "name": "getMatch",
      "outputs": [
        {
          "components": [
            {
              "internalType": "uint256",
              "name": "matchId",
              "type": "uint256"
            },
            {
              "internalType": "address",
              "name": "donorAddress",
              "type": "address"
            },
            {
              "internalType": "address",
              "name": "patientAddress",
              "type": "address"
            },
            {
              "internalType": "uint256[]",
              "name": "matchingOrgans",
              "type": "uint256[]"
            },
            {
              "internalType": "uint256",
              "name": "matchScore",
              "type": "uint256"
            },
            {
              "internalType": "bool",
              "name": "isAccepted",
              "type": "bool"
            },
            {
              "internalType": "bool",
              "name": "isCompleted",
              "type": "bool"
            },
            {
              "internalType": "uint256",
              "name": "timestamp",
              "type": "uint256"
            }
          ],
          "internalType": "struct OrganDonationSystem.Match",
          "name": "",
          "type": "tuple"
        }
      ],
      "stateMutability": "view",
      "type": "function"
    },
    {
      "inputs": [
        {
          "internalType": "bytes32",
          "name": "role",
          "type": "bytes32"
        }
      ],
      "name": "getRoleAdmin",
      "outputs": [
        {
          "internalType": "bytes32",
          "name": "",
          "type": "bytes32"
        }
      ],
      "stateMutability": "view",
      "type": "function"
    },
    {
      "inputs": [
        {
          "internalType": "address",
          "name": "_userAddress",
          "type": "address"
        }
      ],
      "name": "getUserData",
      "outputs": [
        {
          "components": [
            {
              "internalType": "address",
              "name": "userAddress",
              "type": "address"
            },
            {
              "internalType": "string",
              "name": "ipfsHash",
              "type": "string"
            },
            {
              "internalType": "uint8",
              "name": "role",
              "type": "uint8"
            },
            {
              "internalType": "bool",
              "name": "isVerified",
              "type": "bool"
            },
            {
              "internalType": "bool",
              "name": "isActive",
              "type": "bool"
            },
            {
              "internalType": "uint256[]",
              "name": "organs",
              "type": "uint256[]"
            },
            {
              "internalType": "uint256",
              "name": "lastUpdate",
              "type": "uint256"
            }
          ],
          "internalType": "struct OrganDonationSystem.User",
          "name": "",
          "type": "tuple"
        }
      ],
      "stateMutability": "view",
      "type": "function"
    },
    {
      "inputs": [
        {
          "internalType": "address",
          "name": "_userAddress",
          "type": "address"
        }
      ],
      "name": "getUserNotifications",
      "outputs": [
        {
          "components": [
            {
              "internalType": "uint256",
              "name": "notificationId",
              "type": "uint256"
            },
            {
              "internalType": "address",
              "name": "recipient",
              "type": "address"
            },
            {
              "internalType": "string",
              "name": "message",
              "type": "string"
            },
            {
              "internalType": "bool",
              "name": "isRead",
              "type": "bool"
            },
            {
              "internalType": "uint256",
              "name": "timestamp",
              "type": "uint256"
            }
          ],
          "internalType": "struct OrganDonationSystem.Notification[]",
          "name": "",
          "type": "tuple[]"
        }
      ],
      "stateMutability": "view",
      "type": "function"
    },
    {
      "inputs": [
        {
          "internalType": "bytes32",
          "name": "role",
          "type": "bytes32"
        },
        {
          "internalType": "address",
          "name": "account",
          "type": "address"
        }
      ],
      "name": "grantRole",
      "outputs": [],
      "stateMutability": "nonpayable",
      "type": "function"
    },
    {
      "inputs": [
        {
          "internalType": "bytes32",
          "name": "role",
          "type": "bytes32"
        },
        {
          "internalType": "address",
          "name": "account",
          "type": "address"
        }
      ],
      "name": "hasRole",
      "outputs": [
        {
          "internalType": "bool",
          "name": "",
          "type": "bool"
        }
      ],
      "stateMutability": "view",
      "type": "function"
    },
    {
      "inputs": [
        {
          "internalType": "address",
          "name": "_userAddress",
          "type": "address"
        },
        {
          "internalType": "string",
          "name": "_certificateHash",
          "type": "string"
        }
      ],
      "name": "initiateDeathVerification",
      "outputs": [],
      "stateMutability": "nonpayable",
      "type": "function"
    },
    {
      "inputs": [
        {
          "internalType": "uint256",
          "name": "",
          "type": "uint256"
        }
      ],
      "name": "matches",
      "outputs": [
        {
          "internalType": "uint256",
          "name": "matchId",
          "type": "uint256"
        },
        {
          "internalType": "address",
          "name": "donorAddress",
          "type": "address"
        },
        {
          "internalType": "address",
          "name": "patientAddress",
          "type": "address"
        },
        {
          "internalType": "uint256",
          "name": "matchScore",
          "type": "uint256"
        },
        {
          "internalType": "bool",
          "name": "isAccepted",
          "type": "bool"
        },
        {
          "internalType": "bool",
          "name": "isCompleted",
          "type": "bool"
        },
        {
          "internalType": "uint256",
          "name": "timestamp",
          "type": "uint256"
        }
      ],
      "stateMutability": "view",
      "type": "function"
    },
    {
      "inputs": [
        {
          "internalType": "address",
          "name": "",
          "type": "address"
        },
        {
          "internalType": "uint256",
          "name": "",
          "type": "uint256"
        }
      ],
      "name": "notifications",
      "outputs": [
        {
          "internalType": "uint256",
          "name": "notificationId",
          "type": "uint256"
        },
        {
          "internalType": "address",
          "name": "recipient",
          "type": "address"
        },
        {
          "internalType": "string",
          "name": "message",
          "type": "string"
        },
        {
          "internalType": "bool",
          "name": "isRead",
          "type": "bool"
        },
        {
          "internalType": "uint256",
          "name": "timestamp",
          "type": "uint256"
        }
      ],
      "stateMutability": "view",
      "type": "function"
    },
    {
      "inputs": [
        {
          "internalType": "string",
          "name": "_ipfsHash",
          "type": "string"
        },
        {
          "internalType": "uint8",
          "name": "_role",
          "type": "uint8"
        },
        {
          "internalType": "uint256[]",
          "name": "_organs",
          "type": "uint256[]"
        }
      ],
      "name": "registerUser",
      "outputs": [],
      "stateMutability": "nonpayable",
      "type": "function"
    },
    {
      "inputs": [
        {
          "internalType": "bytes32",
          "name": "role",
          "type": "bytes32"
        },
        {
          "internalType": "address",
          "name": "account",
          "type": "address"
        }
      ],
      "name": "renounceRole",
      "outputs": [],
      "stateMutability": "nonpayable",
      "type": "function"
    },
    {
      "inputs": [
        {
          "internalType": "bytes32",
          "name": "role",
          "type": "bytes32"
        },
        {
          "internalType": "address",
          "name": "account",
          "type": "address"
        }
      ],
      "name": "revokeRole",
      "outputs": [],
      "stateMutability": "nonpayable",
      "type": "function"
    },
    {
      "inputs": [
        {
          "internalType": "bytes4",
          "name": "interfaceId",
          "type": "bytes4"
        }
      ],
      "name": "supportsInterface",
      "outputs": [
        {
          "internalType": "bool",
          "name": "",
          "type": "bool"
        }
      ],
      "stateMutability": "view",
      "type": "function"
    },
    {
      "inputs": [
        {
          "internalType": "address",
          "name": "",
          "type": "address"
        },
        {
          "internalType": "uint256",
          "name": "",
          "type": "uint256"
        }
      ],
      "name": "userMatches",
      "outputs": [
        {
          "internalType": "uint256",
          "name": "",
          "type": "uint256"
        }
      ],
      "stateMutability": "view",
      "type": "function"
    },
    {
      "inputs": [
        {
          "internalType": "address",
          "name": "",
          "type": "address"
        }
      ],
      "name": "userNotificationCount",
      "outputs": [
        {
          "internalType": "uint256",
          "name": "",
          "type": "uint256"
        }
      ],
      "stateMutability": "view",
      "type": "function"
    },
    {
      "inputs": [
        {
          "internalType": "address",
          "name": "",
          "type": "address"
        }
      ],
      "name": "users",
      "outputs": [
        {
          "internalType": "address",
          "name": "userAddress",
          "type": "address"
        },
        {
          "internalType": "string",
          "name": "ipfsHash",
          "type": "string"
        },
        {
          "internalType": "uint8",
          "name": "role",
          "type": "uint8"
        },
        {
          "internalType": "bool",
          "name": "isVerified",
          "type": "bool"
        },
        {
          "internalType": "bool",
          "name": "isActive",
          "type": "bool"
        },
        {
          "internalType": "uint256",
          "name": "lastUpdate",
          "type": "uint256"
        }
      ],
      "stateMutability": "view",
      "type": "function"
    },
    {
      "inputs": [
        {
          "internalType": "address",
          "name": "_userAddress",
          "type": "address"
        }
      ],
      "name": "verifyDeath",
      "outputs": [],
      "stateMutability": "nonpayable",
      "type": "function"
    }
  ],
  "bytecode": "0x60806040523480156200001157600080fd5b50600180819055506200002e6000801b336200006660201b60201c565b620000607fa49807205ce4d355092ef5a8a18f56e8913cf4a201fbe287825b095693c21775336200006660201b60201c565b620001df565b6200007882826200007c60201b60201c565b5050565b6200008e82826200016d60201b60201c565b6200016957600160008084815260200190815260200160002060000160008373ffffffffffffffffffffffffffffffffffffffff1673ffffffffffffffffffffffffffffffffffffffff16815260200190815260200160002060006101000a81548160ff0219169083151502179055506200010e620001d760201b60201c565b73ffffffffffffffffffffffffffffffffffffffff168173ffffffffffffffffffffffffffffffffffffffff16837f2f8788117e7eff1d82e926ec794901d17c78024a50270940304540a733656f0d60405160405180910390a45b5050565b600080600084815260200190815260200160002060000160008373ffffffffffffffffffffffffffffffffffffffff1673ffffffffffffffffffffffffffffffffffffffff16815260200190815260200160002060009054906101000a900460ff16905092915050565b600033905090565b61403080620001ef6000396000f3fe608060405234801561001057600080fd5b50600436106101585760003560e01c806391d14854116100c3578063d547741f1161007c578063d547741f14610437578063dd078fdd14610453578063e9e555831461046f578063f6ba66781461048b578063fd7fef9c146104a9578063ffc9896b146104d957610158565b806391d1485414610372578063a217fddf146103a2578063a87430ba146103c0578063aec23f39146103f5578063bebcd21e146103ff578063c91cf9f31461041b57610158565b80634768d4ef116101155780634768d4ef1461025a5780634b81eb551461029057806357f31358146102c057806365d0bddd146102f057806372b1f7ed1461032457806375b238fc1461035457610158565b806301ffc9a71461015d578063248a9ca31461018d5780632b3bfa07146101bd5780632f2ff15d146101f257806336568abe1461020e5780633d092b3d1461022a575b600080fd5b610177600480360381019061017291906126d2565b610509565b604051610184919061271a565b60405180910390f35b6101a760048036038101906101a2919061276b565b610583565b6040516101b491906127a7565b60405180910390f35b6101d760048036038101906101d29190612820565b6105a2565b6040516101e996959493929190612905565b60405180910390f35b61020c6004803603810190610207919061296d565b610693565b005b6102286004803603810190610223919061296d565b6106b4565b005b610244600480360381019061023f91906129d9565b610737565b6040516102519190612b92565b60405180910390f35b610274600480360381019061026f91906129d9565b6108bd565b6040516102879796959493929190612bb4565b60405180910390f35b6102aa60048036038101906102a59190612820565b610959565b6040516102b79190612dbf565b60405180910390f35b6102da60048036038101906102d59190612820565b610b61565b6040516102e79190612f19565b60405180910390f35b61030a60048036038101906103059190612f3b565b610d16565b60405161031b959493929190612f7b565b60405180910390f35b61033e60048036038101906103399190612820565b610e1e565b60405161034b9190612fd5565b60405180910390f35b61035c610e36565b60405161036991906127a7565b60405180910390f35b61038c6004803603810190610387919061296d565b610e5a565b604051610399919061271a565b60405180910390f35b6103aa610ec4565b6040516103b791906127a7565b60405180910390f35b6103da60048036038101906103d59190612820565b610ecb565b6040516103ec9695949392919061300c565b60405180910390f35b6103fd610fd6565b005b610419600480360381019061041491906129d9565b611003565b005b610435600480360381019061043091906131a9565b6112b1565b005b610451600480360381019061044c919061296d565b6115d7565b005b61046d600480360381019061046891906132f9565b6115f8565b005b61048960048036038101906104849190612820565b6118ec565b005b610493611c76565b6040516104a091906127a7565b60405180910390f35b6104c360048036038101906104be9190612f3b565b611c9a565b6040516104d09190612fd5565b60405180910390f35b6104f360048036038101906104ee9190612820565b611ccb565b6040516105009190613436565b60405180910390f35b60007f7965db0b000000000000000000000000000000000000000000000000000000007bffffffffffffffffffffffffffffffffffffffffffffffffffffffff1916827bffffffffffffffffffffffffffffffffffffffffffffffffffffffff1916148061057c575061057b82611ec1565b5b9050919050565b6000806000838152602001908152602001600020600101549050919050565b60056020528060005260406000206000915090508060000160009054906101000a900473ffffffffffffffffffffffffffffffffffffffff16908060010180546105eb90613487565b80601f016020809104026020016040519081016040528092919081815260200182805461061790613487565b80156106645780601f1061063957610100808354040283529160200191610664565b820191906000526020600020905b81548152906001019060200180831161064757829003601f168201915b5050505050908060030154908060040154908060050160009054906101000a900460ff16908060060154905086565b61069c82610583565b6106a581611f2b565b6106af8383611f3f565b505050565b6106bc61201f565b73ffffffffffffffffffffffffffffffffffffffff168173ffffffffffffffffffffffffffffffffffffffff1614610729576040517f08c379a00000000000000000000000000000000000000000000000000000000081526004016107209061352a565b60405180910390fd5b6107338282612027565b5050565b61073f61244e565b6006600083815260200190815260200160002060405180610100016040529081600082015481526020016001820160009054906101000a900473ffffffffffffffffffffffffffffffffffffffff1673ffffffffffffffffffffffffffffffffffffffff1673ffffffffffffffffffffffffffffffffffffffff1681526020016002820160009054906101000a900473ffffffffffffffffffffffffffffffffffffffff1673ffffffffffffffffffffffffffffffffffffffff1673ffffffffffffffffffffffffffffffffffffffff1681526020016003820180548060200260200160405190810160405280929190818152602001828054801561086357602002820191906000526020600020905b81548152602001906001019080831161084f575b50505050508152602001600482015481526020016005820160009054906101000a900460ff161515151581526020016005820160019054906101000a900460ff161515151581526020016006820154815250509050919050565b60066020528060005260406000206000915090508060000154908060010160009054906101000a900473ffffffffffffffffffffffffffffffffffffffff16908060020160009054906101000a900473ffffffffffffffffffffffffffffffffffffffff16908060040154908060050160009054906101000a900460ff16908060050160019054906101000a900460ff16908060060154905087565b6109616124c3565b600560008373ffffffffffffffffffffffffffffffffffffffff1673ffffffffffffffffffffffffffffffffffffffff1681526020019081526020016000206040518060e00160405290816000820160009054906101000a900473ffffffffffffffffffffffffffffffffffffffff1673ffffffffffffffffffffffffffffffffffffffff1673ffffffffffffffffffffffffffffffffffffffff168152602001600182018054610a1190613487565b80601f0160208091040260200160405190810160405280929190818152602001828054610a3d90613487565b8015610a8a5780601f10610a5f57610100808354040283529160200191610a8a565b820191906000526020600020905b815481529060010190602001808311610a6d57829003601f168201915b5050505050815260200160028201805480602002602001604051908101604052809291908181526020018280548015610b1857602002820191906000526020600020905b8160009054906101000a900473ffffffffffffffffffffffffffffffffffffffff1673ffffffffffffffffffffffffffffffffffffffff1681526020019060010190808311610ace575b5050505050815260200160038201548152602001600482015481526020016005820160009054906101000a900460ff161515151581526020016006820154815250509050919050565b6060600860008373ffffffffffffffffffffffffffffffffffffffff1673ffffffffffffffffffffffffffffffffffffffff168152602001908152602001600020805480602002602001604051908101604052809291908181526020016000905b82821015610d0b57838290600052602060002090600502016040518060a0016040529081600082015481526020016001820160009054906101000a900473ffffffffffffffffffffffffffffffffffffffff1673ffffffffffffffffffffffffffffffffffffffff1673ffffffffffffffffffffffffffffffffffffffff168152602001600282018054610c5590613487565b80601f0160208091040260200160405190810160405280929190818152602001828054610c8190613487565b8015610cce5780601f10610ca357610100808354040283529160200191610cce565b820191906000526020600020905b815481529060010190602001808311610cb157829003601f168201915b505050505081526020016003820160009054906101000a900460ff1615151515815260200160048201548152505081526020019060010190610bc2565b505050509050919050565b60086020528160005260406000208181548110610d3257600080fd5b9060005260206000209060050201600091509150508060000154908060010160009054906101000a900473ffffffffffffffffffffffffffffffffffffffff1690806002018054610d8290613487565b80601f0160208091040260200160405190810160405280929190818152602001828054610dae90613487565b8015610dfb5780601f10610dd057610100808354040283529160200191610dfb565b820191906000526020600020905b815481529060010190602001808311610dde57829003601f168201915b5050505050908060030160009054906101000a900460ff16908060040154905085565b60096020528060005260406000206000915090505481565b7fa49807205ce4d355092ef5a8a18f56e8913cf4a201fbe287825b095693c2177581565b600080600084815260200190815260200160002060000160008373ffffffffffffffffffffffffffffffffffffffff1673ffffffffffffffffffffffffffffffffffffffff16815260200190815260200160002060009054906101000a900460ff16905092915050565b6000801b81565b60046020528060005260406000206000915090508060000160009054906101000a900473ffffffffffffffffffffffffffffffffffffffff1690806001018054610f1490613487565b80601f0160208091040260200160405190810160405280929190818152602001828054610f4090613487565b8015610f8d5780601f10610f6257610100808354040283529160200191610f8d565b820191906000526020600020905b815481529060010190602001808311610f7057829003601f168201915b5050505050908060020160009054906101000a900460ff16908060020160019054906101000a900460ff16908060020160029054906101000a900460ff16908060040154905086565b7fa49807205ce4d355092ef5a8a18f56e8913cf4a201fbe287825b095693c2177561100081611f2b565b50565b600460003373ffffffffffffffffffffffffffffffffffffffff1673ffffffffffffffffffffffffffffffffffffffff16815260200190815260200160002060020160019054906101000a900460ff16611092576040517f08c379a000000000000000000000000000000000000000000000000000000000815260040161108990613596565b60405180910390fd5b600460003373ffffffffffffffffffffffffffffffffffffffff1673ffffffffffffffffffffffffffffffffffffffff16815260200190815260200160002060020160029054906101000a900460ff16611121576040517f08c379a000000000000000000000000000000000000000000000000000000000815260040161111890613602565b60405180910390fd5b6000600660008381526020019081526020016000209050600081600001540361117f576040517f08c379a00000000000000000000000000000000000000000000000000000000081526004016111769061366e565b60405180910390fd5b8060050160009054906101000a900460ff16156111d1576040517f08c379a00000000000000000000000000000000000000000000000000000000081526004016111c8906136da565b60405180910390fd5b8060020160009054906101000a900473ffffffffffffffffffffffffffffffffffffffff1673ffffffffffffffffffffffffffffffffffffffff163373ffffffffffffffffffffffffffffffffffffffff1614611263576040517f08c379a000000000000000000000000000000000000000000000000000000000815260040161125a90613746565b60405180910390fd5b60018160050160006101000a81548160ff021916908315150217905550817f73715571185459f4f39409a64e51c86a3d41bb71cf95d02554c190501fdf948860405160405180910390a25050565b7fc8f5b4140cca307cd927e59cbeea8291bffeee228fc677f0fa059aef7b4dd8d56112db81611f2b565b600460008473ffffffffffffffffffffffffffffffffffffffff1673ffffffffffffffffffffffffffffffffffffffff16815260200190815260200160002060020160029054906101000a900460ff1661136a576040517f08c379a000000000000000000000000000000000000000000000000000000000815260040161136190613602565b60405180910390fd5b600073ffffffffffffffffffffffffffffffffffffffff16600560008573ffffffffffffffffffffffffffffffffffffffff1673ffffffffffffffffffffffffffffffffffffffff16815260200190815260200160002060000160009054906101000a900473ffffffffffffffffffffffffffffffffffffffff1673ffffffffffffffffffffffffffffffffffffffff161461143b576040517f08c379a0000000000000000000000000000000000000000000000000000000008152600401611432906137b2565b60405180910390fd5b6000600367ffffffffffffffff8111156114585761145761307e565b5b6040519080825280602002602001820160405280156114865781602001602082028036833780820191505090505b5090506040518060e001604052808573ffffffffffffffffffffffffffffffffffffffff168152602001848152602001828152602001600381526020016000815260200160001515815260200142815250600560008673ffffffffffffffffffffffffffffffffffffffff1673ffffffffffffffffffffffffffffffffffffffff16815260200190815260200160002060008201518160000160006101000a81548173ffffffffffffffffffffffffffffffffffffffff021916908373ffffffffffffffffffffffffffffffffffffffff1602179055506020820151816001019081611572919061397e565b50604082015181600201908051906020019061158f929190612518565b50606082015181600301556080820151816004015560a08201518160050160006101000a81548160ff02191690831515021790555060c0820151816006015590505050505050565b6115e082610583565b6115e981611f2b565b6115f38383612027565b505050565b611600612108565b60018260ff161115611647576040517f08c379a000000000000000000000000000000000000000000000000000000000815260040161163e90613a9c565b60405180910390fd5b600073ffffffffffffffffffffffffffffffffffffffff16600460003373ffffffffffffffffffffffffffffffffffffffff1673ffffffffffffffffffffffffffffffffffffffff16815260200190815260200160002060000160009054906101000a900473ffffffffffffffffffffffffffffffffffffffff1673ffffffffffffffffffffffffffffffffffffffff1614611718576040517f08c379a000000000000000000000000000000000000000000000000000000000815260040161170f90613b08565b60405180910390fd5b6040518060e001604052803373ffffffffffffffffffffffffffffffffffffffff1681526020018481526020018360ff16815260200160001515815260200160011515815260200182815260200142815250600460003373ffffffffffffffffffffffffffffffffffffffff1673ffffffffffffffffffffffffffffffffffffffff16815260200190815260200160002060008201518160000160006101000a81548173ffffffffffffffffffffffffffffffffffffffff021916908373ffffffffffffffffffffffffffffffffffffffff1602179055506020820151816001019081611805919061397e565b5060408201518160020160006101000a81548160ff021916908360ff16021790555060608201518160020160016101000a81548160ff02191690831515021790555060808201518160020160026101000a81548160ff02191690831515021790555060a08201518160030190805190602001906118839291906125a2565b5060c082015181600401559050503373ffffffffffffffffffffffffffffffffffffffff167f8e18574f8a7333e6a87112742a55853a643e2f0550f4e1a3a2c3f1bb2994441d836040516118d79190613b28565b60405180910390a26118e7612157565b505050565b7fc8f5b4140cca307cd927e59cbeea8291bffeee228fc677f0fa059aef7b4dd8d561191681611f2b565b6000600560008473ffffffffffffffffffffffffffffffffffffffff1673ffffffffffffffffffffffffffffffffffffffff1681526020019081526020016000209050600073ffffffffffffffffffffffffffffffffffffffff168160000160009054906101000a900473ffffffffffffffffffffffffffffffffffffffff1673ffffffffffffffffffffffffffffffffffffffff16036119ec576040517f08c379a00000000000000000000000000000000000000000000000000000000081526004016119e390613b8f565b60405180910390fd5b8060050160009054906101000a900460ff1615611a3e576040517f08c379a0000000000000000000000000000000000000000000000000000000008152600401611a3590613bfb565b60405180910390fd5b60005b8160020180549050811015611b11573373ffffffffffffffffffffffffffffffffffffffff16826002018281548110611a7d57611a7c613c1b565b5b9060005260206000200160009054906101000a900473ffffffffffffffffffffffffffffffffffffffff1673ffffffffffffffffffffffffffffffffffffffff1603611afe576040517f08c379a0000000000000000000000000000000000000000000000000000000008152600401611af590613cbc565b60405180910390fd5b8080611b0990613d0b565b915050611a41565b503381600201826004015481548110611b2d57611b2c613c1b565b5b9060005260206000200160006101000a81548173ffffffffffffffffffffffffffffffffffffffff021916908373ffffffffffffffffffffffffffffffffffffffff160217905550806004016000815480929190611b8a90613d0b565b91905055508060030154816004015410611c175760018160050160006101000a81548160ff0219169083151502179055506000600460008573ffffffffffffffffffffffffffffffffffffffff1673ffffffffffffffffffffffffffffffffffffffff16815260200190815260200160002060020160026101000a81548160ff0219169083151502179055505b3373ffffffffffffffffffffffffffffffffffffffff168373ffffffffffffffffffffffffffffffffffffffff167f3c7b9251de463f074d98c5c68ef3b92bdc548939d242147f879fee0ed13a760260405160405180910390a3505050565b7fc8f5b4140cca307cd927e59cbeea8291bffeee228fc677f0fa059aef7b4dd8d581565b60076020528160005260406000208181548110611cb657600080fd5b90600052602060002001600091509150505481565b611cd36125ef565b600460008373ffffffffffffffffffffffffffffffffffffffff1673ffffffffffffffffffffffffffffffffffffffff1681526020019081526020016000206040518060e00160405290816000820160009054906101000a900473ffffffffffffffffffffffffffffffffffffffff1673ffffffffffffffffffffffffffffffffffffffff1673ffffffffffffffffffffffffffffffffffffffff168152602001600182018054611d8390613487565b80601f0160208091040260200160405190810160405280929190818152602001828054611daf90613487565b8015611dfc5780601f10611dd157610100808354040283529160200191611dfc565b820191906000526020600020905b815481529060010190602001808311611ddf57829003601f168201915b505050505081526020016002820160009054906101000a900460ff1660ff1660ff1681526020016002820160019054906101000a900460ff161515151581526020016002820160029054906101000a900460ff1615151515815260200160038201805480602002602001604051908101604052809291908181526020018280548015611ea757602002820191906000526020600020905b815481526020019060010190808311611e93575b505050505081526020016004820154815250509050919050565b60007f01ffc9a7000000000000000000000000000000000000000000000000000000007bffffffffffffffffffffffffffffffffffffffffffffffffffffffff1916827bffffffffffffffffffffffffffffffffffffffffffffffffffffffff1916149050919050565b611f3c81611f3761201f565b612160565b50565b611f498282610e5a565b61201b57600160008084815260200190815260200160002060000160008373ffffffffffffffffffffffffffffffffffffffff1673ffffffffffffffffffffffffffffffffffffffff16815260200190815260200160002060006101000a81548160ff021916908315150217905550611fc061201f565b73ffffffffffffffffffffffffffffffffffffffff168173ffffffffffffffffffffffffffffffffffffffff16837f2f8788117e7eff1d82e926ec794901d17c78024a50270940304540a733656f0d60405160405180910390a45b5050565b600033905090565b6120318282610e5a565b1561210457600080600084815260200190815260200160002060000160008373ffffffffffffffffffffffffffffffffffffffff1673ffffffffffffffffffffffffffffffffffffffff16815260200190815260200160002060006101000a81548160ff0219169083151502179055506120a961201f565b73ffffffffffffffffffffffffffffffffffffffff168173ffffffffffffffffffffffffffffffffffffffff16837ff6391f5c32d9c69d2a47ea670b442974b53935d1edc7fd64eb21e047a839171b60405160405180910390a45b5050565b60026001540361214d576040517f08c379a000000000000000000000000000000000000000000000000000000000815260040161214490613d9f565b60405180910390fd5b6002600181905550565b60018081905550565b61216a8282610e5a565b6121e157612177816121e5565b6121858360001c6020612212565b604051602001612196929190613e93565b6040516020818303038152906040526040517f08c379a00000000000000000000000000000000000000000000000000000000081526004016121d89190613ecd565b60405180910390fd5b5050565b606061220b8273ffffffffffffffffffffffffffffffffffffffff16601460ff16612212565b9050919050565b6060600060028360026122259190613eef565b61222f9190613f31565b67ffffffffffffffff8111156122485761224761307e565b5b6040519080825280601f01601f19166020018201604052801561227a5781602001600182028036833780820191505090505b5090507f3000000000000000000000000000000000000000000000000000000000000000816000815181106122b2576122b1613c1b565b5b60200101907effffffffffffffffffffffffffffffffffffffffffffffffffffffffffffff1916908160001a9053507f78000000000000000000000000000000000000000000000000000000000000008160018151811061231657612315613c1b565b5b60200101907effffffffffffffffffffffffffffffffffffffffffffffffffffffffffffff1916908160001a905350600060018460026123569190613eef565b6123609190613f31565b90505b6001811115612400577f3031323334353637383961626364656600000000000000000000000000000000600f8616601081106123a2576123a1613c1b565b5b1a60f81b8282815181106123b9576123b8613c1b565b5b60200101907effffffffffffffffffffffffffffffffffffffffffffffffffffffffffffff1916908160001a905350600485901c9450806123f990613f65565b9050612363565b5060008414612444576040517f08c379a000000000000000000000000000000000000000000000000000000000815260040161243b90613fda565b60405180910390fd5b8091505092915050565b60405180610100016040528060008152602001600073ffffffffffffffffffffffffffffffffffffffff168152602001600073ffffffffffffffffffffffffffffffffffffffff1681526020016060815260200160008152602001600015158152602001600015158152602001600081525090565b6040518060e00160405280600073ffffffffffffffffffffffffffffffffffffffff16815260200160608152602001606081526020016000815260200160008152602001600015158152602001600081525090565b828054828255906000526020600020908101928215612591579160200282015b828111156125905782518260006101000a81548173ffffffffffffffffffffffffffffffffffffffff021916908373ffffffffffffffffffffffffffffffffffffffff16021790555091602001919060010190612538565b5b50905061259e9190612649565b5090565b8280548282559060005260206000209081019282156125de579160200282015b828111156125dd5782518255916020019190600101906125c2565b5b5090506125eb9190612649565b5090565b6040518060e00160405280600073ffffffffffffffffffffffffffffffffffffffff16815260200160608152602001600060ff16815260200160001515815260200160001515815260200160608152602001600081525090565b5b8082111561266257600081600090555060010161264a565b5090565b6000604051905090565b600080fd5b600080fd5b60007fffffffff0000000000000000000000000000000000000000000000000000000082169050919050565b6126af8161267a565b81146126ba57600080fd5b50565b6000813590506126cc816126a6565b92915050565b6000602082840312156126e8576126e7612670565b5b60006126f6848285016126bd565b91505092915050565b60008115159050919050565b612714816126ff565b82525050565b600060208201905061272f600083018461270b565b92915050565b6000819050919050565b61274881612735565b811461275357600080fd5b50565b6000813590506127658161273f565b92915050565b60006020828403121561278157612780612670565b5b600061278f84828501612756565b91505092915050565b6127a181612735565b82525050565b60006020820190506127bc6000830184612798565b92915050565b600073ffffffffffffffffffffffffffffffffffffffff82169050919050565b60006127ed826127c2565b9050919050565b6127fd816127e2565b811461280857600080fd5b50565b60008135905061281a816127f4565b92915050565b60006020828403121561283657612835612670565b5b60006128448482850161280b565b91505092915050565b612856816127e2565b82525050565b600081519050919050565b600082825260208201905092915050565b60005b8381101561289657808201518184015260208101905061287b565b60008484015250505050565b6000601f19601f8301169050919050565b60006128be8261285c565b6128c88185612867565b93506128d8818560208601612878565b6128e1816128a2565b840191505092915050565b6000819050919050565b6128ff816128ec565b82525050565b600060c08201905061291a600083018961284d565b818103602083015261292c81886128b3565b905061293b60408301876128f6565b61294860608301866128f6565b612955608083018561270b565b61296260a08301846128f6565b979650505050505050565b6000806040838503121561298457612983612670565b5b600061299285828601612756565b92505060206129a38582860161280b565b9150509250929050565b6129b6816128ec565b81146129c157600080fd5b50565b6000813590506129d3816129ad565b92915050565b6000602082840312156129ef576129ee612670565b5b60006129fd848285016129c4565b91505092915050565b612a0f816128ec565b82525050565b612a1e816127e2565b82525050565b600081519050919050565b600082825260208201905092915050565b6000819050602082019050919050565b6000612a5c8383612a06565b60208301905092915050565b6000602082019050919050565b6000612a8082612a24565b612a8a8185612a2f565b9350612a9583612a40565b8060005b83811015612ac6578151612aad8882612a50565b9750612ab883612a68565b925050600181019050612a99565b5085935050505092915050565b612adc816126ff565b82525050565b600061010083016000830151612afb6000860182612a06565b506020830151612b0e6020860182612a15565b506040830151612b216040860182612a15565b5060608301518482036060860152612b398282612a75565b9150506080830151612b4e6080860182612a06565b5060a0830151612b6160a0860182612ad3565b5060c0830151612b7460c0860182612ad3565b5060e0830151612b8760e0860182612a06565b508091505092915050565b60006020820190508181036000830152612bac8184612ae2565b905092915050565b600060e082019050612bc9600083018a6128f6565b612bd6602083018961284d565b612be3604083018861284d565b612bf060608301876128f6565b612bfd608083018661270b565b612c0a60a083018561270b565b612c1760c08301846128f6565b98975050505050505050565b600082825260208201905092915050565b6000612c3f8261285c565b612c498185612c23565b9350612c59818560208601612878565b612c62816128a2565b840191505092915050565b600081519050919050565b600082825260208201905092915050565b6000819050602082019050919050565b6000612ca58383612a15565b60208301905092915050565b6000602082019050919050565b6000612cc982612c6d565b612cd38185612c78565b9350612cde83612c89565b8060005b83811015612d0f578151612cf68882612c99565b9750612d0183612cb1565b925050600181019050612ce2565b5085935050505092915050565b600060e083016000830151612d346000860182612a15565b5060208301518482036020860152612d4c8282612c34565b91505060408301518482036040860152612d668282612cbe565b9150506060830151612d7b6060860182612a06565b506080830151612d8e6080860182612a06565b5060a0830151612da160a0860182612ad3565b5060c0830151612db460c0860182612a06565b508091505092915050565b60006020820190508181036000830152612dd98184612d1c565b905092915050565b600081519050919050565b600082825260208201905092915050565b6000819050602082019050919050565b600060a083016000830151612e256000860182612a06565b506020830151612e386020860182612a15565b5060408301518482036040860152612e508282612c34565b9150506060830151612e656060860182612ad3565b506080830151612e786080860182612a06565b508091505092915050565b6000612e8f8383612e0d565b905092915050565b6000602082019050919050565b6000612eaf82612de1565b612eb98185612dec565b935083602082028501612ecb85612dfd565b8060005b85811015612f075784840389528151612ee88582612e83565b9450612ef383612e97565b925060208a01995050600181019050612ecf565b50829750879550505050505092915050565b60006020820190508181036000830152612f338184612ea4565b905092915050565b60008060408385031215612f5257612f51612670565b5b6000612f608582860161280b565b9250506020612f71858286016129c4565b9150509250929050565b600060a082019050612f9060008301886128f6565b612f9d602083018761284d565b8181036040830152612faf81866128b3565b9050612fbe606083018561270b565b612fcb60808301846128f6565b9695505050505050565b6000602082019050612fea60008301846128f6565b92915050565b600060ff82169050919050565b61300681612ff0565b82525050565b600060c082019050613021600083018961284d565b818103602083015261303381886128b3565b90506130426040830187612ffd565b61304f606083018661270b565b61305c608083018561270b565b61306960a08301846128f6565b979650505050505050565b600080fd5b600080fd5b7f4e487b7100000000000000000000000000000000000000000000000000000000600052604160045260246000fd5b6130b6826128a2565b810181811067ffffffffffffffff821117156130d5576130d461307e565b5b80604052505050565b60006130e8612666565b90506130f482826130ad565b919050565b600067ffffffffffffffff8211156131145761311361307e565b5b61311d826128a2565b9050602081019050919050565b82818337600083830152505050565b600061314c613147846130f9565b6130de565b90508281526020810184848401111561316857613167613079565b5b61317384828561312a565b509392505050565b600082601f8301126131905761318f613074565b5b81356131a0848260208601613139565b91505092915050565b600080604083850312156131c0576131bf612670565b5b60006131ce8582860161280b565b925050602083013567ffffffffffffffff8111156131ef576131ee612675565b5b6131fb8582860161317b565b9150509250929050565b61320e81612ff0565b811461321957600080fd5b50565b60008135905061322b81613205565b92915050565b600067ffffffffffffffff82111561324c5761324b61307e565b5b602082029050602081019050919050565b600080fd5b600061327561327084613231565b6130de565b905080838252602082019050602084028301858111156132985761329761325d565b5b835b818110156132c157806132ad88826129c4565b84526020840193505060208101905061329a565b5050509392505050565b600082601f8301126132e0576132df613074565b5b81356132f0848260208601613262565b91505092915050565b60008060006060848603121561331257613311612670565b5b600084013567ffffffffffffffff8111156133305761332f612675565b5b61333c8682870161317b565b935050602061334d8682870161321c565b925050604084013567ffffffffffffffff81111561336e5761336d612675565b5b61337a868287016132cb565b9150509250925092565b61338d81612ff0565b82525050565b600060e0830160008301516133ab6000860182612a15565b50602083015184820360208601526133c38282612c34565b91505060408301516133d86040860182613384565b5060608301516133eb6060860182612ad3565b5060808301516133fe6080860182612ad3565b5060a083015184820360a08601526134168282612a75565b91505060c083015161342b60c0860182612a06565b508091505092915050565b600060208201905081810360008301526134508184613393565b905092915050565b7f4e487b7100000000000000000000000000000000000000000000000000000000600052602260045260246000fd5b6000600282049050600182168061349f57607f821691505b6020821081036134b2576134b1613458565b5b50919050565b7f416363657373436f6e74726f6c3a2063616e206f6e6c792072656e6f756e636560008201527f20726f6c657320666f722073656c660000000000000000000000000000000000602082015250565b6000613514602f83612867565b915061351f826134b8565b604082019050919050565b6000602082019050818103600083015261354381613507565b9050919050565b7f55736572206e6f74207665726966696564000000000000000000000000000000600082015250565b6000613580601183612867565b915061358b8261354a565b602082019050919050565b600060208201905081810360008301526135af81613573565b9050919050565b7f55736572206e6f74206163746976650000000000000000000000000000000000600082015250565b60006135ec600f83612867565b91506135f7826135b6565b602082019050919050565b6000602082019050818103600083015261361b816135df565b9050919050565b7f4d61746368206e6f7420666f756e640000000000000000000000000000000000600082015250565b6000613658600f83612867565b915061366382613622565b602082019050919050565b600060208201905081810360008301526136878161364b565b9050919050565b7f4d6174636820616c726561647920616363657074656400000000000000000000600082015250565b60006136c4601683612867565b91506136cf8261368e565b602082019050919050565b600060208201905081810360008301526136f3816136b7565b9050919050565b7f4e6f7420617574686f72697a6564000000000000000000000000000000000000600082015250565b6000613730600e83612867565b915061373b826136fa565b602082019050919050565b6000602082019050818103600083015261375f81613723565b9050919050565b7f566572696669636174696f6e20616c726561647920696e697469617465640000600082015250565b600061379c601e83612867565b91506137a782613766565b602082019050919050565b600060208201905081810360008301526137cb8161378f565b9050919050565b60008190508160005260206000209050919050565b60006020601f8301049050919050565b600082821b905092915050565b6000600883026138347fffffffffffffffffffffffffffffffffffffffffffffffffffffffffffffffff826137f7565b61383e86836137f7565b95508019841693508086168417925050509392505050565b6000819050919050565b600061387b613876613871846128ec565b613856565b6128ec565b9050919050565b6000819050919050565b61389583613860565b6138a96138a182613882565b848454613804565b825550505050565b600090565b6138be6138b1565b6138c981848461388c565b505050565b5b818110156138ed576138e26000826138b6565b6001810190506138cf565b5050565b601f82111561393257613903816137d2565b61390c846137e7565b8101602085101561391b578190505b61392f613927856137e7565b8301826138ce565b50505b505050565b600082821c905092915050565b600061395560001984600802613937565b1980831691505092915050565b600061396e8383613944565b9150826002028217905092915050565b6139878261285c565b67ffffffffffffffff8111156139a05761399f61307e565b5b6139aa8254613487565b6139b58282856138f1565b600060209050601f8311600181146139e857600084156139d6578287015190505b6139e08582613962565b865550613a48565b601f1984166139f6866137d2565b60005b82811015613a1e578489015182556001820191506020850194506020810190506139f9565b86831015613a3b5784890151613a37601f891682613944565b8355505b6001600288020188555050505b505050505050565b7f496e76616c696420726f6c650000000000000000000000000000000000000000600082015250565b6000613a86600c83612867565b9150613a9182613a50565b602082019050919050565b60006020820190508181036000830152613ab581613a79565b9050919050565b7f5573657220616c72656164792072656769737465726564000000000000000000600082015250565b6000613af2601783612867565b9150613afd82613abc565b602082019050919050565b60006020820190508181036000830152613b2181613ae5565b9050919050565b6000602082019050613b3d6000830184612ffd565b92915050565b7f4e6f20766572696669636174696f6e20696e6974696174656400000000000000600082015250565b6000613b79601983612867565b9150613b8482613b43565b602082019050919050565b60006020820190508181036000830152613ba881613b6c565b9050919050565b7f416c726561647920766572696669656400000000000000000000000000000000600082015250565b6000613be5601083612867565b9150613bf082613baf565b602082019050919050565b60006020820190508181036000830152613c1481613bd8565b9050919050565b7f4e487b7100000000000000000000000000000000000000000000000000000000600052603260045260246000fd5b7f416c7265616479207665726966696564206279207468697320686f737069746160008201527f6c00000000000000000000000000000000000000000000000000000000000000602082015250565b6000613ca6602183612867565b9150613cb182613c4a565b604082019050919050565b60006020820190508181036000830152613cd581613c99565b9050919050565b7f4e487b7100000000000000000000000000000000000000000000000000000000600052601160045260246000fd5b6000613d16826128ec565b91507fffffffffffffffffffffffffffffffffffffffffffffffffffffffffffffffff8203613d4857613d47613cdc565b5b600182019050919050565b7f5265656e7472616e637947756172643a207265656e7472616e742063616c6c00600082015250565b6000613d89601f83612867565b9150613d9482613d53565b602082019050919050565b60006020820190508181036000830152613db881613d7c565b9050919050565b600081905092915050565b7f416363657373436f6e74726f6c3a206163636f756e7420000000000000000000600082015250565b6000613e00601783613dbf565b9150613e0b82613dca565b601782019050919050565b6000613e218261285c565b613e2b8185613dbf565b9350613e3b818560208601612878565b80840191505092915050565b7f206973206d697373696e6720726f6c6520000000000000000000000000000000600082015250565b6000613e7d601183613dbf565b9150613e8882613e47565b601182019050919050565b6000613e9e82613df3565b9150613eaa8285613e16565b9150613eb582613e70565b9150613ec18284613e16565b91508190509392505050565b60006020820190508181036000830152613ee781846128b3565b905092915050565b6000613efa826128ec565b9150613f05836128ec565b9250828202613f13816128ec565b91508282048414831517613f2a57613f29613cdc565b5b5092915050565b6000613f3c826128ec565b9150613f47836128ec565b9250828201905080821115613f5f57613f5e613cdc565b5b92915050565b6000613f70826128ec565b915060008203613f8357613f82613cdc565b5b600182039050919050565b7f537472696e67733a20686578206c656e67746820696e73756666696369656e74600082015250565b6000613fc4602083612867565b9150613fcf82613f8e565b602082019050919050565b60006020820190508181036000830152613ff381613fb7565b905091905056fea2646970667358221220ce32c7c380af3fcf21623ddae0734b1e8730f81a32294d4ae269fe4a3fb52f2a64736f6c63430008140033",
  "linkReferences": {},
  "deployedLinkReferences": {}
}