{
  "_format": "hh-sol-artifact-1",
  "contractName": "DonorBadge",
  "sourceName": "contracts/DonorBadge.sol",
  "abi": [
    {
      "inputs": [],
      "stateMutability": "nonpayable",
      "type": "constructor"
    },
    {
      "anonymous": false,
      "inputs": [
        {
          "indexed": true,
          "internalType": "address",
          "name": "owner",
          "type": "address"
        },
        {
          "indexed": true,
          "internalType": "address",
          "name": "approved",
          "type": "address"
        },
        {
          "indexed": true,
          "internalType": "uint256",
          "name": "tokenId",
          "type": "uint256"
        }
      ],
      "name": "Approval",
      "type": "event"
    },
    {
      "anonymous": false,
      "inputs": [
        {
          "indexed": true,
          "internalType": "address",
          "name": "owner",
          "type": "address"
        },
        {
          "indexed": true,
          "internalType": "address",
          "name": "operator",
          "type": "address"
        },
        {
          "indexed": false,
          "internalType": "bool",
          "name": "approved",
          "type": "bool"
        }
      ],
      "name": "ApprovalForAll",
      "type": "event"
    },
    {
      "anonymous": false,
      "inputs": [
        {
          "indexed": true,
          "internalType": "address",
          "name": "previousOwner",
          "type": "address"
        },
        {
          "indexed": true,
          "internalType": "address",
          "name": "newOwner",
          "type": "address"
        }
      ],
      "name": "OwnershipTransferred",
      "type": "event"
    },
    {
      "anonymous": false,
      "inputs": [
        {
          "indexed": true,
          "internalType": "address",
          "name": "from",
          "type": "address"
        },
        {
          "indexed": true,
          "internalType": "address",
          "name": "to",
          "type": "address"
        },
        {
          "indexed": true,
          "internalType": "uint256",
          "name": "tokenId",
          "type": "uint256"
        }
      ],
      "name": "Transfer",
      "type": "event"
    },
    {
      "inputs": [
        {
          "internalType": "address",
          "name": "to",
          "type": "address"
        },
        {
          "internalType": "uint256",
          "name": "tokenId",
          "type": "uint256"
        }
      ],
      "name": "approve",
      "outputs": [],
      "stateMutability": "nonpayable",
      "type": "function"
    },
    {
      "inputs": [
        {
          "internalType": "address",
          "name": "owner",
          "type": "address"
        }
      ],
      "name": "balanceOf",
      "outputs": [
        {
          "internalType": "uint256",
          "name": "",
          "type": "uint256"
        }
      ],
      "stateMutability": "view",
      "type": "function"
    },
    {
      "inputs": [
        {
          "internalType": "uint256",
          "name": "tokenId",
          "type": "uint256"
        }
      ],
      "name": "getApproved",
      "outputs": [
        {
          "internalType": "address",
          "name": "",
          "type": "address"
        }
      ],
      "stateMutability": "view",
      "type": "function"
    },
    {
      "inputs": [
        {
          "internalType": "address",
          "name": "owner",
          "type": "address"
        },
        {
          "internalType": "address",
          "name": "operator",
          "type": "address"
        }
      ],
      "name": "isApprovedForAll",
      "outputs": [
        {
          "internalType": "bool",
          "name": "",
          "type": "bool"
        }
      ],
      "stateMutability": "view",
      "type": "function"
    },
    {
      "inputs": [
        {
          "internalType": "address",
          "name": "to",
          "type": "address"
        },
        {
          "internalType": "uint256",
          "name": "tokenId",
          "type": "uint256"
        },
        {
          "internalType": "string",
          "name": "_tokenURI",
          "type": "string"
        }
      ],
      "name": "mint",
      "outputs": [],
      "stateMutability": "nonpayable",
      "type": "function"
    },
    {
      "inputs": [],
      "name": "name",
      "outputs": [
        {
          "internalType": "string",
          "name": "",
          "type": "string"
        }
      ],
      "stateMutability": "view",
      "type": "function"
    },
    {
      "inputs": [],
      "name": "owner",
      "outputs": [
        {
          "internalType": "address",
          "name": "",
          "type": "address"
        }
      ],
      "stateMutability": "view",
      "type": "function"
    },
    {
      "inputs": [
        {
          "internalType": "uint256",
          "name": "tokenId",
          "type": "uint256"
        }
      ],
      "name": "ownerOf",
      "outputs": [
        {
          "internalType": "address",
          "name": "",
          "type": "address"
        }
      ],
      "stateMutability": "view",
      "type": "function"
    },
    {
      "inputs": [],
      "name": "renounceOwnership",
      "outputs": [],
      "stateMutability": "nonpayable",
      "type": "function"
    },
    {
      "inputs": [
        {
          "internalType": "address",
          "name": "from",
          "type": "address"
        },
        {
          "internalType": "address",
          "name": "to",
          "type": "address"
        },
        {
          "internalType": "uint256",
          "name": "tokenId",
          "type": "uint256"
        }
      ],
      "name": "safeTransferFrom",
      "outputs": [],
      "stateMutability": "nonpayable",
      "type": "function"
    },
    {
      "inputs": [
        {
          "internalType": "address",
          "name": "from",
          "type": "address"
        },
        {
          "internalType": "address",
          "name": "to",
          "type": "address"
        },
        {
          "internalType": "uint256",
          "name": "tokenId",
          "type": "uint256"
        },
        {
          "internalType": "bytes",
          "name": "data",
          "type": "bytes"
        }
      ],
      "name": "safeTransferFrom",
      "outputs": [],
      "stateMutability": "nonpayable",
      "type": "function"
    },
    {
      "inputs": [
        {
          "internalType": "address",
          "name": "operator",
          "type": "address"
        },
        {
          "internalType": "bool",
          "name": "approved",
          "type": "bool"
        }
      ],
      "name": "setApprovalForAll",
      "outputs": [],
      "stateMutability": "nonpayable",
      "type": "function"
    },
    {
      "inputs": [
        {
          "internalType": "string",
          "name": "baseURI",
          "type": "string"
        }
      ],
      "name": "setBaseURI",
      "outputs": [],
      "stateMutability": "nonpayable",
      "type": "function"
    },
    {
      "inputs": [
        {
          "internalType": "bytes4",
          "name": "interfaceId",
          "type": "bytes4"
        }
      ],
      "name": "supportsInterface",
      "outputs": [
        {
          "internalType": "bool",
          "name": "",
          "type": "bool"
        }
      ],
      "stateMutability": "view",
      "type": "function"
    },
    {
      "inputs": [],
      "name": "symbol",
      "outputs": [
        {
          "internalType": "string",
          "name": "",
          "type": "string"
        }
      ],
      "stateMutability": "view",
      "type": "function"
    },
    {
      "inputs": [
        {
          "internalType": "uint256",
          "name": "index",
          "type": "uint256"
        }
      ],
      "name": "tokenByIndex",
      "outputs": [
        {
          "internalType": "uint256",
          "name": "",
          "type": "uint256"
        }
      ],
      "stateMutability": "view",
      "type": "function"
    },
    {
      "inputs": [
        {
          "internalType": "address",
          "name": "owner",
          "type": "address"
        },
        {
          "internalType": "uint256",
          "name": "index",
          "type": "uint256"
        }
      ],
      "name": "tokenOfOwnerByIndex",
      "outputs": [
        {
          "internalType": "uint256",
          "name": "",
          "type": "uint256"
        }
      ],
      "stateMutability": "view",
      "type": "function"
    },
    {
      "inputs": [
        {
          "internalType": "uint256",
          "name": "tokenId",
          "type": "uint256"
        }
      ],
      "name": "tokenURI",
      "outputs": [
        {
          "internalType": "string",
          "name": "",
          "type": "string"
        }
      ],
      "stateMutability": "view",
      "type": "function"
    },
    {
      "inputs": [],
      "name": "totalSupply",
      "outputs": [
        {
          "internalType": "uint256",
          "name": "",
          "type": "uint256"
        }
      ],
      "stateMutability": "view",
      "type": "function"
    },
    {
      "inputs": [
        {
          "internalType": "address",
          "name": "from",
          "type": "address"
        },
        {
          "internalType": "address",
          "name": "to",
          "type": "address"
        },
        {
          "internalType": "uint256",
          "name": "tokenId",
          "type": "uint256"
        }
      ],
      "name": "transferFrom",
      "outputs": [],
      "stateMutability": "nonpayable",
      "type": "function"
    },
    {
      "inputs": [
        {
          "internalType": "address",
          "name": "newOwner",
          "type": "address"
        }
      ],
      "name": "transferOwnership",
      "outputs": [],
      "stateMutability": "nonpayable",
      "type": "function"
    }
  ],
  "bytecode": "0x60806040523480156200001157600080fd5b506040518060400160405280600a81526020017f446f6e6f724261646765000000000000000000000000000000000000000000008152506040518060400160405280600681526020017f444241444745000000000000000000000000000000000000000000000000000081525081600090816200008f919062000412565b508060019081620000a1919062000412565b505050620000c4620000b8620000ca60201b60201c565b620000d260201b60201c565b620004f9565b600033905090565b6000600a60009054906101000a900473ffffffffffffffffffffffffffffffffffffffff16905081600a60006101000a81548173ffffffffffffffffffffffffffffffffffffffff021916908373ffffffffffffffffffffffffffffffffffffffff1602179055508173ffffffffffffffffffffffffffffffffffffffff168173ffffffffffffffffffffffffffffffffffffffff167f8be0079c531659141344cd1fd0a4f28419497f9722a3daafe3b4186f6b6457e060405160405180910390a35050565b600081519050919050565b7f4e487b7100000000000000000000000000000000000000000000000000000000600052604160045260246000fd5b7f4e487b7100000000000000000000000000000000000000000000000000000000600052602260045260246000fd5b600060028204905060018216806200021a57607f821691505b60208210810362000230576200022f620001d2565b5b50919050565b60008190508160005260206000209050919050565b60006020601f8301049050919050565b600082821b905092915050565b6000600883026200029a7fffffffffffffffffffffffffffffffffffffffffffffffffffffffffffffffff826200025b565b620002a686836200025b565b95508019841693508086168417925050509392505050565b6000819050919050565b6000819050919050565b6000620002f3620002ed620002e784620002be565b620002c8565b620002be565b9050919050565b6000819050919050565b6200030f83620002d2565b620003276200031e82620002fa565b84845462000268565b825550505050565b600090565b6200033e6200032f565b6200034b81848462000304565b505050565b5b8181101562000373576200036760008262000334565b60018101905062000351565b5050565b601f821115620003c2576200038c8162000236565b62000397846200024b565b81016020851015620003a7578190505b620003bf620003b6856200024b565b83018262000350565b50505b505050565b600082821c905092915050565b6000620003e760001984600802620003c7565b1980831691505092915050565b6000620004028383620003d4565b9150826002028217905092915050565b6200041d8262000198565b67ffffffffffffffff811115620004395762000438620001a3565b5b62000445825462000201565b6200045282828562000377565b600060209050601f8311600181146200048a576000841562000475578287015190505b620004818582620003f4565b865550620004f1565b601f1984166200049a8662000236565b60005b82811015620004c4578489015182556001820191506020850194506020810190506200049d565b86831015620004e45784890151620004e0601f891682620003d4565b8355505b6001600288020188555050505b505050505050565b6137f580620005096000396000f3fe608060405234801561001057600080fd5b50600436106101375760003560e01c80636352211e116100b8578063a22cb4651161007c578063a22cb4651461034e578063b88d4fde1461036a578063c87b56dd14610386578063d3fc9864146103b6578063e985e9c5146103d2578063f2fde38b1461040257610137565b80636352211e146102a857806370a08231146102d8578063715018a6146103085780638da5cb5b1461031257806395d89b411461033057610137565b806323b872dd116100ff57806323b872dd146101f45780632f745c591461021057806342842e0e146102405780634f6ccce71461025c57806355f804b31461028c57610137565b806301ffc9a71461013c57806306fdde031461016c578063081812fc1461018a578063095ea7b3146101ba57806318160ddd146101d6575b600080fd5b61015660048036038101906101519190612313565b61041e565b604051610163919061235b565b60405180910390f35b610174610430565b6040516101819190612406565b60405180910390f35b6101a4600480360381019061019f919061245e565b6104c2565b6040516101b191906124cc565b60405180910390f35b6101d460048036038101906101cf9190612513565b610508565b005b6101de610611565b6040516101eb9190612562565b60405180910390f35b61020e6004803603810190610209919061257d565b61061e565b005b61022a60048036038101906102259190612513565b61067e565b6040516102379190612562565b60405180910390f35b61025a6004803603810190610255919061257d565b610723565b005b6102766004803603810190610271919061245e565b610743565b6040516102839190612562565b60405180910390f35b6102a660048036038101906102a19190612705565b6107b4565b005b6102c260048036038101906102bd919061245e565b6107cf565b6040516102cf91906124cc565b60405180910390f35b6102f260048036038101906102ed919061274e565b610855565b6040516102ff9190612562565b60405180910390f35b61031061090c565b005b61031a610920565b60405161032791906124cc565b60405180910390f35b61033861094a565b6040516103459190612406565b60405180910390f35b610368600480360381019061036391906127a7565b6109dc565b005b610384600480360381019061037f9190612888565b610a59565b005b6103a0600480360381019061039b919061245e565b610abb565b6040516103ad9190612406565b60405180910390f35b6103d060048036038101906103cb919061290b565b610bf9565b005b6103ec60048036038101906103e7919061297a565b610c31565b6040516103f9919061235b565b60405180910390f35b61041c6004803603810190610417919061274e565b610cc5565b005b600061042982610d48565b9050919050565b60606000805461043f906129e9565b80601f016020809104026020016040519081016040528092919081815260200182805461046b906129e9565b80156104b85780601f1061048d576101008083540402835291602001916104b8565b820191906000526020600020905b81548152906001019060200180831161049b57829003601f168201915b5050505050905090565b60006104cd82610dc2565b6004600083815260200190815260200160002060009054906101000a900473ffffffffffffffffffffffffffffffffffffffff169050919050565b6000610513826107cf565b90508073ffffffffffffffffffffffffffffffffffffffff168373ffffffffffffffffffffffffffffffffffffffff1603610583576040517f08c379a000000000000000000000000000000000000000000000000000000000815260040161057a90612a8c565b60405180910390fd5b8073ffffffffffffffffffffffffffffffffffffffff163373ffffffffffffffffffffffffffffffffffffffff1614806105c357506105c28133610c31565b5b610602576040517f08c379a00000000000000000000000000000000000000000000000000000000081526004016105f990612b1e565b60405180910390fd5b61060c8383610e0d565b505050565b6000600880549050905090565b61062f610629610ec6565b82610ece565b61066e576040517f08c379a000000000000000000000000000000000000000000000000000000000815260040161066590612bb0565b60405180910390fd5b610679838383610f63565b505050565b600061068983610855565b82106106ca576040517f08c379a00000000000000000000000000000000000000000000000000000000081526004016106c190612c42565b60405180910390fd5b600660008473ffffffffffffffffffffffffffffffffffffffff1673ffffffffffffffffffffffffffffffffffffffff168152602001908152602001600020600083815260200190815260200160002054905092915050565b61073e83838360405180602001604052806000815250610a59565b505050565b600061074d610611565b821061078e576040517f08c379a000000000000000000000000000000000000000000000000000000000815260040161078590612cd4565b60405180910390fd5b600882815481106107a2576107a1612cf4565b5b90600052602060002001549050919050565b6107bc61125c565b80600b90816107cb9190612ecf565b5050565b6000806107db836112da565b9050600073ffffffffffffffffffffffffffffffffffffffff168173ffffffffffffffffffffffffffffffffffffffff160361084c576040517f08c379a000000000000000000000000000000000000000000000000000000000815260040161084390612fed565b60405180910390fd5b80915050919050565b60008073ffffffffffffffffffffffffffffffffffffffff168273ffffffffffffffffffffffffffffffffffffffff16036108c5576040517f08c379a00000000000000000000000000000000000000000000000000000000081526004016108bc9061307f565b60405180910390fd5b600360008373ffffffffffffffffffffffffffffffffffffffff1673ffffffffffffffffffffffffffffffffffffffff168152602001908152602001600020549050919050565b61091461125c565b61091e6000611317565b565b6000600a60009054906101000a900473ffffffffffffffffffffffffffffffffffffffff16905090565b606060018054610959906129e9565b80601f0160208091040260200160405190810160405280929190818152602001828054610985906129e9565b80156109d25780601f106109a7576101008083540402835291602001916109d2565b820191906000526020600020905b8154815290600101906020018083116109b557829003601f168201915b5050505050905090565b3373ffffffffffffffffffffffffffffffffffffffff168273ffffffffffffffffffffffffffffffffffffffff1603610a4a576040517f08c379a0000000000000000000000000000000000000000000000000000000008152600401610a41906130eb565b60405180910390fd5b610a553383836113dd565b5050565b610a6a610a64610ec6565b83610ece565b610aa9576040517f08c379a0000000000000000000000000000000000000000000000000000000008152600401610aa090612bb0565b60405180910390fd5b610ab584848484611549565b50505050565b6060610ac6826115a5565b610b05576040517f08c379a0000000000000000000000000000000000000000000000000000000008152600401610afc9061317d565b60405180910390fd5b6000600c60008481526020019081526020016000208054610b25906129e9565b80601f0160208091040260200160405190810160405280929190818152602001828054610b51906129e9565b8015610b9e5780601f10610b7357610100808354040283529160200191610b9e565b820191906000526020600020905b815481529060010190602001808311610b8157829003601f168201915b505050505090506000610baf6115e6565b9050600082511115610bc5578192505050610bf4565b80610bcf85611678565b604051602001610be09291906131d9565b604051602081830303815290604052925050505b919050565b610c0161125c565b610c0b8383611746565b80600c60008481526020019081526020016000209081610c2b9190612ecf565b50505050565b6000600560008473ffffffffffffffffffffffffffffffffffffffff1673ffffffffffffffffffffffffffffffffffffffff16815260200190815260200160002060008373ffffffffffffffffffffffffffffffffffffffff1673ffffffffffffffffffffffffffffffffffffffff16815260200190815260200160002060009054906101000a900460ff16905092915050565b610ccd61125c565b600073ffffffffffffffffffffffffffffffffffffffff168173ffffffffffffffffffffffffffffffffffffffff1603610d3c576040517f08c379a0000000000000000000000000000000000000000000000000000000008152600401610d339061326f565b60405180910390fd5b610d4581611317565b50565b60007f780e9d63000000000000000000000000000000000000000000000000000000007bffffffffffffffffffffffffffffffffffffffffffffffffffffffff1916827bffffffffffffffffffffffffffffffffffffffffffffffffffffffff19161480610dbb5750610dba82611764565b5b9050919050565b610dcb816115a5565b610e0a576040517f08c379a0000000000000000000000000000000000000000000000000000000008152600401610e0190612fed565b60405180910390fd5b50565b816004600083815260200190815260200160002060006101000a81548173ffffffffffffffffffffffffffffffffffffffff021916908373ffffffffffffffffffffffffffffffffffffffff160217905550808273ffffffffffffffffffffffffffffffffffffffff16610e80836107cf565b73ffffffffffffffffffffffffffffffffffffffff167f8c5be1e5ebec7d5bd14f71427d1e84f3dd0314c0f7b2291e5b200ac8c7c3b92560405160405180910390a45050565b600033905090565b600080610eda836107cf565b90508073ffffffffffffffffffffffffffffffffffffffff168473ffffffffffffffffffffffffffffffffffffffff161480610f1c5750610f1b8185610c31565b5b80610f5a57508373ffffffffffffffffffffffffffffffffffffffff16610f42846104c2565b73ffffffffffffffffffffffffffffffffffffffff16145b91505092915050565b8273ffffffffffffffffffffffffffffffffffffffff16610f83826107cf565b73ffffffffffffffffffffffffffffffffffffffff1614610fd9576040517f08c379a0000000000000000000000000000000000000000000000000000000008152600401610fd090613301565b60405180910390fd5b600073ffffffffffffffffffffffffffffffffffffffff168273ffffffffffffffffffffffffffffffffffffffff1603611048576040517f08c379a000000000000000000000000000000000000000000000000000000000815260040161103f90613393565b60405180910390fd5b6110558383836001611846565b8273ffffffffffffffffffffffffffffffffffffffff16611075826107cf565b73ffffffffffffffffffffffffffffffffffffffff16146110cb576040517f08c379a00000000000000000000000000000000000000000000000000000000081526004016110c290613301565b60405180910390fd5b6004600082815260200190815260200160002060006101000a81549073ffffffffffffffffffffffffffffffffffffffff02191690556001600360008573ffffffffffffffffffffffffffffffffffffffff1673ffffffffffffffffffffffffffffffffffffffff168152602001908152602001600020600082825403925050819055506001600360008473ffffffffffffffffffffffffffffffffffffffff1673ffffffffffffffffffffffffffffffffffffffff16815260200190815260200160002060008282540192505081905550816002600083815260200190815260200160002060006101000a81548173ffffffffffffffffffffffffffffffffffffffff021916908373ffffffffffffffffffffffffffffffffffffffff160217905550808273ffffffffffffffffffffffffffffffffffffffff168473ffffffffffffffffffffffffffffffffffffffff167fddf252ad1be2c89b69c2b068fc378daa952ba7f163c4a11628f55a4df523b3ef60405160405180910390a46112578383836001611858565b505050565b611264610ec6565b73ffffffffffffffffffffffffffffffffffffffff16611282610920565b73ffffffffffffffffffffffffffffffffffffffff16146112d8576040517f08c379a00000000000000000000000000000000000000000000000000000000081526004016112cf906133ff565b60405180910390fd5b565b60006002600083815260200190815260200160002060009054906101000a900473ffffffffffffffffffffffffffffffffffffffff169050919050565b6000600a60009054906101000a900473ffffffffffffffffffffffffffffffffffffffff16905081600a60006101000a81548173ffffffffffffffffffffffffffffffffffffffff021916908373ffffffffffffffffffffffffffffffffffffffff1602179055508173ffffffffffffffffffffffffffffffffffffffff168173ffffffffffffffffffffffffffffffffffffffff167f8be0079c531659141344cd1fd0a4f28419497f9722a3daafe3b4186f6b6457e060405160405180910390a35050565b8173ffffffffffffffffffffffffffffffffffffffff168373ffffffffffffffffffffffffffffffffffffffff160361144b576040517f08c379a0000000000000000000000000000000000000000000000000000000008152600401611442906130eb565b60405180910390fd5b80600560008573ffffffffffffffffffffffffffffffffffffffff1673ffffffffffffffffffffffffffffffffffffffff16815260200190815260200160002060008473ffffffffffffffffffffffffffffffffffffffff1673ffffffffffffffffffffffffffffffffffffffff16815260200190815260200160002060006101000a81548160ff0219169083151502179055508173ffffffffffffffffffffffffffffffffffffffff168373ffffffffffffffffffffffffffffffffffffffff167f17307eab39ab6107e8899845ad3d59bd9653f200f220920489ca2b5937696c318360405161153c919061235b565b60405180910390a3505050565b611554848484610f63565b6115608484848461185e565b61159f576040517f08c379a000000000000000000000000000000000000000000000000000000000815260040161159690613491565b60405180910390fd5b50505050565b60008073ffffffffffffffffffffffffffffffffffffffff166115c7836112da565b73ffffffffffffffffffffffffffffffffffffffff1614159050919050565b6060600b80546115f5906129e9565b80601f0160208091040260200160405190810160405280929190818152602001828054611621906129e9565b801561166e5780601f106116435761010080835404028352916020019161166e565b820191906000526020600020905b81548152906001019060200180831161165157829003601f168201915b5050505050905090565b606060006001611687846119e5565b01905060008167ffffffffffffffff8111156116a6576116a56125da565b5b6040519080825280601f01601f1916602001820160405280156116d85781602001600182028036833780820191505090505b509050600082602001820190505b60011561173b578080600190039150507f3031323334353637383961626364656600000000000000000000000000000000600a86061a8153600a858161172f5761172e6134b1565b5b049450600085036116e6575b819350505050919050565b611760828260405180602001604052806000815250611b38565b5050565b60007f80ac58cd000000000000000000000000000000000000000000000000000000007bffffffffffffffffffffffffffffffffffffffffffffffffffffffff1916827bffffffffffffffffffffffffffffffffffffffffffffffffffffffff1916148061182f57507f5b5e139f000000000000000000000000000000000000000000000000000000007bffffffffffffffffffffffffffffffffffffffffffffffffffffffff1916827bffffffffffffffffffffffffffffffffffffffffffffffffffffffff1916145b8061183f575061183e82611b93565b5b9050919050565b61185284848484611bfd565b50505050565b50505050565b600061187f8473ffffffffffffffffffffffffffffffffffffffff16611d5b565b156119d8578373ffffffffffffffffffffffffffffffffffffffff1663150b7a026118a8610ec6565b8786866040518563ffffffff1660e01b81526004016118ca9493929190613535565b6020604051808303816000875af192505050801561190657506040513d601f19601f820116820180604052508101906119039190613596565b60015b611988573d8060008114611936576040519150601f19603f3d011682016040523d82523d6000602084013e61193b565b606091505b506000815103611980576040517f08c379a000000000000000000000000000000000000000000000000000000000815260040161197790613491565b60405180910390fd5b805181602001fd5b63150b7a0260e01b7bffffffffffffffffffffffffffffffffffffffffffffffffffffffff1916817bffffffffffffffffffffffffffffffffffffffffffffffffffffffff1916149150506119dd565b600190505b949350505050565b600080600090507a184f03e93ff9f4daa797ed6e38ed64bf6a1f0100000000000000008310611a43577a184f03e93ff9f4daa797ed6e38ed64bf6a1f0100000000000000008381611a3957611a386134b1565b5b0492506040810190505b6d04ee2d6d415b85acef81000000008310611a80576d04ee2d6d415b85acef81000000008381611a7657611a756134b1565b5b0492506020810190505b662386f26fc100008310611aaf57662386f26fc100008381611aa557611aa46134b1565b5b0492506010810190505b6305f5e1008310611ad8576305f5e1008381611ace57611acd6134b1565b5b0492506008810190505b6127108310611afd576127108381611af357611af26134b1565b5b0492506004810190505b60648310611b205760648381611b1657611b156134b1565b5b0492506002810190505b600a8310611b2f576001810190505b80915050919050565b611b428383611d7e565b611b4f600084848461185e565b611b8e576040517f08c379a0000000000000000000000000000000000000000000000000000000008152600401611b8590613491565b60405180910390fd5b505050565b60007f01ffc9a7000000000000000000000000000000000000000000000000000000007bffffffffffffffffffffffffffffffffffffffffffffffffffffffff1916827bffffffffffffffffffffffffffffffffffffffffffffffffffffffff1916149050919050565b611c0984848484611f9b565b6001811115611c4d576040517f08c379a0000000000000000000000000000000000000000000000000000000008152600401611c4490613635565b60405180910390fd5b6000829050600073ffffffffffffffffffffffffffffffffffffffff168573ffffffffffffffffffffffffffffffffffffffff1603611c9457611c8f81611fa1565b611cd3565b8373ffffffffffffffffffffffffffffffffffffffff168573ffffffffffffffffffffffffffffffffffffffff1614611cd257611cd18582611fea565b5b5b600073ffffffffffffffffffffffffffffffffffffffff168473ffffffffffffffffffffffffffffffffffffffff1603611d1557611d1081612157565b611d54565b8473ffffffffffffffffffffffffffffffffffffffff168473ffffffffffffffffffffffffffffffffffffffff1614611d5357611d528482612228565b5b5b5050505050565b6000808273ffffffffffffffffffffffffffffffffffffffff163b119050919050565b600073ffffffffffffffffffffffffffffffffffffffff168273ffffffffffffffffffffffffffffffffffffffff1603611ded576040517f08c379a0000000000000000000000000000000000000000000000000000000008152600401611de4906136a1565b60405180910390fd5b611df6816115a5565b15611e36576040517f08c379a0000000000000000000000000000000000000000000000000000000008152600401611e2d9061370d565b60405180910390fd5b611e44600083836001611846565b611e4d816115a5565b15611e8d576040517f08c379a0000000000000000000000000000000000000000000000000000000008152600401611e849061370d565b60405180910390fd5b6001600360008473ffffffffffffffffffffffffffffffffffffffff1673ffffffffffffffffffffffffffffffffffffffff16815260200190815260200160002060008282540192505081905550816002600083815260200190815260200160002060006101000a81548173ffffffffffffffffffffffffffffffffffffffff021916908373ffffffffffffffffffffffffffffffffffffffff160217905550808273ffffffffffffffffffffffffffffffffffffffff16600073ffffffffffffffffffffffffffffffffffffffff167fddf252ad1be2c89b69c2b068fc378daa952ba7f163c4a11628f55a4df523b3ef60405160405180910390a4611f97600083836001611858565b5050565b50505050565b6008805490506009600083815260200190815260200160002081905550600881908060018154018082558091505060019003906000526020600020016000909190919091505550565b60006001611ff784610855565b612001919061375c565b90506000600760008481526020019081526020016000205490508181146120e6576000600660008673ffffffffffffffffffffffffffffffffffffffff1673ffffffffffffffffffffffffffffffffffffffff168152602001908152602001600020600084815260200190815260200160002054905080600660008773ffffffffffffffffffffffffffffffffffffffff1673ffffffffffffffffffffffffffffffffffffffff168152602001908152602001600020600084815260200190815260200160002081905550816007600083815260200190815260200160002081905550505b6007600084815260200190815260200160002060009055600660008573ffffffffffffffffffffffffffffffffffffffff1673ffffffffffffffffffffffffffffffffffffffff16815260200190815260200160002060008381526020019081526020016000206000905550505050565b6000600160088054905061216b919061375c565b905060006009600084815260200190815260200160002054905060006008838154811061219b5761219a612cf4565b5b9060005260206000200154905080600883815481106121bd576121bc612cf4565b5b90600052602060002001819055508160096000838152602001908152602001600020819055506009600085815260200190815260200160002060009055600880548061220c5761220b613790565b5b6001900381819060005260206000200160009055905550505050565b600061223383610855565b905081600660008573ffffffffffffffffffffffffffffffffffffffff1673ffffffffffffffffffffffffffffffffffffffff168152602001908152602001600020600083815260200190815260200160002081905550806007600084815260200190815260200160002081905550505050565b6000604051905090565b600080fd5b600080fd5b60007fffffffff0000000000000000000000000000000000000000000000000000000082169050919050565b6122f0816122bb565b81146122fb57600080fd5b50565b60008135905061230d816122e7565b92915050565b600060208284031215612329576123286122b1565b5b6000612337848285016122fe565b91505092915050565b60008115159050919050565b61235581612340565b82525050565b6000602082019050612370600083018461234c565b92915050565b600081519050919050565b600082825260208201905092915050565b60005b838110156123b0578082015181840152602081019050612395565b60008484015250505050565b6000601f19601f8301169050919050565b60006123d882612376565b6123e28185612381565b93506123f2818560208601612392565b6123fb816123bc565b840191505092915050565b6000602082019050818103600083015261242081846123cd565b905092915050565b6000819050919050565b61243b81612428565b811461244657600080fd5b50565b60008135905061245881612432565b92915050565b600060208284031215612474576124736122b1565b5b600061248284828501612449565b91505092915050565b600073ffffffffffffffffffffffffffffffffffffffff82169050919050565b60006124b68261248b565b9050919050565b6124c6816124ab565b82525050565b60006020820190506124e160008301846124bd565b92915050565b6124f0816124ab565b81146124fb57600080fd5b50565b60008135905061250d816124e7565b92915050565b6000806040838503121561252a576125296122b1565b5b6000612538858286016124fe565b925050602061254985828601612449565b9150509250929050565b61255c81612428565b82525050565b60006020820190506125776000830184612553565b92915050565b600080600060608486031215612596576125956122b1565b5b60006125a4868287016124fe565b93505060206125b5868287016124fe565b92505060406125c686828701612449565b9150509250925092565b600080fd5b600080fd5b7f4e487b7100000000000000000000000000000000000000000000000000000000600052604160045260246000fd5b612612826123bc565b810181811067ffffffffffffffff82111715612631576126306125da565b5b80604052505050565b60006126446122a7565b90506126508282612609565b919050565b600067ffffffffffffffff8211156126705761266f6125da565b5b612679826123bc565b9050602081019050919050565b82818337600083830152505050565b60006126a86126a384612655565b61263a565b9050828152602081018484840111156126c4576126c36125d5565b5b6126cf848285612686565b509392505050565b600082601f8301126126ec576126eb6125d0565b5b81356126fc848260208601612695565b91505092915050565b60006020828403121561271b5761271a6122b1565b5b600082013567ffffffffffffffff811115612739576127386122b6565b5b612745848285016126d7565b91505092915050565b600060208284031215612764576127636122b1565b5b6000612772848285016124fe565b91505092915050565b61278481612340565b811461278f57600080fd5b50565b6000813590506127a18161277b565b92915050565b600080604083850312156127be576127bd6122b1565b5b60006127cc858286016124fe565b92505060206127dd85828601612792565b9150509250929050565b600067ffffffffffffffff821115612802576128016125da565b5b61280b826123bc565b9050602081019050919050565b600061282b612826846127e7565b61263a565b905082815260208101848484011115612847576128466125d5565b5b612852848285612686565b509392505050565b600082601f83011261286f5761286e6125d0565b5b813561287f848260208601612818565b91505092915050565b600080600080608085870312156128a2576128a16122b1565b5b60006128b0878288016124fe565b94505060206128c1878288016124fe565b93505060406128d287828801612449565b925050606085013567ffffffffffffffff8111156128f3576128f26122b6565b5b6128ff8782880161285a565b91505092959194509250565b600080600060608486031215612924576129236122b1565b5b6000612932868287016124fe565b935050602061294386828701612449565b925050604084013567ffffffffffffffff811115612964576129636122b6565b5b612970868287016126d7565b9150509250925092565b60008060408385031215612991576129906122b1565b5b600061299f858286016124fe565b92505060206129b0858286016124fe565b9150509250929050565b7f4e487b7100000000000000000000000000000000000000000000000000000000600052602260045260246000fd5b60006002820490506001821680612a0157607f821691505b602082108103612a1457612a136129ba565b5b50919050565b7f4552433732313a20617070726f76616c20746f2063757272656e74206f776e6560008201527f7200000000000000000000000000000000000000000000000000000000000000602082015250565b6000612a76602183612381565b9150612a8182612a1a565b604082019050919050565b60006020820190508181036000830152612aa581612a69565b9050919050565b7f4552433732313a20617070726f76652063616c6c6572206973206e6f7420746f60008201527f6b656e206f776e6572206f7220617070726f76656420666f7220616c6c000000602082015250565b6000612b08603d83612381565b9150612b1382612aac565b604082019050919050565b60006020820190508181036000830152612b3781612afb565b9050919050565b7f4552433732313a2063616c6c6572206973206e6f7420746f6b656e206f776e6560008201527f72206f7220617070726f76656400000000000000000000000000000000000000602082015250565b6000612b9a602d83612381565b9150612ba582612b3e565b604082019050919050565b60006020820190508181036000830152612bc981612b8d565b9050919050565b7f455243373231456e756d657261626c653a206f776e657220696e646578206f7560008201527f74206f6620626f756e6473000000000000000000000000000000000000000000602082015250565b6000612c2c602b83612381565b9150612c3782612bd0565b604082019050919050565b60006020820190508181036000830152612c5b81612c1f565b9050919050565b7f455243373231456e756d657261626c653a20676c6f62616c20696e646578206f60008201527f7574206f6620626f756e64730000000000000000000000000000000000000000602082015250565b6000612cbe602c83612381565b9150612cc982612c62565b604082019050919050565b60006020820190508181036000830152612ced81612cb1565b9050919050565b7f4e487b7100000000000000000000000000000000000000000000000000000000600052603260045260246000fd5b60008190508160005260206000209050919050565b60006020601f8301049050919050565b600082821b905092915050565b600060088302612d857fffffffffffffffffffffffffffffffffffffffffffffffffffffffffffffffff82612d48565b612d8f8683612d48565b95508019841693508086168417925050509392505050565b6000819050919050565b6000612dcc612dc7612dc284612428565b612da7565b612428565b9050919050565b6000819050919050565b612de683612db1565b612dfa612df282612dd3565b848454612d55565b825550505050565b600090565b612e0f612e02565b612e1a818484612ddd565b505050565b5b81811015612e3e57612e33600082612e07565b600181019050612e20565b5050565b601f821115612e8357612e5481612d23565b612e5d84612d38565b81016020851015612e6c578190505b612e80612e7885612d38565b830182612e1f565b50505b505050565b600082821c905092915050565b6000612ea660001984600802612e88565b1980831691505092915050565b6000612ebf8383612e95565b9150826002028217905092915050565b612ed882612376565b67ffffffffffffffff811115612ef157612ef06125da565b5b612efb82546129e9565b612f06828285612e42565b600060209050601f831160018114612f395760008415612f27578287015190505b612f318582612eb3565b865550612f99565b601f198416612f4786612d23565b60005b82811015612f6f57848901518255600182019150602085019450602081019050612f4a565b86831015612f8c5784890151612f88601f891682612e95565b8355505b6001600288020188555050505b505050505050565b7f4552433732313a20696e76616c696420746f6b656e2049440000000000000000600082015250565b6000612fd7601883612381565b9150612fe282612fa1565b602082019050919050565b6000602082019050818103600083015261300681612fca565b9050919050565b7f4552433732313a2061646472657373207a65726f206973206e6f74206120766160008201527f6c6964206f776e65720000000000000000000000000000000000000000000000602082015250565b6000613069602983612381565b91506130748261300d565b604082019050919050565b600060208201905081810360008301526130988161305c565b9050919050565b7f4552433732313a20617070726f766520746f2063616c6c657200000000000000600082015250565b60006130d5601983612381565b91506130e08261309f565b602082019050919050565b60006020820190508181036000830152613104816130c8565b9050919050565b7f4552433732314d657461646174613a2055524920717565727920666f72206e6f60008201527f6e6578697374656e7420746f6b656e0000000000000000000000000000000000602082015250565b6000613167602f83612381565b91506131728261310b565b604082019050919050565b600060208201905081810360008301526131968161315a565b9050919050565b600081905092915050565b60006131b382612376565b6131bd818561319d565b93506131cd818560208601612392565b80840191505092915050565b60006131e582856131a8565b91506131f182846131a8565b91508190509392505050565b7f4f776e61626c653a206e6577206f776e657220697320746865207a65726f206160008201527f6464726573730000000000000000000000000000000000000000000000000000602082015250565b6000613259602683612381565b9150613264826131fd565b604082019050919050565b600060208201905081810360008301526132888161324c565b9050919050565b7f4552433732313a207472616e736665722066726f6d20696e636f72726563742060008201527f6f776e6572000000000000000000000000000000000000000000000000000000602082015250565b60006132eb602583612381565b91506132f68261328f565b604082019050919050565b6000602082019050818103600083015261331a816132de565b9050919050565b7f4552433732313a207472616e7366657220746f20746865207a65726f2061646460008201527f7265737300000000000000000000000000000000000000000000000000000000602082015250565b600061337d602483612381565b915061338882613321565b604082019050919050565b600060208201905081810360008301526133ac81613370565b9050919050565b7f4f776e61626c653a2063616c6c6572206973206e6f7420746865206f776e6572600082015250565b60006133e9602083612381565b91506133f4826133b3565b602082019050919050565b60006020820190508181036000830152613418816133dc565b9050919050565b7f4552433732313a207472616e7366657220746f206e6f6e20455243373231526560008201527f63656976657220696d706c656d656e7465720000000000000000000000000000602082015250565b600061347b603283612381565b91506134868261341f565b604082019050919050565b600060208201905081810360008301526134aa8161346e565b9050919050565b7f4e487b7100000000000000000000000000000000000000000000000000000000600052601260045260246000fd5b600081519050919050565b600082825260208201905092915050565b6000613507826134e0565b61351181856134eb565b9350613521818560208601612392565b61352a816123bc565b840191505092915050565b600060808201905061354a60008301876124bd565b61355760208301866124bd565b6135646040830185612553565b818103606083015261357681846134fc565b905095945050505050565b600081519050613590816122e7565b92915050565b6000602082840312156135ac576135ab6122b1565b5b60006135ba84828501613581565b91505092915050565b7f455243373231456e756d657261626c653a20636f6e736563757469766520747260008201527f616e7366657273206e6f7420737570706f727465640000000000000000000000602082015250565b600061361f603583612381565b915061362a826135c3565b604082019050919050565b6000602082019050818103600083015261364e81613612565b9050919050565b7f4552433732313a206d696e7420746f20746865207a65726f2061646472657373600082015250565b600061368b602083612381565b915061369682613655565b602082019050919050565b600060208201905081810360008301526136ba8161367e565b9050919050565b7f4552433732313a20746f6b656e20616c7265616479206d696e74656400000000600082015250565b60006136f7601c83612381565b9150613702826136c1565b602082019050919050565b60006020820190508181036000830152613726816136ea565b9050919050565b7f4e487b7100000000000000000000000000000000000000000000000000000000600052601160045260246000fd5b600061376782612428565b915061377283612428565b925082820390508181111561378a5761378961372d565b5b92915050565b7f4e487b7100000000000000000000000000000000000000000000000000000000600052603160045260246000fdfea264697066735822122085d4b4fe41071a32962ad529627a1a8ce5f338b1a10e72284e0f139c03417d8b64736f6c63430008140033",
  "linkReferences": {},
  "deployedLinkReferences": {}
}