{
  "_format": "hh-sol-artifact-1",
  "contractName": "OrganDonation",
  "sourceName": "contracts/OrganDonation.sol",
  "abi": [
    {
      "inputs": [],
      "stateMutability": "nonpayable",
      "type": "constructor"
    },
    {
      "anonymous": false,
      "inputs": [
        {
          "indexed": true,
          "internalType": "address",
          "name": "donor",
          "type": "address"
        }
      ],
      "name": "DonorAnnounced",
      "type": "event"
    },
    {
      "anonymous": false,
      "inputs": [
        {
          "indexed": true,
          "internalType": "address",
          "name": "patient",
          "type": "address"
        },
        {
          "indexed": false,
          "internalType": "string",
          "name": "organ",
          "type": "string"
        },
        {
          "indexed": false,
          "internalType": "uint256",
          "name": "emergencyLevel",
          "type": "uint256"
        }
      ],
      "name": "EmergencyRequestCreated",
      "type": "event"
    },
    {
      "anonymous": false,
      "inputs": [
        {
          "indexed": true,
          "internalType": "bytes32",
          "name": "matchId",
          "type": "bytes32"
        }
      ],
      "name": "MatchCompleted",
      "type": "event"
    },
    {
      "anonymous": false,
      "inputs": [
        {
          "indexed": true,
          "internalType": "bytes32",
          "name": "matchId",
          "type": "bytes32"
        },
        {
          "indexed": true,
          "internalType": "address",
          "name": "donor",
          "type": "address"
        },
        {
          "indexed": true,
          "internalType": "address",
          "name": "patient",
          "type": "address"
        },
        {
          "indexed": false,
          "internalType": "string",
          "name": "organ",
          "type": "string"
        }
      ],
      "name": "MatchCreated",
      "type": "event"
    },
    {
      "anonymous": false,
      "inputs": [
        {
          "indexed": true,
          "internalType": "address",
          "name": "user",
          "type": "address"
        },
        {
          "indexed": false,
          "internalType": "string",
          "name": "recordHash",
          "type": "string"
        }
      ],
      "name": "MedicalRecordUpdated",
      "type": "event"
    },
    {
      "anonymous": false,
      "inputs": [
        {
          "indexed": true,
          "internalType": "address",
          "name": "previousOwner",
          "type": "address"
        },
        {
          "indexed": true,
          "internalType": "address",
          "name": "newOwner",
          "type": "address"
        }
      ],
      "name": "OwnershipTransferred",
      "type": "event"
    },
    {
      "anonymous": false,
      "inputs": [
        {
          "indexed": false,
          "internalType": "address",
          "name": "account",
          "type": "address"
        }
      ],
      "name": "Paused",
      "type": "event"
    },
    {
      "anonymous": false,
      "inputs": [
        {
          "indexed": true,
          "internalType": "address",
          "name": "user",
          "type": "address"
        },
        {
          "indexed": false,
          "internalType": "uint256",
          "name": "amount",
          "type": "uint256"
        }
      ],
      "name": "RewardDistributed",
      "type": "event"
    },
    {
      "anonymous": false,
      "inputs": [
        {
          "indexed": false,
          "internalType": "address",
          "name": "account",
          "type": "address"
        }
      ],
      "name": "Unpaused",
      "type": "event"
    },
    {
      "anonymous": false,
      "inputs": [
        {
          "indexed": true,
          "internalType": "address",
          "name": "user",
          "type": "address"
        },
        {
          "indexed": false,
          "internalType": "enum OrganDonation.UserRole",
          "name": "role",
          "type": "uint8"
        }
      ],
      "name": "UserRegistered",
      "type": "event"
    },
    {
      "anonymous": false,
      "inputs": [
        {
          "indexed": true,
          "internalType": "address",
          "name": "user",
          "type": "address"
        },
        {
          "indexed": false,
          "internalType": "enum OrganDonation.UserRole",
          "name": "role",
          "type": "uint8"
        }
      ],
      "name": "UserRejected",
      "type": "event"
    },
    {
      "anonymous": false,
      "inputs": [
        {
          "indexed": true,
          "internalType": "address",
          "name": "user",
          "type": "address"
        },
        {
          "indexed": false,
          "internalType": "enum OrganDonation.UserRole",
          "name": "role",
          "type": "uint8"
        }
      ],
      "name": "UserVerified",
      "type": "event"
    },
    {
      "inputs": [
        {
          "internalType": "address",
          "name": "_admin",
          "type": "address"
        }
      ],
      "name": "addAdmin",
      "outputs": [],
      "stateMutability": "nonpayable",
      "type": "function"
    },
    {
      "inputs": [],
      "name": "announceDonor",
      "outputs": [],
      "stateMutability": "nonpayable",
      "type": "function"
    },
    {
      "inputs": [],
      "name": "claimReward",
      "outputs": [],
      "stateMutability": "nonpayable",
      "type": "function"
    },
    {
      "inputs": [
        {
          "internalType": "bytes32",
          "name": "_matchId",
          "type": "bytes32"
        }
      ],
      "name": "completeMatch",
      "outputs": [],
      "stateMutability": "nonpayable",
      "type": "function"
    },
    {
      "inputs": [
        {
          "internalType": "string",
          "name": "_organ",
          "type": "string"
        },
        {
          "internalType": "uint256",
          "name": "_emergencyLevel",
          "type": "uint256"
        }
      ],
      "name": "createEmergencyRequest",
      "outputs": [],
      "stateMutability": "nonpayable",
      "type": "function"
    },
    {
      "inputs": [
        {
          "internalType": "uint256",
          "name": "",
          "type": "uint256"
        }
      ],
      "name": "donors",
      "outputs": [
        {
          "internalType": "address",
          "name": "",
          "type": "address"
        }
      ],
      "stateMutability": "view",
      "type": "function"
    },
    {
      "inputs": [
        {
          "internalType": "address",
          "name": "_patient",
          "type": "address"
        },
        {
          "internalType": "string",
          "name": "_organ",
          "type": "string"
        }
      ],
      "name": "findMatch",
      "outputs": [
        {
          "internalType": "bytes32",
          "name": "",
          "type": "bytes32"
        }
      ],
      "stateMutability": "nonpayable",
      "type": "function"
    },
    {
      "inputs": [],
      "name": "getAvailableDonors",
      "outputs": [
        {
          "internalType": "address[]",
          "name": "",
          "type": "address[]"
        }
      ],
      "stateMutability": "view",
      "type": "function"
    },
    {
      "inputs": [
        {
          "internalType": "bytes32",
          "name": "_matchId",
          "type": "bytes32"
        }
      ],
      "name": "getMatchDetails",
      "outputs": [
        {
          "components": [
            {
              "internalType": "address",
              "name": "donor",
              "type": "address"
            },
            {
              "internalType": "address",
              "name": "patient",
              "type": "address"
            },
            {
              "internalType": "string",
              "name": "organ",
              "type": "string"
            },
            {
              "internalType": "uint256",
              "name": "timestamp",
              "type": "uint256"
            },
            {
              "internalType": "bool",
              "name": "isCompleted",
              "type": "bool"
            },
            {
              "internalType": "uint256",
              "name": "emergencyLevel",
              "type": "uint256"
            }
          ],
          "internalType": "struct OrganDonation.Match",
          "name": "",
          "type": "tuple"
        }
      ],
      "stateMutability": "view",
      "type": "function"
    },
    {
      "inputs": [],
      "name": "getPendingUsers",
      "outputs": [
        {
          "internalType": "address[]",
          "name": "",
          "type": "address[]"
        }
      ],
      "stateMutability": "view",
      "type": "function"
    },
    {
      "inputs": [
        {
          "internalType": "address",
          "name": "_user",
          "type": "address"
        }
      ],
      "name": "getUserMedicalRecords",
      "outputs": [
        {
          "internalType": "string[]",
          "name": "",
          "type": "string[]"
        }
      ],
      "stateMutability": "view",
      "type": "function"
    },
    {
      "inputs": [
        {
          "internalType": "enum OrganDonation.UserRole",
          "name": "_role",
          "type": "uint8"
        }
      ],
      "name": "getUsersByRole",
      "outputs": [
        {
          "internalType": "address[]",
          "name": "",
          "type": "address[]"
        }
      ],
      "stateMutability": "view",
      "type": "function"
    },
    {
      "inputs": [
        {
          "internalType": "enum OrganDonation.UserRole",
          "name": "_role",
          "type": "uint8"
        },
        {
          "internalType": "enum OrganDonation.Status",
          "name": "_status",
          "type": "uint8"
        }
      ],
      "name": "getUsersByRoleAndStatus",
      "outputs": [
        {
          "internalType": "address[]",
          "name": "",
          "type": "address[]"
        }
      ],
      "stateMutability": "view",
      "type": "function"
    },
    {
      "inputs": [
        {
          "internalType": "enum OrganDonation.Status",
          "name": "_status",
          "type": "uint8"
        }
      ],
      "name": "getUsersByStatus",
      "outputs": [
        {
          "internalType": "address[]",
          "name": "",
          "type": "address[]"
        }
      ],
      "stateMutability": "view",
      "type": "function"
    },
    {
      "inputs": [],
      "name": "getVerifiedDonors",
      "outputs": [
        {
          "internalType": "address[]",
          "name": "",
          "type": "address[]"
        }
      ],
      "stateMutability": "view",
      "type": "function"
    },
    {
      "inputs": [],
      "name": "getVerifiedPatients",
      "outputs": [
        {
          "internalType": "address[]",
          "name": "",
          "type": "address[]"
        }
      ],
      "stateMutability": "view",
      "type": "function"
    },
    {
      "inputs": [
        {
          "internalType": "address",
          "name": "",
          "type": "address"
        }
      ],
      "name": "isAdmin",
      "outputs": [
        {
          "internalType": "bool",
          "name": "",
          "type": "bool"
        }
      ],
      "stateMutability": "view",
      "type": "function"
    },
    {
      "inputs": [
        {
          "internalType": "bytes32",
          "name": "",
          "type": "bytes32"
        }
      ],
      "name": "matches",
      "outputs": [
        {
          "internalType": "address",
          "name": "donor",
          "type": "address"
        },
        {
          "internalType": "address",
          "name": "patient",
          "type": "address"
        },
        {
          "internalType": "string",
          "name": "organ",
          "type": "string"
        },
        {
          "internalType": "uint256",
          "name": "timestamp",
          "type": "uint256"
        },
        {
          "internalType": "bool",
          "name": "isCompleted",
          "type": "bool"
        },
        {
          "internalType": "uint256",
          "name": "emergencyLevel",
          "type": "uint256"
        }
      ],
      "stateMutability": "view",
      "type": "function"
    },
    {
      "inputs": [],
      "name": "owner",
      "outputs": [
        {
          "internalType": "address",
          "name": "",
          "type": "address"
        }
      ],
      "stateMutability": "view",
      "type": "function"
    },
    {
      "inputs": [
        {
          "internalType": "uint256",
          "name": "",
          "type": "uint256"
        }
      ],
      "name": "patients",
      "outputs": [
        {
          "internalType": "address",
          "name": "",
          "type": "address"
        }
      ],
      "stateMutability": "view",
      "type": "function"
    },
    {
      "inputs": [],
      "name": "pause",
      "outputs": [],
      "stateMutability": "nonpayable",
      "type": "function"
    },
    {
      "inputs": [],
      "name": "paused",
      "outputs": [
        {
          "internalType": "bool",
          "name": "",
          "type": "bool"
        }
      ],
      "stateMutability": "view",
      "type": "function"
    },
    {
      "inputs": [
        {
          "internalType": "string",
          "name": "_name",
          "type": "string"
        },
        {
          "internalType": "uint256",
          "name": "_age",
          "type": "uint256"
        },
        {
          "internalType": "string",
          "name": "_sex",
          "type": "string"
        },
        {
          "internalType": "uint256",
          "name": "_height",
          "type": "uint256"
        },
        {
          "internalType": "uint256",
          "name": "_weight",
          "type": "uint256"
        },
        {
          "internalType": "string[]",
          "name": "_organs",
          "type": "string[]"
        },
        {
          "internalType": "string",
          "name": "_bloodGroup",
          "type": "string"
        },
        {
          "internalType": "string",
          "name": "_medicalRecordsHash",
          "type": "string"
        }
      ],
      "name": "registerDonor",
      "outputs": [],
      "stateMutability": "nonpayable",
      "type": "function"
    },
    {
      "inputs": [
        {
          "internalType": "string",
          "name": "_name",
          "type": "string"
        },
        {
          "internalType": "uint256",
          "name": "_age",
          "type": "uint256"
        },
        {
          "internalType": "string",
          "name": "_sex",
          "type": "string"
        },
        {
          "internalType": "uint256",
          "name": "_height",
          "type": "uint256"
        },
        {
          "internalType": "uint256",
          "name": "_weight",
          "type": "uint256"
        },
        {
          "internalType": "string[]",
          "name": "_organs",
          "type": "string[]"
        },
        {
          "internalType": "string",
          "name": "_bloodGroup",
          "type": "string"
        },
        {
          "internalType": "string",
          "name": "_medicalRecordsHash",
          "type": "string"
        }
      ],
      "name": "registerPatient",
      "outputs": [],
      "stateMutability": "nonpayable",
      "type": "function"
    },
    {
      "inputs": [
        {
          "internalType": "address",
          "name": "_user",
          "type": "address"
        }
      ],
      "name": "rejectUser",
      "outputs": [],
      "stateMutability": "nonpayable",
      "type": "function"
    },
    {
      "inputs": [],
      "name": "renounceOwnership",
      "outputs": [],
      "stateMutability": "nonpayable",
      "type": "function"
    },
    {
      "inputs": [
        {
          "internalType": "address",
          "name": "newOwner",
          "type": "address"
        }
      ],
      "name": "transferOwnership",
      "outputs": [],
      "stateMutability": "nonpayable",
      "type": "function"
    },
    {
      "inputs": [],
      "name": "unpause",
      "outputs": [],
      "stateMutability": "nonpayable",
      "type": "function"
    },
    {
      "inputs": [
        {
          "internalType": "string",
          "name": "_recordHash",
          "type": "string"
        }
      ],
      "name": "updateMedicalRecords",
      "outputs": [],
      "stateMutability": "nonpayable",
      "type": "function"
    },
    {
      "inputs": [
        {
          "internalType": "address",
          "name": "",
          "type": "address"
        },
        {
          "internalType": "uint256",
          "name": "",
          "type": "uint256"
        }
      ],
      "name": "userMedicalRecords",
      "outputs": [
        {
          "internalType": "string",
          "name": "",
          "type": "string"
        }
      ],
      "stateMutability": "view",
      "type": "function"
    },
    {
      "inputs": [
        {
          "internalType": "address",
          "name": "",
          "type": "address"
        }
      ],
      "name": "userRewards",
      "outputs": [
        {
          "internalType": "uint256",
          "name": "",
          "type": "uint256"
        }
      ],
      "stateMutability": "view",
      "type": "function"
    },
    {
      "inputs": [
        {
          "internalType": "address",
          "name": "",
          "type": "address"
        }
      ],
      "name": "users",
      "outputs": [
        {
          "internalType": "string",
          "name": "name",
          "type": "string"
        },
        {
          "internalType": "uint256",
          "name": "age",
          "type": "uint256"
        },
        {
          "internalType": "string",
          "name": "sex",
          "type": "string"
        },
        {
          "internalType": "uint256",
          "name": "height",
          "type": "uint256"
        },
        {
          "internalType": "uint256",
          "name": "weight",
          "type": "uint256"
        },
        {
          "internalType": "string",
          "name": "bloodGroup",
          "type": "string"
        },
        {
          "internalType": "enum OrganDonation.Status",
          "name": "status",
          "type": "uint8"
        },
        {
          "internalType": "enum OrganDonation.UserRole",
          "name": "role",
          "type": "uint8"
        },
        {
          "internalType": "bool",
          "name": "isRegistered",
          "type": "bool"
        },
        {
          "internalType": "uint256",
          "name": "reputation",
          "type": "uint256"
        },
        {
          "internalType": "uint256",
          "name": "lastDonationTimestamp",
          "type": "uint256"
        },
        {
          "internalType": "string",
          "name": "medicalRecordsHash",
          "type": "string"
        }
      ],
      "stateMutability": "view",
      "type": "function"
    },
    {
      "inputs": [
        {
          "internalType": "address",
          "name": "_user",
          "type": "address"
        }
      ],
      "name": "verifyUser",
      "outputs": [],
      "stateMutability": "nonpayable",
      "type": "function"
    }
  ],
  "bytecode": "0x60806040523480156200001157600080fd5b506200003262000026620000b260201b60201c565b620000ba60201b60201c565b600180819055506000600260006101000a81548160ff0219169083151502179055506001600460003373ffffffffffffffffffffffffffffffffffffffff1673ffffffffffffffffffffffffffffffffffffffff16815260200190815260200160002060006101000a81548160ff0219169083151502179055506200017e565b600033905090565b60008060009054906101000a900473ffffffffffffffffffffffffffffffffffffffff169050816000806101000a81548173ffffffffffffffffffffffffffffffffffffffff021916908373ffffffffffffffffffffffffffffffffffffffff1602179055508173ffffffffffffffffffffffffffffffffffffffff168173ffffffffffffffffffffffffffffffffffffffff167f8be0079c531659141344cd1fd0a4f28419497f9722a3daafe3b4186f6b6457e060405160405180910390a35050565b6171fa806200018e6000396000f3fe608060405234801561001057600080fd5b50600436106101fb5760003560e01c8063715018a61161011a578063a8fd88f6116100ad578063ddb7a4de1161007c578063ddb7a4de146105aa578063decd382f146105da578063f2fde38b146105f8578063fb8182c114610614578063fe09b5ec14610644576101fb565b8063a8fd88f614610538578063b88a802f14610554578063bce8c9011461055e578063d2d3dfac1461058e576101fb565b806396506a12116100e957806396506a12146104685780639f986efe146104985780639fe9ada3146104c8578063a87430ba146104fd576101fb565b8063715018a6146104065780638456cb59146104105780638da5cb5b1461041a57806393119a8314610438576101fb565b80634d813120116101925780635c975abb116101615780635c975abb146103805780635d0cc7781461039e5780636e3aa76b146103ce57806370480275146103ea576101fb565b80634d813120146102fc5780634dc92885146103185780634f54f4d814610334578063596ccad514610364576101fb565b806324d7806c116101ce57806324d7806c14610276578063335dc50e146102a65780633f4ba83a146102c25780634abfa163146102cc576101fb565b80630660f1e814610200578063097b6cc71461023057806318d3b3d21461023a5780631f8e3d2314610258575b600080fd5b61021a6004803603810190610215919061548c565b610662565b60405161022791906154d2565b60405180910390f35b61023861067a565b005b61024261092c565b60405161024f91906155ab565b60405180910390f35b610260610bea565b60405161026d91906155ab565b60405180910390f35b610290600480360381019061028b919061548c565b610ea8565b60405161029d91906155e8565b60405180910390f35b6102c060048036038101906102bb9190615639565b610ec8565b005b6102ca611425565b005b6102e660048036038101906102e19190615692565b611437565b6040516102f391906156ce565b60405180910390f35b6103166004803603810190610311919061548c565b611476565b005b610332600480360381019061032d919061548c565b61175a565b005b61034e60048036038101906103499190615639565b611a3e565b60405161035b9190615820565b60405180910390f35b61037e60048036038101906103799190615a5d565b611bd8565b005b610388611f1d565b60405161039591906155e8565b60405180910390f35b6103b860048036038101906103b39190615bc4565b611f34565b6040516103c591906155ab565b60405180910390f35b6103e860048036038101906103e39190615bf1565b612366565b005b61040460048036038101906103ff919061548c565b612510565b005b61040e612573565b005b610418612587565b005b610422612599565b60405161042f91906156ce565b60405180910390f35b610452600480360381019061044d9190615692565b6125c2565b60405161045f91906156ce565b60405180910390f35b610482600480360381019061047d9190615c3a565b612601565b60405161048f9190615cc4565b60405180910390f35b6104b260048036038101906104ad9190615ce6565b6126ba565b6040516104bf9190615d51565b60405180910390f35b6104e260048036038101906104dd9190615639565b612e77565b6040516104f496959493929190615d6c565b60405180910390f35b6105176004803603810190610512919061548c565b612f88565b60405161052f9c9b9a99989796959493929190615e93565b60405180910390f35b610552600480360381019061054d9190615a5d565b61322f565b005b61055c613573565b005b61057860048036038101906105739190615f8e565b6136d7565b60405161058591906155ab565b60405180910390f35b6105a860048036038101906105a39190615fce565b6139f2565b005b6105c460048036038101906105bf919061602a565b613c48565b6040516105d191906155ab565b60405180910390f35b6105e2613d93565b6040516105ef91906155ab565b60405180910390f35b610612600480360381019061060d919061548c565b614051565b005b61062e6004803603810190610629919061548c565b6140d4565b60405161063b9190616119565b60405180910390f35b61064c6141ec565b60405161065991906155ab565b60405180910390f35b60056020528060005260406000206000915090505481565b61068261470e565b600360003373ffffffffffffffffffffffffffffffffffffffff1673ffffffffffffffffffffffffffffffffffffffff16815260200190815260200160002060070160029054906101000a900460ff16610711576040517f08c379a000000000000000000000000000000000000000000000000000000000815260040161070890616187565b60405180910390fd5b6000600181111561072557610724615dd4565b5b600360003373ffffffffffffffffffffffffffffffffffffffff1673ffffffffffffffffffffffffffffffffffffffff16815260200190815260200160002060070160019054906101000a900460ff16600181111561078757610786615dd4565b5b146107c7576040517f08c379a00000000000000000000000000000000000000000000000000000000081526004016107be906161f3565b60405180910390fd5b600160048111156107db576107da615dd4565b5b600360003373ffffffffffffffffffffffffffffffffffffffff1673ffffffffffffffffffffffffffffffffffffffff16815260200190815260200160002060070160009054906101000a900460ff16600481111561083d5761083c615dd4565b5b1461087d576040517f08c379a00000000000000000000000000000000000000000000000000000000081526004016108749061625f565b60405180910390fd5b60038060003373ffffffffffffffffffffffffffffffffffffffff1673ffffffffffffffffffffffffffffffffffffffff16815260200190815260200160002060070160006101000a81548160ff021916908360048111156108e2576108e1615dd4565b5b02179055503373ffffffffffffffffffffffffffffffffffffffff167f82bebc53733440b1218a99c573a4a562a00d9c67a52cf523c01f5512bc6862d660405160405180910390a2565b60606000805b600880549050811015610a1a576003600481111561095357610952615dd4565b5b600360006008848154811061096b5761096a61627f565b5b9060005260206000200160009054906101000a900473ffffffffffffffffffffffffffffffffffffffff1673ffffffffffffffffffffffffffffffffffffffff1673ffffffffffffffffffffffffffffffffffffffff16815260200190815260200160002060070160009054906101000a900460ff1660048111156109f3576109f2615dd4565b5b03610a07578180610a03906162dd565b9250505b8080610a12906162dd565b915050610932565b5060008167ffffffffffffffff811115610a3757610a3661584c565b5b604051908082528060200260200182016040528015610a655781602001602082028036833780820191505090505b5090506000805b600880549050811015610be05760036004811115610a8d57610a8c615dd4565b5b6003600060088481548110610aa557610aa461627f565b5b9060005260206000200160009054906101000a900473ffffffffffffffffffffffffffffffffffffffff1673ffffffffffffffffffffffffffffffffffffffff1673ffffffffffffffffffffffffffffffffffffffff16815260200190815260200160002060070160009054906101000a900460ff166004811115610b2d57610b2c615dd4565b5b03610bcd5760088181548110610b4657610b4561627f565b5b9060005260206000200160009054906101000a900473ffffffffffffffffffffffffffffffffffffffff16838381518110610b8457610b8361627f565b5b602002602001019073ffffffffffffffffffffffffffffffffffffffff16908173ffffffffffffffffffffffffffffffffffffffff16815250508180610bc9906162dd565b9250505b8080610bd8906162dd565b915050610a6c565b5081935050505090565b60606000805b600980549050811015610cd85760016004811115610c1157610c10615dd4565b5b6003600060098481548110610c2957610c2861627f565b5b9060005260206000200160009054906101000a900473ffffffffffffffffffffffffffffffffffffffff1673ffffffffffffffffffffffffffffffffffffffff1673ffffffffffffffffffffffffffffffffffffffff16815260200190815260200160002060070160009054906101000a900460ff166004811115610cb157610cb0615dd4565b5b03610cc5578180610cc1906162dd565b9250505b8080610cd0906162dd565b915050610bf0565b5060008167ffffffffffffffff811115610cf557610cf461584c565b5b604051908082528060200260200182016040528015610d235781602001602082028036833780820191505090505b5090506000805b600980549050811015610e9e5760016004811115610d4b57610d4a615dd4565b5b6003600060098481548110610d6357610d6261627f565b5b9060005260206000200160009054906101000a900473ffffffffffffffffffffffffffffffffffffffff1673ffffffffffffffffffffffffffffffffffffffff1673ffffffffffffffffffffffffffffffffffffffff16815260200190815260200160002060070160009054906101000a900460ff166004811115610deb57610dea615dd4565b5b03610e8b5760098181548110610e0457610e0361627f565b5b9060005260206000200160009054906101000a900473ffffffffffffffffffffffffffffffffffffffff16838381518110610e4257610e4161627f565b5b602002602001019073ffffffffffffffffffffffffffffffffffffffff16908173ffffffffffffffffffffffffffffffffffffffff16815250508180610e87906162dd565b9250505b8080610e96906162dd565b915050610d2a565b5081935050505090565b60046020528060005260406000206000915054906101000a900460ff1681565b600460003373ffffffffffffffffffffffffffffffffffffffff1673ffffffffffffffffffffffffffffffffffffffff16815260200190815260200160002060009054906101000a900460ff16610f54576040517f08c379a0000000000000000000000000000000000000000000000000000000008152600401610f4b90616397565b60405180910390fd5b610f5c61470e565b600073ffffffffffffffffffffffffffffffffffffffff166006600083815260200190815260200160002060000160009054906101000a900473ffffffffffffffffffffffffffffffffffffffff1673ffffffffffffffffffffffffffffffffffffffff1603611001576040517f08c379a0000000000000000000000000000000000000000000000000000000008152600401610ff890616403565b60405180910390fd5b6006600082815260200190815260200160002060040160009054906101000a900460ff1615611065576040517f08c379a000000000000000000000000000000000000000000000000000000000815260040161105c9061646f565b60405180910390fd5b60016006600083815260200190815260200160002060040160006101000a81548160ff0219169083151502179055506001600360006006600085815260200190815260200160002060000160009054906101000a900473ffffffffffffffffffffffffffffffffffffffff1673ffffffffffffffffffffffffffffffffffffffff1673ffffffffffffffffffffffffffffffffffffffff16815260200190815260200160002060070160006101000a81548160ff021916908360048111156111305761112f615dd4565b5b02179055506001600360006006600085815260200190815260200160002060010160009054906101000a900473ffffffffffffffffffffffffffffffffffffffff1673ffffffffffffffffffffffffffffffffffffffff1673ffffffffffffffffffffffffffffffffffffffff16815260200190815260200160002060070160006101000a81548160ff021916908360048111156111d1576111d0615dd4565b5b0217905550600a600360006006600085815260200190815260200160002060000160009054906101000a900473ffffffffffffffffffffffffffffffffffffffff1673ffffffffffffffffffffffffffffffffffffffff1673ffffffffffffffffffffffffffffffffffffffff168152602001908152602001600020600801600082825461125f919061648f565b9250508190555042600360006006600085815260200190815260200160002060000160009054906101000a900473ffffffffffffffffffffffffffffffffffffffff1673ffffffffffffffffffffffffffffffffffffffff1673ffffffffffffffffffffffffffffffffffffffff168152602001908152602001600020600901819055506064600560006006600085815260200190815260200160002060000160009054906101000a900473ffffffffffffffffffffffffffffffffffffffff1673ffffffffffffffffffffffffffffffffffffffff1673ffffffffffffffffffffffffffffffffffffffff1681526020019081526020016000206000828254611369919061648f565b92505081905550807fbc33d2b4c97953c4a5b36646273059e12c638409a1a311a1e86646f2057fcb1460405160405180910390a26006600082815260200190815260200160002060000160009054906101000a900473ffffffffffffffffffffffffffffffffffffffff1673ffffffffffffffffffffffffffffffffffffffff167fe34918ff1c7084970068b53fd71ad6d8b04e9f15d3886cbf006443e6cdc52ea6606460405161141a9190616508565b60405180910390a250565b61142d614758565b6114356147d6565b565b6008818154811061144757600080fd5b906000526020600020016000915054906101000a900473ffffffffffffffffffffffffffffffffffffffff1681565b600460003373ffffffffffffffffffffffffffffffffffffffff1673ffffffffffffffffffffffffffffffffffffffff16815260200190815260200160002060009054906101000a900460ff16611502576040517f08c379a00000000000000000000000000000000000000000000000000000000081526004016114f990616397565b60405180910390fd5b61150a61470e565b600360008273ffffffffffffffffffffffffffffffffffffffff1673ffffffffffffffffffffffffffffffffffffffff16815260200190815260200160002060070160029054906101000a900460ff16611599576040517f08c379a000000000000000000000000000000000000000000000000000000000815260040161159090616187565b60405180910390fd5b600060048111156115ad576115ac615dd4565b5b600360008373ffffffffffffffffffffffffffffffffffffffff1673ffffffffffffffffffffffffffffffffffffffff16815260200190815260200160002060070160009054906101000a900460ff16600481111561160f5761160e615dd4565b5b1461164f576040517f08c379a000000000000000000000000000000000000000000000000000000000815260040161164690616595565b60405180910390fd5b6001600360008373ffffffffffffffffffffffffffffffffffffffff1673ffffffffffffffffffffffffffffffffffffffff16815260200190815260200160002060070160006101000a81548160ff021916908360048111156116b5576116b4615dd4565b5b02179055508073ffffffffffffffffffffffffffffffffffffffff167f3e60282061aa9f0ac8f17cb522ab49946225e94f8597d84e6504593ee06a81e0600360008473ffffffffffffffffffffffffffffffffffffffff1673ffffffffffffffffffffffffffffffffffffffff16815260200190815260200160002060070160019054906101000a900460ff1660405161174f91906165b5565b60405180910390a250565b600460003373ffffffffffffffffffffffffffffffffffffffff1673ffffffffffffffffffffffffffffffffffffffff16815260200190815260200160002060009054906101000a900460ff166117e6576040517f08c379a00000000000000000000000000000000000000000000000000000000081526004016117dd90616397565b60405180910390fd5b6117ee61470e565b600360008273ffffffffffffffffffffffffffffffffffffffff1673ffffffffffffffffffffffffffffffffffffffff16815260200190815260200160002060070160029054906101000a900460ff1661187d576040517f08c379a000000000000000000000000000000000000000000000000000000000815260040161187490616187565b60405180910390fd5b6000600481111561189157611890615dd4565b5b600360008373ffffffffffffffffffffffffffffffffffffffff1673ffffffffffffffffffffffffffffffffffffffff16815260200190815260200160002060070160009054906101000a900460ff1660048111156118f3576118f2615dd4565b5b14611933576040517f08c379a000000000000000000000000000000000000000000000000000000000815260040161192a90616595565b60405180910390fd5b6002600360008373ffffffffffffffffffffffffffffffffffffffff1673ffffffffffffffffffffffffffffffffffffffff16815260200190815260200160002060070160006101000a81548160ff0219169083600481111561199957611998615dd4565b5b02179055508073ffffffffffffffffffffffffffffffffffffffff167fcd4eb963afd28b49c30fe30617b66449f6200ed9740e3ecb5cf57d7b46146641600360008473ffffffffffffffffffffffffffffffffffffffff1673ffffffffffffffffffffffffffffffffffffffff16815260200190815260200160002060070160019054906101000a900460ff16604051611a3391906165b5565b60405180910390a250565b611a466152dc565b600660008381526020019081526020016000206040518060c00160405290816000820160009054906101000a900473ffffffffffffffffffffffffffffffffffffffff1673ffffffffffffffffffffffffffffffffffffffff1673ffffffffffffffffffffffffffffffffffffffff1681526020016001820160009054906101000a900473ffffffffffffffffffffffffffffffffffffffff1673ffffffffffffffffffffffffffffffffffffffff1673ffffffffffffffffffffffffffffffffffffffff168152602001600282018054611b20906165ff565b80601f0160208091040260200160405190810160405280929190818152602001828054611b4c906165ff565b8015611b995780601f10611b6e57610100808354040283529160200191611b99565b820191906000526020600020905b815481529060010190602001808311611b7c57829003601f168201915b50505050508152602001600382015481526020016004820160009054906101000a900460ff161515151581526020016005820154815250509050919050565b600360003373ffffffffffffffffffffffffffffffffffffffff1673ffffffffffffffffffffffffffffffffffffffff16815260200190815260200160002060070160029054906101000a900460ff1615611c68576040517f08c379a0000000000000000000000000000000000000000000000000000000008152600401611c5f9061667c565b60405180910390fd5b611c7061470e565b604051806101a0016040528089815260200188815260200187815260200186815260200185815260200184815260200183815260200160006004811115611cba57611cb9615dd4565b5b815260200160006001811115611cd357611cd2615dd4565b5b8152602001600115158152602001600081526020016000815260200182815250600360003373ffffffffffffffffffffffffffffffffffffffff1673ffffffffffffffffffffffffffffffffffffffff1681526020019081526020016000206000820151816000019081611d47919061683e565b50602082015181600101556040820151816002019081611d67919061683e565b50606082015181600301556080820151816004015560a0820151816005019080519060200190611d98929190615340565b5060c0820151816006019081611dae919061683e565b5060e08201518160070160006101000a81548160ff02191690836004811115611dda57611dd9615dd4565b5b02179055506101008201518160070160016101000a81548160ff02191690836001811115611e0b57611e0a615dd4565b5b02179055506101208201518160070160026101000a81548160ff0219169083151502179055506101408201518160080155610160820151816009015561018082015181600a019081611e5d919061683e565b509050506008339080600181540180825580915050600190039060005260206000200160009091909190916101000a81548173ffffffffffffffffffffffffffffffffffffffff021916908373ffffffffffffffffffffffffffffffffffffffff1602179055503373ffffffffffffffffffffffffffffffffffffffff167f8e18574f8a7333e6a87112742a55853a643e2f0550f4e1a3a2c3f1bb2994441d6000604051611f0b91906165b5565b60405180910390a25050505050505050565b6000600260009054906101000a900460ff16905090565b60606000600980549050600880549050611f4e919061648f565b67ffffffffffffffff811115611f6757611f6661584c565b5b604051908082528060200260200182016040528015611f955781602001602082028036833780820191505090505b5090506000805b60088054905081101561210f57846004811115611fbc57611fbb615dd4565b5b6003600060088481548110611fd457611fd361627f565b5b9060005260206000200160009054906101000a900473ffffffffffffffffffffffffffffffffffffffff1673ffffffffffffffffffffffffffffffffffffffff1673ffffffffffffffffffffffffffffffffffffffff16815260200190815260200160002060070160009054906101000a900460ff16600481111561205c5761205b615dd4565b5b036120fc57600881815481106120755761207461627f565b5b9060005260206000200160009054906101000a900473ffffffffffffffffffffffffffffffffffffffff168383815181106120b3576120b261627f565b5b602002602001019073ffffffffffffffffffffffffffffffffffffffff16908173ffffffffffffffffffffffffffffffffffffffff168152505081806120f8906162dd565b9250505b8080612107906162dd565b915050611f9c565b5060005b6009805490508110156122865784600481111561213357612132615dd4565b5b600360006009848154811061214b5761214a61627f565b5b9060005260206000200160009054906101000a900473ffffffffffffffffffffffffffffffffffffffff1673ffffffffffffffffffffffffffffffffffffffff1673ffffffffffffffffffffffffffffffffffffffff16815260200190815260200160002060070160009054906101000a900460ff1660048111156121d3576121d2615dd4565b5b0361227357600981815481106121ec576121eb61627f565b5b9060005260206000200160009054906101000a900473ffffffffffffffffffffffffffffffffffffffff1683838151811061222a5761222961627f565b5b602002602001019073ffffffffffffffffffffffffffffffffffffffff16908173ffffffffffffffffffffffffffffffffffffffff1681525050818061226f906162dd565b9250505b808061227e906162dd565b915050612113565b5060008167ffffffffffffffff8111156122a3576122a261584c565b5b6040519080825280602002602001820160405280156122d15781602001602082028036833780820191505090505b50905060005b8281101561235a578381815181106122f2576122f161627f565b5b602002602001015182828151811061230d5761230c61627f565b5b602002602001019073ffffffffffffffffffffffffffffffffffffffff16908173ffffffffffffffffffffffffffffffffffffffff16815250508080612352906162dd565b9150506122d7565b50809350505050919050565b61236e61470e565b600360003373ffffffffffffffffffffffffffffffffffffffff1673ffffffffffffffffffffffffffffffffffffffff16815260200190815260200160002060070160029054906101000a900460ff166123fd576040517f08c379a00000000000000000000000000000000000000000000000000000000081526004016123f490616187565b60405180910390fd5b80600360003373ffffffffffffffffffffffffffffffffffffffff1673ffffffffffffffffffffffffffffffffffffffff168152602001908152602001600020600a01908161244c919061683e565b50600760003373ffffffffffffffffffffffffffffffffffffffff1673ffffffffffffffffffffffffffffffffffffffff168152602001908152602001600020819080600181540180825580915050600190039060005260206000200160009091909190915090816124be919061683e565b503373ffffffffffffffffffffffffffffffffffffffff167f1e4a3aa86f1bd77fc9038887ebf88d1ce21f840aaf6b59e1c0ff164001c60bf7826040516125059190615cc4565b60405180910390a250565b612518614758565b6001600460008373ffffffffffffffffffffffffffffffffffffffff1673ffffffffffffffffffffffffffffffffffffffff16815260200190815260200160002060006101000a81548160ff02191690831515021790555050565b61257b614758565b6125856000614839565b565b61258f614758565b6125976148fd565b565b60008060009054906101000a900473ffffffffffffffffffffffffffffffffffffffff16905090565b600981815481106125d257600080fd5b906000526020600020016000915054906101000a900473ffffffffffffffffffffffffffffffffffffffff1681565b6007602052816000526040600020818154811061261d57600080fd5b90600052602060002001600091509150508054612639906165ff565b80601f0160208091040260200160405190810160405280929190818152602001828054612665906165ff565b80156126b25780601f10612687576101008083540402835291602001916126b2565b820191906000526020600020905b81548152906001019060200180831161269557829003601f168201915b505050505081565b6000600460003373ffffffffffffffffffffffffffffffffffffffff1673ffffffffffffffffffffffffffffffffffffffff16815260200190815260200160002060009054906101000a900460ff16612748576040517f08c379a000000000000000000000000000000000000000000000000000000000815260040161273f90616397565b60405180910390fd5b61275061470e565b600360008473ffffffffffffffffffffffffffffffffffffffff1673ffffffffffffffffffffffffffffffffffffffff16815260200190815260200160002060070160029054906101000a900460ff16801561281e57506001808111156127ba576127b9615dd4565b5b600360008573ffffffffffffffffffffffffffffffffffffffff1673ffffffffffffffffffffffffffffffffffffffff16815260200190815260200160002060070160019054906101000a900460ff16600181111561281c5761281b615dd4565b5b145b61285d576040517f08c379a00000000000000000000000000000000000000000000000000000000081526004016128549061695c565b60405180910390fd5b6001600481111561287157612870615dd4565b5b600360008573ffffffffffffffffffffffffffffffffffffffff1673ffffffffffffffffffffffffffffffffffffffff16815260200190815260200160002060070160009054906101000a900460ff1660048111156128d3576128d2615dd4565b5b14612913576040517f08c379a000000000000000000000000000000000000000000000000000000000815260040161290a906169c8565b60405180910390fd5b600080600060066000878760405160200161292f929190616a6c565b60405160208183030381529060405280519060200120815260200190815260200160002060050154905060005b600880549050811015612b345760006008828154811061297f5761297e61627f565b5b9060005260206000200160009054906101000a900473ffffffffffffffffffffffffffffffffffffffff169050600360048111156129c0576129bf615dd4565b5b600360008373ffffffffffffffffffffffffffffffffffffffff1673ffffffffffffffffffffffffffffffffffffffff16815260200190815260200160002060070160009054906101000a900460ff166004811115612a2257612a21615dd4565b5b03612b20576000612a3489838a614960565b9050600380811115612a4957612a48615dd4565b5b8403612a635784811115612a5e578094508195505b612b1e565b8481118015612ab557506005600360008473ffffffffffffffffffffffffffffffffffffffff1673ffffffffffffffffffffffffffffffffffffffff1681526020019081526020016000206008015410155b8015612b11575062ed4e00600360008473ffffffffffffffffffffffffffffffffffffffff1673ffffffffffffffffffffffffffffffffffffffff1681526020019081526020016000206009015442612b0e9190616a94565b10155b15612b1d578094508195505b5b505b508080612b2c906162dd565b91505061295c565b50600073ffffffffffffffffffffffffffffffffffffffff168373ffffffffffffffffffffffffffffffffffffffff1603612ba4576040517f08c379a0000000000000000000000000000000000000000000000000000000008152600401612b9b90616b14565b60405180910390fd5b6000612bb0600a6150b4565b42604051602001612bc2929190616b55565b6040516020818303038152906040528051906020012090506040518060c001604052808573ffffffffffffffffffffffffffffffffffffffff1681526020018873ffffffffffffffffffffffffffffffffffffffff168152602001878152602001428152602001600015158152602001838152506006600083815260200190815260200160002060008201518160000160006101000a81548173ffffffffffffffffffffffffffffffffffffffff021916908373ffffffffffffffffffffffffffffffffffffffff16021790555060208201518160010160006101000a81548173ffffffffffffffffffffffffffffffffffffffff021916908373ffffffffffffffffffffffffffffffffffffffff1602179055506040820151816002019081612cec919061683e565b506060820151816003015560808201518160040160006101000a81548160ff02191690831515021790555060a082015181600501559050506004600360008673ffffffffffffffffffffffffffffffffffffffff1673ffffffffffffffffffffffffffffffffffffffff16815260200190815260200160002060070160006101000a81548160ff02191690836004811115612d8a57612d89615dd4565b5b02179055506004600360008973ffffffffffffffffffffffffffffffffffffffff1673ffffffffffffffffffffffffffffffffffffffff16815260200190815260200160002060070160006101000a81548160ff02191690836004811115612df557612df4615dd4565b5b0217905550612e04600a6150c2565b8673ffffffffffffffffffffffffffffffffffffffff168473ffffffffffffffffffffffffffffffffffffffff16827fe3fad30513b8ca15196b14ac584c946469afdad46e6590412d1abe7e90b131a189604051612e629190615cc4565b60405180910390a48094505050505092915050565b60066020528060005260406000206000915090508060000160009054906101000a900473ffffffffffffffffffffffffffffffffffffffff16908060010160009054906101000a900473ffffffffffffffffffffffffffffffffffffffff1690806002018054612ee6906165ff565b80601f0160208091040260200160405190810160405280929190818152602001828054612f12906165ff565b8015612f5f5780601f10612f3457610100808354040283529160200191612f5f565b820191906000526020600020905b815481529060010190602001808311612f4257829003601f168201915b5050505050908060030154908060040160009054906101000a900460ff16908060050154905086565b6003602052806000526040600020600091509050806000018054612fab906165ff565b80601f0160208091040260200160405190810160405280929190818152602001828054612fd7906165ff565b80156130245780601f10612ff957610100808354040283529160200191613024565b820191906000526020600020905b81548152906001019060200180831161300757829003601f168201915b50505050509080600101549080600201805461303f906165ff565b80601f016020809104026020016040519081016040528092919081815260200182805461306b906165ff565b80156130b85780601f1061308d576101008083540402835291602001916130b8565b820191906000526020600020905b81548152906001019060200180831161309b57829003601f168201915b5050505050908060030154908060040154908060060180546130d9906165ff565b80601f0160208091040260200160405190810160405280929190818152602001828054613105906165ff565b80156131525780601f1061312757610100808354040283529160200191613152565b820191906000526020600020905b81548152906001019060200180831161313557829003601f168201915b5050505050908060070160009054906101000a900460ff16908060070160019054906101000a900460ff16908060070160029054906101000a900460ff169080600801549080600901549080600a0180546131ac906165ff565b80601f01602080910402602001604051908101604052809291908181526020018280546131d8906165ff565b80156132255780601f106131fa57610100808354040283529160200191613225565b820191906000526020600020905b81548152906001019060200180831161320857829003601f168201915b505050505090508c565b600360003373ffffffffffffffffffffffffffffffffffffffff1673ffffffffffffffffffffffffffffffffffffffff16815260200190815260200160002060070160029054906101000a900460ff16156132bf576040517f08c379a00000000000000000000000000000000000000000000000000000000081526004016132b69061667c565b60405180910390fd5b6132c761470e565b604051806101a001604052808981526020018881526020018781526020018681526020018581526020018481526020018381526020016000600481111561331157613310615dd4565b5b815260200160018081111561332957613328615dd4565b5b8152602001600115158152602001600081526020016000815260200182815250600360003373ffffffffffffffffffffffffffffffffffffffff1673ffffffffffffffffffffffffffffffffffffffff168152602001908152602001600020600082015181600001908161339d919061683e565b506020820151816001015560408201518160020190816133bd919061683e565b50606082015181600301556080820151816004015560a08201518160050190805190602001906133ee929190615340565b5060c0820151816006019081613404919061683e565b5060e08201518160070160006101000a81548160ff021916908360048111156134305761342f615dd4565b5b02179055506101008201518160070160016101000a81548160ff0219169083600181111561346157613460615dd4565b5b02179055506101208201518160070160026101000a81548160ff0219169083151502179055506101408201518160080155610160820151816009015561018082015181600a0190816134b3919061683e565b509050506009339080600181540180825580915050600190039060005260206000200160009091909190916101000a81548173ffffffffffffffffffffffffffffffffffffffff021916908373ffffffffffffffffffffffffffffffffffffffff1602179055503373ffffffffffffffffffffffffffffffffffffffff167f8e18574f8a7333e6a87112742a55853a643e2f0550f4e1a3a2c3f1bb2994441d600160405161356191906165b5565b60405180910390a25050505050505050565b61357b61470e565b6000600560003373ffffffffffffffffffffffffffffffffffffffff1673ffffffffffffffffffffffffffffffffffffffff16815260200190815260200160002054116135fd576040517f08c379a00000000000000000000000000000000000000000000000000000000081526004016135f490616bcd565b60405180910390fd5b6000600560003373ffffffffffffffffffffffffffffffffffffffff1673ffffffffffffffffffffffffffffffffffffffff1681526020019081526020016000205490506000600560003373ffffffffffffffffffffffffffffffffffffffff1673ffffffffffffffffffffffffffffffffffffffff168152602001908152602001600020819055503373ffffffffffffffffffffffffffffffffffffffff167fe34918ff1c7084970068b53fd71ad6d8b04e9f15d3886cbf006443e6cdc52ea6826040516136cc91906154d2565b60405180910390a250565b606060008060018111156136ee576136ed615dd4565b5b84600181111561370157613700615dd4565b5b1461370d576009613710565b60085b80548060200260200160405190810160405280929190818152602001828054801561379057602002820191906000526020600020905b8160009054906101000a900473ffffffffffffffffffffffffffffffffffffffff1673ffffffffffffffffffffffffffffffffffffffff1681526020019060010190808311613746575b505050505090506000815167ffffffffffffffff8111156137b4576137b361584c565b5b6040519080825280602002602001820160405280156137e25781602001602082028036833780820191505090505b5090506000805b83518110156139105785600481111561380557613804615dd4565b5b6003600086848151811061381c5761381b61627f565b5b602002602001015173ffffffffffffffffffffffffffffffffffffffff1673ffffffffffffffffffffffffffffffffffffffff16815260200190815260200160002060070160009054906101000a900460ff16600481111561388157613880615dd4565b5b036138fd578381815181106138995761389861627f565b5b60200260200101518383815181106138b4576138b361627f565b5b602002602001019073ffffffffffffffffffffffffffffffffffffffff16908173ffffffffffffffffffffffffffffffffffffffff168152505081806138f9906162dd565b9250505b8080613908906162dd565b9150506137e9565b5060008167ffffffffffffffff81111561392d5761392c61584c565b5b60405190808252806020026020018201604052801561395b5781602001602082028036833780820191505090505b50905060005b828110156139e45783818151811061397c5761397b61627f565b5b60200260200101518282815181106139975761399661627f565b5b602002602001019073ffffffffffffffffffffffffffffffffffffffff16908173ffffffffffffffffffffffffffffffffffffffff168152505080806139dc906162dd565b915050613961565b508094505050505092915050565b6139fa61470e565b600360003373ffffffffffffffffffffffffffffffffffffffff1673ffffffffffffffffffffffffffffffffffffffff16815260200190815260200160002060070160029054906101000a900460ff16613a89576040517f08c379a0000000000000000000000000000000000000000000000000000000008152600401613a8090616187565b60405180910390fd5b600180811115613a9c57613a9b615dd4565b5b600360003373ffffffffffffffffffffffffffffffffffffffff1673ffffffffffffffffffffffffffffffffffffffff16815260200190815260200160002060070160019054906101000a900460ff166001811115613afe57613afd615dd4565b5b14613b3e576040517f08c379a0000000000000000000000000000000000000000000000000000000008152600401613b3590616c5f565b60405180910390fd5b60016004811115613b5257613b51615dd4565b5b600360003373ffffffffffffffffffffffffffffffffffffffff1673ffffffffffffffffffffffffffffffffffffffff16815260200190815260200160002060070160009054906101000a900460ff166004811115613bb457613bb3615dd4565b5b14613bf4576040517f08c379a0000000000000000000000000000000000000000000000000000000008152600401613beb90616ccb565b60405180910390fd5b3373ffffffffffffffffffffffffffffffffffffffff167f6f3cdb9b79227bfd5cec2cab2df593061804d0a3055d5ab2962a056157209daa8383604051613c3c929190616ceb565b60405180910390a25050565b606060006001811115613c5e57613c5d615dd4565b5b826001811115613c7157613c70615dd4565b5b03613d04576008805480602002602001604051908101604052809291908181526020018280548015613cf857602002820191906000526020600020905b8160009054906101000a900473ffffffffffffffffffffffffffffffffffffffff1673ffffffffffffffffffffffffffffffffffffffff1681526020019060010190808311613cae575b50505050509050613d8e565b6009805480602002602001604051908101604052809291908181526020018280548015613d8657602002820191906000526020600020905b8160009054906101000a900473ffffffffffffffffffffffffffffffffffffffff1673ffffffffffffffffffffffffffffffffffffffff1681526020019060010190808311613d3c575b505050505090505b919050565b60606000805b600880549050811015613e815760016004811115613dba57613db9615dd4565b5b6003600060088481548110613dd257613dd161627f565b5b9060005260206000200160009054906101000a900473ffffffffffffffffffffffffffffffffffffffff1673ffffffffffffffffffffffffffffffffffffffff1673ffffffffffffffffffffffffffffffffffffffff16815260200190815260200160002060070160009054906101000a900460ff166004811115613e5a57613e59615dd4565b5b03613e6e578180613e6a906162dd565b9250505b8080613e79906162dd565b915050613d99565b5060008167ffffffffffffffff811115613e9e57613e9d61584c565b5b604051908082528060200260200182016040528015613ecc5781602001602082028036833780820191505090505b5090506000805b6008805490508110156140475760016004811115613ef457613ef3615dd4565b5b6003600060088481548110613f0c57613f0b61627f565b5b9060005260206000200160009054906101000a900473ffffffffffffffffffffffffffffffffffffffff1673ffffffffffffffffffffffffffffffffffffffff1673ffffffffffffffffffffffffffffffffffffffff16815260200190815260200160002060070160009054906101000a900460ff166004811115613f9457613f93615dd4565b5b036140345760088181548110613fad57613fac61627f565b5b9060005260206000200160009054906101000a900473ffffffffffffffffffffffffffffffffffffffff16838381518110613feb57613fea61627f565b5b602002602001019073ffffffffffffffffffffffffffffffffffffffff16908173ffffffffffffffffffffffffffffffffffffffff16815250508180614030906162dd565b9250505b808061403f906162dd565b915050613ed3565b5081935050505090565b614059614758565b600073ffffffffffffffffffffffffffffffffffffffff168173ffffffffffffffffffffffffffffffffffffffff16036140c8576040517f08c379a00000000000000000000000000000000000000000000000000000000081526004016140bf90616d8d565b60405180910390fd5b6140d181614839565b50565b6060600760008373ffffffffffffffffffffffffffffffffffffffff1673ffffffffffffffffffffffffffffffffffffffff168152602001908152602001600020805480602002602001604051908101604052809291908181526020016000905b828210156141e1578382906000526020600020018054614154906165ff565b80601f0160208091040260200160405190810160405280929190818152602001828054614180906165ff565b80156141cd5780601f106141a2576101008083540402835291602001916141cd565b820191906000526020600020905b8154815290600101906020018083116141b057829003601f168201915b505050505081526020019060010190614135565b505050509050919050565b60606000805b6008805490508110156142da576000600481111561421357614212615dd4565b5b600360006008848154811061422b5761422a61627f565b5b9060005260206000200160009054906101000a900473ffffffffffffffffffffffffffffffffffffffff1673ffffffffffffffffffffffffffffffffffffffff1673ffffffffffffffffffffffffffffffffffffffff16815260200190815260200160002060070160009054906101000a900460ff1660048111156142b3576142b2615dd4565b5b036142c75781806142c3906162dd565b9250505b80806142d2906162dd565b9150506141f2565b5060005b6009805490508110156143c657600060048111156142ff576142fe615dd4565b5b60036000600984815481106143175761431661627f565b5b9060005260206000200160009054906101000a900473ffffffffffffffffffffffffffffffffffffffff1673ffffffffffffffffffffffffffffffffffffffff1673ffffffffffffffffffffffffffffffffffffffff16815260200190815260200160002060070160009054906101000a900460ff16600481111561439f5761439e615dd4565b5b036143b35781806143af906162dd565b9250505b80806143be906162dd565b9150506142de565b5060008167ffffffffffffffff8111156143e3576143e261584c565b5b6040519080825280602002602001820160405280156144115781602001602082028036833780820191505090505b5090506000805b60088054905081101561458c576000600481111561443957614438615dd4565b5b60036000600884815481106144515761445061627f565b5b9060005260206000200160009054906101000a900473ffffffffffffffffffffffffffffffffffffffff1673ffffffffffffffffffffffffffffffffffffffff1673ffffffffffffffffffffffffffffffffffffffff16815260200190815260200160002060070160009054906101000a900460ff1660048111156144d9576144d8615dd4565b5b0361457957600881815481106144f2576144f161627f565b5b9060005260206000200160009054906101000a900473ffffffffffffffffffffffffffffffffffffffff168383815181106145305761452f61627f565b5b602002602001019073ffffffffffffffffffffffffffffffffffffffff16908173ffffffffffffffffffffffffffffffffffffffff16815250508180614575906162dd565b9250505b8080614584906162dd565b915050614418565b5060005b60098054905081101561470457600060048111156145b1576145b0615dd4565b5b60036000600984815481106145c9576145c861627f565b5b9060005260206000200160009054906101000a900473ffffffffffffffffffffffffffffffffffffffff1673ffffffffffffffffffffffffffffffffffffffff1673ffffffffffffffffffffffffffffffffffffffff16815260200190815260200160002060070160009054906101000a900460ff16600481111561465157614650615dd4565b5b036146f1576009818154811061466a5761466961627f565b5b9060005260206000200160009054906101000a900473ffffffffffffffffffffffffffffffffffffffff168383815181106146a8576146a761627f565b5b602002602001019073ffffffffffffffffffffffffffffffffffffffff16908173ffffffffffffffffffffffffffffffffffffffff168152505081806146ed906162dd565b9250505b80806146fc906162dd565b915050614590565b5081935050505090565b614716611f1d565b15614756576040517f08c379a000000000000000000000000000000000000000000000000000000000815260040161474d90616df9565b60405180910390fd5b565b6147606150d8565b73ffffffffffffffffffffffffffffffffffffffff1661477e612599565b73ffffffffffffffffffffffffffffffffffffffff16146147d4576040517f08c379a00000000000000000000000000000000000000000000000000000000081526004016147cb90616e65565b60405180910390fd5b565b6147de6150e0565b6000600260006101000a81548160ff0219169083151502179055507f5db9ee0a495bf2e6ff9c91a7834c1ba4fdd244a5e8aa4e537bd38aeae4b073aa6148226150d8565b60405161482f91906156ce565b60405180910390a1565b60008060009054906101000a900473ffffffffffffffffffffffffffffffffffffffff169050816000806101000a81548173ffffffffffffffffffffffffffffffffffffffff021916908373ffffffffffffffffffffffffffffffffffffffff1602179055508173ffffffffffffffffffffffffffffffffffffffff168173ffffffffffffffffffffffffffffffffffffffff167f8be0079c531659141344cd1fd0a4f28419497f9722a3daafe3b4186f6b6457e060405160405180910390a35050565b61490561470e565b6001600260006101000a81548160ff0219169083151502179055507f62e78cea01bee320cd4e420270b5ea74000d11b0c9f74754ebdbfc544b05a2586149496150d8565b60405161495691906156ce565b60405180910390a1565b60008060009050614b05600360008773ffffffffffffffffffffffffffffffffffffffff1673ffffffffffffffffffffffffffffffffffffffff16815260200190815260200160002060060180546149b7906165ff565b80601f01602080910402602001604051908101604052809291908181526020018280546149e3906165ff565b8015614a305780601f10614a0557610100808354040283529160200191614a30565b820191906000526020600020905b815481529060010190602001808311614a1357829003601f168201915b5050505050600360008773ffffffffffffffffffffffffffffffffffffffff1673ffffffffffffffffffffffffffffffffffffffff1681526020019081526020016000206006018054614a82906165ff565b80601f0160208091040260200160405190810160405280929190818152602001828054614aae906165ff565b8015614afb5780601f10614ad057610100808354040283529160200191614afb565b820191906000526020600020905b815481529060010190602001808311614ade57829003601f168201915b5050505050615129565b15614b1a57606481614b17919061648f565b90505b6000614bb4600360008773ffffffffffffffffffffffffffffffffffffffff1673ffffffffffffffffffffffffffffffffffffffff16815260200190815260200160002060010154600360008973ffffffffffffffffffffffffffffffffffffffff1673ffffffffffffffffffffffffffffffffffffffff16815260200190815260200160002060010154614baf9190616e8f565b6152ba565b905060058111614bd257603282614bcb919061648f565b9150614c08565b600a8111614bee57601e82614be7919061648f565b9150614c07565b600f8111614c0657601482614c03919061648f565b91505b5b5b6000614ca2600360008873ffffffffffffffffffffffffffffffffffffffff1673ffffffffffffffffffffffffffffffffffffffff16815260200190815260200160002060030154600360008a73ffffffffffffffffffffffffffffffffffffffff1673ffffffffffffffffffffffffffffffffffffffff16815260200190815260200160002060030154614c9d9190616e8f565b6152ba565b90506000614d3e600360008973ffffffffffffffffffffffffffffffffffffffff1673ffffffffffffffffffffffffffffffffffffffff16815260200190815260200160002060040154600360008b73ffffffffffffffffffffffffffffffffffffffff1673ffffffffffffffffffffffffffffffffffffffff16815260200190815260200160002060040154614d399190616e8f565b6152ba565b905060058211614d5c57601984614d55919061648f565b9350614d75565b600a8211614d7457600f84614d71919061648f565b93505b5b60058111614d9157601984614d8a919061648f565b9350614daa565b600a8111614da957600f84614da6919061648f565b93505b5b6002600360008973ffffffffffffffffffffffffffffffffffffffff1673ffffffffffffffffffffffffffffffffffffffff16815260200190815260200160002060080154614df99190616ed2565b84614e04919061648f565b93506000600360008973ffffffffffffffffffffffffffffffffffffffff1673ffffffffffffffffffffffffffffffffffffffff168152602001908152602001600020600901541115614efe576000600360008973ffffffffffffffffffffffffffffffffffffffff1673ffffffffffffffffffffffffffffffffffffffff1681526020019081526020016000206009015442614ea19190616a94565b90506301e133808110614ec257600f85614ebb919061648f565b9450614efc565b62ed4e008110614ee057600a85614ed9919061648f565b9450614efb565b6276a7008110614efa57600585614ef7919061648f565b94505b5b5b505b6000600360008973ffffffffffffffffffffffffffffffffffffffff1673ffffffffffffffffffffffffffffffffffffffff168152602001908152602001600020600a018054614f4d906165ff565b90501115614f6557600a84614f62919061648f565b93505b600380811115614f7857614f77615dd4565b5b600660008a89604051602001614f8f929190616a6c565b6040516020818303038152906040528051906020012081526020019081526020016000206005015403614fd057603284614fc9919061648f565b93506150a6565b60026003811115614fe457614fe3615dd4565b5b600660008a89604051602001614ffb929190616a6c565b604051602081830303815290604052805190602001208152602001908152602001600020600501540361503c57601e84615035919061648f565b93506150a5565b600160038111156150505761504f615dd4565b5b600660008a89604051602001615067929190616a6c565b60405160208183030381529060405280519060200120815260200190815260200160002060050154036150a457600f846150a1919061648f565b93505b5b5b839450505050509392505050565b600081600001549050919050565b6001816000016000828254019250508190555050565b600033905090565b6150e8611f1d565b615127576040517f08c379a000000000000000000000000000000000000000000000000000000000815260040161511e90616f60565b60405180910390fd5b565b6000808360405160200161513d9190616f80565b6040516020818303038152906040528051906020012090506000836040516020016151689190616f80565b604051602081830303815290604052805190602001209050808203615192576001925050506152b4565b6040516020016151a190616fe3565b6040516020818303038152906040528051906020012082036151c8576001925050506152b4565b6040516020016151d790617044565b6040516020818303038152906040528051906020012082036152ad5760405160200161520290617044565b60405160208183030381529060405280519060200120811480615248575060405160200161522f906170a5565b6040516020818303038152906040528051906020012081145b80615276575060405160200161525d90617106565b6040516020818303038152906040528051906020012081145b806152a4575060405160200161528b90617167565b6040516020818303038152906040528051906020012081145b925050506152b4565b6000925050505b92915050565b6000808212156152d357816152ce9061717c565b6152d5565b815b9050919050565b6040518060c00160405280600073ffffffffffffffffffffffffffffffffffffffff168152602001600073ffffffffffffffffffffffffffffffffffffffff1681526020016060815260200160008152602001600015158152602001600081525090565b828054828255906000526020600020908101928215615388579160200282015b82811115615387578251829081615377919061683e565b5091602001919060010190615360565b5b5090506153959190615399565b5090565b5b808211156153b957600081816153b091906153bd565b5060010161539a565b5090565b5080546153c9906165ff565b6000825580601f106153db57506153fa565b601f0160209004906000526020600020908101906153f991906153fd565b5b50565b5b808211156154165760008160009055506001016153fe565b5090565b6000604051905090565b600080fd5b600080fd5b600073ffffffffffffffffffffffffffffffffffffffff82169050919050565b60006154598261542e565b9050919050565b6154698161544e565b811461547457600080fd5b50565b60008135905061548681615460565b92915050565b6000602082840312156154a2576154a1615424565b5b60006154b084828501615477565b91505092915050565b6000819050919050565b6154cc816154b9565b82525050565b60006020820190506154e760008301846154c3565b92915050565b600081519050919050565b600082825260208201905092915050565b6000819050602082019050919050565b6155228161544e565b82525050565b60006155348383615519565b60208301905092915050565b6000602082019050919050565b6000615558826154ed565b61556281856154f8565b935061556d83615509565b8060005b8381101561559e5781516155858882615528565b975061559083615540565b925050600181019050615571565b5085935050505092915050565b600060208201905081810360008301526155c5818461554d565b905092915050565b60008115159050919050565b6155e2816155cd565b82525050565b60006020820190506155fd60008301846155d9565b92915050565b6000819050919050565b61561681615603565b811461562157600080fd5b50565b6000813590506156338161560d565b92915050565b60006020828403121561564f5761564e615424565b5b600061565d84828501615624565b91505092915050565b61566f816154b9565b811461567a57600080fd5b50565b60008135905061568c81615666565b92915050565b6000602082840312156156a8576156a7615424565b5b60006156b68482850161567d565b91505092915050565b6156c88161544e565b82525050565b60006020820190506156e360008301846156bf565b92915050565b600081519050919050565b600082825260208201905092915050565b60005b83811015615723578082015181840152602081019050615708565b60008484015250505050565b6000601f19601f8301169050919050565b600061574b826156e9565b61575581856156f4565b9350615765818560208601615705565b61576e8161572f565b840191505092915050565b615782816154b9565b82525050565b615791816155cd565b82525050565b600060c0830160008301516157af6000860182615519565b5060208301516157c26020860182615519565b50604083015184820360408601526157da8282615740565b91505060608301516157ef6060860182615779565b5060808301516158026080860182615788565b5060a083015161581560a0860182615779565b508091505092915050565b6000602082019050818103600083015261583a8184615797565b905092915050565b600080fd5b600080fd5b7f4e487b7100000000000000000000000000000000000000000000000000000000600052604160045260246000fd5b6158848261572f565b810181811067ffffffffffffffff821117156158a3576158a261584c565b5b80604052505050565b60006158b661541a565b90506158c2828261587b565b919050565b600067ffffffffffffffff8211156158e2576158e161584c565b5b6158eb8261572f565b9050602081019050919050565b82818337600083830152505050565b600061591a615915846158c7565b6158ac565b90508281526020810184848401111561593657615935615847565b5b6159418482856158f8565b509392505050565b600082601f83011261595e5761595d615842565b5b813561596e848260208601615907565b91505092915050565b600067ffffffffffffffff8211156159925761599161584c565b5b602082029050602081019050919050565b600080fd5b60006159bb6159b684615977565b6158ac565b905080838252602082019050602084028301858111156159de576159dd6159a3565b5b835b81811015615a2557803567ffffffffffffffff811115615a0357615a02615842565b5b808601615a108982615949565b855260208501945050506020810190506159e0565b5050509392505050565b600082601f830112615a4457615a43615842565b5b8135615a548482602086016159a8565b91505092915050565b600080600080600080600080610100898b031215615a7e57615a7d615424565b5b600089013567ffffffffffffffff811115615a9c57615a9b615429565b5b615aa88b828c01615949565b9850506020615ab98b828c0161567d565b975050604089013567ffffffffffffffff811115615ada57615ad9615429565b5b615ae68b828c01615949565b9650506060615af78b828c0161567d565b9550506080615b088b828c0161567d565b94505060a089013567ffffffffffffffff811115615b2957615b28615429565b5b615b358b828c01615a2f565b93505060c089013567ffffffffffffffff811115615b5657615b55615429565b5b615b628b828c01615949565b92505060e089013567ffffffffffffffff811115615b8357615b82615429565b5b615b8f8b828c01615949565b9150509295985092959890939650565b60058110615bac57600080fd5b50565b600081359050615bbe81615b9f565b92915050565b600060208284031215615bda57615bd9615424565b5b6000615be884828501615baf565b91505092915050565b600060208284031215615c0757615c06615424565b5b600082013567ffffffffffffffff811115615c2557615c24615429565b5b615c3184828501615949565b91505092915050565b60008060408385031215615c5157615c50615424565b5b6000615c5f85828601615477565b9250506020615c708582860161567d565b9150509250929050565b600082825260208201905092915050565b6000615c96826156e9565b615ca08185615c7a565b9350615cb0818560208601615705565b615cb98161572f565b840191505092915050565b60006020820190508181036000830152615cde8184615c8b565b905092915050565b60008060408385031215615cfd57615cfc615424565b5b6000615d0b85828601615477565b925050602083013567ffffffffffffffff811115615d2c57615d2b615429565b5b615d3885828601615949565b9150509250929050565b615d4b81615603565b82525050565b6000602082019050615d666000830184615d42565b92915050565b600060c082019050615d8160008301896156bf565b615d8e60208301886156bf565b8181036040830152615da08187615c8b565b9050615daf60608301866154c3565b615dbc60808301856155d9565b615dc960a08301846154c3565b979650505050505050565b7f4e487b7100000000000000000000000000000000000000000000000000000000600052602160045260246000fd5b60058110615e1457615e13615dd4565b5b50565b6000819050615e2582615e03565b919050565b6000615e3582615e17565b9050919050565b615e4581615e2a565b82525050565b60028110615e5c57615e5b615dd4565b5b50565b6000819050615e6d82615e4b565b919050565b6000615e7d82615e5f565b9050919050565b615e8d81615e72565b82525050565b6000610180820190508181036000830152615eae818f615c8b565b9050615ebd602083018e6154c3565b8181036040830152615ecf818d615c8b565b9050615ede606083018c6154c3565b615eeb608083018b6154c3565b81810360a0830152615efd818a615c8b565b9050615f0c60c0830189615e3c565b615f1960e0830188615e84565b615f276101008301876155d9565b615f356101208301866154c3565b615f436101408301856154c3565b818103610160830152615f568184615c8b565b90509d9c50505050505050505050505050565b60028110615f7657600080fd5b50565b600081359050615f8881615f69565b92915050565b60008060408385031215615fa557615fa4615424565b5b6000615fb385828601615f79565b9250506020615fc485828601615baf565b9150509250929050565b60008060408385031215615fe557615fe4615424565b5b600083013567ffffffffffffffff81111561600357616002615429565b5b61600f85828601615949565b92505060206160208582860161567d565b9150509250929050565b6000602082840312156160405761603f615424565b5b600061604e84828501615f79565b91505092915050565b600081519050919050565b600082825260208201905092915050565b6000819050602082019050919050565b600061608f8383615740565b905092915050565b6000602082019050919050565b60006160af82616057565b6160b98185616062565b9350836020820285016160cb85616073565b8060005b8581101561610757848403895281516160e88582616083565b94506160f383616097565b925060208a019950506001810190506160cf565b50829750879550505050505092915050565b6000602082019050818103600083015261613381846160a4565b905092915050565b7f55736572206e6f74207265676973746572656400000000000000000000000000600082015250565b6000616171601383615c7a565b915061617c8261613b565b602082019050919050565b600060208201905081810360008301526161a081616164565b9050919050565b7f4f6e6c7920646f6e6f72732063616e20616e6e6f756e63650000000000000000600082015250565b60006161dd601883615c7a565b91506161e8826161a7565b602082019050919050565b6000602082019050818103600083015261620c816161d0565b9050919050565b7f446f6e6f72206d75737420626520766572696669656420666972737400000000600082015250565b6000616249601c83615c7a565b915061625482616213565b602082019050919050565b600060208201905081810360008301526162788161623c565b9050919050565b7f4e487b7100000000000000000000000000000000000000000000000000000000600052603260045260246000fd5b7f4e487b7100000000000000000000000000000000000000000000000000000000600052601160045260246000fd5b60006162e8826154b9565b91507fffffffffffffffffffffffffffffffffffffffffffffffffffffffffffffffff820361631a576163196162ae565b5b600182019050919050565b7f4f6e6c792061646d696e2063616e20706572666f726d2074686973206163746960008201527f6f6e000000000000000000000000000000000000000000000000000000000000602082015250565b6000616381602283615c7a565b915061638c82616325565b604082019050919050565b600060208201905081810360008301526163b081616374565b9050919050565b7f4d6174636820646f6573206e6f74206578697374000000000000000000000000600082015250565b60006163ed601483615c7a565b91506163f8826163b7565b602082019050919050565b6000602082019050818103600083015261641c816163e0565b9050919050565b7f4d6174636820616c726561647920636f6d706c65746564000000000000000000600082015250565b6000616459601783615c7a565b915061646482616423565b602082019050919050565b600060208201905081810360008301526164888161644c565b9050919050565b600061649a826154b9565b91506164a5836154b9565b92508282019050808211156164bd576164bc6162ae565b5b92915050565b6000819050919050565b6000819050919050565b60006164f26164ed6164e8846164c3565b6164cd565b6154b9565b9050919050565b616502816164d7565b82525050565b600060208201905061651d60008301846164f9565b92915050565b7f5573657220616c7265616479207665726966696564206f722072656a6563746560008201527f6400000000000000000000000000000000000000000000000000000000000000602082015250565b600061657f602183615c7a565b915061658a82616523565b604082019050919050565b600060208201905081810360008301526165ae81616572565b9050919050565b60006020820190506165ca6000830184615e84565b92915050565b7f4e487b7100000000000000000000000000000000000000000000000000000000600052602260045260246000fd5b6000600282049050600182168061661757607f821691505b60208210810361662a576166296165d0565b5b50919050565b7f5573657220616c72656164792072656769737465726564000000000000000000600082015250565b6000616666601783615c7a565b915061667182616630565b602082019050919050565b6000602082019050818103600083015261669581616659565b9050919050565b60008190508160005260206000209050919050565b60006020601f8301049050919050565b600082821b905092915050565b6000600883026166fe7fffffffffffffffffffffffffffffffffffffffffffffffffffffffffffffffff826166c1565b61670886836166c1565b95508019841693508086168417925050509392505050565b600061673b616736616731846154b9565b6164cd565b6154b9565b9050919050565b6000819050919050565b61675583616720565b61676961676182616742565b8484546166ce565b825550505050565b600090565b61677e616771565b61678981848461674c565b505050565b5b818110156167ad576167a2600082616776565b60018101905061678f565b5050565b601f8211156167f2576167c38161669c565b6167cc846166b1565b810160208510156167db578190505b6167ef6167e7856166b1565b83018261678e565b50505b505050565b600082821c905092915050565b6000616815600019846008026167f7565b1980831691505092915050565b600061682e8383616804565b9150826002028217905092915050565b616847826156e9565b67ffffffffffffffff8111156168605761685f61584c565b5b61686a82546165ff565b6168758282856167b1565b600060209050601f8311600181146168a85760008415616896578287015190505b6168a08582616822565b865550616908565b601f1984166168b68661669c565b60005b828110156168de578489015182556001820191506020850194506020810190506168b9565b868310156168fb57848901516168f7601f891682616804565b8355505b6001600288020188555050505b505050505050565b7f496e76616c69642070617469656e740000000000000000000000000000000000600082015250565b6000616946600f83615c7a565b915061695182616910565b602082019050919050565b6000602082019050818103600083015261697581616939565b9050919050565b7f50617469656e74206d7573742062652076657269666965640000000000000000600082015250565b60006169b2601883615c7a565b91506169bd8261697c565b602082019050919050565b600060208201905081810360008301526169e1816169a5565b9050919050565b60008160601b9050919050565b6000616a00826169e8565b9050919050565b6000616a12826169f5565b9050919050565b616a2a616a258261544e565b616a07565b82525050565b600081905092915050565b6000616a46826156e9565b616a508185616a30565b9350616a60818560208601615705565b80840191505092915050565b6000616a788285616a19565b601482019150616a888284616a3b565b91508190509392505050565b6000616a9f826154b9565b9150616aaa836154b9565b9250828203905081811115616ac257616ac16162ae565b5b92915050565b7f4e6f207375697461626c65206d6174636820666f756e64000000000000000000600082015250565b6000616afe601783615c7a565b9150616b0982616ac8565b602082019050919050565b60006020820190508181036000830152616b2d81616af1565b9050919050565b6000819050919050565b616b4f616b4a826154b9565b616b34565b82525050565b6000616b618285616b3e565b602082019150616b718284616b3e565b6020820191508190509392505050565b7f4e6f207265776172647320746f20636c61696d00000000000000000000000000600082015250565b6000616bb7601383615c7a565b9150616bc282616b81565b602082019050919050565b60006020820190508181036000830152616be681616baa565b9050919050565b7f4f6e6c792070617469656e74732063616e2063726561746520656d657267656e60008201527f6379207265717565737473000000000000000000000000000000000000000000602082015250565b6000616c49602b83615c7a565b9150616c5482616bed565b604082019050919050565b60006020820190508181036000830152616c7881616c3c565b9050919050565b7f50617469656e74206d7573742062652076657269666965642066697273740000600082015250565b6000616cb5601e83615c7a565b9150616cc082616c7f565b602082019050919050565b60006020820190508181036000830152616ce481616ca8565b9050919050565b60006040820190508181036000830152616d058185615c8b565b9050616d1460208301846154c3565b9392505050565b7f4f776e61626c653a206e6577206f776e657220697320746865207a65726f206160008201527f6464726573730000000000000000000000000000000000000000000000000000602082015250565b6000616d77602683615c7a565b9150616d8282616d1b565b604082019050919050565b60006020820190508181036000830152616da681616d6a565b9050919050565b7f5061757361626c653a2070617573656400000000000000000000000000000000600082015250565b6000616de3601083615c7a565b9150616dee82616dad565b602082019050919050565b60006020820190508181036000830152616e1281616dd6565b9050919050565b7f4f776e61626c653a2063616c6c6572206973206e6f7420746865206f776e6572600082015250565b6000616e4f602083615c7a565b9150616e5a82616e19565b602082019050919050565b60006020820190508181036000830152616e7e81616e42565b9050919050565b6000819050919050565b6000616e9a82616e85565b9150616ea583616e85565b9250828203905081811260008412168282136000851215161715616ecc57616ecb6162ae565b5b92915050565b6000616edd826154b9565b9150616ee8836154b9565b9250828202616ef6816154b9565b91508282048414831517616f0d57616f0c6162ae565b5b5092915050565b7f5061757361626c653a206e6f7420706175736564000000000000000000000000600082015250565b6000616f4a601483615c7a565b9150616f5582616f14565b602082019050919050565b60006020820190508181036000830152616f7981616f3d565b9050919050565b6000616f8c8284616a3b565b915081905092915050565b7f4f2d000000000000000000000000000000000000000000000000000000000000600082015250565b6000616fcd600283616a30565b9150616fd882616f97565b600282019050919050565b6000616fee82616fc0565b9150819050919050565b7f4f2b000000000000000000000000000000000000000000000000000000000000600082015250565b600061702e600283616a30565b915061703982616ff8565b600282019050919050565b600061704f82617021565b9150819050919050565b7f412b000000000000000000000000000000000000000000000000000000000000600082015250565b600061708f600283616a30565b915061709a82617059565b600282019050919050565b60006170b082617082565b9150819050919050565b7f422b000000000000000000000000000000000000000000000000000000000000600082015250565b60006170f0600283616a30565b91506170fb826170ba565b600282019050919050565b6000617111826170e3565b9150819050919050565b7f41422b0000000000000000000000000000000000000000000000000000000000600082015250565b6000617151600383616a30565b915061715c8261711b565b600382019050919050565b600061717282617144565b9150819050919050565b600061718782616e85565b91507f800000000000000000000000000000000000000000000000000000000000000082036171b9576171b86162ae565b5b81600003905091905056fea26469706673582212200dc873b8985a243869955966202a1581db67577314de88de54c7af132a569a7f64736f6c63430008140033",
  "linkReferences": {},
  "deployedLinkReferences": {}
}