{
  "_format": "hh-sol-artifact-1",
  "contractName": "OrganDonationDAO",
  "sourceName": "contracts/OrganDonationDAO.sol",
  "abi": [
    {
      "inputs": [],
      "stateMutability": "nonpayable",
      "type": "constructor"
    },
    {
      "anonymous": false,
      "inputs": [
        {
          "indexed": true,
          "internalType": "address",
          "name": "member",
          "type": "address"
        },
        {
          "indexed": false,
          "internalType": "string",
          "name": "name",
          "type": "string"
        },
        {
          "indexed": false,
          "internalType": "string",
          "name": "hospitalId",
          "type": "string"
        }
      ],
      "name": "MemberAdded",
      "type": "event"
    },
    {
      "anonymous": false,
      "inputs": [
        {
          "indexed": true,
          "internalType": "address",
          "name": "member",
          "type": "address"
        }
      ],
      "name": "MemberRemoved",
      "type": "event"
    },
    {
      "anonymous": false,
      "inputs": [
        {
          "indexed": true,
          "internalType": "address",
          "name": "previousOwner",
          "type": "address"
        },
        {
          "indexed": true,
          "internalType": "address",
          "name": "newOwner",
          "type": "address"
        }
      ],
      "name": "OwnershipTransferred",
      "type": "event"
    },
    {
      "anonymous": false,
      "inputs": [
        {
          "indexed": true,
          "internalType": "uint256",
          "name": "proposalId",
          "type": "uint256"
        },
        {
          "indexed": false,
          "internalType": "address",
          "name": "proposer",
          "type": "address"
        },
        {
          "indexed": false,
          "internalType": "string",
          "name": "description",
          "type": "string"
        }
      ],
      "name": "ProposalCreated",
      "type": "event"
    },
    {
      "anonymous": false,
      "inputs": [
        {
          "indexed": true,
          "internalType": "uint256",
          "name": "proposalId",
          "type": "uint256"
        }
      ],
      "name": "ProposalExecuted",
      "type": "event"
    },
    {
      "anonymous": false,
      "inputs": [
        {
          "indexed": true,
          "internalType": "address",
          "name": "voter",
          "type": "address"
        },
        {
          "indexed": true,
          "internalType": "uint256",
          "name": "proposalId",
          "type": "uint256"
        },
        {
          "indexed": false,
          "internalType": "bool",
          "name": "support",
          "type": "bool"
        }
      ],
      "name": "VoteCast",
      "type": "event"
    },
    {
      "inputs": [],
      "name": "MIN_VOTING_POWER",
      "outputs": [
        {
          "internalType": "uint256",
          "name": "",
          "type": "uint256"
        }
      ],
      "stateMutability": "view",
      "type": "function"
    },
    {
      "inputs": [],
      "name": "PROPOSAL_THRESHOLD",
      "outputs": [
        {
          "internalType": "uint256",
          "name": "",
          "type": "uint256"
        }
      ],
      "stateMutability": "view",
      "type": "function"
    },
    {
      "inputs": [],
      "name": "VOTING_PERIOD",
      "outputs": [
        {
          "internalType": "uint256",
          "name": "",
          "type": "uint256"
        }
      ],
      "stateMutability": "view",
      "type": "function"
    },
    {
      "inputs": [
        {
          "internalType": "address",
          "name": "_member",
          "type": "address"
        },
        {
          "internalType": "string",
          "name": "_name",
          "type": "string"
        },
        {
          "internalType": "string",
          "name": "_hospitalId",
          "type": "string"
        }
      ],
      "name": "addMember",
      "outputs": [],
      "stateMutability": "nonpayable",
      "type": "function"
    },
    {
      "inputs": [
        {
          "internalType": "uint256",
          "name": "_proposalId",
          "type": "uint256"
        },
        {
          "internalType": "bool",
          "name": "_support",
          "type": "bool"
        }
      ],
      "name": "castVote",
      "outputs": [],
      "stateMutability": "nonpayable",
      "type": "function"
    },
    {
      "inputs": [
        {
          "internalType": "string",
          "name": "_description",
          "type": "string"
        }
      ],
      "name": "createProposal",
      "outputs": [
        {
          "internalType": "uint256",
          "name": "",
          "type": "uint256"
        }
      ],
      "stateMutability": "nonpayable",
      "type": "function"
    },
    {
      "inputs": [
        {
          "internalType": "uint256",
          "name": "_proposalId",
          "type": "uint256"
        }
      ],
      "name": "executeProposal",
      "outputs": [],
      "stateMutability": "nonpayable",
      "type": "function"
    },
    {
      "inputs": [],
      "name": "getActiveMemberCount",
      "outputs": [
        {
          "internalType": "uint256",
          "name": "",
          "type": "uint256"
        }
      ],
      "stateMutability": "view",
      "type": "function"
    },
    {
      "inputs": [
        {
          "internalType": "uint256",
          "name": "_proposalId",
          "type": "uint256"
        }
      ],
      "name": "getProposal",
      "outputs": [
        {
          "internalType": "uint256",
          "name": "id",
          "type": "uint256"
        },
        {
          "internalType": "address",
          "name": "proposer",
          "type": "address"
        },
        {
          "internalType": "string",
          "name": "description",
          "type": "string"
        },
        {
          "internalType": "uint256",
          "name": "startTime",
          "type": "uint256"
        },
        {
          "internalType": "uint256",
          "name": "endTime",
          "type": "uint256"
        },
        {
          "internalType": "uint256",
          "name": "forVotes",
          "type": "uint256"
        },
        {
          "internalType": "uint256",
          "name": "againstVotes",
          "type": "uint256"
        },
        {
          "internalType": "bool",
          "name": "executed",
          "type": "bool"
        }
      ],
      "stateMutability": "view",
      "type": "function"
    },
    {
      "inputs": [
        {
          "internalType": "uint256",
          "name": "",
          "type": "uint256"
        }
      ],
      "name": "memberAddresses",
      "outputs": [
        {
          "internalType": "address",
          "name": "",
          "type": "address"
        }
      ],
      "stateMutability": "view",
      "type": "function"
    },
    {
      "inputs": [
        {
          "internalType": "address",
          "name": "",
          "type": "address"
        }
      ],
      "name": "members",
      "outputs": [
        {
          "internalType": "string",
          "name": "name",
          "type": "string"
        },
        {
          "internalType": "string",
          "name": "hospitalId",
          "type": "string"
        },
        {
          "internalType": "bool",
          "name": "isActive",
          "type": "bool"
        },
        {
          "internalType": "uint256",
          "name": "votingPower",
          "type": "uint256"
        },
        {
          "internalType": "uint256",
          "name": "lastVoteTimestamp",
          "type": "uint256"
        }
      ],
      "stateMutability": "view",
      "type": "function"
    },
    {
      "inputs": [],
      "name": "owner",
      "outputs": [
        {
          "internalType": "address",
          "name": "",
          "type": "address"
        }
      ],
      "stateMutability": "view",
      "type": "function"
    },
    {
      "inputs": [
        {
          "internalType": "uint256",
          "name": "",
          "type": "uint256"
        }
      ],
      "name": "proposals",
      "outputs": [
        {
          "internalType": "uint256",
          "name": "id",
          "type": "uint256"
        },
        {
          "internalType": "address",
          "name": "proposer",
          "type": "address"
        },
        {
          "internalType": "string",
          "name": "description",
          "type": "string"
        },
        {
          "internalType": "uint256",
          "name": "startTime",
          "type": "uint256"
        },
        {
          "internalType": "uint256",
          "name": "endTime",
          "type": "uint256"
        },
        {
          "internalType": "uint256",
          "name": "forVotes",
          "type": "uint256"
        },
        {
          "internalType": "uint256",
          "name": "againstVotes",
          "type": "uint256"
        },
        {
          "internalType": "bool",
          "name": "executed",
          "type": "bool"
        }
      ],
      "stateMutability": "view",
      "type": "function"
    },
    {
      "inputs": [
        {
          "internalType": "address",
          "name": "_member",
          "type": "address"
        }
      ],
      "name": "removeMember",
      "outputs": [],
      "stateMutability": "nonpayable",
      "type": "function"
    },
    {
      "inputs": [],
      "name": "renounceOwnership",
      "outputs": [],
      "stateMutability": "nonpayable",
      "type": "function"
    },
    {
      "inputs": [
        {
          "internalType": "address",
          "name": "newOwner",
          "type": "address"
        }
      ],
      "name": "transferOwnership",
      "outputs": [],
      "stateMutability": "nonpayable",
      "type": "function"
    }
  ],
  "bytecode": "0x60806040523480156200001157600080fd5b506200003262000026620001de60201b60201c565b620001e660201b60201c565b600180819055506040518060a001604052806040518060400160405280600e81526020017f496e697469616c204d656d62657200000000000000000000000000000000000081525081526020016040518060400160405280600c81526020017f484f53504954414c2d30303100000000000000000000000000000000000000008152508152602001600115158152602001600181526020016000815250600460003373ffffffffffffffffffffffffffffffffffffffff1673ffffffffffffffffffffffffffffffffffffffff168152602001908152602001600020600082015181600001908162000125919062000524565b5060208201518160010190816200013d919062000524565b5060408201518160020160006101000a81548160ff02191690831515021790555060608201518160030155608082015181600401559050506005339080600181540180825580915050600190039060005260206000200160009091909190916101000a81548173ffffffffffffffffffffffffffffffffffffffff021916908373ffffffffffffffffffffffffffffffffffffffff1602179055506200060b565b600033905090565b60008060009054906101000a900473ffffffffffffffffffffffffffffffffffffffff169050816000806101000a81548173ffffffffffffffffffffffffffffffffffffffff021916908373ffffffffffffffffffffffffffffffffffffffff1602179055508173ffffffffffffffffffffffffffffffffffffffff168173ffffffffffffffffffffffffffffffffffffffff167f8be0079c531659141344cd1fd0a4f28419497f9722a3daafe3b4186f6b6457e060405160405180910390a35050565b600081519050919050565b7f4e487b7100000000000000000000000000000000000000000000000000000000600052604160045260246000fd5b7f4e487b7100000000000000000000000000000000000000000000000000000000600052602260045260246000fd5b600060028204905060018216806200032c57607f821691505b602082108103620003425762000341620002e4565b5b50919050565b60008190508160005260206000209050919050565b60006020601f8301049050919050565b600082821b905092915050565b600060088302620003ac7fffffffffffffffffffffffffffffffffffffffffffffffffffffffffffffffff826200036d565b620003b886836200036d565b95508019841693508086168417925050509392505050565b6000819050919050565b6000819050919050565b600062000405620003ff620003f984620003d0565b620003da565b620003d0565b9050919050565b6000819050919050565b6200042183620003e4565b6200043962000430826200040c565b8484546200037a565b825550505050565b600090565b6200045062000441565b6200045d81848462000416565b505050565b5b8181101562000485576200047960008262000446565b60018101905062000463565b5050565b601f821115620004d4576200049e8162000348565b620004a9846200035d565b81016020851015620004b9578190505b620004d1620004c8856200035d565b83018262000462565b50505b505050565b600082821c905092915050565b6000620004f960001984600802620004d9565b1980831691505092915050565b6000620005148383620004e6565b9150826002028217905092915050565b6200052f82620002aa565b67ffffffffffffffff8111156200054b576200054a620002b5565b5b62000557825462000313565b6200056482828562000489565b600060209050601f8311600181146200059c576000841562000587578287015190505b62000593858262000506565b86555062000603565b601f198416620005ac8662000348565b60005b82811015620005d657848901518255600182019150602085019450602081019050620005af565b86831015620005f65784890151620005f2601f891682620004e6565b8355505b6001600288020188555050505b505050505050565b61251a806200061b6000396000f3fe608060405234801561001057600080fd5b50600436106101005760003560e01c806376c1954611610097578063b1610d7e11610066578063b1610d7e14610292578063c7f758a8146102b0578063cc4e6299146102e7578063f2fde38b1461031757610100565b806376c195461461021c578063805a8142146102385780638da5cb5b14610256578063a6c266031461027457610100565b806315373e3d116100d357806315373e3d146101a857806322faa41f146101c457806349c2a1a6146101e2578063715018a61461021257610100565b8063013cf08b1461010557806308ae4b0c1461013c5780630b1ca49a146101705780630d61b5191461018c575b600080fd5b61011f600480360381019061011a91906115f6565b610333565b60405161013398979695949392919061171e565b60405180910390f35b610156600480360381019061015191906117cf565b610430565b6040516101679594939291906117fc565b60405180910390f35b61018a600480360381019061018591906117cf565b610583565b005b6101a660048036038101906101a191906115f6565b6106bb565b005b6101c260048036038101906101bd9190611889565b610891565b005b6101cc610d1f565b6040516101d991906118c9565b60405180910390f35b6101fc60048036038101906101f79190611a19565b610df3565b60405161020991906118c9565b60405180910390f35b61021a610ff1565b005b61023660048036038101906102319190611a62565b611005565b005b610240611223565b60405161024d91906118c9565b60405180910390f35b61025e611228565b60405161026b9190611aed565b60405180910390f35b61027c611251565b60405161028991906118c9565b60405180910390f35b61029a611256565b6040516102a791906118c9565b60405180910390f35b6102ca60048036038101906102c591906115f6565b61125d565b6040516102de98979695949392919061171e565b60405180910390f35b61030160048036038101906102fc91906115f6565b61137c565b60405161030e9190611aed565b60405180910390f35b610331600480360381019061032c91906117cf565b6113bb565b005b60036020528060005260406000206000915090508060000154908060010160009054906101000a900473ffffffffffffffffffffffffffffffffffffffff169080600201805461038290611b37565b80601f01602080910402602001604051908101604052809291908181526020018280546103ae90611b37565b80156103fb5780601f106103d0576101008083540402835291602001916103fb565b820191906000526020600020905b8154815290600101906020018083116103de57829003601f168201915b5050505050908060030154908060040154908060050154908060060154908060070160009054906101000a900460ff16905088565b600460205280600052604060002060009150905080600001805461045390611b37565b80601f016020809104026020016040519081016040528092919081815260200182805461047f90611b37565b80156104cc5780601f106104a1576101008083540402835291602001916104cc565b820191906000526020600020905b8154815290600101906020018083116104af57829003601f168201915b5050505050908060010180546104e190611b37565b80601f016020809104026020016040519081016040528092919081815260200182805461050d90611b37565b801561055a5780601f1061052f5761010080835404028352916020019161055a565b820191906000526020600020905b81548152906001019060200180831161053d57829003601f168201915b5050505050908060020160009054906101000a900460ff16908060030154908060040154905085565b61058b61143e565b600460008273ffffffffffffffffffffffffffffffffffffffff1673ffffffffffffffffffffffffffffffffffffffff16815260200190815260200160002060020160009054906101000a900460ff1661061a576040517f08c379a000000000000000000000000000000000000000000000000000000000815260040161061190611bb4565b60405180910390fd5b6000600460008373ffffffffffffffffffffffffffffffffffffffff1673ffffffffffffffffffffffffffffffffffffffff16815260200190815260200160002060020160006101000a81548160ff0219169083151502179055508073ffffffffffffffffffffffffffffffffffffffff167f6e76fb4c77256006d9c38ec7d82b45a8c8f3c27b1d6766fffc42dfb8de68449260405160405180910390a250565b600460003373ffffffffffffffffffffffffffffffffffffffff1673ffffffffffffffffffffffffffffffffffffffff16815260200190815260200160002060020160009054906101000a900460ff1661074a576040517f08c379a000000000000000000000000000000000000000000000000000000000815260040161074190611c20565b60405180910390fd5b6000600360008381526020019081526020016000209050806004015442116107a7576040517f08c379a000000000000000000000000000000000000000000000000000000000815260040161079e90611c8c565b60405180910390fd5b8060070160009054906101000a900460ff16156107f9576040517f08c379a00000000000000000000000000000000000000000000000000000000081526004016107f090611cf8565b60405180910390fd5b8060060154816005015411610843576040517f08c379a000000000000000000000000000000000000000000000000000000000815260040161083a90611d64565b60405180910390fd5b60018160070160006101000a81548160ff021916908315150217905550817f712ae1383f79ac853f8d882153778e0260ef8f03b504e2866e0593e04d2b291f60405160405180910390a25050565b600460003373ffffffffffffffffffffffffffffffffffffffff1673ffffffffffffffffffffffffffffffffffffffff16815260200190815260200160002060020160009054906101000a900460ff16610920576040517f08c379a000000000000000000000000000000000000000000000000000000000815260040161091790611c20565b60405180910390fd5b81600060036000838152602001908152602001600020600301541161097a576040517f08c379a000000000000000000000000000000000000000000000000000000000815260040161097190611dd0565b60405180910390fd5b60036000828152602001908152602001600020600401544211156109d3576040517f08c379a00000000000000000000000000000000000000000000000000000000081526004016109ca90611e3c565b60405180910390fd5b6003600082815260200190815260200160002060070160009054906101000a900460ff1615610a37576040517f08c379a0000000000000000000000000000000000000000000000000000000008152600401610a2e90611cf8565b60405180910390fd5b60006003600085815260200190815260200160002090508060080160003373ffffffffffffffffffffffffffffffffffffffff1673ffffffffffffffffffffffffffffffffffffffff16815260200190815260200160002060009054906101000a900460ff1615610add576040517f08c379a0000000000000000000000000000000000000000000000000000000008152600401610ad490611ea8565b60405180910390fd5b6001600460003373ffffffffffffffffffffffffffffffffffffffff1673ffffffffffffffffffffffffffffffffffffffff168152602001908152602001600020600301541015610b63576040517f08c379a0000000000000000000000000000000000000000000000000000000008152600401610b5a90611f14565b60405180910390fd5b60018160080160003373ffffffffffffffffffffffffffffffffffffffff1673ffffffffffffffffffffffffffffffffffffffff16815260200190815260200160002060006101000a81548160ff0219169083151502179055508215610c2557600460003373ffffffffffffffffffffffffffffffffffffffff1673ffffffffffffffffffffffffffffffffffffffff16815260200190815260200160002060030154816005016000828254610c199190611f63565b92505081905550610c83565b600460003373ffffffffffffffffffffffffffffffffffffffff1673ffffffffffffffffffffffffffffffffffffffff16815260200190815260200160002060030154816006016000828254610c7b9190611f63565b925050819055505b42600460003373ffffffffffffffffffffffffffffffffffffffff1673ffffffffffffffffffffffffffffffffffffffff16815260200190815260200160002060040181905550833373ffffffffffffffffffffffffffffffffffffffff167fd356173ae8eeea8691aee4c1be712c314a975a3d43ebc48b08ca54d0dac9122885604051610d119190611f97565b60405180910390a350505050565b6000806000905060005b600580549050811015610deb576004600060058381548110610d4e57610d4d611fb2565b5b9060005260206000200160009054906101000a900473ffffffffffffffffffffffffffffffffffffffff1673ffffffffffffffffffffffffffffffffffffffff1673ffffffffffffffffffffffffffffffffffffffff16815260200190815260200160002060020160009054906101000a900460ff1615610dd8578180610dd490611fe1565b9250505b8080610de390611fe1565b915050610d29565b508091505090565b6000600460003373ffffffffffffffffffffffffffffffffffffffff1673ffffffffffffffffffffffffffffffffffffffff16815260200190815260200160002060020160009054906101000a900460ff16610e84576040517f08c379a0000000000000000000000000000000000000000000000000000000008152600401610e7b90611c20565b60405180910390fd5b6002610e8e610d1f565b1015610ecf576040517f08c379a0000000000000000000000000000000000000000000000000000000008152600401610ec690612075565b60405180910390fd5b610ed960026114bc565b6000610ee560026114d2565b90506000600360008381526020019081526020016000209050818160000181905550338160010160006101000a81548173ffffffffffffffffffffffffffffffffffffffff021916908373ffffffffffffffffffffffffffffffffffffffff16021790555083816002019081610f5b9190612241565b504281600301819055506203f48042610f749190611f63565b8160040181905550600081600501819055506000816006018190555060008160070160006101000a81548160ff021916908315150217905550817f7585f467599d0f008985f231af99293be388626ac16ca59505c2f8f88969cd633386604051610fdf929190612313565b60405180910390a28192505050919050565b610ff961143e565b61100360006114e0565b565b61100d61143e565b600460008473ffffffffffffffffffffffffffffffffffffffff1673ffffffffffffffffffffffffffffffffffffffff16815260200190815260200160002060020160009054906101000a900460ff161561109d576040517f08c379a00000000000000000000000000000000000000000000000000000000081526004016110949061238f565b60405180910390fd5b6040518060a00160405280838152602001828152602001600115158152602001600181526020016000815250600460008573ffffffffffffffffffffffffffffffffffffffff1673ffffffffffffffffffffffffffffffffffffffff168152602001908152602001600020600082015181600001908161111d9190612241565b5060208201518160010190816111339190612241565b5060408201518160020160006101000a81548160ff02191690831515021790555060608201518160030155608082015181600401559050506005839080600181540180825580915050600190039060005260206000200160009091909190916101000a81548173ffffffffffffffffffffffffffffffffffffffff021916908373ffffffffffffffffffffffffffffffffffffffff1602179055508273ffffffffffffffffffffffffffffffffffffffff167f8c1f1ca5a6426d31d3b3e545fe86200c81f966a54ee5abdf886a0cc7b3d02fa583836040516112169291906123af565b60405180910390a2505050565b600181565b60008060009054906101000a900473ffffffffffffffffffffffffffffffffffffffff16905090565b600281565b6203f48081565b6000806060600080600080600080600360008b8152602001908152602001600020905080600001548160010160009054906101000a900473ffffffffffffffffffffffffffffffffffffffff168260020183600301548460040154856005015486600601548760070160009054906101000a900460ff168580546112e090611b37565b80601f016020809104026020016040519081016040528092919081815260200182805461130c90611b37565b80156113595780601f1061132e57610100808354040283529160200191611359565b820191906000526020600020905b81548152906001019060200180831161133c57829003601f168201915b505050505095509850985098509850985098509850985050919395975091939597565b6005818154811061138c57600080fd5b906000526020600020016000915054906101000a900473ffffffffffffffffffffffffffffffffffffffff1681565b6113c361143e565b600073ffffffffffffffffffffffffffffffffffffffff168173ffffffffffffffffffffffffffffffffffffffff1603611432576040517f08c379a000000000000000000000000000000000000000000000000000000000815260040161142990612458565b60405180910390fd5b61143b816114e0565b50565b6114466115a4565b73ffffffffffffffffffffffffffffffffffffffff16611464611228565b73ffffffffffffffffffffffffffffffffffffffff16146114ba576040517f08c379a00000000000000000000000000000000000000000000000000000000081526004016114b1906124c4565b60405180910390fd5b565b6001816000016000828254019250508190555050565b600081600001549050919050565b60008060009054906101000a900473ffffffffffffffffffffffffffffffffffffffff169050816000806101000a81548173ffffffffffffffffffffffffffffffffffffffff021916908373ffffffffffffffffffffffffffffffffffffffff1602179055508173ffffffffffffffffffffffffffffffffffffffff168173ffffffffffffffffffffffffffffffffffffffff167f8be0079c531659141344cd1fd0a4f28419497f9722a3daafe3b4186f6b6457e060405160405180910390a35050565b600033905090565b6000604051905090565b600080fd5b600080fd5b6000819050919050565b6115d3816115c0565b81146115de57600080fd5b50565b6000813590506115f0816115ca565b92915050565b60006020828403121561160c5761160b6115b6565b5b600061161a848285016115e1565b91505092915050565b61162c816115c0565b82525050565b600073ffffffffffffffffffffffffffffffffffffffff82169050919050565b600061165d82611632565b9050919050565b61166d81611652565b82525050565b600081519050919050565b600082825260208201905092915050565b60005b838110156116ad578082015181840152602081019050611692565b60008484015250505050565b6000601f19601f8301169050919050565b60006116d582611673565b6116df818561167e565b93506116ef81856020860161168f565b6116f8816116b9565b840191505092915050565b60008115159050919050565b61171881611703565b82525050565b600061010082019050611734600083018b611623565b611741602083018a611664565b818103604083015261175381896116ca565b90506117626060830188611623565b61176f6080830187611623565b61177c60a0830186611623565b61178960c0830185611623565b61179660e083018461170f565b9998505050505050505050565b6117ac81611652565b81146117b757600080fd5b50565b6000813590506117c9816117a3565b92915050565b6000602082840312156117e5576117e46115b6565b5b60006117f3848285016117ba565b91505092915050565b600060a082019050818103600083015261181681886116ca565b9050818103602083015261182a81876116ca565b9050611839604083018661170f565b6118466060830185611623565b6118536080830184611623565b9695505050505050565b61186681611703565b811461187157600080fd5b50565b6000813590506118838161185d565b92915050565b600080604083850312156118a05761189f6115b6565b5b60006118ae858286016115e1565b92505060206118bf85828601611874565b9150509250929050565b60006020820190506118de6000830184611623565b92915050565b600080fd5b600080fd5b7f4e487b7100000000000000000000000000000000000000000000000000000000600052604160045260246000fd5b611926826116b9565b810181811067ffffffffffffffff82111715611945576119446118ee565b5b80604052505050565b60006119586115ac565b9050611964828261191d565b919050565b600067ffffffffffffffff821115611984576119836118ee565b5b61198d826116b9565b9050602081019050919050565b82818337600083830152505050565b60006119bc6119b784611969565b61194e565b9050828152602081018484840111156119d8576119d76118e9565b5b6119e384828561199a565b509392505050565b600082601f830112611a00576119ff6118e4565b5b8135611a108482602086016119a9565b91505092915050565b600060208284031215611a2f57611a2e6115b6565b5b600082013567ffffffffffffffff811115611a4d57611a4c6115bb565b5b611a59848285016119eb565b91505092915050565b600080600060608486031215611a7b57611a7a6115b6565b5b6000611a89868287016117ba565b935050602084013567ffffffffffffffff811115611aaa57611aa96115bb565b5b611ab6868287016119eb565b925050604084013567ffffffffffffffff811115611ad757611ad66115bb565b5b611ae3868287016119eb565b9150509250925092565b6000602082019050611b026000830184611664565b92915050565b7f4e487b7100000000000000000000000000000000000000000000000000000000600052602260045260246000fd5b60006002820490506001821680611b4f57607f821691505b602082108103611b6257611b61611b08565b5b50919050565b7f4d656d626572206e6f7420666f756e6400000000000000000000000000000000600082015250565b6000611b9e60108361167e565b9150611ba982611b68565b602082019050919050565b60006020820190508181036000830152611bcd81611b91565b9050919050565b7f4e6f7420616e20616374697665206d656d626572000000000000000000000000600082015250565b6000611c0a60148361167e565b9150611c1582611bd4565b602082019050919050565b60006020820190508181036000830152611c3981611bfd565b9050919050565b7f566f74696e6720706572696f64206e6f7420656e646564000000000000000000600082015250565b6000611c7660178361167e565b9150611c8182611c40565b602082019050919050565b60006020820190508181036000830152611ca581611c69565b9050919050565b7f50726f706f73616c20616c726561647920657865637574656400000000000000600082015250565b6000611ce260198361167e565b9150611ced82611cac565b602082019050919050565b60006020820190508181036000830152611d1181611cd5565b9050919050565b7f50726f706f73616c20646964206e6f7420706173730000000000000000000000600082015250565b6000611d4e60158361167e565b9150611d5982611d18565b602082019050919050565b60006020820190508181036000830152611d7d81611d41565b9050919050565b7f50726f706f73616c20646f6573206e6f74206578697374000000000000000000600082015250565b6000611dba60178361167e565b9150611dc582611d84565b602082019050919050565b60006020820190508181036000830152611de981611dad565b9050919050565b7f566f74696e6720706572696f6420656e64656400000000000000000000000000600082015250565b6000611e2660138361167e565b9150611e3182611df0565b602082019050919050565b60006020820190508181036000830152611e5581611e19565b9050919050565b7f416c726561647920766f74656400000000000000000000000000000000000000600082015250565b6000611e92600d8361167e565b9150611e9d82611e5c565b602082019050919050565b60006020820190508181036000830152611ec181611e85565b9050919050565b7f496e73756666696369656e7420766f74696e6720706f77657200000000000000600082015250565b6000611efe60198361167e565b9150611f0982611ec8565b602082019050919050565b60006020820190508181036000830152611f2d81611ef1565b9050919050565b7f4e487b7100000000000000000000000000000000000000000000000000000000600052601160045260246000fd5b6000611f6e826115c0565b9150611f79836115c0565b9250828201905080821115611f9157611f90611f34565b5b92915050565b6000602082019050611fac600083018461170f565b92915050565b7f4e487b7100000000000000000000000000000000000000000000000000000000600052603260045260246000fd5b6000611fec826115c0565b91507fffffffffffffffffffffffffffffffffffffffffffffffffffffffffffffffff820361201e5761201d611f34565b5b600182019050919050565b7f496e73756666696369656e7420616374697665206d656d626572730000000000600082015250565b600061205f601b8361167e565b915061206a82612029565b602082019050919050565b6000602082019050818103600083015261208e81612052565b9050919050565b60008190508160005260206000209050919050565b60006020601f8301049050919050565b600082821b905092915050565b6000600883026120f77fffffffffffffffffffffffffffffffffffffffffffffffffffffffffffffffff826120ba565b61210186836120ba565b95508019841693508086168417925050509392505050565b6000819050919050565b600061213e612139612134846115c0565b612119565b6115c0565b9050919050565b6000819050919050565b61215883612123565b61216c61216482612145565b8484546120c7565b825550505050565b600090565b612181612174565b61218c81848461214f565b505050565b5b818110156121b0576121a5600082612179565b600181019050612192565b5050565b601f8211156121f5576121c681612095565b6121cf846120aa565b810160208510156121de578190505b6121f26121ea856120aa565b830182612191565b50505b505050565b600082821c905092915050565b6000612218600019846008026121fa565b1980831691505092915050565b60006122318383612207565b9150826002028217905092915050565b61224a82611673565b67ffffffffffffffff811115612263576122626118ee565b5b61226d8254611b37565b6122788282856121b4565b600060209050601f8311600181146122ab5760008415612299578287015190505b6122a38582612225565b86555061230b565b601f1984166122b986612095565b60005b828110156122e1578489015182556001820191506020850194506020810190506122bc565b868310156122fe57848901516122fa601f891682612207565b8355505b6001600288020188555050505b505050505050565b60006040820190506123286000830185611664565b818103602083015261233a81846116ca565b90509392505050565b7f4d656d62657220616c7265616479206578697374730000000000000000000000600082015250565b600061237960158361167e565b915061238482612343565b602082019050919050565b600060208201905081810360008301526123a88161236c565b9050919050565b600060408201905081810360008301526123c981856116ca565b905081810360208301526123dd81846116ca565b90509392505050565b7f4f776e61626c653a206e6577206f776e657220697320746865207a65726f206160008201527f6464726573730000000000000000000000000000000000000000000000000000602082015250565b600061244260268361167e565b915061244d826123e6565b604082019050919050565b6000602082019050818103600083015261247181612435565b9050919050565b7f4f776e61626c653a2063616c6c6572206973206e6f7420746865206f776e6572600082015250565b60006124ae60208361167e565b91506124b982612478565b602082019050919050565b600060208201905081810360008301526124dd816124a1565b905091905056fea26469706673582212204ed5b16abf6163f3d2404a181a51dfe61dc5924ccabdb9fffe74572c70db67e664736f6c63430008140033",
  "linkReferences": {},
  "deployedLinkReferences": {}
}