{
  "contractName": "DonorBadge",
  "abi": [
    {
      "inputs": [],
      "stateMutability": "nonpayable",
      "type": "constructor"
    },
    {
      "anonymous": false,
      "inputs": [
        {
          "indexed": true,
          "internalType": "address",
          "name": "owner",
          "type": "address"
        },
        {
          "indexed": true,
          "internalType": "address",
          "name": "approved",
          "type": "address"
        },
        {
          "indexed": true,
          "internalType": "uint256",
          "name": "tokenId",
          "type": "uint256"
        }
      ],
      "name": "Approval",
      "type": "event"
    },
    {
      "anonymous": false,
      "inputs": [
        {
          "indexed": true,
          "internalType": "address",
          "name": "owner",
          "type": "address"
        },
        {
          "indexed": true,
          "internalType": "address",
          "name": "operator",
          "type": "address"
        },
        {
          "indexed": false,
          "internalType": "bool",
          "name": "approved",
          "type": "bool"
        }
      ],
      "name": "ApprovalForAll",
      "type": "event"
    },
    {
      "anonymous": false,
      "inputs": [
        {
          "indexed": true,
          "internalType": "address",
          "name": "previousOwner",
          "type": "address"
        },
        {
          "indexed": true,
          "internalType": "address",
          "name": "newOwner",
          "type": "address"
        }
      ],
      "name": "OwnershipTransferred",
      "type": "event"
    },
    {
      "anonymous": false,
      "inputs": [
        {
          "indexed": true,
          "internalType": "address",
          "name": "from",
          "type": "address"
        },
        {
          "indexed": true,
          "internalType": "address",
          "name": "to",
          "type": "address"
        },
        {
          "indexed": true,
          "internalType": "uint256",
          "name": "tokenId",
          "type": "uint256"
        }
      ],
      "name": "Transfer",
      "type": "event"
    },
    {
      "inputs": [
        {
          "internalType": "address",
          "name": "owner",
          "type": "address"
        }
      ],
      "name": "balanceOf",
      "outputs": [
        {
          "internalType": "uint256",
          "name": "",
          "type": "uint256"
        }
      ],
      "stateMutability": "view",
      "type": "function",
      "constant": true
    },
    {
      "inputs": [
        {
          "internalType": "uint256",
          "name": "tokenId",
          "type": "uint256"
        }
      ],
      "name": "getApproved",
      "outputs": [
        {
          "internalType": "address",
          "name": "",
          "type": "address"
        }
      ],
      "stateMutability": "view",
      "type": "function",
      "constant": true
    },
    {
      "inputs": [
        {
          "internalType": "address",
          "name": "owner",
          "type": "address"
        },
        {
          "internalType": "address",
          "name": "operator",
          "type": "address"
        }
      ],
      "name": "isApprovedForAll",
      "outputs": [
        {
          "internalType": "bool",
          "name": "",
          "type": "bool"
        }
      ],
      "stateMutability": "view",
      "type": "function",
      "constant": true
    },
    {
      "inputs": [],
      "name": "name",
      "outputs": [
        {
          "internalType": "string",
          "name": "",
          "type": "string"
        }
      ],
      "stateMutability": "view",
      "type": "function",
      "constant": true
    },
    {
      "inputs": [],
      "name": "owner",
      "outputs": [
        {
          "internalType": "address",
          "name": "",
          "type": "address"
        }
      ],
      "stateMutability": "view",
      "type": "function",
      "constant": true
    },
    {
      "inputs": [
        {
          "internalType": "uint256",
          "name": "tokenId",
          "type": "uint256"
        }
      ],
      "name": "ownerOf",
      "outputs": [
        {
          "internalType": "address",
          "name": "",
          "type": "address"
        }
      ],
      "stateMutability": "view",
      "type": "function",
      "constant": true
    },
    {
      "inputs": [],
      "name": "renounceOwnership",
      "outputs": [],
      "stateMutability": "nonpayable",
      "type": "function"
    },
    {
      "inputs": [
        {
          "internalType": "address",
          "name": "from",
          "type": "address"
        },
        {
          "internalType": "address",
          "name": "to",
          "type": "address"
        },
        {
          "internalType": "uint256",
          "name": "tokenId",
          "type": "uint256"
        }
      ],
      "name": "safeTransferFrom",
      "outputs": [],
      "stateMutability": "nonpayable",
      "type": "function"
    },
    {
      "inputs": [
        {
          "internalType": "address",
          "name": "from",
          "type": "address"
        },
        {
          "internalType": "address",
          "name": "to",
          "type": "address"
        },
        {
          "internalType": "uint256",
          "name": "tokenId",
          "type": "uint256"
        },
        {
          "internalType": "bytes",
          "name": "data",
          "type": "bytes"
        }
      ],
      "name": "safeTransferFrom",
      "outputs": [],
      "stateMutability": "nonpayable",
      "type": "function"
    },
    {
      "inputs": [],
      "name": "symbol",
      "outputs": [
        {
          "internalType": "string",
          "name": "",
          "type": "string"
        }
      ],
      "stateMutability": "view",
      "type": "function",
      "constant": true
    },
    {
      "inputs": [
        {
          "internalType": "uint256",
          "name": "index",
          "type": "uint256"
        }
      ],
      "name": "tokenByIndex",
      "outputs": [
        {
          "internalType": "uint256",
          "name": "",
          "type": "uint256"
        }
      ],
      "stateMutability": "view",
      "type": "function",
      "constant": true
    },
    {
      "inputs": [
        {
          "internalType": "address",
          "name": "owner",
          "type": "address"
        },
        {
          "internalType": "uint256",
          "name": "index",
          "type": "uint256"
        }
      ],
      "name": "tokenOfOwnerByIndex",
      "outputs": [
        {
          "internalType": "uint256",
          "name": "",
          "type": "uint256"
        }
      ],
      "stateMutability": "view",
      "type": "function",
      "constant": true
    },
    {
      "inputs": [],
      "name": "totalSupply",
      "outputs": [
        {
          "internalType": "uint256",
          "name": "",
          "type": "uint256"
        }
      ],
      "stateMutability": "view",
      "type": "function",
      "constant": true
    },
    {
      "inputs": [
        {
          "internalType": "address",
          "name": "from",
          "type": "address"
        },
        {
          "internalType": "address",
          "name": "to",
          "type": "address"
        },
        {
          "internalType": "uint256",
          "name": "tokenId",
          "type": "uint256"
        }
      ],
      "name": "transferFrom",
      "outputs": [],
      "stateMutability": "nonpayable",
      "type": "function"
    },
    {
      "inputs": [
        {
          "internalType": "address",
          "name": "newOwner",
          "type": "address"
        }
      ],
      "name": "transferOwnership",
      "outputs": [],
      "stateMutability": "nonpayable",
      "type": "function"
    },
    {
      "inputs": [
        {
          "internalType": "string",
          "name": "baseURI",
          "type": "string"
        }
      ],
      "name": "setBaseURI",
      "outputs": [],
      "stateMutability": "nonpayable",
      "type": "function"
    },
    {
      "inputs": [
        {
          "internalType": "uint256",
          "name": "tokenId",
          "type": "uint256"
        }
      ],
      "name": "tokenURI",
      "outputs": [
        {
          "internalType": "string",
          "name": "",
          "type": "string"
        }
      ],
      "stateMutability": "view",
      "type": "function",
      "constant": true
    },
    {
      "inputs": [
        {
          "internalType": "address",
          "name": "to",
          "type": "address"
        },
        {
          "internalType": "uint256",
          "name": "tokenId",
          "type": "uint256"
        },
        {
          "internalType": "string",
          "name": "_tokenURI",
          "type": "string"
        }
      ],
      "name": "mint",
      "outputs": [],
      "stateMutability": "nonpayable",
      "type": "function"
    },
    {
      "inputs": [
        {
          "internalType": "address",
          "name": "to",
          "type": "address"
        },
        {
          "internalType": "uint256",
          "name": "tokenId",
          "type": "uint256"
        }
      ],
      "name": "approve",
      "outputs": [],
      "stateMutability": "nonpayable",
      "type": "function"
    },
    {
      "inputs": [
        {
          "internalType": "address",
          "name": "operator",
          "type": "address"
        },
        {
          "internalType": "bool",
          "name": "approved",
          "type": "bool"
        }
      ],
      "name": "setApprovalForAll",
      "outputs": [],
      "stateMutability": "nonpayable",
      "type": "function"
    },
    {
      "inputs": [
        {
          "internalType": "bytes4",
          "name": "interfaceId",
          "type": "bytes4"
        }
      ],
      "name": "supportsInterface",
      "outputs": [
        {
          "internalType": "bool",
          "name": "",
          "type": "bool"
        }
      ],
      "stateMutability": "view",
      "type": "function",
      "constant": true
    }
  ],
  "bytecode": "0x60803462000353576001600160401b03906040818101838111838210176200033f578152600a825260209169446f6e6f72426164676560b01b83820152815193828501858110828211176200033f578352600685526544424144474560d01b8486015281518181116200033f575f948554916001948584811c9416801562000334575b8385101462000320578190601f94858111620002cd575b5083908583116001146200026a5789926200025e575b50505f19600383901b1c191690851b1786555b86519283116200024a5783548481811c911680156200023f575b828210146200022b57828111620001e3575b50809183116001146200017d57508495829394959262000171575b50505f19600383901b1c191690821b1790555b600a8054336001600160a01b03198216811790925591519290916001600160a01b0316907f8be0079c531659141344cd1fd0a4f28419497f9722a3daafe3b4186f6b6457e09080a3611a889081620003588239f35b015190505f8062000109565b90601f198316968487528287209287905b898210620001cb575050838596979810620001b2575b505050811b0190556200011c565b01515f1960f88460031b161c191690555f8080620001a4565b8087859682949686015181550195019301906200018e565b8487528187208380860160051c82019284871062000221575b0160051c019085905b82811062000215575050620000ee565b88815501859062000205565b92508192620001fc565b634e487b7160e01b87526022600452602487fd5b90607f1690620000dc565b634e487b7160e01b86526041600452602486fd5b015190505f80620000af565b898052848a208894509190601f1984168b5b87828210620002b657505084116200029d575b505050811b018655620000c2565b01515f1960f88460031b161c191690555f80806200028f565b8385015186558b979095019493840193016200027c565b9091508880528389208580850160051c82019286861062000316575b918991869594930160051c01915b8281106200030757505062000099565b8b8155859450899101620002f7565b92508192620002e9565b634e487b7160e01b88526022600452602488fd5b93607f169362000082565b634e487b7160e01b5f52604160045260245ffd5b5f80fdfe60806040818152600480361015610014575f80fd5b5f92833560e01c90816301ffc9a714610cd45750806306fdde0314610c4d578063081812fc14610c2d578063095ea7b314610ac057806318160ddd14610aa157806323b872dd14610a7c5780632f745c59146109d057806342842e0e1461099c5780634f6ccce71461090957806355f804b3146107bc5780636352211e1461078b57806370a082311461075e578063715018a6146107145780638da5cb5b146106eb57806395d89b4114610629578063a22cb4651461058d578063b88d4fde146104ff578063c87b56dd146104c4578063d3fc98641461020e578063e985e9c5146101bc5763f2fde38b14610107575f80fd5b346101b85760203660031901126101b857610120610da0565b90610129610ec6565b6001600160a01b03918216928315610166575050600a80546001600160a01b031981168417909155165f80516020611a138339815191528380a380f35b906020608492519162461bcd60e51b8352820152602660248201527f4f776e61626c653a206e6577206f776e657220697320746865207a65726f206160448201526564647265737360d01b6064820152fd5b8280fd5b50503461020a578060031936011261020a5760ff816020936101dc610da0565b6101e4610dba565b6001600160a01b0391821683526005875283832091168252855220549151911615158152f35b5080fd5b5090346101b85760603660031901126101b857610229610da0565b602435916001600160401b0391906044358381116104c05761024e9036908701610ea8565b90610257610ec6565b80519461026386610e05565b8786526001600160a01b03841693841561047d5761028961028383611426565b1561197f565b60085496828a526020956009875288858c2055600160401b89101561046a578380918160019b8c81016008556102be906115e3565b6102c8929161160f565b8c876102d387610f1e565b9183815260068c528181208382528c52848282205584815260078c5220556102fa82611426565b156103049061197f565b808d5260038952868d2080548c019055818d5260028952868d2080546001600160a01b031916821790558c5f80516020611a338339815191528180a461034992611442565b61035290611114565b8752600c83528620948151938411610457575061036f8554610ffc565b601f8111610411575b5081601f84116001146103b1575092829391839287946103a6575b50501b915f199060031b1c191617905580f35b015192505f80610393565b919083601f1981168789528489209489905b888383106103f757505050106103df575b505050811b01905580f35b01515f1960f88460031b161c191690555f80806103d4565b8587015188559096019594850194879350908101906103c3565b858752828720601f850160051c81019184861061044d575b601f0160051c019085905b828110610442575050610378565b888155018590610434565b9091508190610429565b634e487b7160e01b875260419052602486fd5b634e487b7160e01b8b5260418a5260248bfd5b825162461bcd60e51b81526020818a0181905260248201527f4552433732313a206d696e7420746f20746865207a65726f20616464726573736044820152606490fd5b8680fd5b5091346104fc5760203660031901126104fc57506104e56104f89235611626565b9051918291602083526020830190610d7b565b0390f35b80fd5b83823461020a57608036600319011261020a5761051a610da0565b90610523610dba565b6064359290604435906001600160401b03851161058957366023860112156105895761055e6105819486602461058698369301359101610e72565b9261057161056c8433611138565b61105f565b61057c8383836111fc565b61155e565b611114565b80f35b8580fd5b50503461020a578060031936011261020a576105a7610da0565b60243590811515809203610625576001600160a01b0316916105cb338414156119ca565b6105d7833314156119ca565b338452600560205280842083855260205280842060ff1981541660ff8416179055519081527f17307eab39ab6107e8899845ad3d59bd9653f200f220920489ca2b5937696c3160203392a380f35b8380fd5b50503461020a578160031936011261020a5780519082600180549061064d82610ffc565b808652918181169081156106c35750600114610688575b505050610676826104f8940383610e34565b51918291602083526020830190610d7b565b80955082526020948583205b8284106106b057505050826104f8946106769282010194610664565b8054868501880152928601928101610694565b6104f897506106769450602092508693915060ff191682840152151560051b82010194610664565b50503461020a578160031936011261020a57600a5490516001600160a01b039091168152602090f35b83346104fc57806003193601126104fc5761072d610ec6565b600a80546001600160a01b0319811690915581906001600160a01b03165f80516020611a138339815191528280a380f35b50503461020a57602036600319011261020a5760209061078461077f610da0565b610f1e565b9051908152f35b5091346104fc5760203660031901126104fc57506107ab60209235610fda565b90516001600160a01b039091168152f35b5082346104fc5760208060031936011261020a576001600160401b03908335828111610625576107ef9036908601610ea8565b936107f8610ec6565b84519283116108f6575061080d600b54610ffc565b601f81116108b2575b5080601f831160011461085057508293829392610845575b50508160011b915f199060031b1c191617600b5580f35b01519050838061082e565b90601f19831694600b85528285209285905b87821061089a575050836001959610610882575b505050811b01600b5580f35b01515f1960f88460031b161c19169055838080610876565b80600185968294968601518155019501930190610862565b600b8452818420601f840160051c8101918385106108ec575b601f0160051c01905b8181106108e15750610816565b8481556001016108d4565b90915081906108cb565b634e487b7160e01b845260419052602483fd5b5082346104fc5760203660031901126104fc575080359060085482101561094457602083610936846115e3565b91905490519160031b1c8152f35b608490602084519162461bcd60e51b8352820152602c60248201527f455243373231456e756d657261626c653a20676c6f62616c20696e646578206f60448201526b7574206f6620626f756e647360a01b6064820152fd5b50503461020a57610581610586916109b336610dd0565b919251926109c084610e05565b86845261057161056c8433611138565b5091346104fc57816003193601126104fc576109ea610da0565b602435906109f781610f1e565b821015610a25576001600160a01b031682526006602090815283832091835290815290829020548251908152f35b835162461bcd60e51b8152602081870152602b60248201527f455243373231456e756d657261626c653a206f776e657220696e646578206f7560448201526a74206f6620626f756e647360a81b6064820152608490fd5b83346104fc57610586610a8e36610dd0565b91610a9c61056c8433611138565b6111fc565b50503461020a578160031936011261020a576020906008549051908152f35b50346101b857816003193601126101b857610ad9610da0565b6024359290916001600160a01b0391908280610af487610fda565b16941693808514610be057803314908115610bc1575b5015610b5957848652602052842080546001600160a01b03191683179055610b3183610fda565b167f8c5be1e5ebec7d5bd14f71427d1e84f3dd0314c0f7b2291e5b200ac8c7c3b9258480a480f35b6020608492519162461bcd60e51b8352820152603d60248201527f4552433732313a20617070726f76652063616c6c6572206973206e6f7420746f60448201527f6b656e206f776e6572206f7220617070726f76656420666f7220616c6c0000006064820152fd5b90508652600560205281862033875260205260ff82872054165f610b0a565b506020608492519162461bcd60e51b8352820152602160248201527f4552433732313a20617070726f76616c20746f2063757272656e74206f776e656044820152603960f91b6064820152fd5b5091346104fc5760203660031901126104fc57506107ab60209235611034565b50503461020a578160031936011261020a57805190828054610c6e81610ffc565b808552906001908181169081156106c35750600114610c9957505050610676826104f8940383610e34565b94508180526020948583205b828410610cc157505050826104f8946106769282010194610664565b8054868501880152928601928101610ca5565b925050346101b85760203660031901126101b8573563ffffffff60e01b81168091036101b8576020925063780e9d6360e01b8114908115610d17575b5015158152f35b6380ac58cd60e01b811491508115610d49575b8115610d38575b505f610d10565b6301ffc9a760e01b1490505f610d31565b635b5e139f60e01b81149150610d2a565b5f5b838110610d6b5750505f910152565b8181015183820152602001610d5c565b90602091610d9481518092818552858086019101610d5a565b601f01601f1916010190565b600435906001600160a01b0382168203610db657565b5f80fd5b602435906001600160a01b0382168203610db657565b6060906003190112610db6576001600160a01b03906004358281168103610db657916024359081168103610db6579060443590565b602081019081106001600160401b03821117610e2057604052565b634e487b7160e01b5f52604160045260245ffd5b601f909101601f19168101906001600160401b03821190821017610e2057604052565b6001600160401b038111610e2057601f01601f191660200190565b929192610e7e82610e57565b91610e8c6040519384610e34565b829481845281830111610db6578281602093845f960137010152565b9080601f83011215610db657816020610ec393359101610e72565b90565b600a546001600160a01b03163303610eda57565b606460405162461bcd60e51b815260206004820152602060248201527f4f776e61626c653a2063616c6c6572206973206e6f7420746865206f776e65726044820152fd5b6001600160a01b03168015610f3c575f52600360205260405f205490565b60405162461bcd60e51b815260206004820152602960248201527f4552433732313a2061646472657373207a65726f206973206e6f7420612076616044820152683634b21037bbb732b960b91b6064820152608490fd5b15610f9a57565b60405162461bcd60e51b8152602060048201526018602482015277115490cdcc8c4e881a5b9d985b1a59081d1bdad95b88125160421b6044820152606490fd5b5f908152600260205260409020546001600160a01b0316610ec3811515610f93565b90600182811c9216801561102a575b602083101461101657565b634e487b7160e01b5f52602260045260245ffd5b91607f169161100b565b61104561104082611426565b610f93565b5f908152600460205260409020546001600160a01b031690565b1561106657565b60405162461bcd60e51b815260206004820152602d60248201527f4552433732313a2063616c6c6572206973206e6f7420746f6b656e206f776e6560448201526c1c881bdc88185c1c1c9bdd9959609a1b6064820152608490fd5b60809060208152603260208201527f4552433732313a207472616e7366657220746f206e6f6e20455243373231526560408201527131b2b4bb32b91034b6b83632b6b2b73a32b960711b60608201520190565b1561111b57565b60405162461bcd60e51b815280611134600482016110c1565b0390fd5b906001600160a01b03808061114c84610fda565b1693169183831493841561117f575b508315611169575b50505090565b61117591929350611034565b16145f8080611163565b9093505f52600560205260405f20825f5260205260ff60405f205416925f61115b565b156111a957565b60405162461bcd60e51b815260206004820152602560248201527f4552433732313a207472616e736665722066726f6d20696e636f72726563742060448201526437bbb732b960d91b6064820152608490fd5b6112209161120984610fda565b6001600160a01b03938484169391851684146111a2565b8382169384156113d55783918261132057506008545f8781526009602052604090208190559150600160401b821015610e205761128b926112728761126c8560018997016008556115e3565b9061160f565b8286036112ee575b5061128486610fda565b16146111a2565b5f80516020611a338339815191525f84815260046020526040812060018060a01b0319908181541690558382526003602052604082205f1981540190558482526040822060018154019055858252600260205284604083209182541617905580a4565b6112f790610f1e565b60405f87815260066020528181208382526020528882822055888152600760205220555f61127a565b858303611332575b5061128b92611272565b61133d919250610f1e565b5f198101919082116113c15761128b9284925f90888252602090600782526040918284205482810361138a575b508a84528383812055868452600681528284209184525281205592611328565b878552600682528385208386528252838520548886526006835284862082875283528085872055855260078252838520555f61136a565b634e487b7160e01b5f52601160045260245ffd5b60405162461bcd60e51b8152602060048201526024808201527f4552433732313a207472616e7366657220746f20746865207a65726f206164646044820152637265737360e01b6064820152608490fd5b5f908152600260205260409020546001600160a01b0316151590565b91929091803b156115555761148e936040519081630a85bd0160e11b938482523360048301525f9687602484015260448301526080606483015281878160209a8b966084830190610d7b565b03926001600160a01b03165af1849181611511575b50611500575050503d5f146114f8573d6114bc81610e57565b906114ca6040519283610e34565b81528091833d92013e5b805191826114f55760405162461bcd60e51b815280611134600482016110c1565b01fd5b5060606114d4565b6001600160e01b0319161492509050565b9091508581813d831161154e575b6115298183610e34565b8101031261154a57516001600160e01b03198116810361154a57905f6114a3565b8480fd5b503d61151f565b50915050600190565b92939190803b156115d9576115b0946040518092630a85bd0160e11b9485835233600484015260018060a01b03809816602484015260448301526080606483015281806020998a956084830190610d7b565b03915f988991165af18491816115115750611500575050503d5f146114f8573d6114bc81610e57565b5050915050600190565b6008548110156115fb5760085f5260205f2001905f90565b634e487b7160e01b5f52603260045260245ffd5b919082549060031b91821b915f19901b1916179055565b61162f81611426565b15611922575f90808252602090600c825260409283812091845182938181549561165887610ffc565b928383526001978989821691825f146119025750506001146118c4575b5061168292500382610e34565b8551938391600b54928661169585610ffc565b91828252898201958a86821691825f146118a957505060011461186b575b6116bf92500387610e34565b80516118605750839290819072184f03e93ff9f4daa797ed6e38ed64bf6a1f0160401b8281811015611853575b508890506904ee2d6d415b85acef8160201b80851015611845575b5050662386f26fc1000080841015611836575b506305f5e10080841015611827575b5061271080841015611818575b506064831015611808575b600a809310156117ff575b9081602186611775838d990161176d61176482610e57565b9a519a8b610e34565b808a52610e57565b888c019990601f1901368b3750870101905b6117ca575b50505050906117be610ec3959493926117af975197889551809288880190610d5a565b84019151809386840190610d5a565b01038084520182610e34565b5f19019083906f181899199a1a9b1b9c1cb0b131b232b360811b8282061a8353049182156117fa57919082611787565b61178c565b8094019361174c565b9391606460029104920193611741565b6004919593049201935f611736565b6008919593049201935f611729565b6010919593049201935f61171a565b95019490920491875f611707565b8a96500492505f806116ec565b965050505050505090565b5050600b865286888088208589915b8583106118905750506116bf93508201016116b3565b80919294505483858d0101520191018990858a9361187a565b60ff191688526116bf94151560051b84010191506116b39050565b915050845281868086208787915b8583106118e957505061168293508201015f611675565b80919294505483858801015201910187908785936118d2565b60ff19168582015261168295151560051b85010192505f91506116759050565b60405162461bcd60e51b815260206004820152602f60248201527f4552433732314d657461646174613a2055524920717565727920666f72206e6f60448201526e3732bc34b9ba32b73a103a37b5b2b760891b6064820152608490fd5b1561198657565b60405162461bcd60e51b815260206004820152601c60248201527b115490cdcc8c4e881d1bdad95b88185b1c9958591e481b5a5b9d195960221b6044820152606490fd5b156119d157565b60405162461bcd60e51b815260206004820152601960248201527822a9219b99189d1030b8383937bb32903a379031b0b63632b960391b6044820152606490fdfe8be0079c531659141344cd1fd0a4f28419497f9722a3daafe3b4186f6b6457e0ddf252ad1be2c89b69c2b068fc378daa952ba7f163c4a11628f55a4df523b3efa2646970667358221220e3858e0f9de9bc4e834cc0b3f69ae57cdfb8fa228a0d7518ba4c5c5116930b1b64736f6c63430008140033",
  "immutableReferences": {},
  "source": "// SPDX-License-Identifier: MIT\r\npragma solidity ^0.8.20;\r\n\r\nimport \"@openzeppelin/contracts/token/ERC721/ERC721.sol\";\r\nimport \"@openzeppelin/contracts/token/ERC721/extensions/ERC721Enumerable.sol\";\r\nimport \"@openzeppelin/contracts/access/Ownable.sol\";\r\n\r\ncontract DonorBadge is ERC721Enumerable, Ownable {\r\n    using Strings for uint256;\r\n\r\n    string private _baseTokenURI;\r\n    mapping(uint256 => string) private _tokenURIs;\r\n\r\n    constructor() \r\n        ERC721(\"DonorBadge\", \"DBADGE\")\r\n        Ownable()\r\n    {}\r\n\r\n    function _baseURI() internal view override returns (string memory) {\r\n        return _baseTokenURI;\r\n    }\r\n\r\n    function setBaseURI(string memory baseURI) public onlyOwner {\r\n        _baseTokenURI = baseURI;\r\n    }\r\n\r\n    function tokenURI(uint256 tokenId) public view override returns (string memory) {\r\n        require(_exists(tokenId), \"ERC721Metadata: URI query for nonexistent token\");\r\n        \r\n        string memory _tokenURI = _tokenURIs[tokenId];\r\n        string memory base = _baseURI();\r\n        \r\n        if (bytes(_tokenURI).length > 0) {\r\n            return _tokenURI;\r\n        }\r\n        \r\n        return string(abi.encodePacked(base, tokenId.toString()));\r\n    }\r\n\r\n    function mint(address to, uint256 tokenId, string memory _tokenURI) public onlyOwner {\r\n        _safeMint(to, tokenId);\r\n        _tokenURIs[tokenId] = _tokenURI;\r\n    }\r\n\r\n    function approve(address to, uint256 tokenId) public virtual override(ERC721, IERC721) {\r\n        address owner = ownerOf(tokenId);\r\n        require(to != owner, \"ERC721: approval to current owner\");\r\n        require(\r\n            msg.sender == owner || isApprovedForAll(owner, msg.sender),\r\n            \"ERC721: approve caller is not token owner or approved for all\"\r\n        );\r\n        _approve(to, tokenId);\r\n    }\r\n\r\n    function setApprovalForAll(address operator, bool approved) public virtual override(ERC721, IERC721) {\r\n        require(operator != msg.sender, \"ERC721: approve to caller\");\r\n        _setApprovalForAll(msg.sender, operator, approved);\r\n    }\r\n\r\n    function _beforeTokenTransfer(\r\n        address from,\r\n        address to,\r\n        uint256 firstTokenId,\r\n        uint256 batchSize\r\n    ) internal virtual override(ERC721Enumerable) {\r\n        super._beforeTokenTransfer(from, to, firstTokenId, batchSize);\r\n    }\r\n\r\n    function supportsInterface(bytes4 interfaceId)\r\n        public\r\n        view\r\n        override(ERC721Enumerable)\r\n        returns (bool)\r\n    {\r\n        return super.supportsInterface(interfaceId);\r\n    }\r\n}\r\n",
  "sourcePath": "C:\\Users\\Admin\\Desktop\\organ-donation-dapp\\contracts\\DonorBadge.sol",
  "compiler": {
    "name": "solc",
    "version": "0.8.20+commit.a1b79de6.Emscripten.clang"
  },
  "schemaVersion": "3.4.16",
  "updatedAt": "2025-05-11T10:03:54.561Z",
  "networkType": "ethereum",
  "devdoc": {
    "events": {
      "Approval(address,address,uint256)": {
        "details": "Emitted when `owner` enables `approved` to manage the `tokenId` token."
      },
      "ApprovalForAll(address,address,bool)": {
        "details": "Emitted when `owner` enables or disables (`approved`) `operator` to manage all of its assets."
      },
      "Transfer(address,address,uint256)": {
        "details": "Emitted when `tokenId` token is transferred from `from` to `to`."
      }
    },
    "kind": "dev",
    "methods": {
      "balanceOf(address)": {
        "details": "See {IERC721-balanceOf}."
      },
      "getApproved(uint256)": {
        "details": "See {IERC721-getApproved}."
      },
      "isApprovedForAll(address,address)": {
        "details": "See {IERC721-isApprovedForAll}."
      },
      "name()": {
        "details": "See {IERC721Metadata-name}."
      },
      "owner()": {
        "details": "Returns the address of the current owner."
      },
      "ownerOf(uint256)": {
        "details": "See {IERC721-ownerOf}."
      },
      "renounceOwnership()": {
        "details": "Leaves the contract without owner. It will not be possible to call `onlyOwner` functions. Can only be called by the current owner. NOTE: Renouncing ownership will leave the contract without an owner, thereby disabling any functionality that is only available to the owner."
      },
      "safeTransferFrom(address,address,uint256)": {
        "details": "See {IERC721-safeTransferFrom}."
      },
      "safeTransferFrom(address,address,uint256,bytes)": {
        "details": "See {IERC721-safeTransferFrom}."
      },
      "supportsInterface(bytes4)": {
        "details": "See {IERC165-supportsInterface}."
      },
      "symbol()": {
        "details": "See {IERC721Metadata-symbol}."
      },
      "tokenByIndex(uint256)": {
        "details": "See {IERC721Enumerable-tokenByIndex}."
      },
      "tokenOfOwnerByIndex(address,uint256)": {
        "details": "See {IERC721Enumerable-tokenOfOwnerByIndex}."
      },
      "tokenURI(uint256)": {
        "details": "See {IERC721Metadata-tokenURI}."
      },
      "totalSupply()": {
        "details": "See {IERC721Enumerable-totalSupply}."
      },
      "transferFrom(address,address,uint256)": {
        "details": "See {IERC721-transferFrom}."
      },
      "transferOwnership(address)": {
        "details": "Transfers ownership of the contract to a new account (`newOwner`). Can only be called by the current owner."
      }
    },
    "version": 1
  },
  "userdoc": {
    "kind": "user",
    "methods": {},
    "version": 1
  }
}