{
  "contractName": "DonorContract",
  "abi": [
    {
      "inputs": [],
      "stateMutability": "nonpayable",
      "type": "constructor"
    },
    {
      "anonymous": false,
      "inputs": [
        {
          "indexed": true,
          "internalType": "address",
          "name": "donorAddress",
          "type": "address"
        },
        {
          "indexed": false,
          "internalType": "string",
          "name": "medicalID",
          "type": "string"
        }
      ],
      "name": "DonorRegistered",
      "type": "event"
    },
    {
      "anonymous": false,
      "inputs": [
        {
          "indexed": true,
          "internalType": "address",
          "name": "donorAddress",
          "type": "address"
        }
      ],
      "name": "DonorRejected",
      "type": "event"
    },
    {
      "anonymous": false,
      "inputs": [
        {
          "indexed": true,
          "internalType": "address",
          "name": "donorAddress",
          "type": "address"
        }
      ],
      "name": "DonorVerified",
      "type": "event"
    },
    {
      "anonymous": false,
      "inputs": [
        {
          "indexed": true,
          "internalType": "address",
          "name": "donorAddress",
          "type": "address"
        },
        {
          "indexed": true,
          "internalType": "address",
          "name": "patientAddress",
          "type": "address"
        },
        {
          "indexed": false,
          "internalType": "string",
          "name": "organ",
          "type": "string"
        }
      ],
      "name": "MatchFound",
      "type": "event"
    },
    {
      "anonymous": false,
      "inputs": [
        {
          "indexed": true,
          "internalType": "address",
          "name": "patientAddress",
          "type": "address"
        },
        {
          "indexed": false,
          "internalType": "string",
          "name": "medicalID",
          "type": "string"
        }
      ],
      "name": "PatientRegistered",
      "type": "event"
    },
    {
      "anonymous": false,
      "inputs": [
        {
          "indexed": true,
          "internalType": "address",
          "name": "patientAddress",
          "type": "address"
        }
      ],
      "name": "PatientRejected",
      "type": "event"
    },
    {
      "anonymous": false,
      "inputs": [
        {
          "indexed": true,
          "internalType": "address",
          "name": "patientAddress",
          "type": "address"
        }
      ],
      "name": "PatientVerified",
      "type": "event"
    },
    {
      "anonymous": false,
      "inputs": [
        {
          "indexed": true,
          "internalType": "bytes32",
          "name": "role",
          "type": "bytes32"
        },
        {
          "indexed": true,
          "internalType": "bytes32",
          "name": "previousAdminRole",
          "type": "bytes32"
        },
        {
          "indexed": true,
          "internalType": "bytes32",
          "name": "newAdminRole",
          "type": "bytes32"
        }
      ],
      "name": "RoleAdminChanged",
      "type": "event"
    },
    {
      "anonymous": false,
      "inputs": [
        {
          "indexed": true,
          "internalType": "bytes32",
          "name": "role",
          "type": "bytes32"
        },
        {
          "indexed": true,
          "internalType": "address",
          "name": "account",
          "type": "address"
        },
        {
          "indexed": true,
          "internalType": "address",
          "name": "sender",
          "type": "address"
        }
      ],
      "name": "RoleGranted",
      "type": "event"
    },
    {
      "anonymous": false,
      "inputs": [
        {
          "indexed": true,
          "internalType": "bytes32",
          "name": "role",
          "type": "bytes32"
        },
        {
          "indexed": true,
          "internalType": "address",
          "name": "account",
          "type": "address"
        },
        {
          "indexed": true,
          "internalType": "address",
          "name": "sender",
          "type": "address"
        }
      ],
      "name": "RoleRevoked",
      "type": "event"
    },
    {
      "inputs": [],
      "name": "ADMIN_ROLE",
      "outputs": [
        {
          "internalType": "bytes32",
          "name": "",
          "type": "bytes32"
        }
      ],
      "stateMutability": "view",
      "type": "function",
      "constant": true
    },
    {
      "inputs": [],
      "name": "DEFAULT_ADMIN_ROLE",
      "outputs": [
        {
          "internalType": "bytes32",
          "name": "",
          "type": "bytes32"
        }
      ],
      "stateMutability": "view",
      "type": "function",
      "constant": true
    },
    {
      "inputs": [],
      "name": "MEDICAL_PRO_ROLE",
      "outputs": [
        {
          "internalType": "bytes32",
          "name": "",
          "type": "bytes32"
        }
      ],
      "stateMutability": "view",
      "type": "function",
      "constant": true
    },
    {
      "inputs": [
        {
          "internalType": "bytes32",
          "name": "role",
          "type": "bytes32"
        }
      ],
      "name": "getRoleAdmin",
      "outputs": [
        {
          "internalType": "bytes32",
          "name": "",
          "type": "bytes32"
        }
      ],
      "stateMutability": "view",
      "type": "function",
      "constant": true
    },
    {
      "inputs": [
        {
          "internalType": "bytes32",
          "name": "role",
          "type": "bytes32"
        },
        {
          "internalType": "address",
          "name": "account",
          "type": "address"
        }
      ],
      "name": "grantRole",
      "outputs": [],
      "stateMutability": "nonpayable",
      "type": "function"
    },
    {
      "inputs": [
        {
          "internalType": "bytes32",
          "name": "role",
          "type": "bytes32"
        },
        {
          "internalType": "address",
          "name": "account",
          "type": "address"
        }
      ],
      "name": "hasRole",
      "outputs": [
        {
          "internalType": "bool",
          "name": "",
          "type": "bool"
        }
      ],
      "stateMutability": "view",
      "type": "function",
      "constant": true
    },
    {
      "inputs": [
        {
          "internalType": "string",
          "name": "",
          "type": "string"
        }
      ],
      "name": "organViabilityTimes",
      "outputs": [
        {
          "internalType": "uint256",
          "name": "",
          "type": "uint256"
        }
      ],
      "stateMutability": "view",
      "type": "function",
      "constant": true
    },
    {
      "inputs": [
        {
          "internalType": "bytes32",
          "name": "role",
          "type": "bytes32"
        },
        {
          "internalType": "address",
          "name": "account",
          "type": "address"
        }
      ],
      "name": "renounceRole",
      "outputs": [],
      "stateMutability": "nonpayable",
      "type": "function"
    },
    {
      "inputs": [
        {
          "internalType": "bytes32",
          "name": "role",
          "type": "bytes32"
        },
        {
          "internalType": "address",
          "name": "account",
          "type": "address"
        }
      ],
      "name": "revokeRole",
      "outputs": [],
      "stateMutability": "nonpayable",
      "type": "function"
    },
    {
      "inputs": [
        {
          "internalType": "bytes4",
          "name": "interfaceId",
          "type": "bytes4"
        }
      ],
      "name": "supportsInterface",
      "outputs": [
        {
          "internalType": "bool",
          "name": "",
          "type": "bool"
        }
      ],
      "stateMutability": "view",
      "type": "function",
      "constant": true
    },
    {
      "inputs": [
        {
          "internalType": "address",
          "name": "proAddress",
          "type": "address"
        },
        {
          "internalType": "string",
          "name": "name",
          "type": "string"
        }
      ],
      "name": "addMedicalProfessional",
      "outputs": [],
      "stateMutability": "nonpayable",
      "type": "function"
    },
    {
      "inputs": [
        {
          "internalType": "address",
          "name": "proAddress",
          "type": "address"
        }
      ],
      "name": "removeMedicalProfessional",
      "outputs": [],
      "stateMutability": "nonpayable",
      "type": "function"
    },
    {
      "inputs": [
        {
          "internalType": "string",
          "name": "medicalID",
          "type": "string"
        },
        {
          "internalType": "string",
          "name": "organ",
          "type": "string"
        },
        {
          "internalType": "string",
          "name": "city",
          "type": "string"
        },
        {
          "internalType": "string",
          "name": "region",
          "type": "string"
        },
        {
          "internalType": "string",
          "name": "country",
          "type": "string"
        }
      ],
      "name": "addDonor",
      "outputs": [],
      "stateMutability": "nonpayable",
      "type": "function"
    },
    {
      "inputs": [
        {
          "internalType": "string",
          "name": "medicalID",
          "type": "string"
        },
        {
          "internalType": "string",
          "name": "organNeeded",
          "type": "string"
        },
        {
          "internalType": "string",
          "name": "city",
          "type": "string"
        },
        {
          "internalType": "string",
          "name": "region",
          "type": "string"
        },
        {
          "internalType": "string",
          "name": "country",
          "type": "string"
        },
        {
          "internalType": "enum DonorContract.UrgencyLevel",
          "name": "urgency",
          "type": "uint8"
        }
      ],
      "name": "addPatient",
      "outputs": [],
      "stateMutability": "nonpayable",
      "type": "function"
    },
    {
      "inputs": [
        {
          "internalType": "address",
          "name": "donorAddr",
          "type": "address"
        }
      ],
      "name": "verifyDonor",
      "outputs": [],
      "stateMutability": "nonpayable",
      "type": "function"
    },
    {
      "inputs": [
        {
          "internalType": "address",
          "name": "patientAddr",
          "type": "address"
        }
      ],
      "name": "verifyPatient",
      "outputs": [],
      "stateMutability": "nonpayable",
      "type": "function"
    },
    {
      "inputs": [
        {
          "internalType": "address",
          "name": "donorAddr",
          "type": "address"
        }
      ],
      "name": "rejectDonor",
      "outputs": [],
      "stateMutability": "nonpayable",
      "type": "function"
    },
    {
      "inputs": [
        {
          "internalType": "address",
          "name": "patientAddr",
          "type": "address"
        }
      ],
      "name": "rejectPatient",
      "outputs": [],
      "stateMutability": "nonpayable",
      "type": "function"
    },
    {
      "inputs": [
        {
          "internalType": "string[]",
          "name": "organs",
          "type": "string[]"
        },
        {
          "internalType": "uint256[]",
          "name": "times",
          "type": "uint256[]"
        }
      ],
      "name": "initializeOrganViabilityTimes",
      "outputs": [],
      "stateMutability": "nonpayable",
      "type": "function"
    },
    {
      "inputs": [
        {
          "internalType": "address",
          "name": "donorAddr",
          "type": "address"
        }
      ],
      "name": "getDonorByAddress",
      "outputs": [
        {
          "components": [
            {
              "internalType": "address",
              "name": "donorAddress",
              "type": "address"
            },
            {
              "internalType": "string",
              "name": "medicalID",
              "type": "string"
            },
            {
              "internalType": "string",
              "name": "organ",
              "type": "string"
            },
            {
              "components": [
                {
                  "internalType": "string",
                  "name": "city",
                  "type": "string"
                },
                {
                  "internalType": "string",
                  "name": "region",
                  "type": "string"
                },
                {
                  "internalType": "string",
                  "name": "country",
                  "type": "string"
                }
              ],
              "internalType": "struct DonorContract.Location",
              "name": "location",
              "type": "tuple"
            },
            {
              "internalType": "enum DonorContract.VerificationStatus",
              "name": "status",
              "type": "uint8"
            },
            {
              "internalType": "uint256",
              "name": "registrationTime",
              "type": "uint256"
            },
            {
              "internalType": "enum DonorContract.BadgeType",
              "name": "badge",
              "type": "uint8"
            }
          ],
          "internalType": "struct DonorContract.Donor",
          "name": "",
          "type": "tuple"
        }
      ],
      "stateMutability": "view",
      "type": "function",
      "constant": true
    },
    {
      "inputs": [
        {
          "internalType": "address",
          "name": "patientAddr",
          "type": "address"
        }
      ],
      "name": "getPatientByAddress",
      "outputs": [
        {
          "components": [
            {
              "internalType": "address",
              "name": "patientAddress",
              "type": "address"
            },
            {
              "internalType": "string",
              "name": "medicalID",
              "type": "string"
            },
            {
              "internalType": "string",
              "name": "organNeeded",
              "type": "string"
            },
            {
              "components": [
                {
                  "internalType": "string",
                  "name": "city",
                  "type": "string"
                },
                {
                  "internalType": "string",
                  "name": "region",
                  "type": "string"
                },
                {
                  "internalType": "string",
                  "name": "country",
                  "type": "string"
                }
              ],
              "internalType": "struct DonorContract.Location",
              "name": "location",
              "type": "tuple"
            },
            {
              "internalType": "enum DonorContract.UrgencyLevel",
              "name": "urgency",
              "type": "uint8"
            },
            {
              "internalType": "enum DonorContract.VerificationStatus",
              "name": "status",
              "type": "uint8"
            },
            {
              "internalType": "uint256",
              "name": "registrationTime",
              "type": "uint256"
            }
          ],
          "internalType": "struct DonorContract.Patient",
          "name": "",
          "type": "tuple"
        }
      ],
      "stateMutability": "view",
      "type": "function",
      "constant": true
    },
    {
      "inputs": [],
      "name": "matchDonorsAndPatients",
      "outputs": [],
      "stateMutability": "nonpayable",
      "type": "function"
    }
  ],
  "bytecode": "0x6080604081815234620000e8575f808052602091818352808220338352835260ff818320541615620000b1575b7fa49807205ce4d355092ef5a8a18f56e8913cf4a201fbe287825b095693c2177592838352828152818320338452815260ff82842054161562000077575b61347b8581620000ed8239f35b83835282815281832090338452528120600160ff1982541617905533915f8051602062003568833981519152339280a45f8080806200006a565b8180528183528082203383528352808220600160ff198254161790553333835f80516020620035688339815191528180a46200002c565b5f80fdfe6080806040526004361015610012575f80fd5b5f3560e01c90816301ffc9a714612b8e575080631414f2fd14611dfa578063248a9ca314611dce57806326a9c75414611bf25780632c9365fa14611aad5780632cc5329a146119955780632f2ff15d1461190357806336568abe146118715780634959a52f14611827578063506af7e2146116f057806375b238fc146116c95780638cd19dd81461166d57806391d14854146116255780639ebfe0181461154f578063a217fddf14611535578063a74f0920146113f8578063ba5c0335146112bb578063c756d5a714611176578063cc1e343d14610f50578063d547741f14610f12578063e58f0227146101395763ef33a8971461010e575f80fd5b34610135575f3660031901126101355760206040515f805160206133e68339815191528152f35b5f80fd5b346101355760c0366003190112610135576004356001600160401b03811161013557610169903690600401612c3a565b6024356001600160401b03811161013557610188903690600401612c3a565b6044356001600160401b038111610135576101a7903690600401612c3a565b6064356001600160401b038111610135576101c6903690600401612c3a565b906084356001600160401b038111610135576101e6903690600401612c3a565b9060a43591600483101561013557335f908152600360205260409020546001600160a01b0316610ed057610256936040519261022184612be1565b8352602083015260408201526040519361023a85612bfc565b3385528560208601526040850152606084015260808301613161565b5f60a082018190524260c0830152338152600360209081526040909120825181546001600160a01b0319166001600160a01b03919091161781559082015180519093906001600160401b03811161080c576102b46001840154613111565b601f8111610e8c575b506020601f8211600114610e215781929394955f92610e16575b50508160011b915f199060031b1c19161760018301555b604083015180519093906001600160401b03811161080c576103136002850154613111565b601f8111610dd2575b506020601f8211600114610d675781929394955f92610d5c575b50508160011b915f199060031b1c19161760028401555b606081015180518051906001600160401b03821161080c5781906103746003880154613111565b601f8111610d0c575b50602090601f8311600114610c9e575f92610c93575b50508160011b915f199060031b1c19161760038501555b60208101518051906001600160401b03821161080c576103cd6004870154613111565b601f8111610c4f575b50602090601f8311600114610be05760409392915f9183610bd5575b50508160011b915f199060031b1c19161760048601555b015180519093906001600160401b03811161080c5761042b6005830154613111565b601f8111610b91575b506020601f8211600114610b265781929394955f92610b1b575b50508160011b915f199060031b1c19161760058201555b6080820151600481101561073e5760ff8019600684015416911617600682015561049f60a083015161049681612d5a565b6006830161316d565b600760c083015191015560405160208184516104be8183858901612cd2565b600490820190815203019020815181546001600160a01b0319166001600160a01b0391909116178155602082015180519093919291906001600160401b03811161080c5761050f6001850154613111565b601f8111610ad7575b506020601f8211600114610a6c5781929394955f92610a61575b50508160011b915f199060031b1c19161760018401555b604082015180519093906001600160401b03811161080c5761056e6002830154613111565b601f8111610a1d575b506020601f82116001146109b25781929394955f926109a7575b50508160011b915f199060031b1c19161760028201555b606083015180518051906001600160401b03821161080c5781906105cf6003860154613111565b601f8111610957575b50602090601f83116001146108e9575f926108de575b50508160011b915f199060031b1c19161760038301555b60208101518051906001600160401b03821161080c576106286004850154613111565b601f811161089a575b50602090601f831160011461082b5760409392915f9183610820575b50508160011b915f199060031b1c19161760048401555b015180519093906001600160401b03811161080c576106866005840154613111565b601f81116107c8575b506020601f821160011461075d5781929394955f92610752575b50508160011b915f199060031b1c19161760058301555b60068201608082015191600483101561073e576106fc60c09260079460ff8019835416911617815560a0830151906106f782612d5a565b61316d565b01519101557fc85b128388b9c331a2a5485dce4cd0f3db9f7c279d327ce95d6d39d6c94644c7604051602081528061073933946020830190612cf3565b0390a2005b634e487b7160e01b5f52602160045260245ffd5b0151905085806106a9565b600584015f5260205f20905f5b601f19841681106107b0575060019394959683601f19811610610798575b505050811b0160058301556106c0565b01515f1960f88460031b161c19169055858080610788565b9091602060018192858b01518155019301910161076a565b600584015f5260205f20601f830160051c810160208410610805575b601f830160051c820181106107fa57505061068f565b5f81556001016107e4565b50806107e4565b634e487b7160e01b5f52604160045260245ffd5b01519050878061064d565b90600485015f5260205f20915f5b601f1985168110610882575091839160019360409695601f1981161061086a575b505050811b016004840155610664565b01515f1960f88460031b161c1916905587808061085a565b91926020600181928685015181550194019201610839565b600485015f5260205f20601f840160051c8101602085106108d7575b601f830160051c820181106108cc575050610631565b5f81556001016108b6565b50806108b6565b0151905086806105ee565b9250600385015f5260205f20905f935b601f198416851061093c576001945083601f19811610610924575b505050811b016003830155610605565b01515f1960f88460031b161c19169055868080610914565b818101518355602094850194600190930192909101906108f9565b909150600385015f5260205f20601f840160051c8101602085106109a0575b90849392915b601f830160051c820181106109925750506105d8565b5f815585945060010161097c565b5080610976565b015190508580610591565b600283015f5260205f20905f5b601f1984168110610a05575060019394959683601f198116106109ed575b505050811b0160028201556105a8565b01515f1960f88460031b161c191690558580806109dd565b9091602060018192858b0151815501930191016109bf565b600283015f5260205f20601f830160051c810160208410610a5a575b601f830160051c82018110610a4f575050610577565b5f8155600101610a39565b5080610a39565b015190508580610532565b600185015f5260205f20905f5b601f1984168110610abf575060019394959683601f19811610610aa7575b505050811b016001840155610549565b01515f1960f88460031b161c19169055858080610a97565b9091602060018192858b015181550193019101610a79565b600185015f5260205f20601f830160051c810160208410610b14575b601f830160051c82018110610b09575050610518565b5f8155600101610af3565b5080610af3565b01519050858061044e565b600583015f5260205f20905f5b601f1984168110610b79575060019394959683601f19811610610b61575b505050811b016005820155610465565b01515f1960f88460031b161c19169055858080610b51565b9091602060018192858b015181550193019101610b33565b600583015f5260205f20601f830160051c810160208410610bce575b601f830160051c82018110610bc3575050610434565b5f8155600101610bad565b5080610bad565b0151905087806103f2565b90600487015f5260205f20915f5b601f1985168110610c37575091839160019360409695601f19811610610c1f575b505050811b016004860155610409565b01515f1960f88460031b161c19169055878080610c0f565b91926020600181928685015181550194019201610bee565b600487015f5260205f20601f840160051c810160208510610c8c575b601f830160051c82018110610c815750506103d6565b5f8155600101610c6b565b5080610c6b565b015190508680610393565b9250600387015f5260205f20905f935b601f1984168510610cf1576001945083601f19811610610cd9575b505050811b0160038501556103aa565b01515f1960f88460031b161c19169055868080610cc9565b81810151835560209485019460019093019290910190610cae565b909150600387015f5260205f20601f840160051c810160208510610d55575b90849392915b601f830160051c82018110610d4757505061037d565b5f8155859450600101610d31565b5080610d2b565b015190508580610336565b600285015f5260205f20905f5b601f1984168110610dba575060019394959683601f19811610610da2575b505050811b01600284015561034d565b01515f1960f88460031b161c19169055858080610d92565b9091602060018192858b015181550193019101610d74565b600285015f5260205f20601f830160051c810160208410610e0f575b601f830160051c82018110610e0457505061031c565b5f8155600101610dee565b5080610dee565b0151905085806102d7565b600184015f5260205f20905f5b601f1984168110610e74575060019394959683601f19811610610e5c575b505050811b0160018301556102ee565b01515f1960f88460031b161c19169055858080610e4c565b9091602060018192858b015181550193019101610e2e565b600184015f5260205f20601f830160051c810160208410610ec9575b601f830160051c82018110610ebe5750506102bd565b5f8155600101610ea8565b5080610ea8565b60405162461bcd60e51b815260206004820152601a60248201527914185d1a595b9d08185b1c9958591e481c9959da5cdd195c995960321b6044820152606490fd5b3461013557604036600319011261013557610f4e600435610f31612cbc565b90805f525f602052610f49600160405f200154612d64565b613049565b005b3461013557604036600319011261013557610f69612ca6565b6001600160401b0360243581811161013557610f89903690600401612c3a565b905f805160206134268339815191525f526020925f845260405f20335f528452610fb960ff60405f2054166130ce565b604051610fc581612be1565b60018060a01b03809216938482528582019081526040820193600193848652865f526005885260405f2093511660018060a01b03198454161783558383019151805191821161080c576110188354613111565b601f8111611130575b508790601f83116001146110cc576002949392915f91836110c1575b50505f19600383901b1c191690851b1790555b01915115159160ff199260ff8483541691161790555f805160206133e683398151915293845f525f815260405f20845f52815260ff60405f2054161561109257005b845f525f815260405f2090845f525260405f209182541617905533915f805160206133a68339815191525f80a4005b01519050898061103d565b9392918591601f19821690845f528a5f20915f5b8c82821061111a575050968360029810611102575b505050811b019055611050565b01515f1960f88460031b161c191690558980806110f5565b838a015185558a969094019392830192016110e0565b835f52885f20601f840160051c8101918a851061116c575b601f0160051c019086905b828110611161575050611021565b5f8155018690611153565b9091508190611148565b346101355760208060031936011261013557611190612ca6565b905f805160206133e68339815191525f525f815260405f20335f5281526111bd60ff60405f20541661318c565b6001600160a01b039182165f81815260038352604090205490926111e391161515613222565b815f526003815260405f209060068201916101009161ff0019938385825416179055600180920191604051925f9181549161121d83613111565b928281169081156112a1575060011461126f575b5050600482525082900301902060060180549092161790557f4bd79aa5b1d12530ab28ff9e594e33215eb3f438567371e28b534f56291912aa5f80a2005b5f908152848120929350915b83831061129057505050820182600688611231565b80548684015291840191810161127b565b60ff19168752505050801515028301905082600688611231565b34610135576020366003190112610135576112d4612ca6565b6112dc613276565b5060018060a01b038091165f52600360205260405f20604051916112ff83612bfc565b808254168352611311600183016132c7565b90602084019182526113cc611328600285016132c7565b6040860190815261133b60038601613368565b90606087019182526113bb6113a5600688015496600760ff60808c01996113648282168c613161565b60081c169960a08c019a61137781612d5a565b8b5201549660c08b019788526040519a60208c52511660208b01525160e060408b01526101008a0190612cf3565b915191601f1992838a83030160608b0152612cf3565b915190878303016080880152612d18565b915192600484101561073e57849360a0850152516113e981612d5a565b60c08401525160e08301520390f35b346101355760208060031936011261013557611412612ca6565b905f805160206133e68339815191525f525f815260405f20335f52815261143f60ff60405f20541661318c565b60018060a01b0380921691825f5261146360019182845260405f20541615156131e4565b825f5280825260405f209181600684019360ff19946002868254161790550191604051925f9181549161149583613111565b928783821691825f1461151e5750506001146114ec575b50505091600691818460028096520301902001918254161790557f6eec7c65c0ec059fb7a62c934d9e457bd69ddb64f1289863203546252f538ec65f80a2005b5f908152848120929350915b83831061150d575050508201818360026114ac565b8054868401529184019181016114f8565b1687525050508015150283019050818360026114ac565b34610135575f3660031901126101355760206040515f8152f35b346101355760208060031936011261013557611569612ca6565b5f805160206134268339815191525f525f825260405f20335f52825261159560ff60405f2054166130ce565b60018060a01b0316805f5260058252600260405f200160ff19908181541690555f805160206133e683398151915292835f525f81526115da600160405f200154612d64565b835f525f815260405f20835f52815260ff60405f2054166115f757005b835f525f815260405f2090835f525260405f2090815416905533915f805160206134068339815191525f80a4005b346101355760403660031901126101355761163e612cbc565b6004355f525f60205260405f209060018060a01b03165f52602052602060ff60405f2054166040519015158152f35b34610135576020366003190112610135576004356001600160401b038111610135576116b660206116a381933690600401612c3a565b8160405193828580945193849201612cd2565b8101600681520301902054604051908152f35b34610135575f3660031901126101355760206040515f805160206134268339815191528152f35b34610135576020806003193601126101355761170a612ca6565b905f805160206133e68339815191525f525f815260405f20335f52815261173760ff60405f20541661318c565b60018060a01b0380921691825f5261175b60019182845260405f20541615156131e4565b825f5280825260405f209181600684019360ff199482868254161790550190604051915f9080549061178c82613111565b918787821691825f146118125750506001146117e0575b50506002815282900301902060060180549092161790557f7fcf85ab81e2edb7164631e63960326e5607c9c7fa788d1572ea3984fb943ff05f80a2005b9091505f52815f20845f915b8383106118005750505082018260066117a3565b805486840152918401918691016117ec565b168652505080151502830190508260066117a3565b34610135575f36600319011261013557335f9081527f66122dbf116992647e8ec9b2edde5029adb8aa93882c4df698d3b02b488fb73c6020526040902054610f4e9060ff1661318c565b346101355760403660031901126101355761188a612cbc565b336001600160a01b038216036118a657610f4e90600435613049565b60405162461bcd60e51b815260206004820152602f60248201527f416363657373436f6e74726f6c3a2063616e206f6e6c792072656e6f756e636560448201526e103937b632b9903337b91039b2b63360891b6064820152608490fd5b346101355760403660031901126101355760043561191f612cbc565b815f525f602052611936600160405f200154612d64565b815f525f60205260405f209060018060a01b031690815f5260205260ff60405f2054161561196057005b815f525f60205260405f20815f5260205260405f20600160ff1982541617905533915f805160206133a68339815191525f80a4005b34610135576020366003190112610135576119ae612ca6565b6119b6613276565b5060018060a01b038091165f52600160205260405f20604051906119d982612bfc565b8281541682526119eb600182016132c7565b602083019081526119fe600283016132c7565b9160408401928352611a84611a1560038301613368565b6060860190815260ff600684015416946080870195611a3381612d5a565b86526113bb6113a560ff600860078801549760a08c019889520154169660c08a0197611a5e81612d5a565b88526040519a8b9a60208c52511660208b01525160e060408b01526101008a0190612cf3565b9251611a8f81612d5a565b60a08501525160c084015251611aa481612d5a565b60e08301520390f35b346101355760208060031936011261013557611ac7612ca6565b905f805160206133e68339815191525f525f815260405f20335f528152611af460ff60405f20541661318c565b6001600160a01b039182165f8181526003835260409020549092611b1a91161515613222565b815f526003815260405f209060068201916102009161ff0019938385825416179055600180920191604051925f91815491611b5483613111565b92828116908115611bd85750600114611ba6575b5050600482525082900301902060060180549092161790557f167bbda895efdc29117ad9a9bf9887d286681297abf886ea5a21738dc77619635f80a2005b5f908152848120929350915b838310611bc757505050820182600688611b68565b805486840152918401918101611bb2565b60ff19168752505050801515028301905082600688611b68565b34610135576040366003190112610135576001600160401b03600435818111610135573660238201121561013557806004013591611c2f83612c8f565b90611c3d6040519283612c17565b8382526020928383016024809660051b8301019136831161013557868101915b838310611da857505050508335908111610135573660238201121561013557806004013590611c8b82612c8f565b91611c996040519384612c17565b808352858584019160051b830101913683116101355786869101915b838310611d9857505050505f805160206134268339815191525f525f835260405f20335f528352611cec60ff60405f2054166130ce565b8151815103611d5b575f5b8251811015610f4e57611d0a8183613262565b51611d2d85611d198487613262565b518160405193828580945193849201612cd2565b81016006815203019020555f198114611d4857600101611cf7565b84634e487b7160e01b5f5260116004525ffd5b60405162461bcd60e51b81526004810184905260168186015275082e4e4c2f2e640d8cadccee8d040dad2e6dac2e8c6d60531b6044820152606490fd5b8235815291810191869101611cb5565b8235858111610135578791611dc383928b3691870101612c3a565b815201920191611c5d565b34610135576020366003190112610135576004355f525f6020526020600160405f200154604051908152f35b346101355760a0366003190112610135576004356001600160401b03811161013557611e2a903690600401612c3a565b6024356001600160401b03811161013557611e49903690600401612c3a565b906044356001600160401b03811161013557611e69903690600401612c3a565b6064356001600160401b03811161013557611e88903690600401612c3a565b6084356001600160401b03811161013557611ea7903690600401612c3a565b90335f52600160205260018060a01b0360405f205416612b4e5760405192611ece84612be1565b83526020830152604082015260405192611ee784612bfc565b338452826020850152604084015260608301525f60808301524260a08301525f60c0830152335f52600160205260405f2060018060a01b0383511660018060a01b0319825416178155602083015192835160018060401b03811161080c57611f526001840154613111565b601f8111612b0a575b506020601f8211600114612a9f5781929394955f92612a94575b50508160011b915f199060031b1c19161760018301555b604081015180519093906001600160401b03811161080c57611fb16002850154613111565b601f8111612a50575b506020601f82116001146129e55781929394955f926129da575b50508160011b915f199060031b1c19161760028401555b606082015180518051906001600160401b03821161080c5781906120126003880154613111565b601f811161298a575b50602090601f831160011461291c575f92612911575b50508160011b915f199060031b1c19161760038501555b60208101518051906001600160401b03821161080c5761206b6004870154613111565b601f81116128cd575b50602090601f831160011461285e5760409392915f9183612853575b50508160011b915f199060031b1c19161760048601555b015180519093906001600160401b03811161080c576120c96005830154613111565b601f811161280f575b506020601f82116001146127a45781929394955f92612799575b50508160011b915f199060031b1c19161760058201555b61211d608084015161211481612d5a565b60068301613149565b60a08301516007820155600860c084015161213781612d5a565b61214081612d5a565b60ff8019838501541691161791015560405160208183516121648183858801612cd2565b600290820190815203019020825181546001600160a01b0319166001600160a01b0391909116178155602083015180519093919291906001600160401b03811161080c576121b56001850154613111565b601f8111612755575b506020601f82116001146126ea5781929394955f926126df575b50508160011b915f199060031b1c19161760018401555b604081015180519093906001600160401b03811161080c576122146002830154613111565b601f811161269b575b506020601f82116001146126305781929394955f92612625575b50508160011b915f199060031b1c19161760028201555b606082015180518051906001600160401b03821161080c5781906122756003860154613111565b601f81116125d5575b50602090601f8311600114612567575f9261255c575b50508160011b915f199060031b1c19161760038301555b60208101518051906001600160401b03821161080c576122ce6004850154613111565b601f8111612518575b50602090601f83116001146124a95760409392915f918361249e575b50508160011b915f199060031b1c19161760048401555b01518051906001600160401b03821161080c5761232a6005840154613111565b601f811161245a575b50602090601f83116001146123e957918060c094926008945f926123de575b50508160011b915f199060031b1c19161760058201555b61237a608085015161211481612d5a565b60a084015160078201550191015161239181612d5a565b61239a81612d5a565b60ff801983541691161790557ff6bba8a2d47514955cc8e64ea9127b51d5615832d1fbd20ec40275f0876cfcbf604051602081528061073933946020830190612cf3565b015190508780612352565b90600584015f5260205f20915f5b601f198516811061244257509260c0949260019260089583601f1981161061242a575b505050811b016005820155612369565b01515f1960f88460031b161c1916905587808061241a565b919260206001819286850151815501940192016123f7565b600584015f5260205f20601f840160051c810160208510612497575b601f830160051c8201811061248c575050612333565b5f8155600101612476565b5080612476565b0151905087806122f3565b90600485015f5260205f20915f5b601f1985168110612500575091839160019360409695601f198116106124e8575b505050811b01600484015561230a565b01515f1960f88460031b161c191690558780806124d8565b919260206001819286850151815501940192016124b7565b600485015f5260205f20601f840160051c810160208510612555575b601f830160051c8201811061254a5750506122d7565b5f8155600101612534565b5080612534565b015190508680612294565b9250600385015f5260205f20905f935b601f19841685106125ba576001945083601f198116106125a2575b505050811b0160038301556122ab565b01515f1960f88460031b161c19169055868080612592565b81810151835560209485019460019093019290910190612577565b909150600385015f5260205f20601f840160051c81016020851061261e575b90849392915b601f830160051c8201811061261057505061227e565b5f81558594506001016125fa565b50806125f4565b015190508580612237565b600283015f5260205f20905f5b601f1984168110612683575060019394959683601f1981161061266b575b505050811b01600282015561224e565b01515f1960f88460031b161c1916905585808061265b565b9091602060018192858b01518155019301910161263d565b600283015f5260205f20601f830160051c8101602084106126d8575b601f830160051c820181106126cd57505061221d565b5f81556001016126b7565b50806126b7565b0151905085806121d8565b600185015f5260205f20905f5b601f198416811061273d575060019394959683601f19811610612725575b505050811b0160018401556121ef565b01515f1960f88460031b161c19169055858080612715565b9091602060018192858b0151815501930191016126f7565b600185015f5260205f20601f830160051c810160208410612792575b601f830160051c820181106127875750506121be565b5f8155600101612771565b5080612771565b0151905085806120ec565b600583015f5260205f20905f5b601f19841681106127f7575060019394959683601f198116106127df575b505050811b016005820155612103565b01515f1960f88460031b161c191690558580806127cf565b9091602060018192858b0151815501930191016127b1565b600583015f5260205f20601f830160051c81016020841061284c575b601f830160051c820181106128415750506120d2565b5f815560010161282b565b508061282b565b015190508780612090565b90600487015f5260205f20915f5b601f19851681106128b5575091839160019360409695601f1981161061289d575b505050811b0160048601556120a7565b01515f1960f88460031b161c1916905587808061288d565b9192602060018192868501518155019401920161286c565b600487015f5260205f20601f840160051c81016020851061290a575b601f830160051c820181106128ff575050612074565b5f81556001016128e9565b50806128e9565b015190508680612031565b9250600387015f5260205f20905f935b601f198416851061296f576001945083601f19811610612957575b505050811b016003850155612048565b01515f1960f88460031b161c19169055868080612947565b8181015183556020948501946001909301929091019061292c565b909150600387015f5260205f20601f840160051c8101602085106129d3575b90849392915b601f830160051c820181106129c557505061201b565b5f81558594506001016129af565b50806129a9565b015190508580611fd4565b600285015f5260205f20905f5b601f1984168110612a38575060019394959683601f19811610612a20575b505050811b016002840155611feb565b01515f1960f88460031b161c19169055858080612a10565b9091602060018192858b0151815501930191016129f2565b600285015f5260205f20601f830160051c810160208410612a8d575b601f830160051c82018110612a82575050611fba565b5f8155600101612a6c565b5080612a6c565b015190508580611f75565b600184015f5260205f20905f5b601f1984168110612af2575060019394959683601f19811610612ada575b505050811b016001830155611f8c565b01515f1960f88460031b161c19169055858080612aca565b9091602060018192858b015181550193019101612aac565b600184015f5260205f20601f830160051c810160208410612b47575b601f830160051c82018110612b3c575050611f5b565b5f8155600101612b26565b5080612b26565b60405162461bcd60e51b8152602060048201526018602482015277111bdb9bdc88185b1c9958591e481c9959da5cdd195c995960421b6044820152606490fd5b34610135576020366003190112610135576004359063ffffffff60e01b821680920361013557602091637965db0b60e01b8114908115612bd0575b5015158152f35b6301ffc9a760e01b14905083612bc9565b606081019081106001600160401b0382111761080c57604052565b60e081019081106001600160401b0382111761080c57604052565b601f909101601f19168101906001600160401b0382119082101761080c57604052565b81601f82011215610135578035906001600160401b03821161080c5760405192612c6e601f8401601f191660200185612c17565b8284526020838301011161013557815f926020809301838601378301015290565b6001600160401b03811161080c5760051b60200190565b600435906001600160a01b038216820361013557565b602435906001600160a01b038216820361013557565b5f5b838110612ce35750505f910152565b8181015183820152602001612cd4565b90602091612d0c81518092818552858086019101612cd2565b601f01601f1916010190565b612d57916040612d46612d348451606085526060850190612cf3565b60208501518482036020860152612cf3565b920151906040818403910152612cf3565b90565b6003111561073e57565b5f90808252602090828252604092838120338252835260ff848220541615612d8c5750505050565b33845192612d9984612be1565b602a845284840190863683378451156130355760308253845192600193841015613021576078602187015360295b848111612fb85750612f8957865192608084016001600160401b03811185821017612f7557885260428452868401946060368737845115612f6157603086538451821015612f615790607860218601536041915b818311612ef457505050612ec557612ec1938693612ea593612e96604894612e6d9a519a8b9576020b1b1b2b9b9a1b7b73a3937b61d1030b1b1b7bab73a1604d1b8c8801525180926037880190612cd2565b8401917001034b99036b4b9b9b4b733903937b6329607d1b603784015251809386840190612cd2565b01036028810187520185612c17565b5192839262461bcd60e51b845260048401526024830190612cf3565b0390fd5b60648587519062461bcd60e51b825280600483015260248201525f805160206133c68339815191526044820152fd5b909192600f81166010811015612f4d576f181899199a1a9b1b9c1cb0b131b232b360811b901a612f2485886130a9565b5360041c928015612f39575f19019190612e1b565b634e487b7160e01b82526011600452602482fd5b634e487b7160e01b83526032600452602483fd5b634e487b7160e01b81526032600452602490fd5b634e487b7160e01b86526041600452602486fd5b60648688519062461bcd60e51b825280600483015260248201525f805160206133c68339815191526044820152fd5b90600f8116601081101561300d576f181899199a1a9b1b9c1cb0b131b232b360811b901a612fe683896130a9565b5360041c908015612ff9575f1901612dc7565b634e487b7160e01b86526011600452602486fd5b634e487b7160e01b87526032600452602487fd5b634e487b7160e01b85526032600452602485fd5b634e487b7160e01b84526032600452602484fd5b905f9180835282602052604083209160018060a01b03169182845260205260ff60408420541661307857505050565b80835282602052604083208284526020526040832060ff1981541690555f80516020613406833981519152339380a4565b9081518110156130ba570160200190565b634e487b7160e01b5f52603260045260245ffd5b156130d557565b60405162461bcd60e51b81526020600482015260146024820152735265737472696374656420746f2061646d696e7360601b6044820152606490fd5b90600182811c9216801561313f575b602083101461312b57565b634e487b7160e01b5f52602260045260245ffd5b91607f1691613120565b9061315381612d5a565b60ff80198354169116179055565b600482101561073e5752565b9061317781612d5a565b61ff0082549160081b169061ff001916179055565b1561319357565b60405162461bcd60e51b815260206004820152602360248201527f5265737472696374656420746f206d65646963616c2070726f66657373696f6e604482015262616c7360e81b6064820152608490fd5b156131eb57565b60405162461bcd60e51b815260206004820152600f60248201526e111bdb9bdc881b9bdd08199bdd5b99608a1b6044820152606490fd5b1561322957565b60405162461bcd60e51b815260206004820152601160248201527014185d1a595b9d081b9bdd08199bdd5b99607a1b6044820152606490fd5b80518210156130ba5760209160051b010190565b6040519061328382612bfc565b5f60c0838281526060806020830152806040830152604051906132a582612be1565b8082528060208301528060408301528201528260808201528260a08201520152565b9060405191825f8254926132da84613111565b9081845260019485811690815f146133455750600114613305575b505061330392500383612c17565b565b909391505f52602090815f20935f915b81831061332d57505061330393508201015f806132f5565b85548884018501529485019487945091830191613315565b91505061330394506020925060ff191682840152151560051b8201015f806132f5565b9060405161337581612be1565b60406133a060028395613387816132c7565b8552613395600182016132c7565b6020860152016132c7565b91015256fe2f8788117e7eff1d82e926ec794901d17c78024a50270940304540a733656f0d537472696e67733a20686578206c656e67746820696e73756666696369656e743d996811b6c57808d2ab4085610e72112b731add711039f190aa101456aa1cc0f6391f5c32d9c69d2a47ea670b442974b53935d1edc7fd64eb21e047a839171ba49807205ce4d355092ef5a8a18f56e8913cf4a201fbe287825b095693c21775a2646970667358221220e673ad76fbb5264890b989850ad038f7ace1fcca598de44333bbf3b55864cfde64736f6c634300081400332f8788117e7eff1d82e926ec794901d17c78024a50270940304540a733656f0d",
  "immutableReferences": {},
  "source": "// SPDX-License-Identifier: MIT\r\npragma solidity ^0.8.0;\r\n\r\nimport \"@openzeppelin/contracts/access/AccessControl.sol\";\r\n\r\ncontract DonorContract is AccessControl {\r\n    bytes32 public constant ADMIN_ROLE = keccak256(\"ADMIN_ROLE\");\r\n    bytes32 public constant MEDICAL_PRO_ROLE = keccak256(\"MEDICAL_PRO_ROLE\");\r\n\r\n    enum VerificationStatus { Pending, Verified, Rejected }\r\n    enum UrgencyLevel { Low, Medium, High, Critical }\r\n    enum BadgeType { None, FirstTimeDonor, FamilyDonor }\r\n\r\n    struct Location {\r\n        string city;\r\n        string region;\r\n        string country;\r\n    }\r\n\r\n    struct Donor {\r\n        address donorAddress;\r\n        string medicalID;\r\n        string organ;\r\n        Location location;\r\n        VerificationStatus status;\r\n        uint256 registrationTime;\r\n        BadgeType badge;\r\n    }\r\n\r\n    struct Patient {\r\n        address patientAddress;\r\n        string medicalID;\r\n        string organNeeded;\r\n        Location location;\r\n        UrgencyLevel urgency;\r\n        VerificationStatus status;\r\n        uint256 registrationTime;\r\n    }\r\n\r\n    struct MedicalProfessional {\r\n        address proAddress;\r\n        string name;\r\n        bool active;\r\n    }\r\n\r\n    mapping(address => Donor) private donorsByAddress;\r\n    mapping(string => Donor) private donorsByMedicalID;\r\n\r\n    mapping(address => Patient) private patientsByAddress;\r\n    mapping(string => Patient) private patientsByMedicalID;\r\n\r\n    mapping(address => MedicalProfessional) private medicalPros;\r\n\r\n    // Organ viability times in seconds\r\n    mapping(string => uint256) public organViabilityTimes;\r\n\r\n    // Events\r\n    event DonorRegistered(address indexed donorAddress, string medicalID);\r\n    event PatientRegistered(address indexed patientAddress, string medicalID);\r\n    event DonorVerified(address indexed donorAddress);\r\n    event PatientVerified(address indexed patientAddress);\r\n    event DonorRejected(address indexed donorAddress);\r\n    event PatientRejected(address indexed patientAddress);\r\n    event MatchFound(address indexed donorAddress, address indexed patientAddress, string organ);\r\n\r\n    modifier onlyAdmin() {\r\n        require(hasRole(ADMIN_ROLE, msg.sender), \"Restricted to admins\");\r\n        _;\r\n    }\r\n\r\n    modifier onlyMedicalPro() {\r\n        require(hasRole(MEDICAL_PRO_ROLE, msg.sender), \"Restricted to medical professionals\");\r\n        _;\r\n    }\r\n\r\n    modifier onlyVerifiedDonor(address donorAddr) {\r\n        require(donorsByAddress[donorAddr].status == VerificationStatus.Verified, \"Donor not verified\");\r\n        _;\r\n    }\r\n\r\n    constructor() {\r\n        _setupRole(DEFAULT_ADMIN_ROLE, msg.sender);\r\n        _setupRole(ADMIN_ROLE, msg.sender);\r\n    }\r\n\r\n    // Admin functions\r\n    function addMedicalProfessional(address proAddress, string memory name) public onlyAdmin {\r\n        medicalPros[proAddress] = MedicalProfessional(proAddress, name, true);\r\n        _setupRole(MEDICAL_PRO_ROLE, proAddress);\r\n    }\r\n\r\n    function removeMedicalProfessional(address proAddress) public onlyAdmin {\r\n        medicalPros[proAddress].active = false;\r\n        revokeRole(MEDICAL_PRO_ROLE, proAddress);\r\n    }\r\n\r\n    // Registration functions\r\n    function addDonor(\r\n        string memory medicalID,\r\n        string memory organ,\r\n        string memory city,\r\n        string memory region,\r\n        string memory country\r\n    ) public {\r\n        require(donorsByAddress[msg.sender].donorAddress == address(0), \"Donor already registered\");\r\n        Location memory loc = Location(city, region, country);\r\n        Donor memory newDonor = Donor(msg.sender, medicalID, organ, loc, VerificationStatus.Pending, block.timestamp, BadgeType.None);\r\n        donorsByAddress[msg.sender] = newDonor;\r\n        donorsByMedicalID[medicalID] = newDonor;\r\n        emit DonorRegistered(msg.sender, medicalID);\r\n    }\r\n\r\n    function addPatient(\r\n        string memory medicalID,\r\n        string memory organNeeded,\r\n        string memory city,\r\n        string memory region,\r\n        string memory country,\r\n        UrgencyLevel urgency\r\n    ) public {\r\n        require(patientsByAddress[msg.sender].patientAddress == address(0), \"Patient already registered\");\r\n        Location memory loc = Location(city, region, country);\r\n        Patient memory newPatient = Patient(msg.sender, medicalID, organNeeded, loc, urgency, VerificationStatus.Pending, block.timestamp);\r\n        patientsByAddress[msg.sender] = newPatient;\r\n        patientsByMedicalID[medicalID] = newPatient;\r\n        emit PatientRegistered(msg.sender, medicalID);\r\n    }\r\n\r\n    // Verification functions\r\n    function verifyDonor(address donorAddr) public onlyMedicalPro {\r\n        require(donorsByAddress[donorAddr].donorAddress != address(0), \"Donor not found\");\r\n        donorsByAddress[donorAddr].status = VerificationStatus.Verified;\r\n        donorsByMedicalID[donorsByAddress[donorAddr].medicalID].status = VerificationStatus.Verified;\r\n        emit DonorVerified(donorAddr);\r\n    }\r\n\r\n    function verifyPatient(address patientAddr) public onlyMedicalPro {\r\n        require(patientsByAddress[patientAddr].patientAddress != address(0), \"Patient not found\");\r\n        patientsByAddress[patientAddr].status = VerificationStatus.Verified;\r\n        patientsByMedicalID[patientsByAddress[patientAddr].medicalID].status = VerificationStatus.Verified;\r\n        emit PatientVerified(patientAddr);\r\n    }\r\n\r\n    // Rejection functions\r\n    function rejectDonor(address donorAddr) public onlyMedicalPro {\r\n        require(donorsByAddress[donorAddr].donorAddress != address(0), \"Donor not found\");\r\n        donorsByAddress[donorAddr].status = VerificationStatus.Rejected;\r\n        donorsByMedicalID[donorsByAddress[donorAddr].medicalID].status = VerificationStatus.Rejected;\r\n        emit DonorRejected(donorAddr);\r\n    }\r\n\r\n    function rejectPatient(address patientAddr) public onlyMedicalPro {\r\n        require(patientsByAddress[patientAddr].patientAddress != address(0), \"Patient not found\");\r\n        patientsByAddress[patientAddr].status = VerificationStatus.Rejected;\r\n        patientsByMedicalID[patientsByAddress[patientAddr].medicalID].status = VerificationStatus.Rejected;\r\n        emit PatientRejected(patientAddr);\r\n    }\r\n\r\n    // Initialize organ viability times (in seconds)\r\n    function initializeOrganViabilityTimes(string[] memory organs, uint256[] memory times) public onlyAdmin {\r\n        require(organs.length == times.length, \"Arrays length mismatch\");\r\n        for (uint256 i = 0; i < organs.length; i++) {\r\n            organViabilityTimes[organs[i]] = times[i];\r\n        }\r\n    }\r\n\r\n    // Getters\r\n    function getDonorByAddress(address donorAddr) public view returns (Donor memory) {\r\n        return donorsByAddress[donorAddr];\r\n    }\r\n\r\n    function getPatientByAddress(address patientAddr) public view returns (Patient memory) {\r\n        return patientsByAddress[patientAddr];\r\n    }\r\n\r\n    // Matching algorithm (simplified for demonstration)\r\n    function matchDonorsAndPatients() public onlyMedicalPro {\r\n        // For simplicity, iterate over donors and patients and emit MatchFound if organ and location match and donor is verified\r\n        // In practice, this should be optimized and off-chain for scalability\r\n        // This is a placeholder implementation\r\n\r\n        // Note: Solidity does not support iteration over mappings, so this function would require off-chain indexing or events to track donors/patients\r\n\r\n        // Emit event for demonstration\r\n        // emit MatchFound(donorAddress, patientAddress, organ);\r\n    }\r\n\r\n    // Additional getters for all donors/patients and verified donors/patients would require off-chain indexing or arrays to store keys\r\n\r\n}\r\n",
  "sourcePath": "C:\\Users\\Admin\\Desktop\\organ-donation-dapp\\contracts\\DonorContract.sol",
  "compiler": {
    "name": "solc",
    "version": "0.8.20+commit.a1b79de6.Emscripten.clang"
  },
  "schemaVersion": "3.4.16",
  "updatedAt": "2025-05-11T10:03:54.533Z",
  "networkType": "ethereum",
  "devdoc": {
    "events": {
      "RoleAdminChanged(bytes32,bytes32,bytes32)": {
        "details": "Emitted when `newAdminRole` is set as ``role``'s admin role, replacing `previousAdminRole` `DEFAULT_ADMIN_ROLE` is the starting admin for all roles, despite {RoleAdminChanged} not being emitted signaling this. _Available since v3.1._"
      },
      "RoleGranted(bytes32,address,address)": {
        "details": "Emitted when `account` is granted `role`. `sender` is the account that originated the contract call, an admin role bearer except when using {AccessControl-_setupRole}."
      },
      "RoleRevoked(bytes32,address,address)": {
        "details": "Emitted when `account` is revoked `role`. `sender` is the account that originated the contract call:   - if using `revokeRole`, it is the admin role bearer   - if using `renounceRole`, it is the role bearer (i.e. `account`)"
      }
    },
    "kind": "dev",
    "methods": {
      "getRoleAdmin(bytes32)": {
        "details": "Returns the admin role that controls `role`. See {grantRole} and {revokeRole}. To change a role's admin, use {_setRoleAdmin}."
      },
      "grantRole(bytes32,address)": {
        "details": "Grants `role` to `account`. If `account` had not been already granted `role`, emits a {RoleGranted} event. Requirements: - the caller must have ``role``'s admin role. May emit a {RoleGranted} event."
      },
      "hasRole(bytes32,address)": {
        "details": "Returns `true` if `account` has been granted `role`."
      },
      "renounceRole(bytes32,address)": {
        "details": "Revokes `role` from the calling account. Roles are often managed via {grantRole} and {revokeRole}: this function's purpose is to provide a mechanism for accounts to lose their privileges if they are compromised (such as when a trusted device is misplaced). If the calling account had been revoked `role`, emits a {RoleRevoked} event. Requirements: - the caller must be `account`. May emit a {RoleRevoked} event."
      },
      "revokeRole(bytes32,address)": {
        "details": "Revokes `role` from `account`. If `account` had been granted `role`, emits a {RoleRevoked} event. Requirements: - the caller must have ``role``'s admin role. May emit a {RoleRevoked} event."
      },
      "supportsInterface(bytes4)": {
        "details": "See {IERC165-supportsInterface}."
      }
    },
    "version": 1
  },
  "userdoc": {
    "kind": "user",
    "methods": {},
    "version": 1
  }
}