{
  "contractName": "OrganDonation",
  "abi": [
    {
      "inputs": [],
      "stateMutability": "nonpayable",
      "type": "constructor"
    },
    {
      "anonymous": false,
      "inputs": [
        {
          "indexed": true,
          "internalType": "address",
          "name": "donor",
          "type": "address"
        }
      ],
      "name": "DonorAnnounced",
      "type": "event"
    },
    {
      "anonymous": false,
      "inputs": [
        {
          "indexed": true,
          "internalType": "address",
          "name": "patient",
          "type": "address"
        },
        {
          "indexed": false,
          "internalType": "string",
          "name": "organ",
          "type": "string"
        },
        {
          "indexed": false,
          "internalType": "uint256",
          "name": "emergencyLevel",
          "type": "uint256"
        }
      ],
      "name": "EmergencyRequestCreated",
      "type": "event"
    },
    {
      "anonymous": false,
      "inputs": [
        {
          "indexed": true,
          "internalType": "bytes32",
          "name": "matchId",
          "type": "bytes32"
        }
      ],
      "name": "MatchCompleted",
      "type": "event"
    },
    {
      "anonymous": false,
      "inputs": [
        {
          "indexed": true,
          "internalType": "bytes32",
          "name": "matchId",
          "type": "bytes32"
        },
        {
          "indexed": true,
          "internalType": "address",
          "name": "donor",
          "type": "address"
        },
        {
          "indexed": true,
          "internalType": "address",
          "name": "patient",
          "type": "address"
        },
        {
          "indexed": false,
          "internalType": "string",
          "name": "organ",
          "type": "string"
        }
      ],
      "name": "MatchCreated",
      "type": "event"
    },
    {
      "anonymous": false,
      "inputs": [
        {
          "indexed": true,
          "internalType": "address",
          "name": "user",
          "type": "address"
        },
        {
          "indexed": false,
          "internalType": "string",
          "name": "recordHash",
          "type": "string"
        }
      ],
      "name": "MedicalRecordUpdated",
      "type": "event"
    },
    {
      "anonymous": false,
      "inputs": [
        {
          "indexed": true,
          "internalType": "address",
          "name": "previousOwner",
          "type": "address"
        },
        {
          "indexed": true,
          "internalType": "address",
          "name": "newOwner",
          "type": "address"
        }
      ],
      "name": "OwnershipTransferred",
      "type": "event"
    },
    {
      "anonymous": false,
      "inputs": [
        {
          "indexed": false,
          "internalType": "address",
          "name": "account",
          "type": "address"
        }
      ],
      "name": "Paused",
      "type": "event"
    },
    {
      "anonymous": false,
      "inputs": [
        {
          "indexed": true,
          "internalType": "address",
          "name": "user",
          "type": "address"
        },
        {
          "indexed": false,
          "internalType": "uint256",
          "name": "amount",
          "type": "uint256"
        }
      ],
      "name": "RewardDistributed",
      "type": "event"
    },
    {
      "anonymous": false,
      "inputs": [
        {
          "indexed": false,
          "internalType": "address",
          "name": "account",
          "type": "address"
        }
      ],
      "name": "Unpaused",
      "type": "event"
    },
    {
      "anonymous": false,
      "inputs": [
        {
          "indexed": true,
          "internalType": "address",
          "name": "user",
          "type": "address"
        },
        {
          "indexed": false,
          "internalType": "enum OrganDonation.UserRole",
          "name": "role",
          "type": "uint8"
        }
      ],
      "name": "UserRegistered",
      "type": "event"
    },
    {
      "anonymous": false,
      "inputs": [
        {
          "indexed": true,
          "internalType": "address",
          "name": "user",
          "type": "address"
        },
        {
          "indexed": false,
          "internalType": "enum OrganDonation.UserRole",
          "name": "role",
          "type": "uint8"
        }
      ],
      "name": "UserRejected",
      "type": "event"
    },
    {
      "anonymous": false,
      "inputs": [
        {
          "indexed": true,
          "internalType": "address",
          "name": "user",
          "type": "address"
        },
        {
          "indexed": false,
          "internalType": "enum OrganDonation.UserRole",
          "name": "role",
          "type": "uint8"
        }
      ],
      "name": "UserVerified",
      "type": "event"
    },
    {
      "inputs": [
        {
          "internalType": "uint256",
          "name": "",
          "type": "uint256"
        }
      ],
      "name": "donors",
      "outputs": [
        {
          "internalType": "address",
          "name": "",
          "type": "address"
        }
      ],
      "stateMutability": "view",
      "type": "function",
      "constant": true
    },
    {
      "inputs": [
        {
          "internalType": "address",
          "name": "",
          "type": "address"
        }
      ],
      "name": "isAdmin",
      "outputs": [
        {
          "internalType": "bool",
          "name": "",
          "type": "bool"
        }
      ],
      "stateMutability": "view",
      "type": "function",
      "constant": true
    },
    {
      "inputs": [
        {
          "internalType": "bytes32",
          "name": "",
          "type": "bytes32"
        }
      ],
      "name": "matches",
      "outputs": [
        {
          "internalType": "address",
          "name": "donor",
          "type": "address"
        },
        {
          "internalType": "address",
          "name": "patient",
          "type": "address"
        },
        {
          "internalType": "string",
          "name": "organ",
          "type": "string"
        },
        {
          "internalType": "uint256",
          "name": "timestamp",
          "type": "uint256"
        },
        {
          "internalType": "bool",
          "name": "isCompleted",
          "type": "bool"
        },
        {
          "internalType": "uint256",
          "name": "emergencyLevel",
          "type": "uint256"
        }
      ],
      "stateMutability": "view",
      "type": "function",
      "constant": true
    },
    {
      "inputs": [],
      "name": "owner",
      "outputs": [
        {
          "internalType": "address",
          "name": "",
          "type": "address"
        }
      ],
      "stateMutability": "view",
      "type": "function",
      "constant": true
    },
    {
      "inputs": [
        {
          "internalType": "uint256",
          "name": "",
          "type": "uint256"
        }
      ],
      "name": "patients",
      "outputs": [
        {
          "internalType": "address",
          "name": "",
          "type": "address"
        }
      ],
      "stateMutability": "view",
      "type": "function",
      "constant": true
    },
    {
      "inputs": [],
      "name": "paused",
      "outputs": [
        {
          "internalType": "bool",
          "name": "",
          "type": "bool"
        }
      ],
      "stateMutability": "view",
      "type": "function",
      "constant": true
    },
    {
      "inputs": [],
      "name": "renounceOwnership",
      "outputs": [],
      "stateMutability": "nonpayable",
      "type": "function"
    },
    {
      "inputs": [
        {
          "internalType": "address",
          "name": "newOwner",
          "type": "address"
        }
      ],
      "name": "transferOwnership",
      "outputs": [],
      "stateMutability": "nonpayable",
      "type": "function"
    },
    {
      "inputs": [
        {
          "internalType": "address",
          "name": "",
          "type": "address"
        },
        {
          "internalType": "uint256",
          "name": "",
          "type": "uint256"
        }
      ],
      "name": "userMedicalRecords",
      "outputs": [
        {
          "internalType": "string",
          "name": "",
          "type": "string"
        }
      ],
      "stateMutability": "view",
      "type": "function",
      "constant": true
    },
    {
      "inputs": [
        {
          "internalType": "address",
          "name": "",
          "type": "address"
        }
      ],
      "name": "userRewards",
      "outputs": [
        {
          "internalType": "uint256",
          "name": "",
          "type": "uint256"
        }
      ],
      "stateMutability": "view",
      "type": "function",
      "constant": true
    },
    {
      "inputs": [
        {
          "internalType": "address",
          "name": "",
          "type": "address"
        }
      ],
      "name": "users",
      "outputs": [
        {
          "internalType": "string",
          "name": "name",
          "type": "string"
        },
        {
          "internalType": "uint256",
          "name": "age",
          "type": "uint256"
        },
        {
          "internalType": "string",
          "name": "sex",
          "type": "string"
        },
        {
          "internalType": "uint256",
          "name": "height",
          "type": "uint256"
        },
        {
          "internalType": "uint256",
          "name": "weight",
          "type": "uint256"
        },
        {
          "internalType": "string",
          "name": "bloodGroup",
          "type": "string"
        },
        {
          "internalType": "enum OrganDonation.Status",
          "name": "status",
          "type": "uint8"
        },
        {
          "internalType": "enum OrganDonation.UserRole",
          "name": "role",
          "type": "uint8"
        },
        {
          "internalType": "bool",
          "name": "isRegistered",
          "type": "bool"
        },
        {
          "internalType": "uint256",
          "name": "reputation",
          "type": "uint256"
        },
        {
          "internalType": "uint256",
          "name": "lastDonationTimestamp",
          "type": "uint256"
        },
        {
          "internalType": "string",
          "name": "medicalRecordsHash",
          "type": "string"
        }
      ],
      "stateMutability": "view",
      "type": "function",
      "constant": true
    },
    {
      "inputs": [],
      "name": "pause",
      "outputs": [],
      "stateMutability": "nonpayable",
      "type": "function"
    },
    {
      "inputs": [],
      "name": "unpause",
      "outputs": [],
      "stateMutability": "nonpayable",
      "type": "function"
    },
    {
      "inputs": [
        {
          "internalType": "address",
          "name": "_admin",
          "type": "address"
        }
      ],
      "name": "addAdmin",
      "outputs": [],
      "stateMutability": "nonpayable",
      "type": "function"
    },
    {
      "inputs": [
        {
          "internalType": "string",
          "name": "_name",
          "type": "string"
        },
        {
          "internalType": "uint256",
          "name": "_age",
          "type": "uint256"
        },
        {
          "internalType": "string",
          "name": "_sex",
          "type": "string"
        },
        {
          "internalType": "uint256",
          "name": "_height",
          "type": "uint256"
        },
        {
          "internalType": "uint256",
          "name": "_weight",
          "type": "uint256"
        },
        {
          "internalType": "string[]",
          "name": "_organs",
          "type": "string[]"
        },
        {
          "internalType": "string",
          "name": "_bloodGroup",
          "type": "string"
        },
        {
          "internalType": "string",
          "name": "_medicalRecordsHash",
          "type": "string"
        }
      ],
      "name": "registerDonor",
      "outputs": [],
      "stateMutability": "nonpayable",
      "type": "function"
    },
    {
      "inputs": [
        {
          "internalType": "string",
          "name": "_name",
          "type": "string"
        },
        {
          "internalType": "uint256",
          "name": "_age",
          "type": "uint256"
        },
        {
          "internalType": "string",
          "name": "_sex",
          "type": "string"
        },
        {
          "internalType": "uint256",
          "name": "_height",
          "type": "uint256"
        },
        {
          "internalType": "uint256",
          "name": "_weight",
          "type": "uint256"
        },
        {
          "internalType": "string[]",
          "name": "_organs",
          "type": "string[]"
        },
        {
          "internalType": "string",
          "name": "_bloodGroup",
          "type": "string"
        },
        {
          "internalType": "string",
          "name": "_medicalRecordsHash",
          "type": "string"
        }
      ],
      "name": "registerPatient",
      "outputs": [],
      "stateMutability": "nonpayable",
      "type": "function"
    },
    {
      "inputs": [
        {
          "internalType": "address",
          "name": "_user",
          "type": "address"
        }
      ],
      "name": "verifyUser",
      "outputs": [],
      "stateMutability": "nonpayable",
      "type": "function"
    },
    {
      "inputs": [
        {
          "internalType": "address",
          "name": "_user",
          "type": "address"
        }
      ],
      "name": "rejectUser",
      "outputs": [],
      "stateMutability": "nonpayable",
      "type": "function"
    },
    {
      "inputs": [],
      "name": "announceDonor",
      "outputs": [],
      "stateMutability": "nonpayable",
      "type": "function"
    },
    {
      "inputs": [
        {
          "internalType": "string",
          "name": "_organ",
          "type": "string"
        },
        {
          "internalType": "uint256",
          "name": "_emergencyLevel",
          "type": "uint256"
        }
      ],
      "name": "createEmergencyRequest",
      "outputs": [],
      "stateMutability": "nonpayable",
      "type": "function"
    },
    {
      "inputs": [
        {
          "internalType": "address",
          "name": "_patient",
          "type": "address"
        },
        {
          "internalType": "string",
          "name": "_organ",
          "type": "string"
        }
      ],
      "name": "findMatch",
      "outputs": [
        {
          "internalType": "bytes32",
          "name": "",
          "type": "bytes32"
        }
      ],
      "stateMutability": "nonpayable",
      "type": "function"
    },
    {
      "inputs": [
        {
          "internalType": "bytes32",
          "name": "_matchId",
          "type": "bytes32"
        }
      ],
      "name": "completeMatch",
      "outputs": [],
      "stateMutability": "nonpayable",
      "type": "function"
    },
    {
      "inputs": [
        {
          "internalType": "string",
          "name": "_recordHash",
          "type": "string"
        }
      ],
      "name": "updateMedicalRecords",
      "outputs": [],
      "stateMutability": "nonpayable",
      "type": "function"
    },
    {
      "inputs": [],
      "name": "claimReward",
      "outputs": [],
      "stateMutability": "nonpayable",
      "type": "function"
    },
    {
      "inputs": [],
      "name": "getPendingUsers",
      "outputs": [
        {
          "internalType": "address[]",
          "name": "",
          "type": "address[]"
        }
      ],
      "stateMutability": "view",
      "type": "function",
      "constant": true
    },
    {
      "inputs": [],
      "name": "getVerifiedDonors",
      "outputs": [
        {
          "internalType": "address[]",
          "name": "",
          "type": "address[]"
        }
      ],
      "stateMutability": "view",
      "type": "function",
      "constant": true
    },
    {
      "inputs": [],
      "name": "getAvailableDonors",
      "outputs": [
        {
          "internalType": "address[]",
          "name": "",
          "type": "address[]"
        }
      ],
      "stateMutability": "view",
      "type": "function",
      "constant": true
    },
    {
      "inputs": [],
      "name": "getVerifiedPatients",
      "outputs": [
        {
          "internalType": "address[]",
          "name": "",
          "type": "address[]"
        }
      ],
      "stateMutability": "view",
      "type": "function",
      "constant": true
    },
    {
      "inputs": [
        {
          "internalType": "address",
          "name": "_user",
          "type": "address"
        }
      ],
      "name": "getUserMedicalRecords",
      "outputs": [
        {
          "internalType": "string[]",
          "name": "",
          "type": "string[]"
        }
      ],
      "stateMutability": "view",
      "type": "function",
      "constant": true
    },
    {
      "inputs": [
        {
          "internalType": "bytes32",
          "name": "_matchId",
          "type": "bytes32"
        }
      ],
      "name": "getMatchDetails",
      "outputs": [
        {
          "components": [
            {
              "internalType": "address",
              "name": "donor",
              "type": "address"
            },
            {
              "internalType": "address",
              "name": "patient",
              "type": "address"
            },
            {
              "internalType": "string",
              "name": "organ",
              "type": "string"
            },
            {
              "internalType": "uint256",
              "name": "timestamp",
              "type": "uint256"
            },
            {
              "internalType": "bool",
              "name": "isCompleted",
              "type": "bool"
            },
            {
              "internalType": "uint256",
              "name": "emergencyLevel",
              "type": "uint256"
            }
          ],
          "internalType": "struct OrganDonation.Match",
          "name": "",
          "type": "tuple"
        }
      ],
      "stateMutability": "view",
      "type": "function",
      "constant": true
    },
    {
      "inputs": [
        {
          "internalType": "enum OrganDonation.Status",
          "name": "_status",
          "type": "uint8"
        }
      ],
      "name": "getUsersByStatus",
      "outputs": [
        {
          "internalType": "address[]",
          "name": "",
          "type": "address[]"
        }
      ],
      "stateMutability": "view",
      "type": "function",
      "constant": true
    },
    {
      "inputs": [
        {
          "internalType": "enum OrganDonation.UserRole",
          "name": "_role",
          "type": "uint8"
        }
      ],
      "name": "getUsersByRole",
      "outputs": [
        {
          "internalType": "address[]",
          "name": "",
          "type": "address[]"
        }
      ],
      "stateMutability": "view",
      "type": "function",
      "constant": true
    },
    {
      "inputs": [
        {
          "internalType": "enum OrganDonation.UserRole",
          "name": "_role",
          "type": "uint8"
        },
        {
          "internalType": "enum OrganDonation.Status",
          "name": "_status",
          "type": "uint8"
        }
      ],
      "name": "getUsersByRoleAndStatus",
      "outputs": [
        {
          "internalType": "address[]",
          "name": "",
          "type": "address[]"
        }
      ],
      "stateMutability": "view",
      "type": "function",
      "constant": true
    }
  ],
  "bytecode": "0x6080806040523461007b575f8054336001600160a01b0319821681178355906001600160a01b03167f8be0079c531659141344cd1fd0a4f28419497f9722a3daafe3b4186f6b6457e08380a3600180556001604060ff199283600254166002553381526004602052209182541617905561304c90816100808239f35b5f80fdfe6080806040526004361015610012575f80fd5b5f3560e01c9081630660f1e81461258d57508063097b6cc71461245057806318d3b3d21461234a5780631f8e3d231461224057806324d7806c14612203578063335dc50e146120125780633f4ba83a14611f7f5780634abfa16314611f565780634d81312014611e835780634dc9288514611dad5780634f54f4d814611cb2578063596ccad514611a325780635c975abb14611a105780635d0cc7781461188b5780636e3aa76b146117ab5780637048027514611767578063715018a6146117235780638456cb59146116ca5780638da5cb5b146116a357806393119a831461166157806396506a12146115e55780639f986efe14610e445780639fe9ada314610dbb578063a87430ba14610ca1578063a8fd88f614610a03578063b88a802f14610972578063bce8c901146107fd578063d2d3dfac14610679578063ddb7a4de14610644578063decd382f1461053a578063f2fde38b1461048f578063fb8182c1146103af5763fe09b5ec14610187575f80fd5b346103ab575f3660031901126103ab576008545f805b82811061034a5750600954905f5b8281106102e957506101bc90612e7d565b915f905f5b8181106102745750505f5b8281106101e557604051806101e186826125d7565b0390f35b6101ee81612646565b60018060a01b03809254600392831b1c165f528060205260ff600760405f200154166005811015610260571561022f575b505061022a90612ca9565b6101cc565b9261025891839461024261022a95612646565b9054911b1c166102528288612eaf565b52612ca9565b91905f61021f565b634e487b7160e01b5f52602160045260245ffd5b61027d8161261a565b60018060a01b03809254600392831b1c165f528060205260ff600760405f20015416600581101561026057156102be575b50506102b990612ca9565b6101c1565b936102e19183956102d16102b99561261a565b9054911b1c166102528289612eaf565b92905f6102ae565b6102f281612646565b9054600391821b1c6001600160a01b03165f908152602091909152604090206007015460ff1660058110156102605715610335575b61033090612ca9565b6101ab565b9061034261033091612ca9565b919050610327565b6103538161261a565b9054600391821b1c6001600160a01b03165f908152602091909152604090206007015460ff1660058110156102605715610396575b61039190612ca9565b61019d565b906103a361039191612ca9565b919050610388565b5f80fd5b346103ab576020806003193601126103ab576001600160a01b036103d16125c1565b165f526007815260405f20908154916103e983612783565b926103f7604051948561270b565b80845282840180925f52835f205f915b83831061046d5750505050604051918083019381845251809452604083019360408160051b85010192915f955b8287106104415785850386f35b90919293828061045d600193603f198a82030186528851612694565b9601920196019592919092610434565b600186819261047e859a999a6128d6565b815201920192019190959495610407565b346103ab5760203660031901126103ab576104a86125c1565b6104b0612984565b6001600160a01b039081169081156104e6575f548260018060a01b03198216175f55165f80516020612fd78339815191525f80a3005b60405162461bcd60e51b815260206004820152602660248201527f4f776e61626c653a206e6577206f776e657220697320746865207a65726f206160448201526564647265737360d01b6064820152608490fd5b346103ab575f3660031901126103ab576008545f805b8281106105e1575061056190612e7d565b905f805b82811061057a57604051806101e186826125d7565b6105838161261a565b60018060a01b03809254600392831b1c165f528060205260ff600760405f200154166005811015610260576001146105c6575b50506105c190612ca9565b610565565b926105d99183946102426105c19561261a565b9190856105b6565b6105ea8161261a565b9054600391821b1c6001600160a01b03165f908152602091909152604090206007015460ff1660058110156102605760011461062f575b61062a90612ca9565b610550565b9061063c61062a91612ca9565b919050610621565b346103ab5760203660031901126103ab5760043560028110156103ab5761066d6101e191612ec3565b604051918291826125d7565b346103ab5760403660031901126103ab576004356001600160401b0381116103ab576106a990369060040161272e565b6106b16129db565b335f52602090600382526106d160ff600760405f20015460101c16612be6565b335f526003825260ff600760405f20015460081c166002811015610260576001036107a457335f526003825260ff600760405f2001541660058110156102605760010361075f577f6f3cdb9b79227bfd5cec2cab2df593061804d0a3055d5ab2962a056157209daa9061074f60405191604083526040830190612694565b92602435908201528033930390a2005b60405162461bcd60e51b815260048101839052601e60248201527f50617469656e74206d75737420626520766572696669656420666972737400006044820152606490fd5b60405162461bcd60e51b815260048101839052602b60248201527f4f6e6c792070617469656e74732063616e2063726561746520656d657267656e60448201526a637920726571756573747360a81b6064820152608490fd5b346103ab5760403660031901126103ab5760043560028110156103ab5760248035916005918284101591826103ab5761096a576008915b604051928390818154918287526020809701905f52865f20925f5b8882821061094b575050506108669250038261270b565b6108708151612e7d565b915f935f5b8351811015610901576001600160a01b03806108918387612eaf565b51165f52600388528360ff600760405f20015416906108ee57898110156108ee578a146108c8575b506108c390612ca9565b610875565b81966108e7916108db6108c39488612eaf565b51166102528289612eaf565b95906108b9565b83634e487b7160e01b5f5260216004525ffd5b848661090c81612e7d565b915f5b82811061092457604051806101e186826125d7565b610946906001600160a01b0361093a8285612eaf565b51166102528287612eaf565b61090f565b85546001600160a01b031684526001958601958795509301920161084f565b600991610834565b346103ab575f3660031901126103ab5761098a6129db565b335f52600560205260405f2054156109c857335f52600560205260405f205f815491556040519081525f80516020612fb783398151915260203392a2005b60405162461bcd60e51b81526020600482015260136024820152724e6f207265776172647320746f20636c61696d60681b6044820152606490fd5b346103ab57610a113661279a565b95949094939193335f526003602052610a3760ff600760405f20015460101c1615612a1f565b610a3f6129db565b60405197610a4c896126d4565b8852602088015260408701526060860152608085015260a084015260c08301525f60e0830152600161010083015260016101208301525f6101408301525f610160830152610180820152335f52600360205260405f20610aad825182612a7b565b60208201516001820155610ac8604083015160028301612a7b565b606082015160038201556080820151600482015560a0820151805190600160401b8211610bfb576005830154826005850155808310610c2c575b50602001600583015f5260205f205f915b838310610c0f578585610b2d60c083015160068301612a7b565b6007810160e0830151600581101561026057610b499082612b77565b610100830151600281101561026057610ba7938261018092600a945461ff0062ff0000610120860151151560101b169260081b169062ffff001916171790556101408101516008850155610160810151600985015501519101612a7b565b600954600160401b811015610bfb57806001610bc69201600955612646565b81549060031b9033821b9160018060a01b03901b1916179055604051600181525f80516020612ff783398151915260203392a2005b634e487b7160e01b5f52604160045260245ffd5b6001602082610c2083945186612a7b565b01920192019190610b13565b600584015f5260205f20908382015b8183018110610c4b575050610b02565b80610c586001925461289e565b80610c65575b5001610c3b565b601f908181118414610c7d5750505f81555b88610c5e565b610c985f9284845260208420920160051c8201858301612a65565b81835555610c77565b346103ab5760203660031901126103ab576001600160a01b03610cc26125c1565b165f526003602052610d4460405f20610cda816128d6565b906001810154610cec600283016128d6565b90600383015492610d6c600482015494610d08600684016128d6565b600784015496610d5460ff891699600887015498610d2d600a60098a015499016128d6565b9860206040519e8f94610180808752860190612694565b9301528c820360408e0152612694565b9260608b015260808a015288820360a08a0152612694565b9260058610156102605760ff6101e195889760c0890152610d9560e08901838360081c16612977565b60101c161515610100870152610120860152610140850152838203610160850152612694565b346103ab5760203660031901126103ab576004355f52600660205260405f2060018060a01b03808254169060018301541691610df9600282016128d6565b600382015491610e2e600560ff600484015416920154926040519687968752602087015260c0604087015260c0860190612694565b9260608501521515608084015260a08301520390f35b346103ab5760403660031901126103ab57610e5d6125c1565b6024356001600160401b0381116103ab57610e7c90369060040161272e565b335f526004602052610e9460ff60405f205416612b8f565b610e9c6129db565b6001600160a01b0382165f90815260036020526040902060070154601081901c60ff1690816115cb575b5015611594576001600160a01b0382165f9081526003602052604090206007015460ff16600581101561026057600103611554575f80916040516020810190610f2281610f14858986612c7e565b03601f19810183528261270b565b5190205f526006602052600560405f200154925f90600854915b828110611124575050506001600160a01b038216156110e557600a54604080516020810192909252428282015281526001600160401b036060820190811190821117610bfb577fe3fad30513b8ca15196b14ac584c946469afdad46e6590412d1abe7e90b131a16110da602096606084016040528351888501209684610fc560608a97016126b9565b60018060a01b03881660608201526005608082019260018060a01b038516845260a0830189815261105160c085019142835260e08601965f885261010087019485528b5f528f6006905260405f2096606060018060a01b039101511660018060a01b03199081895416178855600188019160018060a01b03905116908254161790555160028601612a7b565b51600384015560048301935115159360ff199460ff8683541691161790555191015560018060a01b0387165f5260038952600760405f200160048282541617905560018060a01b0382165f526004600760405f2001918254161790556001600a5401600a5560405191829189835260018060a01b03169660018060a01b03169589830190612694565b0390a4604051908152f35b60405162461bcd60e51b8152602060048201526017602482015276139bc81cdd5a5d18589b19481b585d18da08199bdd5b99604a1b6044820152606490fd5b61112d8161261a565b60018060a01b0391549060031b1c16805f52600360205260ff600760405f2001541660058110156102605760031461116f575b5061116a90612ca9565b610f3c565b5f60018060a01b0389165f5260036020526111ac600660405f2001835f526111a66111a0600660405f2001926128d6565b916128d6565b90612ce9565b61154c575b60018060a01b0389165f5260036020526111e56111e0600160405f200154845f52600160405f20015490612cd1565b612e4e565b6005811161151857506032810181116113c9576032015b60018060a01b0389165f52600360205261122b6111e0600360405f200154845f52600360405f20015490612cd1565b60018060a01b038a165f52600360205261125a6111e0600460405f200154855f52600460405f20015490612cd1565b90600581116114fd5750906019810181116113c957601901905b600581116114e457506019810181116113c9576019015b815f526003602052600860405f20015490818060011b04600214821517156113c9576112ba9160011b90612cc4565b80825f526003602052600960405f20015480611474575b5050815f526003602052600a6112ec8160405f20015461289e565b611463575b508860405161130981610f148a602083019586612c7e565b5190205f5260066020526003600560405f200154145f146113dd576032810181116113c9576032015b6003880361135d5783811161134f575b505061116a905b90611160565b909550915061116a88611342565b838111806113af575b8061138a575b61137c575b505061116a90611349565b909550915061116a88611371565b50815f52600360205262ed4e006113a8600960405f20015442612cb7565b101561136c565b50815f5260036020526005600860405f2001541015611366565b634e487b7160e01b5f52601160045260245ffd5b886040516113f481610f148a602083019586612c7e565b5190205f5260066020526002600560405f200154145f1461142157601e810181116113c957601e01611332565b8860405161143881610f148a602083019586612c7e565b5190205f5260066020526001600560405f2001540361133257600f810181116113c957600f01611332565b9081810181116113c95701896112f1565b61147e9042612cb7565b6301e1338081106114a0575050600f810181116113c957600f015b89806112d1565b62ed4e0081106114be575050600a810181116113c957600a01611499565b6276a70011156114cf575b50611499565b90506005810181116113c957600501896114c9565b600a1061128b57600f810181116113c957600f0161128b565b600a106112745790600f810181116113c957600f0190611274565b600a81116115335750601e810181116113c957601e016111fc565b600f106111fc576014810181116113c9576014016111fc565b5060646111b1565b60405162461bcd60e51b815260206004820152601860248201527714185d1a595b9d081b5d5cdd081899481d995c9a599a595960421b6044820152606490fd5b60405162461bcd60e51b815260206004820152600f60248201526e125b9d985b1a59081c185d1a595b9d608a1b6044820152606490fd5b60ff915060081c1660028110156102605760011483610ec6565b346103ab5760403660031901126103ab576115fe6125c1565b6001600160a01b03165f9081526007602052604090208054602435908110156103ab5761162a9161265e565b61164e5761163a6101e1916128d6565b604051918291602083526020830190612694565b634e487b7160e01b5f525f60045260245ffd5b346103ab5760203660031901126103ab576004356009548110156103ab5761168a602091612646565b905460405160039290921b1c6001600160a01b03168152f35b346103ab575f3660031901126103ab575f546040516001600160a01b039091168152602090f35b346103ab575f3660031901126103ab576116e2612984565b6116ea6129db565b600160ff1960025416176002557f62e78cea01bee320cd4e420270b5ea74000d11b0c9f74754ebdbfc544b05a2586020604051338152a1005b346103ab575f3660031901126103ab5761173b612984565b5f80546001600160a01b0319811682556001600160a01b03165f80516020612fd78339815191528280a3005b346103ab5760203660031901126103ab576117806125c1565b611788612984565b6001600160a01b03165f908152600460205260409020805460ff19166001179055005b346103ab576020806003193601126103ab576004356001600160401b0381116103ab576117dc90369060040161272e565b6117e46129db565b335f526003825261180160ff600760405f20015460101c16612be6565b335f526003825261181881600a60405f2001612a7b565b335f526007825260405f208054600160401b811015610bfb576118409160018201815561265e565b61164e57816118737f1e4a3aa86f1bd77fc9038887ebf88d1ce21f840aaf6b59e1c0ff164001c60bf79361188693612a7b565b6040519182918583523395830190612694565b0390a2005b346103ab576020806003193601126103ab576004359060058083101590816103ab5760085492600954916118c76118c28487612cc4565b612e7d565b955f955f5b8181106119965750505f5b84811061191c5787876118e981612e7d565b915f5b82811061190157604051806101e186826125d7565b611917906001600160a01b0361093a8285612eaf565b6118ec565b61192581612646565b60018060a01b03809254600392831b1c165f528086528760ff600760405f2001541690610260578581101561026057841461196b575b505061196690612ca9565b6118d7565b9761198e91839961197e61196695612646565b9054911b1c16610252828c612eaf565b96908961195b565b61199f8161261a565b60018060a01b03809254600392831b1c165f528087528860ff600760405f200154169061026057868110156102605785146119e5575b50506119e090612ca9565b6118cc565b98611a0891839a6119f86119e09561261a565b9054911b1c16610252828d612eaf565b97908a6119d5565b346103ab575f3660031901126103ab57602060ff600254166040519015158152f35b346103ab57611afa611a433661279a565b9097929491959697335f526003602052611a6a60ff600760405f20015460101c1615612a1f565b611a726129db565b60405198611a7f8a6126d4565b89526020890197885260408901928352606089019485526080890195865260a0890196875260c08901525f60e08901525f61010089015260016101208901525f6101408901525f610160890152610180880152335f52600360205260405f2095611aea885188612a7b565b5160018701555160028601612a7b565b51600384015551600483015551805190600160401b8211610bfb576005830154826005850155808310611c3d575b50602001600583015f5260205f205f915b838310611c20578585611b5360c083015160068301612a7b565b6007810160e0830151600581101561026057611b6f9082612b77565b610100830151600281101561026057611bcd938261018092600a945461ff0062ff0000610120860151151560101b169260081b169062ffff001916171790556101408101516008850155610160810151600985015501519101612a7b565b600854600160401b811015610bfb57806001611bec920160085561261a565b81549060031b9033821b9160018060a01b03901b19161790556040515f81525f80516020612ff783398151915260203392a2005b6001602082611c3183945186612a7b565b01920192019190611b39565b600584015f5260205f20908382015b8183018110611c5c575050611b28565b80611c696001925461289e565b80611c76575b5001611c4c565b601f908181118414611c8e5750505f81555b88611c6f565b611ca95f9284845260208420920160051c8201858301612a65565b81835555611c88565b346103ab576020806003193601126103ab575f60a0604051611cd3816126b9565b82815282848201526060604082015282606082015282608082015201526004355f526006815260405f2060405190611d0a826126b9565b80546001600160a01b0390811683526001820154811683850190815290939091611d94611d39600283016128d6565b604086019081528660038401549560608801968752600560ff6004870154169560808a01961515875201549560a08901968752604051998a99828b52511690890152511660408701525160c0606087015260e0860190612694565b9251608085015251151560a08401525160c08301520390f35b346103ab576020806003193601126103ab57611dc76125c1565b335f5260048252611dde60ff60405f205416612b8f565b611de66129db565b60018060a01b031690815f5260038152611e0c60ff600760405f20015460101c16612be6565b815f526003815260ff600760405f2001541690600582101561026057611e537fcd4eb963afd28b49c30fe30617b66449f6200ed9740e3ecb5cf57d7b461466419215612c28565b825f526003815260ff611e80600760405f2001600283198254161780915560405192839160081c16612977565ba2005b346103ab576020806003193601126103ab57611e9d6125c1565b335f5260048252611eb460ff60405f205416612b8f565b611ebc6129db565b60018060a01b031690815f5260038152611ee260ff600760405f20015460101c16612be6565b815f526003815260ff600760405f2001541690600582101561026057611f297f3e60282061aa9f0ac8f17cb522ab49946225e94f8597d84e6504593ee06a81e09215612c28565b825f526003815260ff611e80600760405f2001600183198254161780915560405192839160081c16612977565b346103ab5760203660031901126103ab576004356008548110156103ab5761168a60209161261a565b346103ab575f3660031901126103ab57611f97612984565b60025460ff811615611fd65760ff19166002557f5db9ee0a495bf2e6ff9c91a7834c1ba4fdd244a5e8aa4e537bd38aeae4b073aa6020604051338152a1005b60405162461bcd60e51b815260206004820152601460248201527314185d5cd8589b194e881b9bdd081c185d5cd95960621b6044820152606490fd5b346103ab576020806003193601126103ab5760043590335f526004815261203f60ff60405f205416612b8f565b6120476129db565b815f5260069081815260018060a01b038060405f205416156121c757835f5282825260ff600460405f2001541661218857835f5282825260405f2081600482019160ff199260018482541617905554165f5260038352600760405f2001600182825416179055845f5283835281600160405f200154165f52600383526001600760405f200191825416179055835f528282528060405f2054165f5260038252600860405f2001805490600a82018092116113c95755835f528282528060405f2054165f526003825242600960405f200155835f528282528060405f2054165f526005825260405f20928354606481018091116113c9575f80516020612fb7833981519152945560405194807fbc33d2b4c97953c4a5b36646273059e12c638409a1a311a1e86646f2057fcb145f80a25f52825260405f2054169260648152a2005b60405162461bcd60e51b815260048101839052601760248201527613585d18da08185b1c9958591e4818dbdb5c1b195d1959604a1b6044820152606490fd5b60405162461bcd60e51b815260048101839052601460248201527313585d18da08191bd95cc81b9bdd08195e1a5cdd60621b6044820152606490fd5b346103ab5760203660031901126103ab576001600160a01b036122246125c1565b165f526004602052602060ff60405f2054166040519015158152f35b346103ab575f3660031901126103ab576009545f805b8281106122e7575061226790612e7d565b905f805b82811061228057604051806101e186826125d7565b61228981612646565b60018060a01b03809254600392831b1c165f528060205260ff600760405f200154166005811015610260576001146122cc575b50506122c790612ca9565b61226b565b926122df9183946102426122c795612646565b9190856122bc565b6122f081612646565b9054600391821b1c6001600160a01b03165f908152602091909152604090206007015460ff16600581101561026057600114612335575b61233090612ca9565b612256565b9061234261233091612ca9565b919050612327565b346103ab575f3660031901126103ab576008545f805b8281106123f0575061237190612e7d565b905f805b82811061238a57604051806101e186826125d7565b6123938161261a565b60018060a01b03809254600392831b1c165f528060205260ff600760405f2001541660058110156102605781146123d5575b50506123d090612ca9565b612375565b926123e89183946102426123d09561261a565b9190856123c5565b6123f98161261a565b9054600391821b1c6001600160a01b03165f9081526020829052604090206007015460ff166005811015610260571461243b575b61243690612ca9565b612360565b9061244861243691612ca9565b91905061242d565b346103ab575f3660031901126103ab576124686129db565b335f5260206003815261248760ff600760405f20015460101c16612be6565b335f526003815260ff600760405f20015460081c1660028110156102605761254e57335f526003815260ff600760405f2001541660058110156102605760010361250b57600390335f5252600760405f2001600360ff19825416179055337f82bebc53733440b1218a99c573a4a562a00d9c67a52cf523c01f5512bc6862d65f80a2005b6064906040519062461bcd60e51b82526004820152601c60248201527b111bdb9bdc881b5d5cdd081899481d995c9a599a595908199a5c9cdd60221b6044820152fd5b6064906040519062461bcd60e51b8252600482015260186024820152774f6e6c7920646f6e6f72732063616e20616e6e6f756e636560401b6044820152fd5b346103ab5760203660031901126103ab576020906001600160a01b036125b16125c1565b165f526005825260405f20548152f35b600435906001600160a01b03821682036103ab57565b602090816040818301928281528551809452019301915f5b8281106125fd575050505090565b83516001600160a01b0316855293810193928101926001016125ef565b6008548110156126325760085f5260205f2001905f90565b634e487b7160e01b5f52603260045260245ffd5b6009548110156126325760095f5260205f2001905f90565b8054821015612632575f5260205f2001905f90565b5f5b8381106126845750505f910152565b8181015183820152602001612675565b906020916126ad81518092818552858086019101612673565b601f01601f1916010190565b60c081019081106001600160401b03821117610bfb57604052565b6101a081019081106001600160401b03821117610bfb57604052565b604081019081106001600160401b03821117610bfb57604052565b601f909101601f19168101906001600160401b03821190821017610bfb57604052565b81601f820112156103ab578035906001600160401b038211610bfb5760405192612762601f8401601f19166020018561270b565b828452602083830101116103ab57815f926020809301838601378301015290565b6001600160401b038111610bfb5760051b60200190565b906101006003198301126103ab576001600160401b0390600480358381116103ab57846127c891830161272e565b936024908135946044358181116103ab57826127e591860161272e565b94606435946084359460a4358481116103ab57856023820112156103ab57808301359161281183612783565b9261281f604051948561270b565b808452602092828486019260051b820101928984116103ab57808201925b848410612879575050505050509360c4358481116103ab578161286191840161272e565b9360e4359081116103ab57612876920161272e565b90565b83358a81116103ab5786916128938d85859488010161272e565b81520193019261283d565b90600182811c921680156128cc575b60208310146128b857565b634e487b7160e01b5f52602260045260245ffd5b91607f16916128ad565b9060405191825f8254926128e98461289e565b9081845260019485811690815f146129545750600114612914575b50506129129250038361270b565b565b909391505f52602090815f20935f915b81831061293c57505061291293508201015f80612904565b85548884018501529485019487945091830191612924565b91505061291294506020925060ff191682840152151560051b8201015f80612904565b9060028210156102605752565b5f546001600160a01b0316330361299757565b606460405162461bcd60e51b815260206004820152602060248201527f4f776e61626c653a2063616c6c6572206973206e6f7420746865206f776e65726044820152fd5b60ff600254166129e757565b60405162461bcd60e51b815260206004820152601060248201526f14185d5cd8589b194e881c185d5cd95960821b6044820152606490fd5b15612a2657565b60405162461bcd60e51b8152602060048201526017602482015276155cd95c88185b1c9958591e481c9959da5cdd195c9959604a1b6044820152606490fd5b818110612a70575050565b5f8155600101612a65565b81519192916001600160401b038111610bfb57612a98825461289e565b601f8111612b3c575b50602080601f8311600114612adc5750819293945f92612ad1575b50508160011b915f199060031b1c1916179055565b015190505f80612abc565b90601f19831695845f52825f20925f905b888210612b2457505083600195969710612b0c575b505050811b019055565b01515f1960f88460031b161c191690555f8080612b02565b80600185968294968601518155019501930190612aed565b612b6790835f5260205f20601f840160051c81019160208510612b6d575b601f0160051c0190612a65565b5f612aa1565b9091508190612b5a565b9060058110156102605760ff80198354169116179055565b15612b9657565b60405162461bcd60e51b815260206004820152602260248201527f4f6e6c792061646d696e2063616e20706572666f726d2074686973206163746960448201526137b760f11b6064820152608490fd5b15612bed57565b60405162461bcd60e51b8152602060048201526013602482015272155cd95c881b9bdd081c9959da5cdd195c9959606a1b6044820152606490fd5b15612c2f57565b60405162461bcd60e51b815260206004820152602160248201527f5573657220616c7265616479207665726966696564206f722072656a656374656044820152601960fa1b6064820152608490fd5b6014929160018060601b03199060601b168152612ca48251809360208685019101612673565b010190565b5f1981146113c95760010190565b919082039182116113c957565b919082018092116113c957565b81810392915f1380158285131691841216176113c957565b90604091825190602091612d19838281612d0c8183019687815193849201612673565b810103808452018261270b565b519020918351612d38838281612d0c8183019687815193849201612673565b51902091828114612e4557835182810190614f2d60f01b825260028152612d5e816126f0565b5190208114612e4557835190828201614f2b60f01b9283825260028152612d84816126f0565b51902014612d9457505050505f90565b835182810191825260028152612da9816126f0565b5190208214928315612e1d575b8315612df5575b8315612dca575b50505090565b9091925051908101906241422b60e81b825260038152612de9816126f0565b519020145f8080612dc4565b809350518181019061422b60f01b825260028152612e12816126f0565b519020821492612dbd565b809350518181019061412b60f01b825260028152612e3a816126f0565b519020821492612db6565b50505050600190565b5f808212612e5a575090565b600160ff1b8214612e69570390565b634e487b7160e01b81526011600452602490fd5b90612e8782612783565b612e94604051918261270b565b8281528092612ea5601f1991612783565b0190602036910137565b80518210156126325760209160051b010190565b600281101561026057612f4357604051600880548083525f9182527ff3f7a9fe364faab93b216da50a3214154f22a0a2b415b23a84c8169e8b636ee3918391602080840192905b828210612f20575050506128769250038261270b565b85546001600160a01b031684526001958601958795509381019390910190612f0a565b604051600980548083525f9182527f6e1540171b6c0c960b71a7020d9f60077f6af931a8bbf590da0223dacf75c7af918391602080840192905b828210612f93575050506128769250038261270b565b85546001600160a01b031684526001958601958795509381019390910190612f7d56fee34918ff1c7084970068b53fd71ad6d8b04e9f15d3886cbf006443e6cdc52ea68be0079c531659141344cd1fd0a4f28419497f9722a3daafe3b4186f6b6457e08e18574f8a7333e6a87112742a55853a643e2f0550f4e1a3a2c3f1bb2994441da26469706673582212208555e325dea56494f16fee81e12e774c39dfcb240c29605c2bedcebbce5b3f4464736f6c63430008140033",
  "immutableReferences": {},
  "source": "// SPDX-License-Identifier: MIT\npragma solidity ^0.8.20;\n\nimport \"@openzeppelin/contracts/access/Ownable.sol\";\nimport \"@openzeppelin/contracts/security/ReentrancyGuard.sol\";\nimport \"@openzeppelin/contracts/security/Pausable.sol\";\nimport \"@openzeppelin/contracts/utils/Counters.sol\";\n\ncontract OrganDonation is Ownable, ReentrancyGuard, Pausable {\n    using Counters for Counters.Counter;\n\n    enum Status { Pending, Verified, Rejected, Available, Matched }\n    enum UserRole { Donor, Patient }\n    enum EmergencyLevel { None, Low, Medium, High }\n\n    struct User {\n        string name;\n        uint256 age;\n        string sex;\n        uint256 height;\n        uint256 weight;\n        string[] organs;  // Multiple organs support\n        string bloodGroup;\n        Status status;\n        UserRole role;\n        bool isRegistered;\n        uint256 reputation;\n        uint256 lastDonationTimestamp;\n        string medicalRecordsHash;  // IPFS hash for medical records\n    }\n\n    struct Match {\n        address donor;\n        address patient;\n        string organ;\n        uint256 timestamp;\n        bool isCompleted;\n        uint256 emergencyLevel;\n    }\n\n    mapping(address => User) public users;\n    mapping(address => bool) public isAdmin;\n    mapping(address => uint256) public userRewards;\n    mapping(bytes32 => Match) public matches;\n    mapping(address => string[]) public userMedicalRecords;\n\n    address[] public donors;\n    address[] public patients;\n    Counters.Counter private _matchIds;\n\n    event UserRegistered(address indexed user, UserRole role);\n    event UserVerified(address indexed user, UserRole role);\n    event UserRejected(address indexed user, UserRole role);\n    event DonorAnnounced(address indexed donor);\n    event MatchCreated(bytes32 indexed matchId, address indexed donor, address indexed patient, string organ);\n    event MatchCompleted(bytes32 indexed matchId);\n    event EmergencyRequestCreated(address indexed patient, string organ, uint256 emergencyLevel);\n    event RewardDistributed(address indexed user, uint256 amount);\n    event MedicalRecordUpdated(address indexed user, string recordHash);\n\n    constructor() {\n        isAdmin[msg.sender] = true;\n    }\n\n    modifier onlyAdmin() {\n        require(isAdmin[msg.sender], \"Only admin can perform this action\");\n        _;\n    }\n\n    modifier notRegistered() {\n        require(!users[msg.sender].isRegistered, \"User already registered\");\n        _;\n    }\n\n    // Removed the whenNotPaused modifier declaration to use the inherited one from Pausable.sol\n\n    function pause() external onlyOwner {\n        _pause();\n    }\n\n    function unpause() external onlyOwner {\n        _unpause();\n    }\n\n    function addAdmin(address _admin) external onlyOwner {\n        isAdmin[_admin] = true;\n    }\n\n    function registerDonor(\n        string memory _name,\n        uint256 _age,\n        string memory _sex,\n        uint256 _height,\n        uint256 _weight,\n        string[] memory _organs,\n        string memory _bloodGroup,\n        string memory _medicalRecordsHash\n    ) external notRegistered whenNotPaused {\n        users[msg.sender] = User({\n            name: _name,\n            age: _age,\n            sex: _sex,\n            height: _height,\n            weight: _weight,\n            organs: _organs,\n            bloodGroup: _bloodGroup,\n            status: Status.Pending,\n            role: UserRole.Donor,\n            isRegistered: true,\n            reputation: 0,\n            lastDonationTimestamp: 0,\n            medicalRecordsHash: _medicalRecordsHash\n        });\n        donors.push(msg.sender);\n        emit UserRegistered(msg.sender, UserRole.Donor);\n    }\n\n    function registerPatient(\n        string memory _name,\n        uint256 _age,\n        string memory _sex,\n        uint256 _height,\n        uint256 _weight,\n        string[] memory _organs,\n        string memory _bloodGroup,\n        string memory _medicalRecordsHash\n    ) external notRegistered whenNotPaused {\n        users[msg.sender] = User({\n            name: _name,\n            age: _age,\n            sex: _sex,\n            height: _height,\n            weight: _weight,\n            organs: _organs,\n            bloodGroup: _bloodGroup,\n            status: Status.Pending,\n            role: UserRole.Patient,\n            isRegistered: true,\n            reputation: 0,\n            lastDonationTimestamp: 0,\n            medicalRecordsHash: _medicalRecordsHash\n        });\n        patients.push(msg.sender);\n        emit UserRegistered(msg.sender, UserRole.Patient);\n    }\n\n    function verifyUser(address _user) external onlyAdmin whenNotPaused {\n        require(users[_user].isRegistered, \"User not registered\");\n        require(users[_user].status == Status.Pending, \"User already verified or rejected\");\n        users[_user].status = Status.Verified;\n        emit UserVerified(_user, users[_user].role);\n    }\n\n    function rejectUser(address _user) external onlyAdmin whenNotPaused {\n        require(users[_user].isRegistered, \"User not registered\");\n        require(users[_user].status == Status.Pending, \"User already verified or rejected\");\n        users[_user].status = Status.Rejected;\n        emit UserRejected(_user, users[_user].role);\n    }\n\n    function announceDonor() external whenNotPaused {\n        require(users[msg.sender].isRegistered, \"User not registered\");\n        require(users[msg.sender].role == UserRole.Donor, \"Only donors can announce\");\n        require(users[msg.sender].status == Status.Verified, \"Donor must be verified first\");\n        users[msg.sender].status = Status.Available;\n        emit DonorAnnounced(msg.sender);\n    }\n\n    function createEmergencyRequest(string memory _organ, uint256 _emergencyLevel) external whenNotPaused {\n        require(users[msg.sender].isRegistered, \"User not registered\");\n        require(users[msg.sender].role == UserRole.Patient, \"Only patients can create emergency requests\");\n        require(users[msg.sender].status == Status.Verified, \"Patient must be verified first\");\n        emit EmergencyRequestCreated(msg.sender, _organ, _emergencyLevel);\n    }\n\n    function findMatch(address _patient, string memory _organ) external onlyAdmin whenNotPaused returns (bytes32) {\n        require(users[_patient].isRegistered && users[_patient].role == UserRole.Patient, \"Invalid patient\");\n        require(users[_patient].status == Status.Verified, \"Patient must be verified\");\n\n        address bestMatch;\n        uint256 highestScore;\n        uint256 emergencyLevel = matches[keccak256(abi.encodePacked(_patient, _organ))].emergencyLevel;\n\n        // First pass: Find best match among available donors\n        for (uint256 i = 0; i < donors.length; i++) {\n            address donor = donors[i];\n            if (users[donor].status == Status.Available) {\n                uint256 score = calculateMatchScore(_patient, donor, _organ);\n                \n                // Prioritize emergency cases\n                if (emergencyLevel == uint256(EmergencyLevel.High)) {\n                    if (score > highestScore) {\n                        highestScore = score;\n                        bestMatch = donor;\n                    }\n                } else {\n                    // For non-emergency cases, consider additional factors\n                    if (score > highestScore && \n                        users[donor].reputation >= 5 && \n                        block.timestamp - users[donor].lastDonationTimestamp >= 180 days) {\n                        highestScore = score;\n                        bestMatch = donor;\n                    }\n                }\n            }\n        }\n\n        require(bestMatch != address(0), \"No suitable match found\");\n\n        bytes32 matchId = keccak256(abi.encodePacked(_matchIds.current(), block.timestamp));\n        matches[matchId] = Match({\n            donor: bestMatch,\n            patient: _patient,\n            organ: _organ,\n            timestamp: block.timestamp,\n            isCompleted: false,\n            emergencyLevel: emergencyLevel\n        });\n\n        users[bestMatch].status = Status.Matched;\n        users[_patient].status = Status.Matched;\n\n        _matchIds.increment();\n        emit MatchCreated(matchId, bestMatch, _patient, _organ);\n        return matchId;\n    }\n\n    function calculateMatchScore(address _patient, address _donor, string memory _organ) internal view returns (uint256) {\n        uint256 score = 0;\n        \n        // Blood group compatibility (weight: 100)\n        if (isBloodGroupCompatible(users[_patient].bloodGroup, users[_donor].bloodGroup)) {\n            score += 100;\n        }\n\n        // Age compatibility (weight: 50)\n        uint256 ageDiff = abs(int256(users[_patient].age) - int256(users[_donor].age));\n        if (ageDiff <= 5) {\n            score += 50;\n        } else if (ageDiff <= 10) {\n            score += 30;\n        } else if (ageDiff <= 15) {\n            score += 20;\n        }\n\n        // Height and weight compatibility (weight: 25 each)\n        uint256 heightDiff = abs(int256(users[_patient].height) - int256(users[_donor].height));\n        uint256 weightDiff = abs(int256(users[_patient].weight) - int256(users[_donor].weight));\n        \n        if (heightDiff <= 5) {\n            score += 25;\n        } else if (heightDiff <= 10) {\n            score += 15;\n        }\n        \n        if (weightDiff <= 5) {\n            score += 25;\n        } else if (weightDiff <= 10) {\n            score += 15;\n        }\n\n        // Reputation bonus (weight: 20)\n        score += users[_donor].reputation * 2;\n\n        // Time since last donation (weight: 15)\n        if (users[_donor].lastDonationTimestamp > 0) {\n            uint256 timeSinceLastDonation = block.timestamp - users[_donor].lastDonationTimestamp;\n            if (timeSinceLastDonation >= 365 days) {\n                score += 15;\n            } else if (timeSinceLastDonation >= 180 days) {\n                score += 10;\n            } else if (timeSinceLastDonation >= 90 days) {\n                score += 5;\n            }\n        }\n\n        // Medical record completeness (weight: 10)\n        if (bytes(users[_donor].medicalRecordsHash).length > 0) {\n            score += 10;\n        }\n\n        // Emergency level bonus (weight: 50)\n        if (matches[keccak256(abi.encodePacked(_patient, _organ))].emergencyLevel == uint256(EmergencyLevel.High)) {\n            score += 50;\n        } else if (matches[keccak256(abi.encodePacked(_patient, _organ))].emergencyLevel == uint256(EmergencyLevel.Medium)) {\n            score += 30;\n        } else if (matches[keccak256(abi.encodePacked(_patient, _organ))].emergencyLevel == uint256(EmergencyLevel.Low)) {\n            score += 15;\n        }\n\n        return score;\n    }\n\n    function isBloodGroupCompatible(string memory _patient, string memory _donor) internal pure returns (bool) {\n        bytes32 patient = keccak256(abi.encodePacked(_patient));\n        bytes32 donor = keccak256(abi.encodePacked(_donor));\n        \n        if (patient == donor) return true;\n        \n        if (patient == keccak256(abi.encodePacked(\"O-\"))) return true;\n        if (patient == keccak256(abi.encodePacked(\"O+\"))) {\n            return donor == keccak256(abi.encodePacked(\"O+\")) || donor == keccak256(abi.encodePacked(\"A+\")) ||\n                   donor == keccak256(abi.encodePacked(\"B+\")) || donor == keccak256(abi.encodePacked(\"AB+\"));\n        }\n        // Add more blood group compatibility rules as needed\n        return false;\n    }\n\n    function completeMatch(bytes32 _matchId) external onlyAdmin whenNotPaused {\n        require(matches[_matchId].donor != address(0), \"Match does not exist\");\n        require(!matches[_matchId].isCompleted, \"Match already completed\");\n\n        matches[_matchId].isCompleted = true;\n        users[matches[_matchId].donor].status = Status.Verified;\n        users[matches[_matchId].patient].status = Status.Verified;\n        \n        // Update reputation and rewards\n        users[matches[_matchId].donor].reputation += 10;\n        users[matches[_matchId].donor].lastDonationTimestamp = block.timestamp;\n        userRewards[matches[_matchId].donor] += 100; // Example reward amount\n\n        emit MatchCompleted(_matchId);\n        emit RewardDistributed(matches[_matchId].donor, 100);\n    }\n\n    function updateMedicalRecords(string memory _recordHash) external whenNotPaused {\n        require(users[msg.sender].isRegistered, \"User not registered\");\n        users[msg.sender].medicalRecordsHash = _recordHash;\n        userMedicalRecords[msg.sender].push(_recordHash);\n        emit MedicalRecordUpdated(msg.sender, _recordHash);\n    }\n\n    function claimReward() external whenNotPaused {\n        require(userRewards[msg.sender] > 0, \"No rewards to claim\");\n        uint256 amount = userRewards[msg.sender];\n        userRewards[msg.sender] = 0;\n        // Implement reward distribution logic here\n        emit RewardDistributed(msg.sender, amount);\n    }\n\n    function abs(int256 x) internal pure returns (uint256) {\n        return uint256(x >= 0 ? x : -x);\n    }\n\n    // View functions\n    function getPendingUsers() external view returns (address[] memory) {\n        uint256 count = 0;\n        for (uint256 i = 0; i < donors.length; i++) {\n            if (users[donors[i]].status == Status.Pending) count++;\n        }\n        for (uint256 i = 0; i < patients.length; i++) {\n            if (users[patients[i]].status == Status.Pending) count++;\n        }\n\n        address[] memory pendingUsers = new address[](count);\n        uint256 index = 0;\n        for (uint256 i = 0; i < donors.length; i++) {\n            if (users[donors[i]].status == Status.Pending) {\n                pendingUsers[index] = donors[i];\n                index++;\n            }\n        }\n        for (uint256 i = 0; i < patients.length; i++) {\n            if (users[patients[i]].status == Status.Pending) {\n                pendingUsers[index] = patients[i];\n                index++;\n            }\n        }\n        return pendingUsers;\n    }\n\n    function getVerifiedDonors() external view returns (address[] memory) {\n        uint256 count = 0;\n        for (uint256 i = 0; i < donors.length; i++) {\n            if (users[donors[i]].status == Status.Verified) count++;\n        }\n\n        address[] memory verifiedDonors = new address[](count);\n        uint256 index = 0;\n        for (uint256 i = 0; i < donors.length; i++) {\n            if (users[donors[i]].status == Status.Verified) {\n                verifiedDonors[index] = donors[i];\n                index++;\n            }\n        }\n        return verifiedDonors;\n    }\n\n    function getAvailableDonors() external view returns (address[] memory) {\n        uint256 count = 0;\n        for (uint256 i = 0; i < donors.length; i++) {\n            if (users[donors[i]].status == Status.Available) count++;\n        }\n\n        address[] memory availableDonors = new address[](count);\n        uint256 index = 0;\n        for (uint256 i = 0; i < donors.length; i++) {\n            if (users[donors[i]].status == Status.Available) {\n                availableDonors[index] = donors[i];\n                index++;\n            }\n        }\n        return availableDonors;\n    }\n\n    function getVerifiedPatients() external view returns (address[] memory) {\n        uint256 count = 0;\n        for (uint256 i = 0; i < patients.length; i++) {\n            if (users[patients[i]].status == Status.Verified) count++;\n        }\n\n        address[] memory verifiedPatients = new address[](count);\n        uint256 index = 0;\n        for (uint256 i = 0; i < patients.length; i++) {\n            if (users[patients[i]].status == Status.Verified) {\n                verifiedPatients[index] = patients[i];\n                index++;\n            }\n        }\n        return verifiedPatients;\n    }\n\n    function getUserMedicalRecords(address _user) external view returns (string[] memory) {\n        return userMedicalRecords[_user];\n    }\n\n    function getMatchDetails(bytes32 _matchId) external view returns (Match memory) {\n        return matches[_matchId];\n    }\n\n    function getUsersByStatus(Status _status) external view returns (address[] memory) {\n        address[] memory result = new address[](donors.length + patients.length);\n        uint256 count = 0;\n\n        for (uint256 i = 0; i < donors.length; i++) {\n            if (users[donors[i]].status == _status) {\n                result[count] = donors[i];\n                count++;\n            }\n        }\n\n        for (uint256 i = 0; i < patients.length; i++) {\n            if (users[patients[i]].status == _status) {\n                result[count] = patients[i];\n                count++;\n            }\n        }\n\n        // Resize array to actual size\n        address[] memory finalResult = new address[](count);\n        for (uint256 i = 0; i < count; i++) {\n            finalResult[i] = result[i];\n        }\n\n        return finalResult;\n    }\n\n    function getUsersByRole(UserRole _role) external view returns (address[] memory) {\n        if (_role == UserRole.Donor) {\n            return donors;\n        } else {\n            return patients;\n        }\n    }\n\n    function getUsersByRoleAndStatus(UserRole _role, Status _status) external view returns (address[] memory) {\n        address[] memory roleUsers = _role == UserRole.Donor ? donors : patients;\n        address[] memory result = new address[](roleUsers.length);\n        uint256 count = 0;\n\n        for (uint256 i = 0; i < roleUsers.length; i++) {\n            if (users[roleUsers[i]].status == _status) {\n                result[count] = roleUsers[i];\n                count++;\n            }\n        }\n\n        // Resize array to actual size\n        address[] memory finalResult = new address[](count);\n        for (uint256 i = 0; i < count; i++) {\n            finalResult[i] = result[i];\n        }\n\n        return finalResult;\n    }\n}\n",
  "sourcePath": "C:\\Users\\Admin\\Desktop\\organ-donation-dapp\\contracts\\OrganDonation.sol",
  "compiler": {
    "name": "solc",
    "version": "0.8.20+commit.a1b79de6.Emscripten.clang"
  },
  "schemaVersion": "3.4.16",
  "updatedAt": "2025-05-11T10:03:50.610Z",
  "networkType": "ethereum",
  "devdoc": {
    "events": {
      "Paused(address)": {
        "details": "Emitted when the pause is triggered by `account`."
      },
      "Unpaused(address)": {
        "details": "Emitted when the pause is lifted by `account`."
      }
    },
    "kind": "dev",
    "methods": {
      "owner()": {
        "details": "Returns the address of the current owner."
      },
      "paused()": {
        "details": "Returns true if the contract is paused, and false otherwise."
      },
      "renounceOwnership()": {
        "details": "Leaves the contract without owner. It will not be possible to call `onlyOwner` functions. Can only be called by the current owner. NOTE: Renouncing ownership will leave the contract without an owner, thereby disabling any functionality that is only available to the owner."
      },
      "transferOwnership(address)": {
        "details": "Transfers ownership of the contract to a new account (`newOwner`). Can only be called by the current owner."
      }
    },
    "version": 1
  },
  "userdoc": {
    "kind": "user",
    "methods": {},
    "version": 1
  }
}